:0200000407FCF7
:10000000C832FC07B121FC07C521FC07DF21FC0732
:10001000F921FC07F921FC07F921FC07F921FC076C
:10002000000000000000000000000000F921FC07B3
:100030000000000000000000F921FC07F921FC0786
:100040002506FC07B920FC07A526F0076107FC0779
:10005000D906FC07F921FC07E905FC07F921FC0793
:10006000F505FC07F921FC078506FC078F06FC0750
:100070009906FC07A306FC07AD06FC07F921FC075F
:10008000A507FC07F921FC07F921FC07F921FC076A
:10009000F921FC07F921FC07F921FC07F921FC07EC
:0800A000000000008E070E00B5
:0200000407FCF7
:100110005458000652580005525453000743545394
:100120000008504F520000010000000000000000D5
:0200000407FCF7
:100130004669726D776172650000000032363332B5
:0C01400006001800B805000300000000D5
:0200000407FCF7
:100150000348854600F030FA00480047E113FC07E9
:10016000C832FC0770477047704700007FB5E4480D
:100170006B460188428889186A46118001214C002B
:1001800022181546403DED8F065B5288AD19AA181E
:10019000491CC9B21A530729F1D38189C0890818AB
:1001A00081B2D981D888002821D01889002820D090
:1001B000988800281FD0588900281ED098890028C8
:1001C0001DD0588800281CD000291CD01888002871
:1001D0000BD00720062254001C5B8C4201D2214622
:1001E000D0B2521E52B2002AF5DA04B070BD03201C
:1001F000FBE70420F9E70220F7E70520F5E70620F2
:10020000F3E70120F1E70720EFE7F0B595B0EFF352
:1002100010801090012080F31088BA48816B4A0743
:10022000520F69460A800A92816B0122C908C900EF
:100230008163B5498B8869464B800224B24B00210B
:100240009980C16A09078B0F69468B800F93C16A39
:100250000C2399430831C162052109070988090661
:10026000CB0F6946CB8005210907099309888023B4
:10027000194305231B071980A449898A4906CB0F16
:1002800069460B81A1490893898A402319439F4BF2
:100290009982016A09074B0F69464B810C93036AE7
:1002A0000E218B4303629B4D99486860FF204030CC
:1002B000A8602888A0432880974841680B071B0F37
:1002C00069468B810B934168090909010831416036
:1002D000416849064B0F6946CB810D9341687023F5
:1002E0009943603141608748403801688904CB0FE9
:1002F00069460B820293036841140B430360016853
:10030000CB07DB0F69464B820E93016811430160F6
:1003100041688903CA0D69468A8203924168CA0509
:10032000D20D6946CA82049281688903CA0D694662
:100330000A8301928168CA05D20D69464A830592F3
:100340004168764A11400322D2038918416041680E
:10035000490A4902FF314131416081686F4A1140C9
:100360000322D203891881608168490A4902FF315A
:1003700041318160642000F00FF9A8896946800747
:10038000C00F8883A8892043A8810024604F288853
:1003900000260121084328800A2000F0FDF8FF20F4
:1003A0005F4941303A680A4200D0761C401E3F1D2A
:1003B0000004000CF6D1A88A8004FCD15149886B56
:1003C000671CC208D2007807400F02438A630A20E4
:1003D00000F0E2F860004A49FCB20E52082CD5D376
:1003E00048480A99826BD208D2000A438263694660
:1003F000454A498891800F998A00C16A0C23994324
:100400001143C1620999CA0105210907098880239E
:100410009943114305221207118008998A013B492B
:10042000898A402399431143384A91820C994A00A2
:10043000016A0E2399431143016237480B994268C0
:10044000120912010A4342600D99426809017023A2
:100450009A430A434260029841032A4840380068A0
:1004600001225203904308432649403908600E9800
:10047000096849084900014322484038016003984F
:1004800042022048403840682449084010431D4A31
:10049000403A506004985268520A52020243194886
:1004A000403842600198174A4002403A92680A4038
:1004B00002431448403882601249059840398968DF
:1004C000490A490201430F484038816010980028CA
:1004D00000D0012080F3108815B0F0BD10B5114C8C
:1004E0002078002808D0FFF790FEFFF73FFE0E4966
:1004F00008700020207010BD5FF738F80120F9E780
:10050000882BFC0780100040001200402030005073
:100510008826FC070035005040200040FF01FCFF0A
:10052000C0C0C0C0E07CFC07E17CFC0710B5FF2226
:10053000154901320A60BFF34F8FBFF36F8F134924
:100540000A6013490B6840241B0A1B0223430B60FB
:100550001049898A0021C30700D03521830702D5BD
:100560007D231B021943430702D575231B0419433E
:10057000000702D53D2000060143064820380163EC
:1005800001488038026010BD80E100E080E200E0B8
:1005900008E400E0A010004000280CD000BF00BF1D
:1005A00000BF00BF00BF00BF00BF00BF00BF00BF53
:1005B00000BF401EF0D170471CB5094800900948A3
:1005C000019005460126009C05E0E36807CC334313
:1005D0000C3C98471034AC42F7D3FFF7BDFD000048
:1005E0005026FC078026FC07014801210180704746
:1005F0000E1500500A48011F0988CA0706D0028854
:1006000007239A43DC4B5B7A13430380490706D5E3
:10061000018807229143D84A927A0A4302807047A0
:10062000B810004010B5144808210180D24C618AEE
:10063000208A5EF77FFC5CF7B0FF45484188890758
:1006400003D04188032291434180018880220A43DC
:100650000280018904229143018181898907FCD5A7
:1006600041F75FFE206A0549086005480168016896
:100670004907FCD510BDC0460033005008020040B9
:100680001000004080B50A2000F01AF880BD80B547
:100690000B2000F015F880BD80B50C2000F010F89C
:1006A00080BD80B50D2000F00BF880BD80B50E2018
:1006B00000F006F880BD80B500235DF769F880BDC5
:1006C00010B504465DF770F90120A040214908608B
:1006D00010BDC046FEE70000024800881D481021FA
:1006E000016070472C13005080B54AF79CFF0B48FF
:1006F000828980210A438281027903781202D2180A
:1007000014235343064A12881207D20ED218921CA1
:10071000044B1A8082898A43828180BD0010005078
:10072000C0100050487CFC070948018904220A4394
:100730000281018840220A430280064901220A60A0
:100740004189054A11408918091D41817047C046F9
:100750000800005080E200E0FC7F000070470000CD
:1007600010B50F4CA1880F200840022809D004289A
:1007700004D00C280CD00128F4D110E001F000FDC9
:10078000F0E720880221884320802088802103E030
:1007900001F0F6FC2088012188432080E2E710BDAB
:1007A0000411005080B55CF7F8FE1D48018809056A
:1007B0000ED51C490A8805231340052B08D108884B
:1007C000042202430A80088801229043088080BDE9
:1007D0000188C90606D514498A88D20702D00A883A
:1007E000120610D40088C0060CD50F4881888907EE
:1007F00008D50188C90505D50221818001880B4AE9
:100800000A40028080BD01208880088880229043B1
:1008100008805948C0690028F4D000F05DFA80BD16
:10082000040000500002005000010050FFFE0000D4
:1008300010B50124204658F7F1FB002805D100200F
:1008400058F7ECFB0446401E8441204610BD80B59D
:10085000C1B20C2904D1A02108435F21884380BD87
:1008600008465FF779F980BD80B5C1B2A02904D1EF
:100870000C210843F321884380BD08465FF788F9BF
:1008800080BD0000022807D804490870C006000E89
:100890000349C1400348C1707047C04680BAFC0795
:1008A0000001010020BAFC07B0B50C460025202D40
:1008B00004D042F71EF860556D1CF8E70020B0BD6B
:1008C000B0B5044609480A4D402229465AF7C6FCED
:1008D00048350848302229465AF7C0FC0648001B14
:1008E0000649088014304880B0BDC046709CFC07A3
:1008F000D017F207B09CFC07B89CFFFF789CFC0760
:1009000007481E214180018803220A430280018892
:1009100004220A430280EF48012101707047C0465B
:100920000016005080B5E2480078C00708D10520C5
:1009300058F774FB00280FD12A200949085C04E00D
:100940000648417D012907D1007D41424141C21E37
:1009500050425041084380BD002080BD34BDFC079B
:10096000DCBCFC0780B503480168F248801C5CF7DA
:100970002BFB80BD8026FC07D87CFC0770477047A6
:100980007047704780B55CF7C3FB80BDF8B569461A
:10099000C870020A8A70020C4A70000E087008467D
:1009A0005CF79EFB8FBD7047704770B505460469C4
:1009B000261D3068002805D0304642F763F858F706
:1009C00054F8F6E700202861204658F74EF870BD2D
:1009D000F0B58BB01E4607920F460446109806905D
:1009E00000880890012200210B46092B13D0062510
:1009F0008D40099121463446089EDE403846012745
:100A000037407E4207462E40324326460C4609991F
:100A1000891C5B1CE9E70A92802030439E2101403B
:100A2000A08A03911D4902910190002000901C4969
:100A30000AAA132338464DF7ABFE0546002829D1F4
:100A40000897202701210591384657F793FF09960B
:100A5000064639465AF71BFC266130461E301149BE
:100A60006160A0600898008830830598E0811420B8
:100A7000E082A08A70800998C003079908433080FB
:100A8000069800887083301D41F7F4FFA08A00218A
:100A900058F7AFFA28460BB0F0BDC0467C22FC07E1
:100AA0000A1800006023FC07004870478023FC07F9
:100AB000FEB51F4616460C4614205FF725F80028A1
:100AC00019D001972778082F029615D80546418B33
:100AD000008B3A4600F096F800280FD060788D26FB
:100AE000802839D8082F0ED0072F09D0062F0CD117
:100AF00008280AD030E0FEE781262DE082262BE090
:100B0000062802D228E0072826D12E1D35462D685A
:100B1000002D0BD02979B942F9D10022304629465F
:100B200042F720F8284657F7A0FF607808300121E7
:100B300057F720FF0546617808315AF7A8FB20785F
:100B4000287162786A71A81DA11C5AF787FB30468C
:100B5000294641F7B3FF0026064802230199029A6D
:100B600058F716F821780170467058F72CF80020D5
:100B7000FEBDC04601140000F8B514460D461046EF
:100B800058F74CFA012838D114205EF7BDFF002831
:100B900021D00746418B008B3E7F324600F032F871
:100BA0000090787F010208312A781548964213D1C7
:100BB0006A7889B2931D224657F7EAFF074600205C
:100BC00038710098388068787880781D6A78A91C18
:100BD0005AF744FB0AE0FEE789B20623224657F79C
:100BE000D7FF07468020387100983880384657F77D
:100BF000EAFF0021204658F7FCF90020F8BDC04666
:100C0000140C0000B0B58BB2411C00200446092C26
:100C100009D01D46E540ED0702D0A24202D0891C52
:100C2000641CF4E7481C80B2B0BD000080B558F7E2
:100C300019FD4AF7F6F93F480121C17280BDC0464F
:100C40007047000080B5002047F75DFB394804215C
:100C5000C1725EF7DBFC80BD80B5012047F753FB16
:100C600080BD80B54AF7DDF9FFF74AFE80BD80B54B
:100C700047F795FB80BD000080B52648018801221A
:100C8000914301800A480078C00702D141F71AFD5C
:100C900004E0002041F766FD41F72CFD58F7C6FC43
:100CA00041F7CEFCFFF72CFE22480021C17280BD27
:100CB000CDB9FC0780B51F4880795CF787FD002817
:100CC00005D13648202101603220FFF765FC4AF744
:100CD000D9FC80BDD87CFC0780B5EFF310810120E2
:100CE00080F310880A4A1288120603D4094A13882E
:100CF00003431380002902D080F3108802E0002112
:100D000081F310880B49087100F006F880BDC046D9
:100D1000080000500833005080B506480649C161FC
:100D20004179012210468840002301465CF7C6FE47
:100D300080BDC046D87CFC07D90CFC07B0B5124D6D
:100D40002888400602D52888800609D40F49086AF9
:100D50000024002815D0CA69521CCA61824210D3EF
:100D60000A480024C461281F202101600848008827
:100D7000FFF712FC2888C00701D1012401E04AF7DF
:100D800081FC2046B0BDC0461410005084BAFC0758
:100D9000487CFC070148202101607047101000507A
:100DA00080B54AF7B2FCFFF785FF80BDF0B589B08A
:100DB0000F460B4940180B2800D94CE14000C046B3
:100DC00078448088400087440D0046013A0046017F
:100DD00080004601930046019F0027004601510014
:100DE000FF5FFFFF3878841CFB480C22194623461E
:100DF00057F7CEFE044600250570397841708D42C4
:100E000000D325E1A90701D15CF782F96119887047
:100E10006D1C000A3978F2E7F04805210C22022304
:100E200057F7B6FE044600206070ED480078421E79
:100E300051425141022800D10146217008E1FB488E
:100E40000C22142519462B4657F7A2FE0446F849F2
:100E500008312A465AF702FAF648017821700179DA
:100E60006170017AA170007BE070F1E0E9480C222A
:100E700008241946234657F78BFE0446FF20E071ED
:100E8000E549062238465AF70DFA002815D0387879
:100E9000797809020818B97809044018F978090620
:100EA0004018DE49086038797A79120210184860D3
:100EB000384649F77BFC0020E0710622204639467F
:100EC0005AF7CCF9B879A071C2E0D6480C220224B6
:100ED0001946234657F75CFE0446062020703878F2
:100EE00041B2002902D4032800D2A2E03020AEE0B3
:100EF000CB480C2201241946234657F749FE0446E5
:100F0000BB48C0792070A3E0B4480C2602251946DE
:100F100032462B4657F73CFE044645703878207021
:100F2000022800D281E000D18CE0032800D08FE0BD
:100F3000FFF77EFC002800D088E00896002007908C
:100F40006070204657F73FFEA64E58F708FB3088E2
:100F50004006FAD5FFF7F2FE0798C043A2490860A1
:100F6000A249082206920A8079780491A049497919
:100F700072B6A04A1060A04BD889C005800F9F4A66
:100F80001080012210468840198AC906FCD403212A
:100F90000791C901DE898E43DE8199490E897C273C
:100FA000BE43C0B24008800030430881D88CC004E2
:100FB00006D4088928400E89AE433018684008815D
:100FC0001003DE8C0642FCD00889104308818D484E
:100FD0000668042705973E4306600798C0439E8A2B
:100FE00006400392049A16439E829E8A089FBE433F
:100FF000970037439F829E8A3027BE431701039A8A
:1010000037439F82DE890640DE818888904388804E
:101010000E88072006430E809E8A15273740152F1D
:1010200000D195E00D20800293E0FFF72BFC00201B
:101030000DE0002161707CA1085C6D49C87101F070
:1010400055F805E0FFF7F4FB002807D00120607099
:10105000204657F7B8FD002009B0F0BD0896FFF70D
:101060005BFE002006906070204657F7ACFD5D4E99
:1010700058F775FA30884006FAD5FFF75FFE5B48EF
:101080000821059101807878039072B65A4FB8898B
:1010900004210843B881B88880229043B880B8887A
:1010A000402204921043B880574807910180388845
:1010B000564A02403A800698C0434E4A1060388A29
:1010C000C006FCD40323D801FA898243FA810120A7
:1010D0000690C14302914A4806890E400681494E56
:1010E0003168079A11433160B98A019399430346E5
:1010F00003980143B982B98A089EB14386000E4322
:10110000BE82B98A3026B14306010E43BE82B98938
:10111000069A1143B98199880298014099800F205D
:101120008002198B81430720C0020818188390039E
:10113000198B01431983FE8C35480188F60519D4B3
:10114000602211430180188B01990843049A1AE028
:10115000C0020F26B6020F8BB743C0190883900355
:101160000E8B06430E83DB8C088BDB051AD4079AA3
:1011700010431DE020263143049A91430180188BCF
:101180002843069988431883188B059908431883C8
:10119000188B079988431883988B10432021884324
:1011A000988314E0402318430883088B2843904316
:1011B0000883088B069A10430883088B059A90438E
:1011C0000883888B40220243202082438A8300BF09
:1011D00000BF00BF30BF3BE702A000000BA0000033
:1011E00080BAFC071410005080E100E0003300508A
:1011F000D87CFC0780E200E004000050A000FC075F
:101200000803005010ED00E000020050FFF700005E
:10121000520000500DA0000040B3F1072400004030
:1012200008A0000006A000000C09010004A00000B6
:101230003001FC0700320050F8B51E4614460D463A
:10124000104657F7EBFE01281AD0002847D114208A
:101250005EF75AFC002812D00096428B2B88018B37
:101260004E1C002109292ED01746CF40FF0704D07D
:10127000B7B27F1C9F4205D0B61C491CF2E7FEE7BF
:1012800002242DE008291ED8CFB2061D3668002E94
:1012900028D03179B942F9D17079831D1C48009961
:1012A000224657F775FC07462888388000243C7191
:1012B00070797880781D7279B11D59F7CFFF384663
:1012C00057F781FC0CE0124806230099224657F795
:1012D0005FFC298801808021017157F774FC00248C
:1012E0002046F8BD07770099090A41775EF72AFC86
:1012F00001460848012522462B4657F749FC07704E
:1013000057F761FC2046294657F773FEE7E7C046CA
:10131000140C00000214000080B52E48C01C0249C5
:10132000891C5DF7C7FA80BD982BFC0770B5174E76
:10133000B06800F02DF827494A6A00234B6215185F
:10134000084C2846214659F70FFF70610649414372
:10135000481901D0201A80B2306130680821014359
:10136000316070BD710200008FFDFFFF80B506483F
:101370000021016000F0CCFE0120C00703490A688B
:1013800082430A6080BDC046A4B9FC07300000401B
:1013900080B50246C00B09D00E48C06B00210B4639
:1013A00059F70CFF8905800A401880BD0948C06BB9
:1013B0004243900A80BDC04680B5FFF7E9FF80BD7B
:1013C00080B50449896B414303480818034959F71C
:1013D000CBFE80BDD87CFC0720A1070040420F0057
:1013E00000B59BB0CB4808270780CB4E308818AC9F
:1013F00020802088C046C046208804211491C9431B
:10140000084202D00020308003E0B08901218843E7
:10141000B081B08BC149014007201590C002081867
:10142000B083BF4C208838432080E18D0620814363
:10143000E1850125A903B28B0A43B2832188B94A09
:101440000A40228061880143B94361800C970527D7
:101450003E07718DB44AFF32E08D10407D22D200EC
:101460000F23C9050F95039216931DD41903032268
:1014700052021043E085E08D0843E085A64A908B38
:101480000C9988439083908B0421884390836088D3
:10149000A64901406180E08D0F990843E085149DC5
:1014A000708D4007FCD519E010181830E085E08DEC
:1014B0009F4901400F9AD0030818E085964B988BFE
:1014C0000C9908439883988B149DA8439883E08DCA
:1014D0009043E085988B4021884398838E4A908B77
:1014E00003210E9108439083218820231943402033
:1014F000C04301402180118C0D9319430140118498
:10150000F18A80220A9211430140F182318EFF223A
:1015100091433186318F2943182291433187318F8E
:10152000A0220A430240328782480580B08882495F
:101530000140B18081480F9C84702004804908607C
:10154000FFF7EAFE022010905DF77CF92A467D4DF8
:101550002868C1B20C20AA29014600D01146328861
:10156000824388183080C046C04677480088734957
:10157000088676480068C8622046C046C04674485F
:1015800000907448021D744C7449754B20465BF7FB
:1015900039FE6420215A0029039900D12152662185
:1015A000605A002806D12868C0B2AA280A9800D03C
:1015B0006E2060520F9909021491604C20825BF7F3
:1015C0001BFD7F206070A8696249C860E01C891C0F
:1015D0005DF71CFA634800686349884200D08DE0DB
:1015E000624C6349204659F752FE15980102614842
:1015F00059F74DFEFEF7B8FD5F486049016060484D
:10160000604930252A4659F729FE5F480027C771EF
:10161000877147710771C770877047703F211291BA
:1016200001705A485AA14022159259F717FE68488E
:10163000C77187710F994171C02101710D99C170F6
:10164000857047701699017062481197077062485B
:101650006249016062486349016063496348086008
:10166000634832210B910170624809210160624890
:101670000E99016061480B21016061480C210160F5
:1016800060480D21016060480E210160149DA81D75
:101690005E4908605E4908605E480460044600F0E8
:1016A00091FB5BF7D7FB5BF71BFC5BF735FC2D4829
:1016B00000682D49884200D1C3E0206856498860FF
:1016C000244AD0681072010ED172010C9172000A86
:1016D00050722846C03051490A46002800D1A1E086
:1016E000401E435C17783C460E9D2C40194D2C192A
:1016F000247A5C407C401470521CEEE7002048497C
:10170000464A7B02984200D96AE743588350001D3D
:10171000F7E7C0460033005004030050FFC3000049
:1017200052000050FFBF000000F0FFFFFFF9000073
:10173000FF0F000000020050FFF70000D87CFC07FC
:1017400080E200E0D07FF807D87FF807D47FF80761
:1017500000000000982BFC074C7CFC07A000FC0755
:10176000851DFC079CB8FC0765873412009CFC07AC
:10177000D01A000000B9FC072CBAFC07A023FC0714
:10178000D0B9FC0794BCF107ABB9FC075CBCFC0703
:101790002000800000C0000000000400000028229B
:1017A000000000000000040000F7C3F77E00000006
:1017B00030F00708000000000004000000000000F6
:1017C0000000000000000000000000000000000019
:1017D000B3B9FC07CDB9FC0750B9FC072A17F207CB
:1017E00054B9FC07C424FC0758B9FC07C823FC07FC
:1017F000AAB9FC075CB9FC0760B9FC0764B9FC072F
:1018000068B9FC076CB9FC0770B9FC0748B9FC075C
:1018100044B9FC074CB9FC0700020040207DFC07DE
:1018200000B0FC07F84C2034F8491C2220465CF735
:1018300027FA20465BF754FCF548F6490160149DF1
:10184000F54C206840F706FDF448119F0771C770FA
:101850000F9CA1070868284313910860FFF750F810
:10186000204600F04FFBED48C770ED480770ED488B
:10187000ED4CA0620C25ED49284657F788FB284619
:10188000394657F7B6FBEA48017BA171407C60718D
:10189000FFF742FAE148C770E1480770FFF766FDBD
:1018A0000520FEF743FEE348E3490818E3494018E2
:1018B0008008401E09900F994802029012988002F9
:1018C0000190CF03D048103016900D9C12973089AC
:1018D000000600D49AE01398006B384200D095E0DF
:1018E000CE480088C00700D090E057F738FE0025AA
:1018F000284600F007FBCC48C07A04287DD10F9819
:1019000000F000FB179517A8042149F7E1FC002817
:1019100073D00F98F749086008680028FCD1139825
:10192000C069F84B5969884201D25D612946411A64
:10193000CA09197A182A58D9C90758D1F14F7861BC
:10194000F749088807904888069088880590C888D5
:1019500004901995F448189018A8EB49EB4A5DF7E4
:101960005FF903981730EE4A11890140B981518916
:101970000140F9811089019F384002990843108184
:101980005089384008435081F64800885DF75CFA7A
:101990000890FA4B9A89E248018939401143018144
:1019A000DA89418939401F461143418159787F299D
:1019B0000ED00898421A51B2C9114A40511A49B280
:1019C000052907DBED4FB969491CB96100F01EFB21
:1019D00008987870D24806994180059981800499C9
:1019E000C18007990180129F07E0C80705D0E3492D
:1019F0008869401C886100F009FBE04800790128F3
:101A000004D1FFF757F9DD48057160E7FEF78AFF5B
:101A1000002800D15BE772B617A9119A0A70BE4878
:101A200000790228104602D0B9480068806A1890F0
:101A30001698BE4A5DF7C0FA002800D08AE0BC487C
:101A4000806A002803D0B2480068806A189000F0CD
:101A50005FFB18A916985DF7E5FA00287AD14BF7D5
:101A600031FB002873D04AF735F800286FD018A84A
:101A70005DF7FAFA00286DD101205BF799FD1898FF
:101A80000028139A06D0116AAA4BC918DA2901D87E
:101A9000401E1890B94B588AB94D69690818A86159
:101AA000D06BA54B18400843D063D06BA3490840C6
:101AB000E96989020143D163D06BA1490840A96952
:101AC00049050818D06317A804210170189A9D4889
:101AD000824200D30CE1F349086C496C002359F7AA
:101AE0006DFB0903000D4118E869821C8A4200D091
:101AF000481E894909794A1E914146F751FD92488D
:101B0000C06A80471399086B3842FCD01499814A07
:101B100010680842FCD010680A9988431060764823
:101B20004089452805D84621734A5181081ADD4964
:101B3000486240F7CAFB774A9068DA490862106841
:101B40000006FCD530890A998843308102E017A845
:101B500000210170714800780128109F00D00E9F6D
:101B600017A800780428149900D00746B81E022848
:101B700009D2308A042528433082ED4800790028B4
:101B80000CD0002772E0012F129F00D0AEE0FEF7CC
:101B9000C9FE002800D1A9E030BFA7E0022F23D062
:101BA000032F63D15F4908682843086053490889B7
:101BB0000F9CA0430881708AA8437082FFF7ACFB9A
:101BC000708A102101437182099860490860EFF31F
:101BD000108084F3108831880A9A9143318000285C
:101BE0002ED084F310882EE04E4908682843086000
:101BF000424908890F9A90430881708A10218843CE
:101C00001499708230E0C046982BFC07207DFC07B9
:101C10009CB8FC07658734124CB9FC0720BAFC0756
:101C200080BAFC077F09FC07D87CFC071422FC075C
:101C30001001FC07342500005001FC07030004F8E4
:101C4000002080F310881499708D08420D9C0BD0F1
:101C50000020EC49C8700B205BF7DCFC2849C88DDC
:101C60000F9A1043C885149900203083708D084264
:101C700005D123490888159A1043A04308801F49BD
:101C8000088C159A1043A0430884FE200740022FB9
:101C9000129F11D1B08C0F9CA043B0840D20FEF791
:101CA0007BFC708920430221884370817089400643
:101CB000FCD50B9870800D9CB08AC00602D50E48EA
:101CC0000C99018030BFB08A0D4A108820431599C5
:101CD000C94308401080094A108C204308401084F2
:101CE00000F070F80F490868A843086062B6EEE596
:101CF000FEE7C046FC0000400033005004030050E3
:101D000052000050D87CFC07982BFC074C7CFC0749
:101D100058B9FC070002004020BAFC0780BAFC0753
:101D20000015005010ED00E0010400006509FC07FB
:101D30001CBEFC07C8FEFFFF00FCFFFFFF03E0FF27
:101D4000FFFF1F0040420F0000BFFC072000F40708
:101D500080B5ED48C37954484168194800225BF7C3
:101D6000D3FB80BD982BFC0780B5E748C3794E486C
:101D7000011D134800225BF793FB80BDD87CFC0754
:101D8000982BFC0770B51E2816D10C48101849086E
:101D9000F44A0B0610D00468436808300026354624
:101DA0000835382D06D096193669A6422E46F7D149
:101DB0005419E360491EECE770BDC046D47EF807B5
:101DC0004C7CFC07F8B5E848C278EA48811C1B2027
:101DD0005BF778FC35480021016008200B210324C3
:101DE000224640F763FC324FB87D5BF7FBFC314E77
:101DF00000283BD0787DB979814203D1B97DFA7949
:101E00008A4233D0B978814203D1B97DFA788A42C7
:101E10002CD0F97A814203D1B97D3A7B8A4225D010
:101E2000397C814204D1B87D797C814201D11DE0A9
:101E3000B87D052211070B88022806D00C252B40FF
:101E4000042B00D00A22824203D14A8A1A4B134043
:101E50004B820125358000210A46FEF72CFCF97DD6
:101E6000481E8141B87D2A465BF7B0FDF87825020F
:101E700002223C46114F2946B847E079002601244A
:101E800031462246B8470A48007B14222946B84703
:101E90000748407C13223146B847064988892043C9
:101EA0008881F8BDD87CFC07982BFC07000008400F
:101EB0001001FC07000300507FFE0000B706FC077E
:101EC00003480188034A11408918091D01807047A1
:101ED00012000050FC7F0000B0B504460120084D00
:101EE000C0070BD0E88A5DF795FE002803D0826812
:101EF00028462146904718350020F1E7B0BDC0467E
:101F0000B87CFC0780B5014697480278012A0ED1BB
:101F1000084A002903D011884907FCD402E011883F
:101F2000490704D40021017038305BF70FF880BDF9
:101F3000D87CFC070016005070470000F0B58BB04D
:101F40003022002181541F221204244B1D68954326
:101F500001246204AA181A60224B234D4561234DC7
:101F6000234E244F244AC261066243621C4A8262A5
:101F7000C562224A07604260E0045A4A13688343FC
:101F80001360282903D001A84154491CF9E71C48D3
:101F90000068403001A9282259F760F9724D0920E4
:101FA000E8715DF71DFBFFF7DFFEFFF7D1FE00F0E4
:101FB0009DF85DF753FB5DF765FB5DF7D7FA2C7273
:101FC0001148008807210140A972FEF787FA2F48BF
:101FD0005DF796FB5DF71AFB0BB0F0BD7400004097
:101FE0003520FC073120FC079520FC0741F6F1075E
:101FF0005D07FC079120FC071DF6F107391FFC0760
:102000004CB9FC07D87CFC07B810004080B55DF7E0
:10201000E7FAFFF79DFE00F069F85DF71FFBFEF79A
:102020005DFA1A485DF74CFB5DF7F0FA80BDC046DB
:10203000002070477047000080B51F200004012178
:102040008A07536F834348041818506710680721A4
:10205000884310600C48018808220A4302805DF71B
:10206000BFFAFFF781FEFFF773FE00F03FF85DF760
:10207000F5FA5DF707FB05485DF732FB5DF7C6FA39
:102080000520FEF753FA80BD08000050709CFC0745
:1020900070470000012906D0022903D1032804D289
:1020A0000C207047FEE7032802D3FF2800D0FEE78C
:1020B0002D48C0797047C04680B50A480168C907F5
:1020C00003D0016802220A4302600168490204D574
:1020D0000121890502680A43026003485CF754FF46
:1020E00080BDC046000200402422FC0780B55CF79A
:1020F000E3FFC12040011C49C979090608180349BA
:1021000008605DF753F880BDD87CFC0700100040E4
:10211000F8B5642013490E5A134FBC6B3046604328
:1021200012494018124959F71FF8054678823C3683
:1021300066430E4830180E4959F716F8001D0D4930
:1021400048612818C01DC8610B4A1278022A01D1C3
:102150001130C861FFF71CF90849401880B257F7E1
:102160008FFAF8BD4C7CFC07D87CFC0720A1070047
:1021700040420F00982BFC0780BAFC07E2040000E5
:1021800002480188012291430180704704110050E8
:1021900002E008C8121F08C1002AFAD17047704730
:1021A000002001E001C1121F002AFBD1704700008E
:1021B000034880F3098800F025F8FDF7C9FFC04601
:1021C000C832FC0704207146084203D0EFF30980AF
:1021D0000A490847EFF30880084908477047042078
:1021E0007146084203D0EFF3098005490847EFF331
:1021F0000880034908477047FEE700002907FC07ED
:10220000D506FC0780B502485AF742FB80BDC046A0
:10221000A000FC07000000009023FC07D07CFC0716
:102220000200010080000000630CFC0702000000B7
:102230006F0CFC0708000000450CFC0700010000C3
:10224000590CFC0700020000F5B0F0074000000048
:10225000FD82F007100000007F6FF007040000000F
:10226000790CFC07010000002D0CFC072000000089
:10227000410CFC07000000000000000000280000E6
:102280000100000000000000032800000100000021
:1022900002000000292A00000100000080800000E8
:1022A000032800000100000004000000242A0000B0
:1022B00001000000808000000328000001000000F1
:1022C00006000000252A00000100000080800000B8
:1022D000032800000100000008000000272A000079
:1022E00001000000808000000328000001000000C1
:1022F0000A000000262A0000010000008080000083
:1023000003280000010000000C000000282A000043
:102310000100000080800000032800000100000090
:102320000E000000232A00000100000008800000C9
:102330000328000001000000100000002A2A00000D
:1023400001000000088000000328000001000000D8
:1023500012000000502A0000010000000780000069
:102360006823FC070300000000140000B10AFC070A
:10237000130C00003912FC0703140000790BFC0752
:10238000D109FC07AB09FC07A909FC07A709FC0751
:102390009823FC0701000000FFFF0000AD0DFC07C3
:1023A0000000000000000000F4011100F435234893
:1023B000F40108C4140A000014000000A90AFC0774
:1023C000FF0000000000000005000000C832FC070C
:1023D000000800002C81FC072C070000207DFC0772
:1023E000000400006488FC07900B0000200300003C
:1023F00000A60E0005000000D20000003200000020
:102400003C0000000100000001000000020000008C
:1024100002000000040000000300000006000000AD
:1024200000000000020000000200000000000000A8
:102430000000000003000000030000000500000091
:1024400005000000060000000A0000000A0000006D
:10245000C8000000B80B000002000000B80B00002C
:10246000B80B000010000000D4010000CC010000F7
:10247000700200006A000000040000000300000079
:10248000200000000A00000001000000E20400003B
:102490008A020000DC050000AF0000003C26FC07BB
:1024A000B424FC07000000004426FC0700000000E4
:1024B00000000000A8B8FC07A0B8FC07B8B8FC07EB
:1024C000F8B8FC073D1FFC073920FC07E906FC07AC
:1024D000950DFC073D0DFC07DDB6F007F5B6F007DE
:1024E000A10DFC072DB7F007ADBAF00751BDF007FD
:1024F00091BBF007B1BBF007D1BBF0070FBCF007F1
:102500001FBCF00779D0F00735CEF00753CEF007A7
:102510006FCEF00789CEF0079DCEF0071BCFF007F6
:1025200033CFF0077B8FF1070392F107F797F0079E
:102530006DCDF10751CEF1074DCEF10749CEF10730
:102540008D21F007C11EFC072D13FC076D13FC073E
:10255000C113FC07B913FC07BB70F007896FF007C4
:102560002970F007F965F1070122F10769F9F10710
:10257000E9F9F107D91EFC07C9FAF1074F08FC0772
:102580006908FC07000000008109FC078309FC07BB
:102590009BA1F007595AF107C760F107FD64F107E5
:1025A000FD63F107D736F1076545F1075DF9F007DF
:1025B0000DDBF0077D09FC0785AAF007599AF007A3
:1025C000D19AF0078D9BF007CF2DF007892EF007E9
:1025D0001D73F007E771F0078536F0070000000073
:1025E0008509FC078D09FC07A908FC07A785F107E9
:1025F0001B86F1079F86F107C108FC070000000059
:1026000000000000000000000000000000000000CA
:1026100000000000000000000000000000000000BA
:1026200000000000000000000000000000000000AA
:10263000000000000000000000000000A823FC07CC
:10264000047DFC07B823FC07B87CFC0701000000F0
:102650008426FC078826FC0740050000A021FC0713
:102660008426FC07C82BFC0700070000A021FC07FC
:10267000487CFC07487CFC07D8000000A021FC0730
:04268000E001000075
:0400000507FC0151A2
:00000001FF
