:0200000407FCF7
:100000002446FC075135FC076535FC077F35FC07A6
:100010009935FC079935FC079935FC079935FC079C
:100020000000000000000000000000009935FC07FF
:1000300000000000000000009935FC079935FC071E
:100040004510FC072931FC07A526F0076112FC07C3
:100050008911FC079935FC070910FC079935FC0745
:100060001510FC079935FC07ED10FC07F710FC078D
:100070000111FC070B11FC071511FC079935FC0752
:10008000A512FC079935FC079935FC079935FC0743
:100090009935FC079935FC079935FC079935FC071C
:0800A000000000008E070E00B5
:0200000407FCF7
:100110005458000652580005525453000743545394
:100120000008504F520000010000000000000000D5
:0200000407FCF7
:100130004669726D776172650000000032363332B5
:0C01400006001800B805000300000000D5
:0200000407FCF7
:100150000348854600F040FF00480047351BFC0778
:100160002446FC07F8B5074601200023024600900C
:100170001946032049F746F90446022180300170F0
:10018000FF4DFE482A6843881146FF31F7310B8640
:1001900080884886FB48066A0123DB069E431E438F
:1001A0000662FF320020FF32383250829082D082C5
:1001B0001D200882F4484884F448C882F448088323
:1001C00000204882384649F75DFC01462868FF3028
:1001D000F730C28B920992010A43C283ED4841680D
:1001E00000208847002C02D0204648F7F4FC204627
:1001F000F8BDFFB58BB0064616980027022821D01F
:100200000D9801881498814278D371880846403847
:100210003F2802D8159855F7F1FC0C98361D008838
:10022000149A80190E995EF767FF0C98018814984C
:1002300008180C9908800D9801881498081A0D99CF
:1002400008805CE100200E9D079069782C780902F7
:1002500021433180E978AC780902214371808C46D2
:10026000403904242D1D024603468E46402900D302
:100270002878614604291FD0052914D0062918D0F2
:1002800070463F283DD8159855F7B8FC0006000E7B
:1002900004D0C148008D0006C00F30D002230120D9
:1002A000BE4A002712E0697800290FD0BC4A172304
:1002B0000CE0BC4A0F2309E0522802D0D22802D019
:1002C00002E0142000E01520B74A1F23002A1AD0AC
:1002D000984218D2800010580490002813D00020B3
:1002E0000890059070884038402803D3287805246A
:1002F00030716D1C701D00900498B5E0FEE0302751
:10030000F0E03327EEE07088042872D10627E9E098
:10031000522862D00CDC4B283FD004DC41286AD044
:10032000422858D111E04C2820D0502853D140E029
:10033000632830D004DC572818D061284BD19BE0CB
:100340006C2864D0772846D109E00098297801709C
:100350000098641C401CA4B26D1C009081E00498BD
:10036000401C04900178089881427AD10098A41C1E
:10037000401C41084900881C009068782A780002D7
:10038000104308800599AD1CA4B2002969D00890DB
:100390000020059065E00120FBE710222946009827
:1003A0005EF7AAFE009810341030A4B21035009009
:1003B00057E0204640301499039088420BD84022E1
:1003C000294600985EF798FE009840300090039808
:1003D000403584B245E0342743E00822294600989E
:1003E0005EF78AFE009808340830A4B20835009001
:1003F00037E068E0FFE70622294600985EF77CFEBA
:100400000098A41D801DA4B2AD1D009029E0149891
:10041000001B80B203903088001B001D81B20120B8
:1004200007900498401C04900098401C400840002D
:1004300000900498007857281CD04228CBD100980F
:100440000170090A417000982946801C0090039AA7
:100450005EF752FE03980399201884B20098401862
:1004600000900498401C0490007800281ED0002FB3
:1004700017D01BE04908E2E71498001B81B20098EE
:100480000391401C40084000009001200A4607905C
:10049000294600985EF730FE0399601884B20098F0
:1004A000DDE70D990988A14200D331E70D98008856
:1004B000A04208D304990978002904D1079900299A
:1004C00003D1A04201D034270CE00D99001B088015
:1004D0000C9801880098801B001F08180C99002FA9
:1004E00008800CD07088042809D0062807D040382E
:1004F000402804D30E984079707100E034273846C4
:100500000FB0F0BDFFB581B01F4616460C46104631
:100510005CF7B6FC00257F2802D02189062909D086
:100520003B4632462146019855F7FBFE05462846D4
:1005300005B0F0BDC00601D50225F8E720780028F7
:10054000F5D1300AA11D42F784F8F0E7F1B598B073
:10055000189842F77CFA0446189805210079134A46
:100560004006C00F099068460184618B08460A382E
:10057000904276D2E08A062873D319E030BCFC079B
:100580004CB9FC07C0000040108000002941000069
:100590007671000058BFFC0748BEFC073803F2071D
:1005A0004003F2079C03F207D803F207770C000020
:1005B0001922D201904254D8228BFF23F5339A425C
:1005C0004FD8521C9300D2184243521C0A23521097
:1005D00059438A4245DC217F00290CD1617F0029E3
:1005E00009D1A17F002906D1E17F002903D1202173
:1005F000095DC90635D0274620377978C906C90E66
:10060000491F0C292DD2A18A81422AD8E17C0029D8
:1006100027D0421E082A01D9082000E0401E81424E
:100620001FD8684646F7D4FA00281AD1FE4D062294
:10063000286221460AA85EF75FFDA8792E46803E13
:1006400000287DD06079800901280BD00AA809997B
:100650004CF78DFD010003D03820405C002870D09D
:100660009BE008E1F06A807A012808D0042806D0CF
:100670000AA84CF7E9FD286200284ED054E0686AC9
:1006800006220AA932305EF75BFD002806D00AA8D0
:100690004CF7DAFD2862002802D012E0686AF9E718
:1006A00000210AA84CF7E6FD2862F16A897A01293F
:1006B00005D18B071A6849068A430A431A60002845
:1006C00011D0F16A286A0622253010315EF738FD14
:1006D000002808D1286AF16A2030C07AC97B884294
:1006E00001D1286A1EE0D148D1490088C96880B28A
:1006F00006225043081842F7AFF9014614A8062213
:1007000002305EF7F9FC13AA00213C2042F771FC8D
:100710000121B06D47F798FEA9E011A90AA84CF78E
:10072000A9FD2862002838D00146253106220FA8ED
:100730005EF7E2FC286A08AA2030C17A0FA801E01F
:1007400041E024E04CF7F6FB002812D0286A203064
:10075000C07A002809D16846B649008C4BF75DFB8A
:1007600008AA0121B3484CF7E5FB68460AA9008CAA
:100770000AE008AA012111A84CF7DCFB00280CD0E4
:10078000296A6846008C32314BF75DFB05E00A1898
:10079000527D002A08D010286DDBF06A407A0228CA
:1007A00006D0032804D00EE0401C1028EFDBF4E74D
:1007B0006846008C052806D308AA0AA809994CF7B0
:1007C000B9FB002857D00022694620464CF75BFC55
:1007D000002850D1F06A407A02280BD0032809D0B3
:1007E0000023684602880AA809994CF76DFC002886
:1007F00002D02FE00123F4E7E18A68460181218BD2
:100800004181618B81817878062241096846817532
:100810007878C106C90E6846417521460E305EF7EC
:100820006BFC189800794006C10F68460175038873
:10083000214602A8B26D47F7ADF90146B06502A89E
:1008400042F725FC0020B065214668461C3100882F
:1008500046F711FA49F790FA734C2034207A0028B1
:1008600005D0002109205CF74EFC002020720021F9
:1008700008465CF7F0FA19B0F0BDF8B56E4C0646C4
:1008800085000F4660594C21095C24290ED140692E
:100890001022791D2E305EF72FFC61592520403142
:1008A000087300221146304654F7FBFA60594C2178
:1008B000095C0C291FD140691022791D2E305EF78A
:1008C0001BFC60595F214069095C09072DD4014672
:1008D0002E3110221E305EF733FC00280CD06059F8
:1008E000092140300173304654F7F8FF01460022D9
:1008F000304653F755FEF8BD0421684601706A463C
:100900000521304653F7F6FF684601786020014321
:1009100068460170304654F7E1FF014668460278A8
:100920000123304653F751FFF8BD304654F7D6FF48
:10093000012809D060590721403001730022114677
:10094000304654F7AEFAF8BD615900204969C0310C
:10095000887160590421426930461E3253F7CAFF3C
:10096000605941694031897F002907D01A21403000
:1009700001730021304654F71EFBF8BD1B214030A7
:100980000173304654F76CFBF8BDF8B52A4C0546A8
:100990008600A0594C22125C192A11D140224D30F8
:1009A000491D5EF7A9FBA059402224494D305EF74E
:1009B000C7FB002805D02149284620395BF72BFDCD
:1009C000F8BD0B21684601706A460521284653F799
:1009D00091FF68460178602001436846017028460F
:1009E00054F77CFF0146684602780123284653F7F6
:1009F000ECFEF8BDFFB581B003980C46060A002551
:100A00005CF73EFA002827D0132825D0142823D0DD
:100A10000B48B700C0592030407BC00637D503983B
:100A20005CF72EFA15280DE030BCFC0768B9FC070E
:100A300060BBFC0750F5F1073CBEFC07FCBDFC07A2
:100A400078BBFC070CD0A07941F7F4FF304647F79C
:100A50008FF8032806D015E0A07941F7EBFF1FE0DF
:100A600002251DE03248C0592030407B400704D5A4
:100A70003D21304642F7DCFC04E03D2200213046B7
:100A800042F7E5FC3D21304646F7BAF808E020463B
:100A9000103828490181468120464EF7A3FD0125E3
:100AA000284645E524485222006864308188C37E88
:100AB0005143224A12688918FF225F32525AFF318D
:100AC000120AD21A01310B8CD2B2DB0B09D00B8C7B
:100AD0005B045B0C0B84002A03D18088184A012137
:100AE00011547047FFB51746140A81B0104A029896
:100AF000A100515840780026114D002907D0295DEA
:100B0000002905D0002803D1204643F7F5FE2E55D5
:100B10003A46049B0299019844F77FFE08E50A488B
:100B200008490160094941607047704770470000FB
:100B300078BBFC070608000084BBFC074CB9FC0727
:100B4000C28BFC070459F007C0000840490C00BFE5
:100B50007FB5E4486B460188428889186A4611804F
:100B600001214C0022181546403DED8F065B52884E
:100B7000AD19AA18491CC9B21A530729F1D38189A2
:100B8000C089081881B2D981D888002821D0188955
:100B9000002820D0988800281FD0588900281ED00F
:100BA000988900281DD0588800281CD000291CD006
:100BB000188800280BD00720062254001C5B8C42AA
:100BC00001D22146D0B2521E52B2002AF5DA04B048
:100BD00070BD0320FBE70420F9E70220F7E70520BA
:100BE000F5E70620F3E70120F1E70720EFE7F0B58E
:100BF00095B0EFF310801090012080F31088BA4870
:100C0000816B4A07520F69460A800A92816B012262
:100C1000C908C9008163B5498B8869464B800224A5
:100C2000B24B00219980C16A09078B0F69468B80FE
:100C30000F93C16A0C2399430831C162052109074A
:100C400009880906CB0F6946CB800521090709935E
:100C500009888023194305231B071980A449898A21
:100C60004906CB0F69460B81A1490893898A402325
:100C700019439F4B9982016A09074B0F69464B81C3
:100C80000C93036A0E218B4303629B4D9948686065
:100C9000FF204030A8602888A043288097484168FA
:100CA0000B071B0F69468B810B93416809090901EA
:100CB00008314160416849064B0F6946CB810D936D
:100CC000416870239943603141608748403801682A
:100CD0008904CB0F69460B820293036841140B43CE
:100CE00003600168CB07DB0F69464B820E930168F6
:100CF0001143016041688903CA0D69468A820392E3
:100D00004168CA05D20D6946CA8204928168890386
:100D1000CA0D69460A8301928168CA05D20D6946E7
:100D20004A8305924168764A11400322D20389180A
:100D300041604168490A4902FF314131416081689F
:100D40006F4A11400322D203891881608168490AE1
:100D50004902FF3141318160642000F02DF9A889FA
:100D600069468007C00F8883A8892043A881002492
:100D7000604F288800260121084328800A2000F0BF
:100D80001BF9FF205F4941303A680A4200D0761CC7
:100D9000401E3F1D0004000CF6D1A88A8004FCD13F
:100DA0005149886B671CC208D2007807400F024384
:100DB0008A630A2000F000F960004A49FCB20E5232
:100DC000082CD5D348480A99826BD208D2000A432E
:100DD00082636946454A498891800F998A00C16AB1
:100DE0000C2399431143C1620999CA0105210907DE
:100DF000098880239943114305221207118008991D
:100E00008A013B49898A402399431143384A918298
:100E10000C994A00016A0E23994311430162374835
:100E20000B994268120912010A4342600D99426807
:100E3000090170239A430A434260029841032A48F9
:100E40004038006801225203904308432649403944
:100E500008600E9809684908490001432248403853
:100E60000160039842022048403840682449084005
:100E700010431D4A403A506004985268520A520288
:100E800002431948403842600198174A4002403AEC
:100E900092680A400243144840388260124905981B
:100EA00040398968490A490201430F484038816046
:100EB0001098002800D0012080F3108815B0F0BDF4
:100EC00010B5114C2078002808D0FFF790FEFFF7EE
:100ED0003FFE0E4908700020207010BD01F010FF89
:100EE0000120F9E7B83EFC078010004000120040E6
:100EF00020300050B839FC07003500504020004039
:100F0000FF01FCFFC0C0C0C0548CFC07558CFC071F
:100F100010B5FF22154901320A60BFF34F8FBFF3AE
:100F20006F8F13490A6013490B6840241B0A1B0288
:100F300023430B601049898A0021C30700D0352163
:100F4000830702D57D231B021943430702D575236E
:100F50001B041943000702D53D2000060143064843
:100F60002038016301488038026010BD80E100E054
:100F700080E200E008E400E0A010004010B5062088
:100F800000F01AF810BD10B5092000F015F810BDDA
:100F900010B5812000F010F810BD10B5044800F025
:100FA0000BF810BD10B5034800F006F810BD0000A6
:100FB000010200000108000000280CD000BF00BFA3
:100FC00000BF00BF00BF00BF00BF00BF00BF00BF29
:100FD00000BF401EF0D170471CB509480090094879
:100FE000019005460126009C05E0E36807CC3343E9
:100FF0000C3C98471034AC42F7D3FFF7ADF8000033
:101000008039FC07B039FC07014801210180704795
:101010000E1500500A48011F0988CA0706D0028829
:1010200007239A432E4B5B7913430380490706D568
:101030000188072291432A4A92790A430280704725
:10104000B8100040B0B5254B0820188005200007D7
:101050000188302211430180048803210C4304805D
:101060001C896407FCD403889343038003888B4363
:101070000380FA4CA3894380E3899D1EF64B5D8073
:1010800007251D8005881543058005880D430580CB
:101090001D886D07FCD403889343038002888A432C
:1010A00002804289920702D042898A4342810189A3
:1010B00080220A430281018A042291430182818AAB
:1010C0008907FCD541F72DF9A06906490860064853
:1010D000016801684907FCD5B0BDC0460033005027
:1010E000508CFC07080200401000004080B50A2028
:1010F00000F024F880BD80B50B2000F01FF880BD03
:1011000080B50C2000F01AF880BD80B50D2000F0ED
:1011100015F880BD80B50E2000F010F880BD0000ED
:10112000B0B501248C404001034D44531A4340198B
:10113000490008184280B0BD04300050F0B5C0B27C
:1011400003460A3B01210A469A4093B20B4D5C19B3
:10115000661C5E400A4B1C8800272E4203D07F1C71
:101160007608B6B2F9E79443BAB20D4695402543E6
:101170001D80814037480160F0BDC046FEFF010080
:101180000E140050FEE7000002480088314810218C
:10119000016070472C130050B0B5114D28884006EF
:1011A00002D52888800609D40E49086A0024002840
:1011B00014D0CA69521CCA6182420FD30948002464
:1011C000C461281F046017480088FFF7F5FE2888CF
:1011D000C00701D1012401E04CF78AFE2046B0BDD2
:1011E00014100050B8BAFC0780B54CF752FE0B48FB
:1011F000828980210A438281027903781202D218FF
:1012000014235343064A12881207D20ED218921C96
:10121000044B1A8082898A43828180BD001000506D
:10122000C0100050C08BFC070948018904220A4302
:101230000281018840220A430280064901220A6095
:101240004189054A11408918091D41817047C046EE
:101250000800005080E200E0FC7F000070470000C2
:1012600010B50F4CA1880F200840022806D0042892
:101270000BD00C280CD00128F4D110E020880221DA
:10128000884320802088802106E002F031F9E9E7D8
:1012900002F02EF92088012188432080E2E710BD6A
:1012A0000411005005210807028830239A43028068
:1012B000028803239A430280828812050DD5184ABA
:1012C00013880B40052B08D110880421014311809D
:1012D000108801218843108070478188C90606D58F
:1012E00010498A88D20702D00A88120610D4808852
:1012F000C0060CD50B488188890708D50188C90527
:1013000005D5022181800188074A0A400280704782
:101310000120888008888022904308807047C0465A
:101320000002005000010050FFFE000010B5012433
:1013300020465BF7A5FD002805D100205BF7A0FD46
:101340000446401E8441204610BD80B5C1B20C2920
:1013500004D1A02108435F21884380BD08465FF780
:101360006FFF80BD80B5C1B2A02904D10C21084314
:10137000F321884380BD08465FF77EFF80BD0000F3
:10138000022806D803490870C0000349C140034839
:10139000C1707047B4BAFC070001010054BAFC07E1
:1013A000B0B50C460025202D04D041F7A8FA6055B1
:1013B0006D1CF8E70020B0BD10B50446054806498D
:1013C00070225DF799FE0548001B0549088014301E
:1013D000488010BD70A0FC073C36FC07B8A0FFFF9A
:1013E00078A0FC0710B507480188074A1368114C1C
:1013F00023405918116040885168214008185060F6
:1014000010BDC046183000408CA0FC0710B507483E
:101410000188074A1368074C234059181160408817
:10142000516821400818506010BDC0463830004057
:1014300098A0FC070000FFFF07481E21418001889B
:1014400003220A430280018804220A4302800348DF
:10145000012101707047C04600160050508CFC07F7
:1014600080B50D480078C00708D105205BF708FD5E
:1014700000280FD12A200A49085C04E00748417D72
:10148000012907D1007D41424141C21E50425041D5
:10149000084380BD002080BDFDB9FC0788BDFC0766
:1014A00030BDFC0770477047704780B55FF764FD3B
:1014B00080BDF8B56946C870020A8A70020C4A708D
:1014C000000E087008465FF73FFD8FBD80B51B48D2
:1014D00000210160FFF75CFD164800781F214901DB
:1014E000134A13688B43C006800DC018106080BD7E
:1014F00080B5114802210170FFF740FD80BDC04654
:1015000080B50B4801688905C90E0A4A11701F2170
:10151000490102688A4302600748012101700748B7
:10152000016803220A430260FFF732FD80BDC04616
:101530004C120040B039FC0706100040AC100040CF
:10154000F0B589B00E460B4940180B2800D948E188
:101550004000C04678448088400087440D00420126
:1015600027004201510042016400420170003E0028
:101570004201FD00FF5FFFFF3078841CFB480C2216
:10158000194623465BF736FA044600250570307885
:10159000607031788D4200D320E1A90701D15FF757
:1015A000EBFC611988706D1C000AF2E7F0480C2210
:1015B000142519462B465BF71DFA0446ED49083100
:1015C0002A465DF799FDEC48017821700179617038
:1015D000017AA170007BE07000E1F74805210C2240
:1015E00002235BF707FA044600206070F348007896
:1015F000421E51425141022800D101462170EDE0C6
:10160000DE480C220224194623465BF7F3F9044610
:1016100006202070307841B2002902D4032800D27D
:10162000CDE03020D9E0F7480C22012419462346AA
:101630005BF7E0F90446F448C0782070CEE0DE485D
:101640000C27022519463A462B465BF7D3F9044688
:10165000457030782070022800D2ACE000D1B7E0AD
:10166000032800D0BAE0FFF761FE002800D0B3E005
:1016700070888006C00E00D164E1079706950027A8
:10168000677020465BF7D1F9CD4D5BF7B6FE288831
:101690004006FAD5F943CB4801607788CA4808224A
:1016A00005920280707872B6C84A1160C84AD18922
:1016B000C905890FC74B1980118AC906FCD40321BB
:1016C0000891C901D3898B43D381C3490B897C25F8
:1016D000AB43FDB26D08AD001D430D810126D38CD7
:1016E000DB0407D40B89069F3B400D89BD43EB18F3
:1016F0007B400B813303D58C1D42FCD00B893343D7
:101700000B81B64B1D68042704973D431D60089B61
:10171000DB43958A1D4005439582958A079FBD430B
:1017200087002F439782958A3027BD4300012843C5
:101730009082D0891840D0818888B04388800B88F7
:10174000072003430B80938A15251D40152D00D1DA
:10175000FAE00D208002F8E0A7480C220824194680
:1017600023465BF747F90446FF20E071A3490622B0
:1017700030465DF7E5FC002815D030787178090215
:101780000818B17809044018F178090640189C49F6
:1017900008603079727912021018486030464BF7B1
:1017A0003BFC0020E0710622204631465DF7A4FC98
:1017B000B079A07112E0FFF7E3FD00200DE00021F9
:1017C000617092A1085C9049C87001F043FD05E08A
:1017D000FFF7ACFD002807D00120607020465BF7C2
:1017E00024F9002009B0F0BD079706957088B188EC
:1017F000774F3A88102313433B80794A0423089398
:10180000938013883F25AB4313809181002353803D
:101810001188802529431180108172480168029542
:1018200029437F22914301600120059000046E4905
:1018300008600393637020465BF7F7F8604D5BF731
:10184000DCFD28884006FAD55F4808210191018017
:101850007078049072B6B88908990843B881B8883E
:10186000029A9043B880B888402202921043B88010
:101870005E48018038885E4A02403A800398C0433F
:10188000524A1060388AC006FCD40320C101FA898C
:101890008A43FA81059EF14303914F4A15890D4011
:1018A00015814E4D2968089B194333462960B98A32
:1018B0000090814304980143B982B98A079DA943E6
:1018C00085000D43BD82B98A3025A94305010D432A
:1018D000BD82B9893143B9819188039801409180D3
:1018E0000F208002118B81430720C002081810834B
:1018F000B003118B01431183F98C3E480688C9055A
:1019000008D460210E430680108B0099084301998A
:10191000029D09E020210E43029DAE430680108BFC
:1019200006990843984301991083108B084310834C
:10193000108B089988431083908B2843202188437B
:10194000908333E0657049E7C0020F239B020D8B43
:101950009D4340190883B0030B8B03430B83D28C48
:10196000088BD2050CD4089A104310E002A00000A6
:1019700004A000003001FC070032005006A0000067
:10198000402210430883088B069A1043B043088313
:10199000088B059A10430883088B049A90430883A8
:1019A000888B40220243202082438A8300BF00BFED
:1019B00000BF30BF12E7C0460BA00000B4BAFC075E
:1019C0001410005080E100E00033005080E200E09D
:1019D00004000050A000FC070803005010ED00E0D8
:1019E0000001005010E400E000E100E000020050BF
:1019F000FFF70000520000500DA00000DCF1F107DD
:101A00002400004008A00000508CFC070C090100D5
:101A100070B5EFF31085012484F3108805200607C4
:101A2000708DC00509D54048847001F03DFD0F4917
:101A300008700F480088204048703088802101439A
:101A400031800C48016807229143016041684907D1
:101A5000FCD50949016109494161002D02D084F397
:101A6000108870BD002080F3108870BDC83EFC0750
:101A7000800000500000F4070F009909090404A435
:101A800070B5174EB06800F02DF82749CA690023D9
:101A9000CB611518084C284621465DF7B3FA7061F2
:101AA00006494143481901D0201A80B2306130689C
:101AB00008210143316070BD710200008FFDFFFFFE
:101AC00080B506480021016001F0B6FC0120C00786
:101AD00003490A6882430A6080BDC046A8B9FC0772
:101AE0003000004080B50246C00B09D00E48806A25
:101AF00000210B465DF7B0FA8905800A401880BDC9
:101B00000948806A4243900A80BDC04680B5FFF70D
:101B1000E9FF80BD80B50449096A414303480818BC
:101B200003495DF76FFA80BD508CFC0720A10700C8
:101B300040420F0000B59DB09F4808210C910180E4
:101B40009E4F388819AC20802088C046C046208827
:101B50000422D1430842189202D00020388003E0CA
:101B6000B88901218843B8810C9BB88B9449014006
:101B700007200E90C0020818B883924C20881843A2
:101B80002080E08D06229043E0850125A803B98BD3
:101B90000143B98320888C490140218060880A92E2
:101BA00010439843608005200F900607718D0F2029
:101BB00001900202E08D90437D22D200C905099276
:101BC0001DD4032149020843E0858048401CE18D73
:101BD0000143E185B88B9843B883B88B04218843CF
:101BE000B88360887A4901406180E08D2843E085B0
:101BF00018982F460546708D4007FCD519E0114610
:101C000018310843E085E08D72490840E903401827
:101C1000E085B88B1843B883B88B189A9043B88383
:101C2000E08DA843E085B88B40218843B8832F46D8
:101C30001546380212906149888B032202921043A4
:101C4000888320882022104340231393DB431840CD
:101C50002080088C1592104318400884F08A802157
:101C60000D9108431840F082308EFF218843308662
:101C7000308F28431821089188433087308FA02166
:101C8000014310931940318753480580B088534968
:101C90000140B180380452490860FFF7B9FE514A4B
:101CA00010680E9908401AA9087008780228099C43
:101CB0001FD0708D1299084212D001F0F5FB0A284E
:101CC00002D80B2001F0FAFB3E48C08DC007454A00
:101CD00006D13C49C88D3843C885708D4007FCD576
:101CE0001068022101430F9881431160506840073A
:101CF000FCD53D480068C1B20C20AA29014600D09D
:101D000029463288824388183080C046C04637480A
:101D10000068374909886827364D00220B92EA533C
:101D2000354A1186D06201201690C046C046334B1A
:101D3000181F00683249884200D03DE1019804072D
:101D40000420002107911197149418901918081F66
:101D50001A46EC32904200D332E100681C901C9B82
:101D60002340092004071C9AA34250D11C9B1F0A40
:101D7000FBB21793D2B2531E162B00D98CE05B0036
:101D80007B449B885B009F44F200F2008700F200D6
:101D900087003D00A100870087008700870087003B
:101DA0008700870087008700AE00C300D800E300EB
:101DB0008700E800ED00C0460033005004030050E7
:101DC000FFC3000052000050FFBF0000FFEF000003
:101DD000FFF90000FF0F000000020050FFF70000B5
:101DE00080E200E00000F407D07FF807D47FF80716
:101DF000D87FF807C88BFC07508CFC07D47EF80707
:101E0000A5A5A5A5119C285DC000281863E0900F2A
:101E100011D01C98AC4988420DD8189C2046083037
:101E2000314628311C9A8A422BD1A84BE158A84A46
:101E30005180149C89E71C98149C20400E99090736
:101E4000884203D10020C046C04605E01C982040CF
:101E50001699C907884203D11898001D9B4B74E757
:101E60001C9820400F9949078842984B189A06D031
:101E70001C98204002994907884200D08CE0101D30
:101E800063E7B11C1C9A8A427AD1904B1899C958C1
:101E90006622A952149C58E71E2A68D11798400858
:101EA000020664D00A680023DB432C4610344F68D6
:101EB0000831052B08D05B1C256808349542854DF8
:101EC000F7D1DA00AA185761401EE9E76924285DB6
:101ED000C00028181030179A92005DF70DF9285DA0
:101EE000C019285543E0794A189B995848439A5895
:101EF000120C801A00B2C0082B464033D88288B238
:101F0000101A8108744A11400818401C98822EE06B
:101F10006E4A189B995848439A58120C801A00B27E
:101F2000C0082B464033588388B2101A81086A4A89
:101F300011400818401C188319E0079CA0001AAA39
:101F40001018179FBA005DF7D7F83C1907940EE0F8
:101F50005E4818990858622108E05C4818990858AA
:101F6000286504E059481899085864216852179860
:101F7000800018990818001D119F544B149CE4E62A
:101F8000314624311C9A8A42504B149C09D118992D
:101F9000C9584F4A9180D8E61C98401C10460FD073
:101FA000D3E6314620311C9A8A4200D0CDE61899FA
:101FB000C958474AD180C8E666202D5A169A2EE0A5
:101FC000E85D4008E8556920295C490829542846FD
:101FD00040301A99818309211B9A5143130CC91A65
:101FE00009B2C908018491B2591A8A083A4B1A40B9
:101FF0005118491CC183808C0028099C01D16420A0
:102000002C5266202D5A002D169A08D133490968A2
:10201000C9B2AA290D9D00D06E252E490D52304817
:102020008581B08C9043B0840D201746FEF7C4FF25
:10203000708938430221119188437081708940066C
:10204000FCD575802046FEF7B7FF7089029988435A
:10205000708170890006FCD57F20214948701F4897
:102060008069204B9860EFF31085169A82F31088F0
:1020700030880D99084330801B4908680E9CA043A6
:10208000086048684007FCD518480861184848614E
:1020900030880D9988433080708D129908420B9CCE
:1020A0000DD00F488470187801F008FA169A11497B
:1020B0000C484078002802D1C88D9043C885002D77
:1020C0001AD082F310881AE04C420050D47EF807F0
:1020D000A000FC07C88BFC07FF3F0000D07FF8077B
:1020E000508CFC07C83EFC070000F4070F0099095C
:1020F000090404A452000050002080F310880F9FB0
:10210000E2480068E249884200D0C7E0E148E2497D
:102110005DF70BF80E980102E0485DF706F8FEF750
:1021200005FDDF48DF490160DF48E04930252A46E8
:102130005CF7E2FFDE480024C471847144710471CD
:10214000C470847044703F210B910170D948DAA1AA
:10215000139A5CF7D1FFE8480470E848E849016049
:10216000E848E9490160E949E9480860E9480A2185
:102170000170E94817940470E84832210F9101700A
:10218000E7480760E748169C0460E7480760E748AF
:102190000A990160E6480E990160E6480C9F0760C5
:1021A00020020090801DE4490860E4490860E4488A
:1021B000B849016000F064FC23463A463089039533
:1021C000A843308130890D990843308130893843E4
:1021D0003081308CA04330847089089988437081A5
:1021E0003089139908433081308A0421149188433F
:1021F0003082B08A8007FCD5F08CD24908400B2190
:1022000009020143F184F08C1843F0847089104373
:1022100010210E9188437081708C984370843089AE
:10222000139988433081C84837309C0721680140A2
:1022300021600B9F7802C54A116881435803081832
:102240001060C348401C1168014311608F4800684A
:102250008F4988421D46189439D0B9480068BB4957
:102260008860BC4A90681071010ED171010C9171A7
:10227000000A50710098C030B7490A46002817D0AC
:10228000401E435C17783C46029D2C40B14D2C19F2
:1022900024795C407C401470521CEFE7AF48AE4993
:1022A0007A02944200D931E722586250241DF7E7A0
:1022B000A84C1C34A8491C2220465EF7B1FE2046DB
:1022C0005EF742FE714872490160169D189C9C4859
:1022D00000683FF7BFFFA248179F0771C7702068CB
:1022E000009908432060FFF7A7F8284600F0D0FCCB
:1022F0009B48C7709B4807700C249B4920465AF79F
:1023000078FD204639465AF7A6FD9548C77095488E
:102310000770FFF7D5FB0520FEF7FAFD680208906D
:102320000B9880020A90EA03904891490818914955
:1023300040188008401E0B908F4C174630890006CD
:1023400000D4A4E11898006B104200D09FE18448AB
:102350000088C00700D09AE15BF74FF800252846B7
:1023600000F096FC8548C079042800D08FE11698CB
:1023700000F08EFC1A951AA8042421464BF7DEFBC8
:10238000002800D182E116987D4A106018991068E3
:102390000028FCD1C869794B1969884201D21D61B6
:1023A0002946411ACA091979182A02D8002900D1E8
:1023B0006CE1002906D071494869401C486100F071
:1023C00017FE63E16F4A1188079151880691918841
:1023D0000591D18804911580089910315180139985
:1023E00091805C21684B595A918164491546086176
:1023F0009089139A10430399C9430840A881634800
:102400000260BFF34F8FBFF36F8F2888104328807F
:10241000E88810430840E8802888A0432880A888DE
:10242000C0B2A880E88870210140402900D0B9E0FE
:102430006220185A0028564900D00146454841807C
:102440005448401C2988014329801920FEF7B4FD17
:102450002888089B184328802888139908432880D7
:1024600068882043688068884B49084068800198E4
:102470004002698801436980688848490840129988
:102480008031014369804648A0E0C0469CB8FC0703
:102490006587341200A0FC07AC14000000B9FC07EB
:1024A00060BAFC07BC36FC0700BAFC077CFCF107ED
:1024B000DAB9FC07B0BCFC072000800000C00000B7
:1024C000000084000000282200000000000004003A
:1024D00000F7FFFF7F00000030F0FF0F000000005A
:1024E00000040000000000000000000000000000E8
:1024F0000000000000000000FDB9FC0750B9FC0717
:10250000603FF20754B9FC07F037FC0758B9FC07E5
:10251000F436FC07B0B9FC07B1B9FC07D9B9FC0720
:102520005CB9FC0760B9FC0764B9FC0768B9FC0733
:102530006CB9FC0770B9FC0748B9FC0744B9FC0743
:102540004CB9FC07FFF00000C8FEFFFF000200408E
:10255000FFFF1F00C83EFC07908CFC0700B0FC0783
:1025600054BAFC07B4BAFC072C36FC0764380000E8
:102570005001FC07030004F800330050508CFC07A6
:10258000FC00004000150050C88BFC0780E100E013
:1025900040760000FF0F0000FF1F00003FFE00001C
:1025A000FCFF00002888F349084028806888ED492E
:1025B000084068806888029988436880F84A104615
:1025C00040382988014029801046089B69880140CD
:1025D00069802888169A104328800998173029891D
:1025E0000140E64C218169890140618128890A996D
:1025F0000840184328816889084018436881288862
:1026000011990843288028888007FCD4EA81288A09
:10261000DB494988D94C22892B890A9D2B401343D9
:10262000E04A13816289DF4B5B892B40DD4D134308
:102630006B81401A09994143002804DCDC4A89185F
:10264000C017084001E0DB480818DB495CF7F0FCE4
:1026500084091934EE4948787F280ED0201A41B2F7
:10266000C9114840401A40B2052807DBE8494869CB
:10267000401C486100F0BCFCE5494C70069868803D
:102680000598A8800498E88007982880B64CFEF743
:10269000E7FE3A46002800D150E672B6BE480079FF
:1026A0000228179802D0B8480068406A1A9020891A
:1026B000C00700D052E159F76CFF3A46002800D11C
:1026C0004CE1B548C078002862D0B08AC00700D07D
:1026D000C5E0B148008800285AD1B848806A00286F
:1026E00003D0A9480068406A1A9000F0A5FEAA48E5
:1026F00081781AA85AF745FD002849D01898006932
:10270000400645D4A44881781AA84BF717FA002848
:102710003ED04DF795F93A46002800D11EE14BF71F
:102720000FFE3A46002800D118E19B4881781AA88C
:102730005AF727FD00281FD01898006940061BD4BF
:10274000954881781AA84BF7F9F9002814D00A980F
:10275000FF30954A118801401298014311801A9A5E
:10276000002A1DD01898006A88494018DA281AD81B
:10277000521E06921A9217E082480078C00702D1D2
:102780003FF7A0FF04E000203FF7ECFF3FF7B2FF68
:10279000FEF766FE3A46002800D1DFE030BFDDE0FC
:1027A0000020069000E00692B14A754BD089196965
:1027B000079108185861189DE86B814908400799EE
:1027C0000843E863E86B7F4908409969890201433F
:1027D000E963E86B6F490840596949050818E863DF
:1027E0007948069D854200D3BAE0906BD16B2A46AA
:1027F0001D4600235CF730FC0903000D4118A86951
:10280000821C8A4200D0481E634909794A1E9141C0
:1028100047F7AAF86D48C06A804718995C4D3A4658
:10282000086B1042FCD0009928680842FCD0286848
:102830000D99884328606089452804D84621618124
:10284000081AD949C8613FF740FDA868D649886190
:1028500028680006FCD530890D99884330814F489F
:102860000178308A149A10433082504B1868104314
:1028700018603E4D2889169B98432881708A01294B
:1028800003D10E99884370822AE090437082FFF74B
:10289000BFF8169B708A0E990843708236480B99D0
:1028A0000162EFF3108083F3108831880D9A914311
:1028B0003180002802D083F3108802E0002080F3EA
:1028C0001088708D129908420AD00020B64988708D
:1028D0000B2000F0F3FD169B2549C88D1843C885D1
:1028E00000203083708D1299084206D12049088853
:1028F000139A1043159A90430880288C1399084323
:10290000159988432884B08C9843B0840D20FEF735
:1029100053FB708916990843119988437081708917
:102920004006FCD50F987080B08AC006104901D5CA
:102930000C98208030BFB08A0888159A1043109BED
:1029400018400880288C10431840288400F098F81C
:10295000164A10681499884310603A4662B6EDE44E
:10296000FEE7C046FFE100000033005004030050C2
:1029700052000050FFEF00000000F407508CFC07ED
:10298000C83EFC07FDB9FC0758B9FC07C8FEFFFFAD
:1029900000020040FFFF1F0054BAFC07B4BAFC0756
:1029A0003FFE0000001500503830005010ED00E0F0
:1029B0002BFDFFFFD5020000AA05000074BEFC0736
:1029C00000FCFFFFFF03E0FF40420F0058BFFC0781
:1029D000F0B569212548415C1030C14AD278002306
:1029E0000D4E8B4212D247680A2A3C4606D33D461A
:1029F000084C2540214C246864042C430568B542EA
:102A000000D127462F6008305B1CEAE7F0BDC046C6
:102A1000508CFC07FFFF01FC38300040F0B5682106
:102A20001248415CAE4AD2780023124D134E8B42BD
:102A30001AD290C80838AC4212D1FC01640C2C4662
:102A40000ED00A2A2C460BD3032424023C403F0418
:102A5000BF0E3C192C60C488074F3C40346000E036
:102A6000276008305B1CE2E7F0BDC046C88BFC075E
:102A7000508CFC074C100040FF010000203FFC0779
:102A8000F8B5474E3088C005464C1AD54648807880
:102A9000012803D100F008FD1B2812D8308DC00496
:102AA00000D4208CFF201C30404908801B2000F0FF
:102AB00005FD3F48018801220A4302803088400713
:102AC000FCD53C483CA118225CF716FB40A04349CA
:102AD0001CC81CC1FEF723F8414842490160082088
:102AE0000B21032422463FF7E1FD3F4F787D00286C
:102AF00036D1B97D0B2933D8B879002802D1F879BD
:102B000088422DD0B878002802D1F878884227D0A2
:102B1000F87A002802D1387B884221D0387C0028FE
:102B200002D1787C88421BD0012200921D4802808D
:102B3000002528462A462B46FEF7F2FA00983083F5
:102B4000F87D411E8841B97D0C2901D3284602E059
:102B5000C201481C1043797D002900D02846F0822C
:102B6000F978B87825020223204C2A46A047F97943
:102B7000B87900260123009332461C4CA047397BCC
:102B8000F87A14232A46194DA847797C387C1323F8
:102B90003246A84703498889009A10438881F8BDC6
:102BA0002A00005000030050508CFC07C83EFC0770
:102BB0008000005020000840F99DF0070000000050
:102BC000E3A1F107000000004FA4F107000000009E
:102BD0004D05FC077B08FC078B09FC07C000FC07C0
:102BE00000000840070010001001FC072111FC073D
:102BF00003480188034A11408918091D0180704764
:102C000012000050FC7F0000B0B5044601201E4DAC
:102C1000C0070BD0E88A5EF771FB002803D08268FA
:102C200028462146904718350020F1E7B0BDC04640
:102C300070B50125144C002814D0E80722D0E08A92
:102C40005EF75CFB002802D04168204688470025DB
:102C5000E5816560A560FF20E082207D5AF723F9B9
:102C60001834EAE7094EE8070CD0002525606560B6
:102C7000A560E56025616661102021465AF7B9F824
:102C80001834F0E770BDC046348CFC071000FF001C
:102C9000B0B5D14D2978012921D11249002803D09E
:102CA00008884007FCD402E00888400717D40023B6
:102CB0002B70C8888988000444181F2040064921C9
:102CC000224660F7CDFBA863E96364214143080C09
:102CD000286205486043800B401C4008A862B0BDD4
:102CE000508CFC07001600501111010010B5F34C78
:102CF000082020701120FEF75FF90320607010BDDE
:102D0000FEB5624803250570614C20461438016801
:102D100014220A436B218A430260A06A5D49C8609D
:102D20000020C043A06220683F21884320602068C3
:102D300059490840206060685849084001210191C4
:102D40008902029140186060606840210143302090
:102D500081436160A069524908400B21490640182F
:102D6000A061A0694F49084069024018A061A069AC
:102D70001821014327208143A161432020714A4843
:102D800080474A4880474A48804740480570009538
:102D9000484806684848804748488047206848496E
:102DA0000840F105401820603B4E40362068304016
:102DB000490C401820604127277160683749084056
:102DC0000299401860603848804738488047384842
:102DD00080472E4805703748056837488047374890
:102DE0008047206836490840E9054018206020687F
:102DF0003040490C4018206027716068274908401E
:102E00000299401860602848804728488047284831
:102E100080471E4800990170264800682168284AAA
:102E20001140C2058918216021683140254D0540B7
:102E3000A801081820606068019988436060154EF9
:102E4000F068A06220681C21014323208143216097
:102E50002068114908402060A069114908400721F5
:102E600089064018A061A0690E4908400F21C901D8
:102E70004018A061A0691E21014321208143A16166
:102E80000D4880470D488047F586FEBD051000407F
:102E900018300040C83EFC07FF7FFFFFFFF9FFFF2F
:102EA000FFFFFFC03FF0FFFFF114FC070115FC0717
:102EB0009B0FFC0788300040CD14FC07870FFC07F0
:102EC000FFFF7F00FF01000070470000F0B58BB0EE
:102ED0003022002181541F221204354B1D68954376
:102EE00001246204AA181A60334B344D4561344DF5
:102EF000344E354F354AC261066243622D4A8262C2
:102F0000C562334A07604260E004CC4A13688343D9
:102F10001360282903D001A84154491CF9E72D4822
:102F20000068403001A928225CF7E6F8C74D092067
:102F3000E870FFF7DBFEFFF771FDFFF749FD00F0DA
:102F400089F900F0DDFA00F06BF8FFF7D9FE2C717B
:102F50002248008807210140A971FDF7B1FFFEF763
:102F600041FAFEF753FA1E490B881E4804681E4AB0
:102F70001440E31803601D4B1C88856915402C190B
:102F800084615B88C4691440E318C3614B8A046A96
:102F90001440E3180362898A436A13405918416256
:102FA000A84802218170002101800BB0F0BDC0460D
:102FB000740000401D30FC071930FC070531FC0788
:102FC000E930FC075D12FC07C130FC07C330FC0789
:102FD000C92EFC074CB9FC07508CFC07B810004008
:102FE0001030004088A0FC070000FFFF6430004064
:102FF00080B5FFF77BFEFFF7EBFC00F02BF900F04C
:103000007FFAFDF75DFFFEF7EDF98E480221817032
:103010000021018080BDC04600207047704700003D
:103020000E4908880E4A024001204302D2180A8045
:103030004105824A13688B431360810700224A6767
:103040001F2212044B6F9343400418184867086806
:10305000E0220243102082430A607047383000505B
:10306000FFFC000080B51F20000401218A07536F78
:10307000834348041818506710680721884310607C
:103080000D48018808220A430280FFF72FFEFFF750
:10309000C5FCFFF79DFC00F0DDF800F031FAFFF70A
:1030A000BFFFFEF7B3F9674802218170002101805C
:1030B0000520FDF72DFF80BD0800005004100040E2
:1030C000704780B5E62800D3E620282800D82820BD
:1030D000F9214A0042437D20C10010465BF792FF70
:1030E0007F38C0B280BD00000548016807220A434E
:1030F00002600120800451490A6882430A607047D7
:1031000030000040022901D0012904D1002803D059
:10311000FF2805D0FEE7FEE7022901D10C20704709
:10312000DB48C0787047C046F8B544480168C90715
:1031300003D0016802220A430260012401684902A7
:1031400003D5A10502680A430260270265023C49D3
:103150000095084608380668002E6ED0300606D561
:10316000802008604AF793FBFEF766F93449B00700
:1031700004D50220086046F788FA3149300714D593
:1031800008200860FDF78EFC3D46274600242046B7
:1031900046F734FA2A490420BD4AD0710220294A50
:1031A000907014803C462F46009D3E4204D00F6034
:1031B000012046F723FA22492E4203D00D604AF738
:1031C000CFFB1F49700604D54020086046F711FA6E
:1031D0001B49F00604D51020086044F7CDFD1849BE
:1031E00070071BD50420086017490888A043088091
:1031F00017480078C00702D13FF764FA04E00020C6
:103200003FF7B0FA3FF776FA5AF75EF93FF718FA48
:10321000FEF712F900209E49C8710949F00707D04E
:103220000C605AF76DF94AF732FB05499848C471AA
:10323000B0068ED5202008608BE7F8BD0002004064
:10324000180000400410004008330050508CFC0768
:10325000FDB9FC07FCB57F200002594A5169814342
:103260000B20000208185061106880B255494018C0
:1032700010609069544C04400123580300902018BA
:103280009061032001900002146B04431463908F3B
:10329000102404439487908818439080A1484B4A97
:1032A00002604B4A104610384A4DAC8B0440152042
:1032B0004301E0185030A8836869474C04404748F0
:1032C00020186861A869464C044009204002201873
:1032D000A8612868434C0440434820182860686867
:1032E000424C0440424820186860A868414C0440A1
:1032F00041482018A860E868404C04404048201825
:10330000E860C1204001624CE478240620183D4C5E
:103310002060052080023C4F3880401DB880388CEA
:1033200055260643AA2086433E84FF266C36304647
:10333000C9303885354908460E30B8853448388656
:10334000B986C01D388733482885A86B32490140AB
:1033500032480818A863324D2E80288F10401F462F
:103360002037C01928872F48018811408919D53185
:10337000018081881140C918818001891140C919D3
:1033800001812136AE80284801881140C91860317A
:103390000180818A19220A4306218A438282A08FF2
:1033A0002249014000980818A08721480168019A25
:1033B00011430422914301601E486066FCBDC04673
:1033C0002030004000008888FF00FEFF59055C07A0
:1033D0001FFCFFFF042000400000E0FF09581A0016
:1033E000FEE1FFFFE0E000000809294900000303B7
:1033F000696A686C031FFFFF70600000E0E0E0E0B6
:103400000B0A0A080010004028130040260A00009A
:1034100051080000070F00002F64E0FE101A06019B
:10342000001200404412004088120040FF9F00003C
:103430008010004050015001F8B5642013490E5A25
:10344000134F3C6A304660431249401812495BF7FB
:10345000D9FD0546F8813C3666430E4830180E49C2
:103460005BF7D0FD001D0D4908612818C01D88615B
:103470000B4A1278022A01D111308861FEF732FB23
:103480000849401880B25AF749F8F8BDC88BFC07C4
:10349000508CFC0720A1070040420F00C83EFC07EB
:1034A000B4BAFC07E20400000E480188890918221A
:1034B0000A4000888004400F8018704710B51F2113
:1034C000490282010A4007490B88074C1C401443FB
:1034D0000C800A88054B13404007800C18180880A0
:1034E00010BDC04654000050FFF90000FFC70000A7
:1034F0000248018801229143018070470411005065
:1035000018B50848016800910099074A009B1A40C5
:10351000FF2424040C40D9B20919044BC9181143E3
:10352000016018BD8000004000FF00FF0A000A0093
:1035300002E008C8121F08C1002AFAD1704770477C
:10354000002001E001C1121F002AFBD170470000DA
:10355000034880F3098800F025F8FCF7F9FDC04620
:103560002446FC0704207146084203D0EFF309808B
:103570000A490847EFF308800849084770470420C4
:103580007146084203D0EFF3098005490847EFF37D
:103590000880034908477047FEE700002912FC072E
:1035A0008511FC071C4988880722904388800520E4
:1035B00000078A89D20710D0098800290DD1174940
:1035C0004A8802858A888284CA880284428A144B87
:1035D00013400988C90119434182124906220A8011
:1035E0000121CA03104B1A60BFF34F8FBFF36F8FD7
:1035F00002221A60BFF34F8FBFF36F8F1960BFF3C2
:103600004F8FBFF36F8F4189042291434181002185
:10361000018062B67047C04604030050A000FC075A
:103620007FFE00000034005080E100E00000000058
:10363000AC36FC074C8CFC0702000100080004902B
:103640000000000000000000030005D08B0035F0F2
:1036500010005CF0000010B0000018B000001AB0BC
:10366000030051F0000038B000003AB0000064B030
:10367000000066B0000022B0000024B0010005D0B8
:10368000000000000A00008008030490000004F01D
:10369000030006D0000000000A0000800803049028
:1036A000000004F0030006D000000000B436FC0760
:1036B00001000000FFFF00004115FC0701000001B0
:1036C000F509FC0701000002E50AFC070000000004
:1036D00000000000F4011100F4352348F40108C48F
:1036E000140A000014000000ED14F207FF000000AF
:1036F00000000000050000002446FC070004000054
:103700009C90FC07AC020000908CFC0700040000B9
:103710005493FC07700500002003000000A60E0073
:1037200005000000D2000000320000003C00000054
:103730000100000001000000020000000200000083
:10374000040000000300000006000000000000006C
:103750000200000002000000000000000000000065
:103760000300000003000000050000000500000049
:10377000060000000A0000000A000000C800000067
:10378000B80B000002000000B80B0000B80B0000EE
:1037900010000000D4010000CC0100007002000005
:1037A0006A0000000400000001000000200000008A
:1037B0000A00000001000000E20400008A0200008C
:1037C000DC050000AF0000006C39FC07E037FC07A7
:1037D000000000007439FC07000000000000000039
:1037E000A8B8FC07A0B8FC07B8B8FC07F8B8FC07F5
:1037F000CD2EFC076530FC07E911FC07F1DEF00770
:103800009911FC0749DFF00761DFF00777DFF00768
:1038100099DFF00719E3F007BDE5F007FDE3F007D6
:103820001DE4F0073DE4F0077BE4F0078BE4F007CC
:10383000F5F9F007B1F7F007CFF7F007EBF7F0076E
:1038400005F8F00719F8F00797F8F007AFF8F00758
:10385000DFCDF10767D0F107DBB9F007CD0DF20737
:10386000B10EF207AD0EF207A90EF2078D21F00797
:10387000F12BFC07811AFC07C11AFC07151BFC077A
:103880000D1BFC07B57EF007837DF0076501FC0783
:10389000599EF107634CF107312CFC07D110F20758
:1038A000092CFC07B111F2074B13FC076513FC0749
:1038B00000000000A714FC07A914FC07B9C6F00714
:1038C000D592F107F301FC075F9DF1075F9CF107BB
:1038D0000505FC07EB72F107B922F1076B04F1074C
:1038E000A514FC072BA4F007F1D2F0075FBDF00789
:1038F000D5BDF00785BEF007DB2DF007752EF0076C
:103900001581F007DF7FF0070937F007000000009E
:10391000AB14FC07B314FC07A113FC07F3C3F107B6
:1039200075C4F10703C5F107B913FC0700000000D7
:103930000000000000000000000000000000000087
:103940000000000000000000000000000000000077
:103950000000000000000000000000000000000067
:10396000000000000000000000000000D436FC074A
:103970007C8CFC07E436FC07348CFC07010000005B
:10398000B439FC07B839FC076C0500004035FC076A
:10399000B439FC07243FFC07000700004035FC0752
:1039A000C08BFC07C08BFC07D00000004035FC0733
:0439B0000E00000005
:0400000507FC0151A2
:00000001FF
