:0200000407FCF7
:100000006447FC079536FC07A936FC07C336FC0796
:10001000DD36FC07DD36FC07DD36FC07DD36FC0788
:10002000000000000000000000000000DD36FC07BA
:100030000000000000000000DD36FC07DD36FC0794
:100040004510FC077132FC07A526F0070512FC07D6
:100050008111FC07DD36FC070910FC07DD36FC07C3
:100060001510FC07DD36FC07E910FC07F310FC0750
:10007000FD10FC070711FC071111FC07DD36FC071A
:100080004912FC07DD36FC07DD36FC07DD36FC07D0
:10009000DD36FC07DD36FC07DD36FC07DD36FC0708
:0800A000000000008E070E00B5
:0200000407FCF7
:100110005458000652580005525453000743545394
:100120000008504F520000010000000000000000D5
:0200000407FCF7
:100130004669726D776172650000000032363332B5
:0C01400006001800B805000300000000D5
:0200000407FCF7
:100150000348854600F040FF00480047E91BFC07C4
:100160006447FC07F8B507460120002302460090CB
:100170001946032049F746F90446022180300170F0
:10018000FF4DFE482A6843881146FF31F7310B8640
:1001900080884886FB48066A0123DB069E431E438F
:1001A0000662FF320020FF32383250829082D082C5
:1001B0001D200882F4484884F448C882F448088323
:1001C00000204882384649F75DFC01462868FF3028
:1001D000F730C28B920992010A43C283ED4841680D
:1001E00000208847002C02D0204648F7F4FC204627
:1001F000F8BDFFB58BB0064616980027022821D01F
:100200000D9801881498814278D371880846403847
:100210003F2802D8159855F7F1FC0C98361D008838
:10022000149A80190E995EF767FF0C98018814984C
:1002300008180C9908800D9801881498081A0D99CF
:1002400008805CE100200E9D079069782C780902F7
:1002500021433180E978AC780902214371808C46D2
:10026000403904242D1D024603468E46402900D302
:100270002878614604291FD0052914D0062918D0F2
:1002800070463F283DD8159855F7B8FC0006000E7B
:1002900004D0C148008D0006C00F30D002230120D9
:1002A000BE4A002712E0697800290FD0BC4A172304
:1002B0000CE0BC4A0F2309E0522802D0D22802D019
:1002C00002E0142000E01520B74A1F23002A1AD0AC
:1002D000984218D2800010580490002813D00020B3
:1002E0000890059070884038402803D3287805246A
:1002F00030716D1C701D00900498B5E0FEE0302751
:10030000F0E03327EEE07088042872D10627E9E098
:10031000522862D00CDC4B283FD004DC41286AD044
:10032000422858D111E04C2820D0502853D140E029
:10033000632830D004DC572818D061284BD19BE0CB
:100340006C2864D0772846D109E00098297801709C
:100350000098641C401CA4B26D1C009081E00498BD
:10036000401C04900178089881427AD10098A41C1E
:10037000401C41084900881C009068782A780002D7
:10038000104308800599AD1CA4B2002969D00890DB
:100390000020059065E00120FBE710222946009827
:1003A0005EF7AAFE009810341030A4B21035009009
:1003B00057E0204640301499039088420BD84022E1
:1003C000294600985EF798FE009840300090039808
:1003D000403584B245E0342743E00822294600989E
:1003E0005EF78AFE009808340830A4B20835009001
:1003F00037E068E0FFE70622294600985EF77CFEBA
:100400000098A41D801DA4B2AD1D009029E0149891
:10041000001B80B203903088001B001D81B20120B8
:1004200007900498401C04900098401C400840002D
:1004300000900498007857281CD04228CBD100980F
:100440000170090A417000982946801C0090039AA7
:100450005EF752FE03980399201884B20098401862
:1004600000900498401C0490007800281ED0002FB3
:1004700017D01BE04908E2E71498001B81B20098EE
:100480000391401C40084000009001200A4607905C
:10049000294600985EF730FE0399601884B20098F0
:1004A000DDE70D990988A14200D331E70D98008856
:1004B000A04208D304990978002904D1079900299A
:1004C00003D1A04201D034270CE00D99001B088015
:1004D0000C9801880098801B001F08180C99002FA9
:1004E00008800CD07088042809D0062807D040382E
:1004F000402804D30E984079707100E034273846C4
:100500000FB0F0BDFFB581B01F4616460C46104631
:100510005CF7B6FC00257F2802D02189062909D086
:100520003B4632462146019855F7FBFE05462846D4
:1005300005B0F0BDC00601D50225F8E720780028F7
:10054000F5D1300AA11D42F784F8F0E7F1B598B073
:10055000189842F77CFA0446189805210079134A46
:100560004006C00F099068460184618B08460A382E
:10057000904276D2E08A062873D319E030BCFC079B
:100580004CB9FC07C0000040108000002941000069
:100590007671000058BFFC0748BEFC073803F2071D
:1005A0004003F2079C03F207D803F207770C000020
:1005B0001922D201904254D8228BFF23F5339A425C
:1005C0004FD8521C9300D2184243521C0A23521097
:1005D00059438A4245DC217F00290CD1617F0029E3
:1005E00009D1A17F002906D1E17F002903D1202173
:1005F000095DC90635D0274620377978C906C90E66
:10060000491F0C292DD2A18A81422AD8E17C0029D8
:1006100027D0421E082A01D9082000E0401E81424E
:100620001FD8684646F7D4FA00281AD1FE4D062294
:10063000286221460AA85EF75FFDA8792E46803E13
:1006400000287DD06079800901280BD00AA809997B
:100650004CF78DFD010003D03820405C002870D09D
:100660009BE008E1F06A807A012808D0042806D0CF
:100670000AA84CF7E9FD286200284ED054E0686AC9
:1006800006220AA932305EF75BFD002806D00AA8D0
:100690004CF7DAFD2862002802D012E0686AF9E718
:1006A00000210AA84CF7E6FD2862F16A897A01293F
:1006B00005D18B071A6849068A430A431A60002845
:1006C00011D0F16A286A0622253010315EF738FD14
:1006D000002808D1286AF16A2030C07AC97B884294
:1006E00001D1286A1EE0D148D1490088C96880B28A
:1006F00006225043081842F7AFF9014614A8062213
:1007000002305EF7F9FC13AA00213C2042F771FC8D
:100710000121B06D47F798FEA9E011A90AA84CF78E
:10072000A9FD2862002838D00146253106220FA8ED
:100730005EF7E2FC286A08AA2030C17A0FA801E01F
:1007400041E024E04CF7F6FB002812D0286A203064
:10075000C07A002809D16846B649008C4BF75DFB8A
:1007600008AA0121B3484CF7E5FB68460AA9008CAA
:100770000AE008AA012111A84CF7DCFB00280CD0E4
:10078000296A6846008C32314BF75DFB05E00A1898
:10079000527D002A08D010286DDBF06A407A0228CA
:1007A00006D0032804D00EE0401C1028EFDBF4E74D
:1007B0006846008C052806D308AA0AA809994CF7B0
:1007C000B9FB002857D00022694620464CF75BFC55
:1007D000002850D1F06A407A02280BD0032809D0B3
:1007E0000023684602880AA809994CF76DFC002886
:1007F00002D02FE00123F4E7E18A68460181218BD2
:100800004181618B81817878062241096846817532
:100810007878C106C90E6846417521460E305EF7EC
:100820006BFC189800794006C10F68460175038873
:10083000214602A8B26D47F7ADF90146B06502A89E
:1008400042F725FC0020B065214668461C3100882F
:1008500046F711FA49F790FA734C2034207A0028B1
:1008600005D0002109205CF74EFC002020720021F9
:1008700008465CF7F0FA19B0F0BDF8B56E4C0646C4
:1008800085000F4660594C21095C24290ED140692E
:100890001022791D2E305EF72FFC61592520403142
:1008A000087300221146304654F7FBFA60594C2178
:1008B000095C0C291FD140691022791D2E305EF78A
:1008C0001BFC60595F214069095C09072DD4014672
:1008D0002E3110221E305EF733FC00280CD06059F8
:1008E000092140300173304654F7F8FF01460022D9
:1008F000304653F755FEF8BD0421684601706A463C
:100900000521304653F7F6FF684601786020014321
:1009100068460170304654F7E1FF014668460278A8
:100920000123304653F751FFF8BD304654F7D6FF48
:10093000012809D060590721403001730022114677
:10094000304654F7AEFAF8BD615900204969C0310C
:10095000887160590421426930461E3253F7CAFF3C
:10096000605941694031897F002907D01A21403000
:1009700001730021304654F71EFBF8BD1B214030A7
:100980000173304654F76CFBF8BDF8B52A4C0546A8
:100990008600A0594C22125C192A11D140224D30F8
:1009A000491D5EF7A9FBA059402224494D305EF74E
:1009B000C7FB002805D02149284620395BF72BFDCD
:1009C000F8BD0B21684601706A460521284653F799
:1009D00091FF68460178602001436846017028460F
:1009E00054F77CFF0146684602780123284653F7F6
:1009F000ECFEF8BDFFB581B003980C46060A002551
:100A00005CF73EFA002827D0132825D0142823D0DD
:100A10000B48B700C0592030407BC00637D503983B
:100A20005CF72EFA15280DE030BCFC0768B9FC070E
:100A300060BBFC0750F5F1073CBEFC07FCBDFC07A2
:100A400078BBFC070CD0A07941F7F4FF304647F79C
:100A50008FF8032806D015E0A07941F7EBFF1FE0DF
:100A600002251DE03248C0592030407B400704D5A4
:100A70003D21304642F7DCFC04E03D2200213046B7
:100A800042F7E5FC3D21304646F7BAF808E020463B
:100A9000103828490181468120464EF7A3FD0125E3
:100AA000284645E524485222006864308188C37E88
:100AB0005143224A12688918FF225F32525AFF318D
:100AC000120AD21A01310B8CD2B2DB0B09D00B8C7B
:100AD0005B045B0C0B84002A03D18088184A012137
:100AE00011547047FFB51746140A81B0104A029896
:100AF000A100515840780026114D002907D0295DEA
:100B0000002905D0002803D1204643F7F5FE2E55D5
:100B10003A46049B0299019844F77FFE08E50A488B
:100B200008490160094941607047704770470000FB
:100B300078BBFC070608000084BBFC074CB9FC0727
:100B40004A7CFC070459F007C0000840490C00BF6C
:100B50007FB5E4486B460188428889186A4611804F
:100B600001214C0022181546403DED8F065B52884E
:100B7000AD19AA18491CC9B21A530729F1D38189A2
:100B8000C089081881B2D981D888002821D0188955
:100B9000002820D0988800281FD0588900281ED00F
:100BA000988900281DD0588800281CD000291CD006
:100BB000188800280BD00720062254001C5B8C42AA
:100BC00001D22146D0B2521E52B2002AF5DA04B048
:100BD00070BD0320FBE70420F9E70220F7E70520BA
:100BE000F5E70620F3E70120F1E70720EFE7F0B58E
:100BF00095B0EFF310801090012080F31088BA4870
:100C0000816B4A07520F69460A800A92816B012262
:100C1000C908C9008163B5498B8869464B800224A5
:100C2000B24B00219980C16A09078B0F69468B80FE
:100C30000F93C16A0C2399430831C162052109074A
:100C400009880906CB0F6946CB800521090709935E
:100C500009888023194305231B071980A449898A21
:100C60004906CB0F69460B81A1490893898A402325
:100C700019439F4B9982016A09074B0F69464B81C3
:100C80000C93036A0E218B4303629B4D9948686065
:100C9000FF204030A8602888A043288097484168FA
:100CA0000B071B0F69468B810B93416809090901EA
:100CB00008314160416849064B0F6946CB810D936D
:100CC000416870239943603141608748403801682A
:100CD0008904CB0F69460B820293036841140B43CE
:100CE00003600168CB07DB0F69464B820E930168F6
:100CF0001143016041688903CA0D69468A820392E3
:100D00004168CA05D20D6946CA8204928168890386
:100D1000CA0D69460A8301928168CA05D20D6946E7
:100D20004A8305924168764A11400322D20389180A
:100D300041604168490A4902FF314131416081689F
:100D40006F4A11400322D203891881608168490AE1
:100D50004902FF3141318160642000F02DF9A889FA
:100D600069468007C00F8883A8892043A881002492
:100D7000604F288800260121084328800A2000F0BF
:100D80001BF9FF205F4941303A680A4200D0761CC7
:100D9000401E3F1D0004000CF6D1A88A8004FCD13F
:100DA0005149886B671CC208D2007807400F024384
:100DB0008A630A2000F000F960004A49FCB20E5232
:100DC000082CD5D348480A99826BD208D2000A432E
:100DD00082636946454A498891800F998A00C16AB1
:100DE0000C2399431143C1620999CA0105210907DE
:100DF000098880239943114305221207118008991D
:100E00008A013B49898A402399431143384A918298
:100E10000C994A00016A0E23994311430162374835
:100E20000B994268120912010A4342600D99426807
:100E3000090170239A430A434260029841032A48F9
:100E40004038006801225203904308432649403944
:100E500008600E9809684908490001432248403853
:100E60000160039842022048403840682449084005
:100E700010431D4A403A506004985268520A520288
:100E800002431948403842600198174A4002403AEC
:100E900092680A400243144840388260124905981B
:100EA00040398968490A490201430F484038816046
:100EB0001098002800D0012080F3108815B0F0BDF4
:100EC00010B5114C2078002808D0FFF790FEFFF7EE
:100ED0003FFE0E4908700020207010BD01F0B4FFE5
:100EE0000120F9E7F83FFC078010004000120040A5
:100EF00020300050F83AFC070035005040200040F8
:100F0000FF01FCFFC0C0C0C0E07CFC07E17CFC0727
:100F100010B5FF22154901320A60BFF34F8FBFF3AE
:100F20006F8F13490A6013490B6840241B0A1B0288
:100F300023430B601049898A0021C30700D0352163
:100F4000830702D57D231B021943430702D575236E
:100F50001B041943000702D53D2000060143064843
:100F60002038016301488038026010BD80E100E054
:100F700080E200E008E400E0A010004010B5062088
:100F800000F01AF810BD10B5092000F015F810BDDA
:100F900010B5812000F010F810BD10B5044800F025
:100FA0000BF810BD10B5034800F006F810BD0000A6
:100FB000010200000108000000280CD000BF00BFA3
:100FC00000BF00BF00BF00BF00BF00BF00BF00BF29
:100FD00000BF401EF0D170471CB509480090094879
:100FE000019005460126009C05E0E36807CC3343E9
:100FF0000C3C98471034AC42F7D3FFF7ADF8000033
:10100000C43AFC07F43AFC0701480121018070470B
:101010000E1500500A48011F0988CA0706D0028829
:1010200007239A43AB4B5B7A13430380490706D5EA
:10103000018807229143F64A927A0A430280704758
:10104000B8100040B0B5254B0820188005200007D7
:101050000188302211430180048803210C4304805D
:101060001C896407FCD403889343038003888B4363
:101070000380E74C238A4380638A9D1EE34B5D8097
:1010800007251D8005881543058005880D430580CB
:101090001D886D07FCD403889343038002888A432C
:1010A00002804289920702D042898A4342810189A3
:1010B00080220A430281018A042291430182818AAB
:1010C0008907FCD541F72DF9206A054908600548D4
:1010D000016801684907FCD5B0BDC0460033005027
:1010E000080200401000004080B50A2000F024F8FB
:1010F00080BD80B50B2000F01FF880BD80B50C20AE
:1011000000F01AF880BD80B50D2000F015F880BD04
:1011100080B50E2000F010F880BD0000B0B50124AD
:101120008C404001034D44531A43401949000818AC
:101130004280B0BD04300050F0B503460A3B0121A7
:101140000A469A4093B20B4D5C19661C5E400A4BEE
:101150001C8800272E4203D07F1C7608B6B2F9E720
:101160009443BAB20D46954025431D8081402248E4
:101170000160F0BDFEFF01000E140050FEE700000C
:10118000024800881C481021016070472C13005051
:1011900080B54CF77EFE0B48828980210A4382810C
:1011A000027903781202D21814235343064A128894
:1011B0001207D20ED218921C044B1A8082898A43DD
:1011C000828180BD00100050C0100050487CFC0798
:1011D000E248018904220A430281018840220A432D
:1011E0000280054901220A604189044A1140891898
:1011F000091D41817047C04680E200E0FC7F00008D
:101200007047000010B50F4CA1880F20084002283D
:1012100009D0042804D00C280CD00128F4D110E007
:1012200002F008FAF0E72088022188432080208815
:10123000802103E002F0FEF920880121884320800C
:10124000E2E710BD0411005080B5052108070288AF
:1012500030239A430280028803239A4302808288C3
:1012600012050DD51A4A13880B40052B08D110889A
:10127000042101431180108801218843108080BD22
:101280008188C90606D5CC498A88D20702D00A8847
:10129000120610D48088C0060CD5C74881888907FB
:1012A00008D50188C90505D50221818001880A4A2F
:1012B0000A40028080BD01208880088880229043F7
:1012C0000880BB48C0690028F4D000F02BF980BD2D
:1012D00000020050D87CFC07FFFE000010B501247E
:1012E00020465BF7CDFD002805D100205BF7C8FD47
:1012F0000446401E8441204610BD80B5C1B20C2971
:1013000004D1A02108435F21884380BD08465FF7D0
:1013100097FF80BD80B5C1B2A02904D10C2108433C
:10132000F321884380BD08465FF7A6FF80BD00001B
:10133000022807D804490870C006000E0349C140BE
:101340000348C1707047C046B4BAFC0700010100F1
:1013500054BAFC07B0B50C460025202D04D041F747
:10136000CEFA60556D1CF8E70020B0BD10B50446FC
:101370000548064970225DF7BFFE0548001B054978
:1013800008801430488010BD709CFC078037FC0733
:10139000B89CFFFF789CFC0710B507480188074AF6
:1013A0001368114C2340591811604088516821403E
:1013B0000818506010BDC046183000408C9CFC07D7
:1013C00010B507480188074A1368074C234059188D
:1013D00011604088516821400818506010BDC04617
:1013E00038300040989CFC070000FFFF07481E2192
:1013F0004180018803220A430280018804220A43B3
:1014000002806B48012101707047C04600160050F1
:10141000D87CFC0780B50D480078C00708D10520AE
:101420005BF72EFD00280FD12A200A49085C04E052
:101430000748417D012907D1007D41424141C21E3B
:1014400050425041084380BD002080BDFDB9FC07DB
:1014500088BDFC0730BDFC07704770477047704778
:1014600080B55FF789FD80BDF8B56946C870020A8E
:101470008A70020C4A70000E087008465FF764FD1F
:101480008FBD000080B51B4800210160FFF780FD83
:10149000164800781F214901134A13688B43C00680
:1014A000800DC018106080BD80B511480221017008
:1014B000FFF764FD80BDC04680B50B480168890513
:1014C000C90E0A4A11701F21490102688A4302604D
:1014D0000748012101700748016803220A4302609E
:1014E000FFF756FD80BDC0464C120040F43AFC07A1
:1014F00006100040AC10004080B52D4841794901EC
:10150000074A895A8079C140C80705D14648202139
:1015100001603220FFF750FD4CF7EAFC80BDC04669
:101520000030005080B5EFF31081012080F3108867
:101530000A4A1288120603D4094A13880343138007
:10154000002902D080F3108802E0002181F3108886
:101550001749C87000F006F880BDC046080000506A
:1015600008330050B0B51248037912490A88102494
:1015700014430C80104A0421918011883F24A14318
:10158000118001210C469C409481002353801388D4
:1015900080252B4313801481084AC26108480268E1
:1015A0002A437F239A430260080406490860B0BDBD
:1015B000D87CFC0704000050000100502515FC07F2
:1015C00010E400E000E100E0B0B5124D28884006CC
:1015D00002D52888800609D40F49086A002400280B
:1015E00015D0CA69521CCA61824210D30A4800242D
:1015F000C461281F2021016008480088FFF7DCFC37
:101600002888C00701D1012401E04CF771FC204675
:10161000B0BDC04614100050B8BAFC07487CFC07A7
:1016200001482021016070471010005080B54CF730
:10163000A2FCFFF761FF80BDF0B589B00F460B49F2
:1016400040180B2800D94CE14000C04678448088FF
:10165000400087440D0046013A00460180004601E3
:10166000930046019F00270046015100FF5FFFFFE6
:101670003878841CFB480C22194623465BF7BAF9DC
:10168000044600250570397841708D4200D325E16C
:10169000A90701D15FF770FC611988706D1C000A01
:1016A0003978F2E7F04805210C2202235BF7A2F912
:1016B000044600206070ED480078421E51425141BE
:1016C000022800D10146217008E1FB480C221425B4
:1016D00019462B465BF78EF90446F84908312A462D
:1016E0005DF70AFDF6480178217001796170017A91
:1016F000A170007BE070F1E0E9480C220824194653
:1017000023465BF777F90446FF20E071E54906229E
:1017100038465DF715FD002815D03878797809022C
:101720000818B97809044018F97809064018DE4904
:10173000086038797A7912021018486038464BF7F9
:101740006BFC0020E0710622204639465DF7D4FC90
:10175000B879A071C2E0D6480C220224194623466B
:101760005BF748F9044606202070387841B200291A
:1017700002D4032800D2A2E03020AEE0CB480C22F5
:101780000124194623465BF735F90446BB48C07966
:101790002070A3E0B4480C260225194632462B4699
:1017A0005BF728F90446457038782070022800D28B
:1017B00081E000D18CE0032800D08FE0FFF78EFDA0
:1017C000002800D088E0089600200790607020462E
:1017D0005BF72BF9A64E5BF710FE30884006FAD572
:1017E000FFF7F2FE0798C043A2490860A249082209
:1017F00006920A8079780491A049097972B6A04AC4
:101800001060A04BD889C005800F9F4A108001222C
:1018100010468840198AC906FCD403210791C901E2
:10182000DE898E43DE8199490E897C27BE43C0B292
:101830004008800030430881D88CC00406D4088951
:1018400028400E89AE433018684008811003DE8CB2
:101850000642FCD00889104308818D480668042799
:1018600005973E4306600798C0439E8A0640039250
:10187000049A16439E829E8A089FBE439700374370
:101880009F829E8A3027BE431701039A37439F8267
:10189000DE890640DE818888904388800E88072094
:1018A00006430E809E8A15273740152F00D195E0FC
:1018B0000D20800293E0FFF73BFD00200DE00021AA
:1018C00061707CA1085C6D49C87101F067FD05E09D
:1018D000FFF704FD002807D00120607020465BF769
:1018E000A4F8002009B0F0BD0896FFF73BFE0020E9
:1018F0000690607020465BF798F85D4E5BF77DFDC3
:1019000030884006FAD5FFF75FFE5B480821059155
:1019100001807878039072B65A4FB8890421084341
:10192000B881B88880229043B880B8884022049259
:101930001043B8805748079101803888564A0240C2
:101940003A800698C0434E4A1060388AC006FCD4DC
:101950000323D801FA898243FA8101200690C1430A
:1019600002914A4806890E400681494E3168079A1D
:1019700011433160B98A01939943034603980143A7
:10198000B982B98A089EB14386000E43BE82B98AE5
:101990003026B14306010E43BE82B989069A11432F
:1019A000B98199880298014099800F208002198B93
:1019B00081430720C002081818839003198B014344
:1019C0001983FE8C35480188F60519D4602211432D
:1019D0000180188B01990843049A1AE0C0020F266F
:1019E000B6020F8BB743C019088390030E8B0643D2
:1019F0000E83DB8C088BDB051AD4079A10431DE09D
:101A000020263143049A91430180188B284306997C
:101A100088431883188B059908431883188B0799F6
:101A200088431883988B104320218843988314E0BF
:101A3000402318430883088B284390430883088B6E
:101A4000069A10430883088B059A90430883888B75
:101A500040220243202082438A8300BF00BF00BF90
:101A600030BF3BE702A000000BA00000B4BAFC07A7
:101A70001410005080E100E000330050D87CFC07D7
:101A800080E200E004000050A000FC0708030050C2
:101A900010ED00E000020050FFF70000520000507F
:101AA0000DA00000DCF1F1072400004008A00000B8
:101AB00006A000000C09010004A000003001FC0792
:101AC0000032005070B5EFF31085012484F31088C4
:101AD00005200607708DC00509D54048847001F0C7
:101AE00087FD0F4908700F480088204048703088F3
:101AF0008021014331800C48016807229143016035
:101B000041684907FCD50949016109494161002D36
:101B100002D084F3108870BD002080F3108870BD5F
:101B20000840FC07800000500000F4070F009909EE
:101B3000090404A470B5174EB06800F02DF82749C9
:101B40004A6A00234B621518084C284621465DF767
:101B500059FA706106494143481901D0201A80B2F0
:101B60003061306808210143316070BD71020000AE
:101B70008FFDFFFF80B506480021016001F000FDE8
:101B80000120C00703490A6882430A6080BDC0463D
:101B9000A8B9FC073000004080B50246C00B09D050
:101BA0000E48006B00210B465DF756FA8905800A46
:101BB000401880BD0948006B4243900A80BDC04672
:101BC00080B5FFF7E9FF80BD80B50449896A4143CC
:101BD0000348081803495DF715FA80BDD87CFC0757
:101BE00020A1070040420F0000B59FB0AF48082673
:101BF0000680AF4D28881BAC20802088C046C04698
:101C0000208804211A91C943084202D0002028806C
:101C100003E0A88901218843A8812F46A88BA54904
:101C2000014007201590C0020818A883A24C208804
:101C300030432080E18D06208143E1850125A90301
:101C4000BA8B0A43BA8321889C4A0A402280618861
:101C50000143B14361800520334610900607718D22
:101C60000F2002900202E08D90437D22D200C90530
:101C700093490F9209931BD4032149020843E0853D
:101C80009048401CE18D0143E185B88B9843B883AF
:101C9000B88B04218843B88360888B4901406180F8
:101CA000E08D2843E0851A9B708D4007FCD515E038
:101CB00010181830E085E08D0840E9034018E085F1
:101CC000B88B1843B883B88B1A9B9843B883E08DC0
:101CD000A843E085B88B40218843B883280213903D
:101CE000B88B032103910843B8832088202108433F
:101CF00040221492D24310402080388C1691084321
:101D000010403884F08A8021059108431040F08209
:101D1000308EFF2188433086308F184318210D9173
:101D200088433087308FA0210143129211403187C0
:101D300066480380B08866490140B1802F46280478
:101D400064490860FFF7BEFE634A106815990840B1
:101D50001CA90870087802281FD0708D13990842BA
:101D6000109C12D001F044FC0A2802D80B2001F08C
:101D700049FC5148C08DC007574A06D14E49C88D0D
:101D80003843C885708D4007FCD510680221014397
:101D9000A143116050684007FCD550480068C1B2AB
:101DA0000C20AA29014600D01A993288824388184B
:101DB0003080C046C0464A4800684A4909886823BE
:101DC000494C00220E921193E252484FB987B863F2
:101DD00001201790C046C0464548001F006845498D
:101DE000884200D058E102980407042000210C9199
:101DF000189403463E4A1118081FEC32904200D353
:101E00004DE11A9300681E901E9B23400920050790
:101E10001E9AAB4270D11E9B1D0AEBB21993D2B22F
:101E2000531E162B00D9FCE09B0002A7FB582F4F36
:101E30009F46C0465920FC075920FC072320FC0779
:101E40005920FC072320FC07911EFC07B31FFC0749
:101E50002320FC072320FC072320FC072320FC076A
:101E60002320FC072320FC072320FC072320FC075A
:101E70002320FC07D31FFC077D1FFC07FF1FFC0767
:101E8000731FFC072320FC071720FC07A51FFC0776
:101E9000154A119C105DC0001018199A92005DF748
:101EA0002BF91149085D40190855A6E00033005090
:101EB00004030050FFC3000052000050FFBF0000A9
:101EC000FF0F0000FFEF0000FFF9000000020050CC
:101ED000FFF7000080E200E00000F407D07FF80781
:101EE000D47FF807D87FF807507CFC07D87CFC0724
:101EF000D47EF807A5A5A5A5900F10D01E98A949D6
:101F000088420CD81A9D28460830314628311E9A3E
:101F10008A4224D1A4496958A44A518069E71E988D
:101F200020401599090788421A9D03D10020C04618
:101F3000C04612E01E9820401799C90788420CD06D
:101F40001E98204010994907884206D01E982040CC
:101F500003994907884200D08EE0281D49E7B11C4B
:101F60001E9A8A42924B7DD18F49695866229952B6
:101F70003FE78D481A990858622117E08A4A1A9B50
:101F8000995848439A58120C801A00B2C0085A2334
:101F9000874CE052501A8108864A11400818401CAC
:101FA000582129E080481A9908586421804A5052E3
:101FB00052E069277E4CE05DC00020181030199A6D
:101FC00092005DF799F8E05D4019E055189C7A4F52
:101FD00042E0754A1A9B995848439A58120C801A45
:101FE00000B2C0085623724CE052501A8108714A60
:101FF00011400818401C54216052189C2CE00C9D84
:10200000A8001CAA1018199FBA005DF775F87D1971
:10201000694F0C9520E064481A990858644908658E
:102020001AE01E2A18D119984008020614D00B682D
:102030004A68083100273D460835382D08D05C4CE9
:10204000E7193F699F422F46F6D1594B5B19DA6079
:10205000401E594F189CE8E7199880001A990818F3
:10206000001DC6E6314624311E9A8A4209D14E49E6
:1020700069584E4A9180BCE61E98401C28460ED0F6
:10208000B7E6314620311E9A8A4200D0B1E6464971
:102090006958464AD180ACE66620255A2FE05C207C
:1020A0001C99434C21521199605C4008605469208E
:1020B000215C4908215409201D9948430A0C801AC3
:1020C00000B2C0086023E0522346501A8108394A02
:1020D00011400818401C5E2160526420215A0029DA
:1020E00001D10F99195266201D5A002D07D133498D
:1020F0000968C9B2AA29059D00D06E251D523D82EE
:10210000B08C179CA043B0840D201A90FEF754FFAA
:1021100070892043022111918843708170894006A3
:10212000FCD575800F98FEF747FF708903998843A7
:10213000708170890006FCD57F2078701F48806907
:102140001F4CA060EFF31085179880F3108830883B
:102150000599084330801B490868159A9043086028
:1021600048684007FCD5184808611848486130881D
:10217000059988433080708D139908420CD00E98D1
:10218000B870207801F03EFA11496078002803D138
:10219000C88D179A9043C885002D1BD0179880F3DF
:1021A00010881AE04C420050D47EF807A000FC07CB
:1021B000507CFC07FF3F0000D87CFC07D07FF8076D
:1021C0000840FC070000F4070F009909090404A463
:1021D00052000050002080F31088109B0E9CEB48AA
:1021E0000068EB49884200D0CDE0EA48EA495CF754
:1021F0009CFF15980102E9485CF797FFFEF796FCF3
:10220000E748E8490160E848E84930273A465CF782
:1022100073FFE7480024C471847144710471C47071
:10222000847044703F2119910170E248E2A1149A30
:102230005CF762FFF0480470F048F1490160F14832
:10224000F1490160F149F2480860F2480A21017041
:10225000F14818940470F148322108910170F04857
:1022600009210160EF4803990160EF480B250560E3
:10227000EE480C210160EE481A990160ED480E21EC
:102280000160179C20020190801DEB490860EB491A
:102290000860EB48BF49016000F084FC3089069774
:1022A000B8433081308905990843308130890999D4
:1022B00008433081308CA043308470890D99884365
:1022C00070813089149908433081308A0421884311
:1022D0003082B08A8007FCD51591F08CD94908402E
:1022E00029020143F184F08C179A1043F08470891D
:1022F000099908431021079188437081708C90439D
:1023000070843089149988433081CF4837309307DF
:10231000196801401A93196019984002CB4B19684B
:102320008143500308181860C948401C19680143CC
:1023300019609648006896498842C64DC64F39D004
:10234000BF480068C1498860C44A90681071010E96
:10235000D171010C9171000A50710198C030C04ACE
:1023600000281AD0401EBE49435C14782546039FBE
:102370003D40B94FB9494D192D795D406540157003
:10238000B44D521CECE7B748B5495A02944200D903
:102390002BE722586250241DF7E7B04C1C34B0499B
:1023A0001C2220465EF73CFE20465EF7CDFD7748B6
:1023B00077490160A24800683FF74CFFAA48189C83
:1023C0000471C4701A9A1068019908431060FFF7ED
:1023D0000DF8179800F000FDA348C470A3480470DE
:1023E000A34878630C201090A2495AF702FD109878
:1023F00021465AF730FDA048017BB971C17A797145
:10240000407C3871179FFFF7ADF89748C470974824
:102410000470FFF7AFFB0520FEF77AFD9748984957
:102420000818984940188008401E049078020E90C1
:10243000199880021090F8031990934F3089000684
:1024400000D4B4E11A98006B1999084200D0AEE1AB
:1024500085480088C00700D0A9E15AF7CEFF0024C4
:10246000204600F0B9FC7C48C07A042800D095E1F1
:10247000179800F0B1FC1C941CA8042529464BF7C2
:102480005DFB002800D188E1804917980860086842
:102490000028FCD11A98C0696F4B5969884201D253
:1024A0005C612146411ACA09197A182A63D9C907F9
:1024B00064D1774F39880D9179880C91B9880B9147
:1024C000F9880A913C800E9910317980149ABA806B
:1024D0005C21704B595AB9815F494861B8891043F2
:1024E0000699C9430840B8816B480260BFF34F8F1B
:1024F000BFF36F8F388810433880F8881043084046
:10250000F8803888A8433880B888C0B2B880F88886
:1025100070210140402900D0CAE06220185A0028EA
:102520005E4900D001464D4841805D48401C3988D5
:10253000014339801920FEF73FFD38880E9B184370
:1025400038803888149908433880788828433D4675
:1025500078807888534908407880029840027988CA
:1025600001437980788850490840139908188030D1
:1025700078804E48B1E0C80700D10EE1364988693D
:10258000401C886100F0D8FD07E1C0469CB8FC07FC
:1025900065873412009CFC07D01A000000B9FC07C4
:1025A00060BAFC070038FC0700BAFC077CFCF107A6
:1025B000DAB9FC07B0BCFC072000800000C00000B6
:1025C0000000840000002822000000000000040039
:1025D00000F7FFFF7F00000030F0FF0F0000000059
:1025E00000040000000000000000000000000000E7
:1025F0000000000000000000FDB9FC0750B9FC0716
:10260000603FF20754B9FC073439FC0758B9FC079E
:102610003838FC07B0B9FC07B1B9FC07D9B9FC07D9
:102620005CB9FC0760B9FC0764B9FC0768B9FC0732
:102630006CB9FC0770B9FC0748B9FC0744B9FC0742
:102640004CB9FC07FFF00000C8FEFFFF000200408D
:10265000FFFF1F0000330050D87CFC070840FC0738
:10266000207DFC0700B0FC0754BAFC07B4BAFC0795
:102670005B14FC077037FC071001FC07A839000049
:102680005001FC07030004F810ED00E0FC000040DE
:1026900000150050507CFC0780E100E0407600000F
:1026A000FF0F0000FF1F00003FFE0000FCFF0000C6
:1026B0003888F949084038807888F249084078809D
:1026C0007888039988437880EF4A104640383988E3
:1026D0000140398010460E9B3D4669880140698063
:1026E0002888179F384328800F9817302989014080
:1026F000EB4A918169890140D1812889109908406C
:1027000018432881688908401843688128881199EE
:102710000843288028888007FCD4EF81288AE14973
:102720004988DF4FBA892B89109D2B401343E54A16
:102730001381FA89E34B5B892B401343E14A5381B0
:10274000401A0F994143002804DCE14A8918C01758
:10275000084001E0DF480818DF495CF769FC85099B
:102760001935F44F78787F280CD0281A41B2C91156
:102770004840401A40B2052805DBB869401CB861E2
:1027800000F0DAFC7D70CF480C9941800B99818074
:102790000A99C1800D990180CC4FBC4DE548C078A5
:1027A000012804D1FEF7A8FEFA48C47046E6FEF7F9
:1027B00031FE002800D141E672B6C04800790228F7
:1027C000189802D0B9480068806A1C902889C00710
:1027D00000D054E159F7DDFE002800D14FE1B748A1
:1027E000C078012800D045E1B08AC00700D0AEE033
:1027F000B2480088002800D03CE1B848806A002830
:1028000003D0AA480068806A1C9000F0B9FEAB486B
:1028100081781CA85AF7B5FC002800D12AE11A9843
:102820000069400600D525E1A44881781CA84BF733
:1028300085F9002800D11DE14DF702F9002800D1EB
:102840001DE14BF77DFD002800D118E19B48817800
:102850001CA85AF796FC002800D1FFE01A980069DE
:10286000400600D5FAE0954881781CA84BF766F938
:10287000002800D1F2E01098FF30934A11880140FF
:102880001398014311801C98002807D01A99096AEF
:10289000874A8918DA2901D8401E1C90BD4B588AF6
:1028A000804C2169081860611A9AD06B8C4B1840D3
:1028B0000843D063D06B8B490840A169890201436A
:1028C000D163D06B7C490840616949050818D06321
:1028D0001C9A8548824200D3D3E0AE49086C496C0B
:1028E00000235CF7B9FB0903000D4118A069821CA5
:1028F0008A4200D0481E714909794A1E914147F722
:1029000033F87A48C06A80471A99199A086B1042BE
:10291000FCD00199674A10680842FCD010680599FC
:10292000884310606889452804D846216981081ABF
:10293000EE4948623FF7C9FC5E4A9068EB4908627D
:1029400010680006FCD530890599884330815C48C1
:102950000078318A159B19433182E449CC78002CE8
:102960004B4A3DD13968194339601189179FB943E2
:102970001181718A012804D1079881437182534FD4
:102980002CE099437182FFF79DF8708A07990843FC
:102990007082424804990162EFF3108087F3108837
:1029A0003188059A91433180002802D087F310883E
:1029B00002E0002080F31088444F708D1399084284
:1029C000334A0BD00020C94988700B2000F01AFE52
:1029D0002F4A3049C88D179B1843C8850020308383
:1029E000708D1399084206D12A490888149B184310
:1029F000169B98430880108C1499084316998843B5
:102A00001084002C11D1B08C179CA043B0840D20F1
:102A1000FEF7D2FA7089204311998843708170893A
:102A20004006FCD508987080194AB08AC00601D5C6
:102A30000998288030BFB08A16490888169B184329
:102A4000129C20400880108C18432040108400F015
:102A5000A9F8386815998843386010E01248007862
:102A6000C00702D13FF72EFE04E000203FF77AFEB8
:102A70003FF740FEFEF7CEFC002800D030BF62B624
:102A8000DCE4FEE7FFE100003FFE00000033005001
:102A90000403005052000050FFEF00000000F40754
:102AA000D87CFC070840FC07FDB9FC0758B9FC07B7
:102AB000C8FEFFFF00020040FFFF1F0054BAFC07E2
:102AC000B4BAFC07001500503830005010ED00E09B
:102AD0002BFDFFFFD5020000AA05000074BEFC0715
:102AE00000FCFFFFFF03E0FF40420F0058BFFC0760
:102AF000F0B569212648415C1430CB4AD3790022D5
:102B0000DDB20E4E8A4213D207680A2D3B4606D329
:102B10003C46094B1C40224B1B685B042343041FAB
:102B20002468B44200D11F4627600830521CE9E7F0
:102B3000F0BDC046D87CFC07FFFF01FC38300040E8
:102B4000F0B568211248415CB74AD2790023124D92
:102B5000134E8B421AD290C80838AC4212D1FC01F5
:102B6000640C2C460ED00A2A2C460BD303242402D4
:102B70003C403F04BF0E3C192C60C488074F3C40CA
:102B8000346000E0276008305B1CE2E7F0BDC0461F
:102B9000507CFC07D87CFC074C100040FF01000073
:102BA0006040FC07F8B505263507688DC0051CD5C3
:102BB0004E488078012803D100F01AFD1B2814D854
:102BC0004B48408AC00401D44748008CFF201C3089
:102BD000484908801B2000F015FD47480188012264
:102BE0000A430280688D4007FCD5444844A118225E
:102BF0005CF782FA48A04B491CC81CC1FDF78FFF47
:102C000049484A49016008200B21032422463FF726
:102C10004DFD474F787D002846D1B97D0B2943D81B
:102C2000B879002802D1F87988423DD0B8780028D8
:102C300002D1F878884237D0F87A002802D1387B60
:102C4000884231D0387C002802D1787C88422BD051
:102C50002888022906D00C221040042800D00A2619
:102C60008E4203D1688A334A02406A8201261E4896
:102C70000680002528462A462B46FEF74FFA1C48B8
:102C800046802B4FFA7DB97D002A0A4601D00A46BC
:102C9000803A0C2901D3294601E0511CC9B27A7D42
:102CA000002A00D029460180F978B878250202234D
:102CB000214C2A46A047F979B879002601230093D0
:102CC00032461D4CA047397BF87A14232A461A4D08
:102CD000A847797C387C13233246A8470249888963
:102CE000009A10438881F8BD00030050D87CFC078F
:102CF000400000500840FC078000005020000840C1
:102D0000F99DF00700000000E3A1F10700000000BA
:102D10004FA4F107000000004D05FC077B08FC07ED
:102D20008B09FC07C000FC070000084007001000EA
:102D30001001FC077FFE00001D11FC0703480188FD
:102D4000034A11408918091D018070471200005084
:102D5000FC7F0000B0B5044601201D4DC0070BD01C
:102D6000E88A5EF7CBFA002803D08268284621461D
:102D7000904718350020F1E7B0BDC04670B5012579
:102D8000134C002821D1134EE80720D000252560E0
:102D90006560A560E56025616661102021465AF7EF
:102DA00028F81834F0E7E08A5EF7A8FA002802D085
:102DB0004168204688470025E5816560A560FF20C1
:102DC000E082207D5AF76FF81834E807EBD170BD28
:102DD000BC7CFC071000FF00B0B5D14D297801295B
:102DE00021D11249002803D008884007FCD402E012
:102DF0000888400717D400232B70C88889880004EE
:102E000044181F2040064921224660F729FB286408
:102E1000696464214143080CA86205486043800B43
:102E2000401C40082863B0BDD87CFC070016005049
:102E30001111010010B5F34C082020701120FEF78D
:102E4000BBF80320607010BDFEB562480325057015
:102E5000614C20461438016814220A436B218A43CE
:102E60000260A06A5D49C8600020C043A06220687B
:102E70003F218843206020685949084020606068ED
:102E8000584908400121019189020291401860606F
:102E9000606840210143302081436160A06952494C
:102EA00008400B2149064018A061A0694F4908401D
:102EB00069024018A061A0691821014327208143BD
:102EC000A161432020714A4880474A4880474A48C8
:102ED0008047404805700095484806684848804744
:102EE00048488047206848490840F105401820605C
:102EF0003B4E403620683040490C40182060412746
:102F00002771606837490840029940186060384866
:102F1000804738488047384880472E4805703748F2
:102F20000568374880473748804720683649084059
:102F3000E9054018206020683040490C40182060A6
:102F40002771606827490840029940186060284846
:102F5000804728488047284880471E4800990170CC
:102F6000264800682168284A1140C2058918216056
:102F700021683140254D0540A8010818206060688F
:102F8000019988436060154EF068A06220681C219A
:102F900001432320814321602068114908402060BB
:102FA000A06911490840072189064018A061A0695D
:102FB0000E4908400F21C9014018A061A0691E21D7
:102FC000014321208143A1610D4880470D4880477E
:102FD000F586FEBD05100040183000400840FC0793
:102FE000FF7FFFFFFFF9FFFFFFFFFFC03FF0FFFF85
:102FF000A914FC07B914FC079B0FFC07883000409C
:103000008514FC07870FFC07FFFF7F00FF0100000E
:1030100070470000F0B58BB03022002181541F2290
:103020001204354B1D68954301246204AA181A60E6
:10303000334B344D4561344D344E354F354AC261C2
:10304000066243622D4A8262C562334A076042606B
:10305000E004CC4A136883431360282903D001A8F5
:103060004154491CF9E72D480068403001A9282245
:103070005CF742F8C74D0920E871FFF7DBFEFFF768
:103080005FFDFFF735FD00F089F900F0DBFA00F095
:103090006BF8FFF7D9FE2C72224800880721014007
:1030A000A972FDF70DFFFEF777F9FEF789F91E49C2
:1030B0000B881E4804681E4A1440E31803601D4B29
:1030C0001C88856915402C1984615B88C46914408B
:1030D000E318C3614B8A046A1440E3180362898AC7
:1030E000436A134059184162A848022181700021A7
:1030F00001800BB0F0BDC046740000406531FC0794
:103100006131FC074D32FC073132FC070112FC072C
:103110000932FC070B32FC071130FC074CB9FC07E5
:10312000D87CFC07B810004010300040889CFC0799
:103130000000FFFF6430004080B5FFF77BFEFFF723
:10314000D7FC00F02BF900F07DFAFDF7B9FEFEF791
:1031500023F98E48022181700021018080BDC04684
:1031600000207047704700000E4908880E4A024050
:1031700001204302D2180A804105824A13688B431A
:103180001360810700224A671F2212044B6F93438A
:103190004004181848670868E02202431020824360
:1031A0000A60704738300050FFFC000080B51F20D7
:1031B000000401218A07536F83434804181850679D
:1031C00010680721884310600D48018808220A43CF
:1031D0000280FFF72FFEFFF7B3FCFFF789FC00F03A
:1031E000DDF800F02FFAFFF7BFFFFEF7E9F86748B8
:1031F00002218170002101800520FDF789FE80BD3C
:103200000800005004100040704780B5E62800D345
:10321000E620282800D82820F9214A0042437D20B2
:10322000C10010465BF7EEFE7F38C0B280BD0000E3
:103230000548016807220A430260012080045149C1
:103240000A6882430A60704730000040012906D0B6
:10325000022903D1032804D20C207047FEE703287B
:1032600002D3FF2800D0FEE7DB48C0797047C04694
:10327000F8B544480168C90703D0016802220A432F
:10328000026001240168490203D5A10502680A43CE
:103290000260270265023C49009508460838066826
:1032A000002E6ED0300606D5802008604AF7EFFA6F
:1032B000FEF79CF83449B00704D50220086046F7B1
:1032C000E4F93149300714D508200860FDF7EAFB1E
:1032D0003D4627460024204646F790F92A49042017
:1032E000BD4AD0720220294A907014803C462F4675
:1032F000009D3E4204D00F60012046F77FF922492D
:103300002E4203D00D604AF72BFB1F49700604D5EF
:103310004020086046F76DF91B49F00604D51020DF
:10332000086044F729FD184970071BD50420086080
:1033300017490888A043088017480078C00702D1C1
:103340003FF7C0F904E000203FF70CFA3FF7D2F94D
:103350005AF7BAF83FF774F9FEF748F800209E498B
:10336000C8720949F00707D00C605AF7C9F84AF744
:103370008EFA05499848C472B0068ED520200860A0
:103380008BE7F8BD00020040180000400410004028
:1033900008330050D87CFC07FDB9FC07FCB57F2042
:1033A0000002594A516981430B20000208185061FC
:1033B000106880B25549401810609069544C044020
:1033C000012358030090201890610320019000020F
:1033D000146B04431463908F1024044394879088E3
:1033E00018439080A0484B4A02604B4A1046103860
:1033F0004A4DAC8B044015204301E0185030A8839F
:103400006869474C0440474820186861A869464CE1
:103410000440092040022018A8612868434C044059
:103420004348201828606868424C044042482018ED
:103430006860A868414C044041482018A860E868CA
:10344000404C044040482018E860C1204001624CD4
:10345000E479240620183D4C2060052080023C4F72
:103460003880401DB880388C55260643AA208643F4
:103470003E84FF266C363046C930388535490846CB
:103480000E30B88534483886B986C01D3887334831
:103490002885A86B3249014032480818A863324D8C
:1034A0002E80288F10401F462037C01928872F48AC
:1034B000018811408919D531018081881140C918CE
:1034C000818001891140C91901812136AE802848C7
:1034D00001881140C91860310180818A19220A438C
:1034E00006218A438282A08F224901400098081851
:1034F000A08721480168019A114304229143016089
:103500001E486066FCBDC046203000400000888830
:10351000FF00FEFF59055C071FFCFFFF0420004071
:103520000000E0FF09581A00FEE1FFFFE0E00000A4
:103530000809294900000303696A686C031FFFFF3B
:1035400070600000E0E0E0E00B0A0A0800100040B4
:1035500028130040260A000051080000070F000051
:103560002F64E0FE101A06010012004044120040D1
:1035700088120040FF9F0000801000405001500161
:10358000F8B5642013490E5A134FBC6A30466043A5
:103590001249401812495BF735FD054678823C36E2
:1035A00066430E4830180E495BF72CFD001D0D498F
:1035B00008612818C01D88610B4A1278022A01D1BF
:1035C00011308861FEF7E8FA0849401880B259F7CF
:1035D000A5FFF8BD507CFC07D87CFC0720A10700A4
:1035E00040420F000840FC07B4BAFC07E2040000A8
:1035F0000D480188890918220A4000888004400F7C
:103600008018704708490A88084B1340F822024086
:1036100092011A430A800A88054B13404007800C28
:10362000181808807047C04654000050FFF9000089
:10363000FFC70000024801880122914301807047C2
:103640000411005018B50848016800910099074A14
:10365000009B1A40FF2424040C40D9B20919044BE2
:10366000C9181143016018BD8000004000FF00FF31
:103670000A000A0002E008C8121F08C1002AFAD195
:1036800070477047002001E001C1121F002AFBD1E2
:1036900070470000034880F3098800F025F8FCF724
:1036A00057FDC0466447FC0704207146084203D01A
:1036B000EFF309800A490847EFF3088008490847F3
:1036C000704704207146084203D0EFF30980054992
:1036D0000847EFF30880034908477047FEE70000FA
:1036E000D111FC077D11FC071C49888807229043F3
:1036F0008880052000078A89D20710D00988002910
:103700000DD117494A8802858A888284CA88028432
:10371000428A144B13400988C90119434182124956
:1037200006220A800121CA03104B1A60BFF34F8F93
:10373000BFF36F8F02221A60BFF34F8FBFF36F8FFB
:103740001960BFF34F8FBFF36F8F418904229143FC
:1037500041810021018062B67047C04604030050D9
:10376000A000FC077FFE00000034005080E100E074
:1037700000000000F037FC07D47CFC0702000100C9
:10378000080004900000000000000000030005D0C5
:103790008B0035F010005CF0000010B0000018B095
:1037A00000001AB0030051F0000038B000003AB039
:1037B000000064B0000066B0000022B0000024B039
:1037C000010005D0000000000A00008008030490FA
:1037D000000004F0030006D0000000000A00008092
:1037E00008030490000004F0030006D0000000006D
:1037F000F837FC0701000000FFFF00003916FC0746
:1038000001000001F509FC0701000002E50AFC07C0
:103810000000000000000000F4011100F43523480E
:10382000F40108C4140A000014000000ED14F207AB
:10383000FF00000000000000050000006447FC07D6
:10384000000800002C81FC0704080000207DFC0714
:10385000000400003C89FC07900B000020030000DE
:1038600000A60E0005000000D2000000320000009B
:103870003C00000001000000010000000200000008
:103880000200000004000000030000000600000029
:103890000000000002000000020000000000000024
:1038A000000000000300000003000000050000000D
:1038B00005000000060000000A0000000A000000E9
:1038C000C8000000B80B000002000000B80B0000A8
:1038D000B80B000010000000D4010000CC01000073
:1038E000700200006A0000000400000003000000F5
:1038F000200000000A00000001000000E2040000B7
:103900008A020000DC050000AF000000B03AFC07AE
:103910002439FC0700000000B83AFC070000000052
:1039200000000000A8B8FC07A0B8FC07B8B8FC0766
:10393000F8B8FC071530FC07AD31FC079111FC0706
:103940002116FC07C915FC0749DFF00761DFF00706
:103950002D16FC0799DFF00719E3F007BDE5F00726
:10396000FDE3F0071DE4F0073DE4F0077BE4F0071A
:103970008BE4F007F5F9F007B1F7F007CFF7F007A0
:10398000EBF7F00705F8F00719F8F00797F8F007DC
:10399000AFF8F007DFCDF10767D0F107DBB9F0072B
:1039A000CD0DF207B10EF207AD0EF207A90EF20728
:1039B0008D21F0073D2DFC07351BFC07751BFC070F
:1039C000C91BFC07C11BFC07B57EF007837DF00710
:1039D0006501FC07599EF107634CF1077D2DFC073B
:1039E000D110F207552DFC07B111F207FB12FC07AD
:1039F0001513FC07000000005D14FC075F14FC07B2
:103A0000B9C6F007D592F107F301FC075F9DF107F6
:103A10005F9CF1070505FC07EB72F107B922F1077E
:103A20006B04F1075914FC072BA4F007F1D2F0073F
:103A30005FBDF007D5BDF00785BEF007DB2DF007B1
:103A4000752EF0071581F007DF7FF0070937F007C3
:103A5000000000006114FC076914FC075513FC0703
:103A6000F3C3F10775C4F10703C5F1076D13FC0734
:103A70000000000000000000000000000000000046
:103A80000000000000000000000000000000000036
:103A90000000000000000000000000000000000026
:103AA0000000000000000000000000000000000016
:103AB0001838FC07107DFC072838FC07BC7CFC0785
:103AC00001000000F83AFC07F83AFC076C0500001A
:103AD0008436FC07F83AFC076440FC070007000046
:103AE0008436FC07487CFC07487CFC07D8000000B3
:083AF0008436FC070E00000003
:0400000507FC0151A2
:00000001FF
