:0200000407FCF7
:100000002861FC073144FC074544FC075F44FC07BA
:100010007944FC077944FC077944FC077944FC07E0
:100020000000000000000000000000007944FC0710
:1000300000000000000000007944FC077944FC0740
:10004000A910FC074D37FC07A526F007FD13FC0798
:100050002513FC07FB13FC076D10FC077944FC0714
:100060007910FC077944FC07E911FC07F311FC0740
:10007000FD11FC070712FC071112FC077944FC076D
:100080004114FC077944FC077944FC075511FC072F
:100090007944FC077944FC077944FC077944FC0760
:0800A000000000008E070E00B5
:0200000407FCF7
:10011000444F000644490005434C4B000843534EEE
:100120000007504F5200000144524459000900009A
:0200000407FCF7
:100130004669726D776172650000000032363332B5
:0C01400006001900C605000300000000C6
:0200000407FCF7
:100150000348854600F078FF00480047B11FFC07C0
:100160002861FC0780B5FE230340022B01D1042047
:1001700080BD92B263F7DEF880BD80B58A4201D3BC
:1001800063F7EEF880BDF8B516460D4604460846FE
:1001900011465EF7CAFF277CB74200D2FEE701F0A6
:1001A00075FE022001F038FEBE082746002E0DD055
:1001B00001CF006801F0D4FD2870010EE970010C38
:1001C000A970000A6870761E2D1DEFE701F0EEFDA4
:1001D000207CF8BDF8B507460120002302460090B8
:1001E0001946032049F70EF90446022180300170B8
:1001F000FF4DFE482A6843881146FF31F7310B86D0
:1002000080884886FB48066A0123DB069E431E431E
:100210000662FF320020FF32383250829082D08254
:100220001D200882F4484884F448C882F4480883B2
:1002300000204882384649F725FC01462868FF30EF
:10024000F730C28B920992010A43C283ED4841689C
:1002500000208847002C02D0204648F7BCFC2046EE
:10026000F8BDFFB58BB0064616980027022821D0AE
:100270000D9801881498814278D3718808464038D7
:100280003F2802D8159855F7B9FC0C98361D008800
:10029000149A80190E995EF72FFF0C980188149814
:1002A00008180C9908800D9801881498081A0D995F
:1002B00008805CE100200E9D079069782C78090287
:1002C00021433180E978AC780902214371808C4662
:1002D000403904242D1D024603468E46402900D392
:1002E0002878614604291FD0052914D0062918D082
:1002F00070463F283DD8159855F780FC0006000E43
:1003000004D0C148008D0006C00F30D00223012068
:10031000BE4A002712E0697800290FD0BC4A172393
:100320000CE0BC4A0F2309E0522802D0D22802D0A8
:1003300002E0142000E01520B74A1F23002A1AD03B
:10034000984218D2800010580490002813D0002042
:100350000890059070884038402803D328780524F9
:1003600030716D1C701D00900498B5E0FEE03027E0
:10037000F0E03327EEE07088042872D10627E9E028
:10038000522862D00CDC4B283FD004DC41286AD0D4
:10039000422858D111E04C2820D0502853D140E0B9
:1003A000632830D004DC572818D061284BD19BE05B
:1003B0006C2864D0772846D109E00098297801702C
:1003C0000098641C401CA4B26D1C009081E004984D
:1003D000401C04900178089881427AD10098A41CAE
:1003E000401C41084900881C009068782A78000267
:1003F000104308800599AD1CA4B2002969D008906B
:100400000020059065E00120FBE7102229460098B6
:100410005EF772FE009810341030A4B210350090D0
:1004200057E0204640301499039088420BD8402270
:10043000294600985EF760FE0098403000900398CF
:10044000403584B245E0342743E00822294600982D
:100450005EF752FE009808340830A4B208350090C8
:1004600037E068E0FFE70622294600985EF744FE81
:100470000098A41D801DA4B2AD1D009029E0149821
:10048000001B80B203903088001B001D81B2012048
:1004900007900498401C04900098401C40084000BD
:1004A00000900498007857281CD04228CBD100989F
:1004B0000170090A417000982946801C0090039A37
:1004C0005EF71AFE03980399201884B2009840182A
:1004D00000900498401C0490007800281ED0002F43
:1004E00017D01BE04908E2E71498001B81B200987E
:1004F0000391401C40084000009001200A460790EC
:10050000294600985EF7F8FD0399601884B20098B8
:10051000DDE70D990988A14200D331E70D980088E5
:10052000A04208D304990978002904D10799002929
:1005300003D1A04201D034270CE00D99001B0880A4
:100540000C9801880098801B001F08180C99002F38
:1005500008800CD07088042809D0062807D04038BD
:10056000402804D30E984079707100E03427384653
:100570000FB0F0BDFFB581B01F4616460C461046C1
:100580005CF77EFC00257F2802D02189062909D04E
:100590003B4632462146019855F7C3FE054628469C
:1005A00005B0F0BDC00601D50225F8E72078002887
:1005B000F5D1300AA11D42F74CF8F0E7F1B598B03B
:1005C000189842F744FA0446189805210079134A0E
:1005D0004006C00F099068460184618B08460A38BE
:1005E000904276D2E08A062873D319E030BCFC072B
:1005F0004CB9FC07C00000401080000029410000F9
:100600007671000058BFFC0748BEFC073803F207AC
:100610004003F2079C03F207D803F207770C0000AF
:100620001922D201904254D8228BFF23F5339A42EB
:100630004FD8521C9300D2184243521C0A23521026
:1006400059438A4245DC217F00290CD1617F002972
:1006500009D1A17F002906D1E17F002903D1202102
:10066000095DC90635D0274620377978C906C90EF5
:10067000491F0C292DD2A18A81422AD8E17C002968
:1006800027D0421E082A01D9082000E0401E8142DE
:100690001FD8684646F79CFA00281AD1FE4D06225C
:1006A000286221460AA85EF727FDA8792E46803EDB
:1006B00000287DD06079800901280BD00AA809990B
:1006C0004CF755FD010003D03820405C002870D065
:1006D0009BE008E1F06A807A012808D0042806D05F
:1006E0000AA84CF7B1FD286200284ED054E0686A91
:1006F00006220AA932305EF723FD002806D00AA898
:100700004CF7A2FD2862002802D012E0686AF9E7DF
:1007100000210AA84CF7AEFD2862F16A897A012906
:1007200005D18B071A6849068A430A431A600028D4
:1007300011D0F16A286A0622253010315EF700FDDB
:10074000002808D1286AF16A2030C07AC97B884223
:1007500001D1286A1EE0D148D1490088C96880B219
:1007600006225043081842F777F9014614A80622DA
:1007700002305EF7C1FC13AA00213C2042F739FC8D
:100780000121B06D47F760FEA9E011A90AA84CF756
:1007900071FD2862002838D00146253106220FA8B5
:1007A0005EF7AAFC286A08AA2030C17A0FA801E0E7
:1007B00041E024E04CF7BEFB002812D0286A20302C
:1007C000C07A002809D16846B649008C4BF725FB52
:1007D00008AA0121B3484CF7ADFB68460AA9008C72
:1007E0000AE008AA012111A84CF7A4FB00280CD0AC
:1007F000296A6846008C32314BF725FB05E00A1860
:10080000527D002A08D010286DDBF06A407A022859
:1008100006D0032804D00EE0401C1028EFDBF4E7DC
:100820006846008C052806D308AA0AA809994CF73F
:1008300081FB002857D00022694620464CF723FC54
:10084000002850D1F06A407A02280BD0032809D042
:100850000023684602880AA809994CF735FC00284D
:1008600002D02FE00123F4E7E18A68460181218B61
:100870004181618B818178780622410968468175C2
:100880007878C106C90E6846417521460E305EF77C
:1008900033FC189800794006C10F6846017503883B
:1008A000214602A8B26D47F775F90146B06502A866
:1008B00042F7EDFB0020B065214668461C310088F8
:1008C00046F7D9F949F758FA734C2034207A0028B2
:1008D00005D0002109205CF716FC002020720021C1
:1008E00008465CF7B8FA19B0F0BDF8B56E4C06468C
:1008F00085000F4660594C21095C24290ED14069BE
:100900001022791D2E305EF7F7FB6159252040310A
:10091000087300221146304654F7C3FA60594C213F
:10092000095C0C291FD140691022791D2E305EF719
:10093000E3FB60595F214069095C09072DD401463A
:100940002E3110221E305EF7FBFB00280CD06059C0
:10095000092140300173304654F7C0FF01460022A0
:10096000304653F71DFEF8BD0421684601706A4603
:100970000521304653F7BEFF6846017860200143E9
:1009800068460170304654F7A9FF01466846027870
:100990000123304653F719FFF8BD304654F79EFF48
:1009A000012809D060590721403001730022114607
:1009B000304654F776FAF8BD615900204969C031D4
:1009C000887160590421426930461E3253F792FF04
:1009D000605941694031897F002907D01A21403090
:1009E00001730021304654F7E6FAF8BD1B21403070
:1009F0000173304654F734FBF8BDF8B52A4C054670
:100A00008600A0594C22125C192A11D140224D3087
:100A1000491D5EF771FBA059402224494D305EF715
:100A20008FFB002805D02149284620395BF7F3FCCD
:100A3000F8BD0B21684601706A460521284653F728
:100A400059FF6846017860200143684601702846D6
:100A500054F744FF0146684602780123284653F7BD
:100A6000B4FEF8BDFFB581B003980C46060A002518
:100A70005CF706FA002827D0132825D0142823D0A5
:100A80000B48B700C0592030407BC00637D50398CB
:100A90005CF7F6F915280DE030BCFC0768B9FC07D7
:100AA00060BBFC0750F5F1073CBEFC07FCBDFC0732
:100AB00078BBFC070CD0A07941F7BCFF304647F764
:100AC00057F8032806D015E0A07941F7B3FF1FE0DF
:100AD00002251DE03248C0592030407B400704D534
:100AE0003D21304642F7A4FC04E03D22002130467F
:100AF00042F7ADFC3D21304646F782F808E020463B
:100B0000103828490181468120464EF76BFD0125AA
:100B1000284645E524485222006864308188C37E17
:100B20005143224A12688918FF225F32525AFF311C
:100B3000120AD21A01310B8CD2B2DB0B09D00B8C0A
:100B40005B045B0C0B84002A03D18088184A0121C6
:100B500011547047FFB51746140A81B0104A029825
:100B6000A100515840780026114D002907D0295D79
:100B7000002905D0002803D1204643F7BDFE2E559D
:100B80003A46049B0299019844F747FE08E50A4853
:100B9000084901600949416070477047704700008B
:100BA00078BBFC070608000084BBFC074CB9FC07B7
:100BB0004A7CFC070459F007C0000840490C00BFFC
:100BC0007FB5E4486B460188428889186A461180DF
:100BD00001214C0022181546403DED8F065B5288DE
:100BE000AD19AA18491CC9B21A530729F1D3818932
:100BF000C089081881B2D981D888002821D01889E5
:100C0000002820D0988800281FD0588900281ED09E
:100C1000988900281DD0588800281CD000291CD095
:100C2000188800280BD00720062254001C5B8C4239
:100C300001D22146D0B2521E52B2002AF5DA04B0D7
:100C400070BD0320FBE70420F9E70220F7E7052049
:100C5000F5E70620F3E70120F1E70720EFE7F0B51D
:100C600095B0EFF310801090012080F31088BA48FF
:100C7000816B4A07520F69460A800A92816B0122F2
:100C8000C908C9008163B5498B8869464B80022435
:100C9000B24B00219980C16A09078B0F69468B808E
:100CA0000F93C16A0C2399430831C16205210907DA
:100CB00009880906CB0F6946CB80052109070993EE
:100CC00009888023194305231B071980A449898AB1
:100CD0004906CB0F69460B81A1490893898A4023B5
:100CE00019439F4B9982016A09074B0F69464B8153
:100CF0000C93036A0E218B4303629B4D99486860F5
:100D0000FF204030A8602888A04328809748416889
:100D10000B071B0F69468B810B9341680909090179
:100D200008314160416849064B0F6946CB810D93FC
:100D300041687023994360314160874840380168B9
:100D40008904CB0F69460B820293036841140B435D
:100D500003600168CB07DB0F69464B820E93016885
:100D60001143016041688903CA0D69468A82039272
:100D70004168CA05D20D6946CA8204928168890316
:100D8000CA0D69460A8301928168CA05D20D694677
:100D90004A8305924168764A11400322D20389189A
:100DA00041604168490A4902FF314131416081682F
:100DB0006F4A11400322D203891881608168490A71
:100DC0004902FF3141318160642000F02DF9A8898A
:100DD00069468007C00F8883A8892043A881002422
:100DE000604F288800260121084328800A2000F04F
:100DF0001BF9FF205F4941303A680A4200D0761C57
:100E0000401E3F1D0004000CF6D1A88A8004FCD1CE
:100E10005149886B671CC208D2007807400F024313
:100E20008A630A2000F000F960004A49FCB20E52C1
:100E3000082CD5D348480A99826BD208D2000A43BD
:100E400082636946454A498891800F998A00C16A40
:100E50000C2399431143C1620999CA01052109076D
:100E600009888023994311430522120711800899AC
:100E70008A013B49898A402399431143384A918228
:100E80000C994A00016A0E239943114301623748C5
:100E90000B994268120912010A4342600D99426897
:100EA000090170239A430A434260029841032A4889
:100EB00040380068012252039043084326494039D4
:100EC00008600E98096849084900014322484038E3
:100ED0000160039842022048403840682449084095
:100EE00010431D4A403A506004985268520A520218
:100EF00002431948403842600198174A4002403A7C
:100F000092680A40024314484038826012490598AA
:100F100040398968490A490201430F4840388160D5
:100F20001098002800D0012080F3108815B0F0BD83
:100F300010B5114C2078002808D0FFF790FEFFF77D
:100F40003FFE0E4908700020207010BD02F0E8F945
:100F50000120F9E7E84DFC07801000400012004036
:100F600020300050E848FC07003500504020004089
:100F7000FF01FCFFC0C0C0C0DF7CFC07E07CFC07B9
:100F800010B5FF22154901320A60BFF34F8FBFF33E
:100F90006F8F13490A6013490B6840241B0A1B0218
:100FA00023430B601049898A0021C30700D03521F3
:100FB000830702D57D231B021943430702D57523FE
:100FC0001B041943000702D53D20000601430648D3
:100FD0002038016301488038026010BD80E100E0E4
:100FE00080E200E008E400E0A010004010B5062018
:100FF00000F01AF810BD10B5092000F015F810BD6A
:1010000010B5812000F010F810BD10B5044800F0B4
:101010000BF810BD10B5034800F006F810BD000035
:10102000010200000108000000280CD000BF00BF32
:1010300000BF00BF00BF00BF00BF00BF00BF00BFB8
:1010400000BF401EF0D17047064C0125064E05E05A
:10105000E36807CC2B430C3C98471034B442F7D3D9
:10106000FFF77AF8B048FC07E048FC070148012187
:10107000018070470E1500500A48011F0988CA07F1
:1010800006D0028807239A432E4B1B7A1343038012
:10109000490706D50188072291432A4A527A0A4312
:1010A00002807047B8100040B0B5254B082018806A
:1010B00005200007018830221143018004880321A4
:1010C0000C4304801C896407FCD403889343038089
:1010D00003888B4303801B4C238A4380638A9D1EB5
:1010E000194B5D8007251D800588154305800588FF
:1010F0000D4305801D886D07FCD40388934303804E
:1011000002888A4302804289920702D042898A4338
:101110004281018980220A430281018A042291438B
:101120000182818A8907FCD541F7FBF8E06B07490A
:1011300008600748016801684907FCD5B0BDC04692
:1011400000330050D87CFC07001600500802004015
:1011500010000040FEB5714C543420480688012030
:101160000190C004029000271D4D002E34D0042FA2
:1011700032D2F0072BD0A889000605D428896989C6
:10118000401A4142414100E000210198B840134A11
:1011900050802889029A134B1A60BFF34F8FBFF318
:1011A0006F8F002907D0A989019A9143A981A98944
:1011B00008229143A9812268002A05D0411C606859
:1011C00089B200949047009C02984049086010350D
:1011D000083476087F1CC8E7FEBDC0468236005042
:1011E0000036005080E100E080B50A2000F082F86F
:1011F00080BD80B50B2000F07DF880BD80B50C204F
:1012000000F078F880BD80B50D2000F073F880BD47
:1012100080B50E2000F06EF880BD0000FEB51646C9
:1012200002910090CDB201950A3D4027AF40B8B27F
:1012300023490C8823498847BC43214804800488FB
:101240003F2738461F4988471E49BC431C4A148023
:101250002020A8409488844380B2884701273946DB
:1012600081402143164A91803846A840948884439F
:1012700080B2144988478640264311498E80680011
:1012800044180C3C25880F2085430E498847009957
:10129000491C81402943218001988007C00E80218C
:1012A0008140FF2282400848036893430B43036058
:1012B0001F2002990840874004480760FEBDC046D1
:1012C0000C140050451DFC0708E400E000E100E0BC
:1012D00070B5C0B20A38012421468140044D2E88E1
:1012E0008E4388B200F02EFD844034432C8070BDC4
:1012F0000E14005010B50446FFF7EAFFE0B281007B
:10130000064A891828390968002901D0884710BD84
:10131000012181403648016010BDC0464C7DFC076C
:10132000FEE7000002480088314810210160704744
:101330002C130050B0B5114D2888400602D52888DE
:10134000800609D40E49086A0024002814D0CA690E
:10135000521CCA6182420FD309480024C461281F6D
:10136000046017480088FFF75FFE2888C00701D196
:10137000012401E04CF7BCFD2046B0BD1410005024
:10138000B8BAFC0780B54CF784FD0B4882898021F0
:101390000A438281027903781202D218142353433C
:1013A000064A12881207D20ED218921C044B1A80D9
:1013B00082898A43828180BD00100050C010005095
:1013C000487CFC070948018904220A4302810188FC
:1013D00040220A430280064901220A604189054AE7
:1013E00011408918091D41817047C046080000500E
:1013F00080E200E0FC7F00007047FEE710B50F4C74
:10140000A1880F200840022806D004280BD00C2801
:101410000CD00128F4D110E02088022188432080DC
:101420002088802106E002F0D3FFE9E702F0D0FF38
:101430002088012188432080E2E710BD041100507C
:1014400005210807028830239A430280028803237B
:101450009A430280828812050DD5184A13880B40E2
:10146000052B08D110880421014311801088012127
:101470008843108070478188C90606D510498A883C
:10148000D20702D00A88120610D48088C0060CD574
:101490000B488188890708D50188C90505D502212F
:1014A00081800188074A0A400280704701208880B5
:1014B00008888022904308807047C0460002005090
:1014C00000010050FFFE000010B5012420465BF72C
:1014D000D7FC002805D100205BF7D2FC0446401E53
:1014E0008441204610BD80B5C1B20C2904D1A02191
:1014F00008435F21884380BD08465FF7A1FE80BD99
:1015000080B5C1B2A02904D10C210843F32188433E
:1015100080BD08465FF7B0FE80BD0000022806D8F7
:1015200003490870C0000349C1400348C1707047B7
:10153000B4BAFC070001010054BAFC07B0B50C4670
:101540000025202D04D041F7DAF960556D1CF8E72D
:101550000020B0BD10B504460548064970225DF76D
:10156000CBFD0548001B054908801430488010BD9C
:10157000709CFC07F047FC07B89CFFFF789CFC07B9
:1015800010B507480188074A1368114C23405918C1
:1015900011604088516821400818506010BDC04655
:1015A000183000408C9CFC0710B507480188074A9A
:1015B0001368074C23405918116040885168214036
:1015C0000818506010BDC04638300040989CFC0799
:1015D0000000FFFF07481E214180018803220A43C3
:1015E0000280018804220A4302800348012101701D
:1015F0007047C04600160050D87CFC0780B50D48E7
:101600000078C00708D105205BF73AFC00280FD10D
:101610002A200A49085C04E00748417D012907D1D6
:10162000007D41424141C21E50425041084380BDAD
:10163000002080BDFDB9FC0788BDFC0730BDFC075C
:10164000704770477047704780B55FF795FC80BD65
:10165000F8B56946C870020A8A70020C4A70000E1A
:10166000087008465FF770FC8FBD000080B56E48BB
:1016700000210160FFF7C4FC694800781F2149017F
:10168000664A13688B43C006800DC018106080BD89
:1016900080B5644802210170FFF7A8FC80BDC046F8
:1016A000F0B50A79530140241C40130180251D40E8
:1016B0001609360275192C19D20020251540621919
:1016C00010241C4012190B785B0008241C401219CE
:1016D00006241C401219CB79DB079B0C4C7965085A
:1016E000ED07ED0CEB18E407240D1B191343838160
:1016F0008A790F2A43D0354A82180423DA41931E8F
:10170000022B1BD3012A3AD8EFF31083012282F374
:1017100010888D792E4C2688F6B23609B54203D151
:101720002688F0273743278026880F27BE432E437D
:101730002680002B1CD082F3108820E0EFF310836A
:10174000012282F31088224C27880F2637408D799A
:10175000AF4202D12788374327802688F027BE432F
:101760002D0135432580002B06D082F3108806E03A
:10177000002282F3108802E0002282F310888A6837
:101780000280120C4280CA688280120CC2800A8ACF
:10179000521E42814A88002A00D10A8A521E0281C2
:1017A0004008382202400B4880184A69426589691E
:1017B0008165FF20000608490A6882430120C307AB
:1017C000D2180A60C00405490860F0BD00CAFFAF26
:1017D000803600504C7DFC0710E400E000E100E0A2
:1017E00080B5022002F094FB80BDFEE780B50B4877
:1017F00001688905C90E0A4A11701F214901026852
:101800008A430260074801210170074801680322EA
:101810000A430260FFF7F4FB80BDC0464C12004053
:10182000E048FC0706100040AC100040F0B589B05D
:101830000E460C4940180D2800D965E14000C0460D
:1018400078448088400087440F005F0129005F01D1
:1018500040005F0153005F015E00EB005F01FE008E
:101860005F012D01FF5FFFFF3078841CF5480C22DB
:10187000194623465BF7BEF804460025057030780C
:10188000607031788D4200D33BE1A90701D15FF749
:1018900073FB611988706D1C000AF2E7F5480C2291
:1018A000142519462B465BF7A5F80446F249083182
:1018B0002A465DF721FCF1480178217001796170B9
:1018C000017AA170007BE0701BE1ED480C2202243C
:1018D000194623465BF78EF80446062020703078C0
:1018E00041B2002902D4032800D2FBE0302007E1F6
:1018F000FB480C220124194623465BF77BF804467B
:10190000F8488079E8E0FA480C27022519463A465B
:101910002B465BF76FF8044645703078207002283C
:1019200000D2DBE000D1E6E0032800D0E9E0FFF7D9
:10193000CBFD002800D0E2E070888006C00E00D108
:101940007DE1079706950027677020465BF76DF8E5
:10195000E94D5BF752FD28884006FAD5F943E74880
:1019600001607788E648082205920280707872B696
:10197000E44A1160E44AD189C905890FE34B198013
:10198000118AC906FCD403210891C901D3898B436C
:10199000D381DF490B897C25AB43FDB26D08AD00D7
:1019A0001D430D810126D38CDB0407D40B89069FD0
:1019B0003B400D89BD43EB187B400B813303D58C35
:1019C0001D42FCD00B8933430B81D24B1D68042789
:1019D00004973D431D60089BDB43958A1D400543EA
:1019E0009582958A079FBD4387002F439782958AEA
:1019F0003027BD43000128439082D0891840D08110
:101A00008888B04388800B88072003430B80938A23
:101A100015251D40152D00D134E10D20800232E145
:101A2000B34805210C2202235AF7E4FF04460020A4
:101A30006070B0480078421E51425141022800D1E6
:101A4000014621705DE0BA480C220824194623465D
:101A50005AF7D0FF0446FF20E071B649062230460F
:101A60005DF76EFB002815D03078717809020818F0
:101A7000B17809044018F17809064018AE490860A9
:101A80003079727912021018486030464BF7C4FA68
:101A90000020E0710622204631465DF72DFBB0792B
:101AA000A0712EE03078841C8F480C221946234602
:101AB0005AF7A0FF0446851C317828465DF735FBB0
:101AC00030202070307860703278102A19D887481A
:101AD0002946FEF758FB0020207012E0FFF71EFD9C
:101AE00000200DE00021617095A1085C9349887188
:101AF00001F0CCFE05E0FFF7E7FC002807D001204D
:101B0000607020465AF791FF002009B0F0BD07979A
:101B100006957088B1887C4F3A88102313433B8028
:101B20007D4A04230893938013883F25AB43138099
:101B300091810023538011888025294311801081D1
:101B400076480168029529437F2291430160012074
:101B500005900004724908600393637020465AF7A9
:101B600064FF654D5BF749FC28884006FAD5644858
:101B70000821019101807078049072B6B8890899A3
:101B80000843B881B888029A9043B880B888402248
:101B900002921043B880634801803888624A02404C
:101BA0003A800398C043574A1060388AC006FCD474
:101BB0000320C101FA898A43FA81059EF14303910A
:101BC000534A15890D401581524D2968089B1943C8
:101BD00033462960B98A0090814304980143B98251
:101BE000B98A079DA94385000D43BD82B98A302576
:101BF000A94305010D43BD82B9893143B98191885B
:101C00000398014091800F208002118B81430720AF
:101C1000C00208181083B003118B01431183F98CA3
:101C200042480688C9050FD520210E43029DAE43C8
:101C30000680108B06990843984301990CE0657063
:101C40005FE7C04602A0000060210E430680108BB3
:101C5000009908430199029D1083108B084310835B
:101C6000108B089988431083908B28432021884348
:101C700090832FE004A000003001FC0700320050E8
:101C800006A00000C002069F0F239B020D8B9D4300
:101C900040190883B0030B8B03430B83D28C088B52
:101CA000D20506D5402210430883088B3843B04341
:101CB00001E0089A10430883088B059A10430883B3
:101CC000088B049A90430883888B4022024320208B
:101CD00082438A8300BF00BF00BF30BF11E7C04608
:101CE00008A00000D87CFC070FA000009C48FC075F
:101CF0000BA00000B4BAFC071410005080E100E013
:101D00000033005080E200E004000050A000FC0717
:101D10000803005010ED00E00001005010E400E066
:101D200000E100E000020050FFF700005200005008
:101D30000DA00000DCF1F10724000040D87CFC0776
:101D40000C090100054941184140490800200904D7
:101D500002D0401C490CFAE780B27047FFFF010037
:101D6000010340180B494018C10C41400A48484043
:101D700041014018094941184002094A8018484069
:101D8000C100401807494018010C4140064848402E
:101D90007047C046165DD57E3CC261C71DCCF8E9D0
:101DA0000062CFACC54670FD094F5AB570B5EFF370
:101DB0001085012484F31088052000070288802103
:101DC0000A4302804A4A13680726B34313605368E4
:101DD0005B07FCD5474B1361474B536102888A432D
:101DE0000280408DC0050DD56E48002181703E4EA9
:101DF000307802F0D3FA7078002803D13B4801888C
:101E0000A1430180002D02D084F3108870BD002012
:101E100080F3108870BDC046FEB50446174E30688A
:101E20000727384002A908700878A04225D0144D31
:101E30002888C0051AD5A01EC1B2042916D840B200
:101E400010A1085C019002F09FFA0199884202D229
:101E5000084602F0A3FA25480188C90706D101887F
:101E600001220A43028028884007FCD53068B84325
:101E70002043306070684007FCD5FEBD0000F407C9
:101E80002A0000500B130B0B0B00000070B5EFF392
:101E90001085012484F3108805200607708DC00585
:101EA00009D54048847002F06FFA0F4908700F4856
:101EB00000882040487030888021014331800C48E0
:101EC000016807229143016041684907FCD509492F
:101ED000016109494161002D02D084F3108870BD71
:101EE000002080F3108870BDBC59FC0780000050B2
:101EF0000000F4070F009909090404A470B5174EF7
:101F0000B06800F02DF827490A6C00230B641518FF
:101F1000084C284621465DF775F870610649414333
:101F2000481901D0201A80B230613068082101437D
:101F3000316070BD710200008FFDFFFF80B5064863
:101F40000021016001F096FD0120C00703490A68E5
:101F500082430A6080BDC046A8B9FC07300000403B
:101F600080B50246C00B09D00E48006D00210B461B
:101F70005DF772F88905800A401880BD0948006D38
:101F80004243900A80BDC04680B5FFF7E9FF80BD9F
:101F900080B50449896C41430348081803495DF73B
:101FA00031F880BDD87CFC0720A1070040420F001B
:101FB00000B5A3B0914808250580914E30881FAC2C
:101FC00020802088C046C046208804211E91C94335
:101FD000084202D00020308003E0B089012188430C
:101FE000B081B08B8749014007201A90C0020818C1
:101FF000B083854B188828431880D98D06208143EB
:10200000D9850124A103B28B0A43B28319887F4A80
:102010000A401A8059880143A94359800520199024
:102020000707798D0F200A900202D88D9043C905C9
:1020300011951CD4032149020843D8857448401CDB
:10204000D98D0143D985B08BA843B083B08B0421CF
:102050008843B08358886F4901405980D88D012149
:102060000143D9852546788D4007FCD519E07D21AF
:10207000C90018310843D885D88D67490140E0036D
:102080000818D885B08B2843B083B08B1E9988433D
:10209000B083D88DA043D885B08B40218843B083CE
:1020A00025465749888B0322189210438883188845
:1020B0002022104340241594E44320401880088CCB
:1020C0001792104320400884F88A80210F9108431A
:1020D0002040F882388EFF2188433886388F1E9E34
:1020E000304318210C9188433887388FA021014351
:1020F00013942140398749480680B88848490140EF
:10210000B980280447490860FFF7C0FE02201290FA
:10211000FFF782FE44480068C1B20C20AA2901469C
:1021200000D031463A88824388183880C046C0467D
:102130003E4800885C213E4C0B9160523D4800684F
:1021400068223D4E002110911692B152A0651E9555
:102150002846C046C0463948001F006838498842B2
:1021600000D035E10A9806070420002114911C973D
:102170001B960546314A1118081FEC32904200D3D5
:1021800029E100682290229B334009200407229A0B
:10219000A34257D1229B1E0AF3B21D93D2B2531E03
:1021A000162B00D989E05B007B449B885B009F4431
:1021B000EF00EF008400EF00840016009E00840012
:1021C00084008400840084008400840084008400EF
:1021D000AD00C100D600E1008400E500EA00164A27
:1021E000169C105DC00010181D9A92005CF784FFC9
:1021F0001149085D80190855CAE0C04600330050F7
:1022000004030050FFC3000052000050FFBF000055
:10221000FFEFFFFFFFF90000FF0F0000000200507A
:10222000FFF7000080E200E0D07FF807D87FF807D2
:10223000D87CFC07D47FF807507CFC07D47EF807D5
:10224000A5A5A5A5900F0FD02298FD4988420BD8CF
:102250002846083039462831229A8A4223D1F94942
:102260006958F94A518084E7229830401A99090741
:10227000884203D10020C046C04612E02298304078
:102280000121C90788420CD022983040199949078A
:10229000884206D02298304003214907884200D066
:1022A00086E0281D65E7B91C229A8A4276D1E54965
:1022B00069586622E54B99525BE71E2A68D11D9842
:1022C0004008020664D00B684A680831002426469C
:1022D0000836382E08D0DD4F3C1924699C4234461C
:1022E000F6D1DA4B9B19DA60401E1C9FE9E769249E
:1022F000D64F385DC000381810301D9A92005CF738
:10230000FBFE385D801938551C9F41E0CD4AA95825
:102310004843AA58120C801A00B2C0085623CB4C6E
:10232000E05288B2101A8108C94A11400818401CAE
:10233000542112E0C34AA9584843AA58120C801AE3
:1023400000B2C0085A23C14CE05288B2101A81086A
:10235000BF4A11400818401C5821605218E0149CD4
:10236000A00020AA10181D9EB2005CF7C5FE34190B
:1023700014940DE0B3482858622107E0B14828586A
:10238000B249086504E0AF4828586421AF4A50526A
:102390001D9880002818001D1B9EEAE6394624314E
:1023A000229A8A4209D1A7496958A74A9180E0E652
:1023B0002298401C28460ED0DBE639462031229A6E
:1023C0008A4200D0D5E69F4969589F4AD180D0E61D
:1023D0006620355A32E020980B999C4C6052169931
:1023E000605C400860546920215C49082154092040
:1023F000219948430A0C801A00B2C0086023E052B9
:1024000088B2101A8108924A11400818401C5E21B7
:1024100060526420215A002902D17D21C900215235
:102420006620255A002D8B4C08D18B490968C9B20A
:10243000AA290F9D00D06E2584490D521E980002D6
:1024400014902582B88C0126B043B8840D201B90CF
:10245000FEF7EAFD788930431299884378817889BC
:102460004006FCD57D807D20C0001C90FEF7DCFD81
:10247000788918998843788178890006FCD57F206F
:1024800060707548806975490861FFF78FFC744872
:10249000006874498842199B109C00D046E172483C
:1024A00072495CF742FE1A98010271485CF73DFEE2
:1024B000FEF774FB6F487049016070487049302521
:1024C0002A465CF719FE6F480024C4718471447178
:1024D0000471C470847044703F210E9101706A4889
:1024E0006AA1159A5CF708FE784804707848794923
:1024F000016079487949016079497A4808607A48E9
:102500000A21017079481D94047079483221109194
:10251000017078480921016077481899016077486F
:102520000B24046076480C21016076481B990160F9
:1025300075480E21016030020D90801D73490860BE
:102540007349086073484849016000F029FD3889E3
:102550000995A843388138890F990843388138890B
:10256000119908433881388C1B96B0433884788998
:102570000C99884378813889159908433881388ABD
:102580000421169188433882B88A8007FCD5F88CDC
:102590006149084021020143F984F88C1B9A1043D9
:1025A000F88478891199084310210C918843788127
:1025B000788C9043788438891599884338815748B6
:1025C000373094072168014021600E984002544B37
:1025D000196881435003081818605248401C196854
:1025E000014319601E4E30681E4988420D9D1A94A1
:1025F00000D1B3E04748006849498860174A10692C
:102600009072010E5173010C1173000AD0722846AA
:10261000C03045490A46002800D191E00B185B1EE6
:102620001B78147863402E46189D2C400B4D2C19B6
:102630003546A47A5C401470401E521CEBE7C0463D
:102640004C420050D47EF807A000FC07507CFC07E9
:10265000FF3F0000D87CFC07D07FF807BC59FC077F
:102660009CB8FC0765873412009CFC07D01A000058
:1026700000B9FC0760BAFC07A447FC0700BAFC07D6
:102680007CFCF107DAB9FC07B0BCFC072000800035
:1026900000C00000000084000000282200000000AC
:1026A0000000040000F7FFFF7F00000030F0FF0F84
:1026B0000000000000040000000000000000000016
:1026C000000000000000000000000000FDB9FC0751
:1026D00050B9FC07603FF20754B9FC072C45FC07D2
:1026E00058B9FC07A846FC07B0B9FC07B1B9FC070C
:1026F000D9B9FC075CB9FC0760B9FC0764B9FC07F1
:1027000068B9FC076CB9FC0770B9FC0748B9FC074D
:1027100044B9FC074CB9FC07FFF00000C8FEFFFFFE
:1027200000020040FFFF1F00C07DFC07A748A8492A
:102730005A02944200D9B2E622586250241DF7E7AB
:10274000A44C3034A2491C2220465EF769FC204686
:102750005EF7FAFBA048A14908601A9CA0480068EF
:102760003FF778FD9F4E29461D9D3571F570206815
:1027700008432060FEF72EFF1E9800F099FDF570CB
:102780009948057099489A4948650C24994920460A
:102790005AF72FFB204629465AF75DFBF570924801
:1027A0000570FFF7CBFB0520FEF7EAFB1B98C00383
:1027B0001990914E9148FF30069091489149081820
:1027C000914940188008401E08909048401C07908E
:1027D0003889000600D453E11A98006B1999084211
:1027E00000D04DE17F480088C00700D048E15AF78B
:1027F00004FE0024204600F05BFD7D48807A04281A
:1028000000D03DE11E9800F053FD209420A804253F
:1028100029464BF793F9002800D131E11B987C49F8
:10282000086008680028FCD11A98C069704B596983
:10283000884201D25C612146411ACA09D979182A15
:1028400002D8002900D11BE1002906D06849886917
:10285000401C886100F0DEFE12E16E4A118805918D
:102860005188049191880391D188029114801B9919
:102870004902019110315180159C94800B99664B4F
:10288000595A91815A494861908920430999C9430D
:102890000840908161480460BFF34F8FBFF36F8F92
:1028A000108820431080D08820430840D0801088B2
:1028B000A84310809088C0B29080D08870210140D9
:1028C00040292ED12C466220185A0028544900D0A5
:1028D00001464048818010880799084310801920DC
:1028E000FEF7A2FB4B4A1088019B1843108010880A
:1028F00015990843108050882043508050884949DA
:10290000084050800A984002518801435180508805
:1029100045490840149980310143518043481B9C2C
:1029200014E01B9C2003118881431180508840498A
:102930000840508050881899884350803A4B184678
:1029400040381188014011801846019B5188014090
:1029500051801088204310801C9817301189014045
:10296000234A91812B4949890140D181294A108903
:1029700022490840C018108150890840C018508171
:1029800010881299084310800E98800211888907D8
:10299000FCD41B99D181158A11460E4A9288144B9A
:1029A0009B890C8904401C430C81114BDB894C89A9
:1029B00004401C434C81A81A1C99414300283BDC6D
:1029C0001C4A8918C017084038E0C04600B0FC0710
:1029D000C07DFC07BC59FC07658734129CB8FC0716
:1029E0004CB9FC0754BAFC07B4BAFC074316FC0701
:1029F000D87CFC078C48FC074C7DFC0700FCFFFFE3
:102A0000944700005001FC07030004F8FF0F00008A
:102A1000FC00004000150050507CFC0780E100E005
:102A200040760000FF1F00003FFE0000FCFF00009A
:102A3000FFE100002BFDFFFFD8480818D8495CF7DC
:102A4000F7FA84091934D74D68787F280ED0201AF8
:102A500041B2C9114018484040B20528D24807DBAE
:102A6000D04DA869401CA86100F0D4FD6C70CE4820
:102A700004994180039981800299C1800599018060
:102A8000B06A00281D9DC74C07D0607900281B9DA7
:102A900003D1042001F03CFA1B9DF84BD9780029A2
:102AA00010D01889DA8882420CD05869002800D1E9
:102AB000E1E19A78012A00D1DEE101F083FAF44BDA
:102AC000002802D09878012804D100209870A16BCA
:102AD00088470125706900281E980FD030461430B1
:102AE0003FF7D6FF0446007901F028FB2046E74C6B
:102AF00059F7EDFE7169484248410125EC4A1168D9
:102B000012686379002B00D062E60124E3021A40C8
:102B100000D05DE61C9A1832114000D058E6B16A28
:102B2000002900D054E6002800D151E6002D00D045
:102B30004EE6FEF763FD002800D149E672B6DA489A
:102B4000007900250228284602D0D3480068406A50
:102B50002090CB480089C00767D159F71AFD00289B
:102B600063D0D148C07800282046C74B5FD0B88AD0
:102B7000C00700D077E1CC4800880028204656D115
:102B8000CE48806A002803D0C3480068406A20907D
:102B900000F070FFC448817820A85AF7F2FA0028A4
:102BA0002046B94B43D01A980069400620463ED4CF
:102BB000BD48817820A84AF7C1FFB34B00282046C2
:102BC00035D04CF73DFF00282FD04BF7B9FB00283C
:102BD0002846AD4B2BD0B448817820A85AF7D1FABB
:102BE000002800D1CCE01A980069400600D5C7E063
:102BF000AD48817820A84AF7A1FF002800D1BFE0A6
:102C0000AF4A108806990840149908431080209A0A
:102C1000002A00D1CAE01A98006AA0494018DA28B0
:102C200000D9C4E0521E2092C1E02846964B811E76
:102C3000022908D2398A169A11433982B16A0029C9
:102C40000BD000215CE0012800D097E0FEF7D6FC15
:102C5000002800D192E030BF90E08D498A780021B1
:102C6000002A0D4600D105467069002848D1022D82
:102C700023D0032D43D18F490868169A104308606A
:102C800080490889A0430881788A90437882FFF7B9
:102C9000FDF8788A0C990843788208988C49086076
:102CA000EFF3108084F3108839880F9A91433980AC
:102CB000002810D084F3108810E07E4A106816991E
:102CC000084310606F490889A0430881788A0C99ED
:102CD0008843788211E0002080F31088788D149961
:102CE0000842694B09D00020A14988700B2001F0EF
:102CF00055FB654BD88D2043D88500203883294665
:102D0000788D149A104205D11888159A1043179A95
:102D1000904318805B4A108C159D2843179DA8434B
:102D20001084880710D5B88CA043B8840D20FEF716
:102D30007BF9788920431299884378817889400605
:102D4000FCD510987880504BB88AC00602D54C4804
:102D50001199018030BFB88A1888179A1043139CC4
:102D6000204018804749088C10432040088400F018
:102D700017F9504A106816998843106062B627E523
:102D800044480078C00702D13FF79CFC04E00020D3
:102D90003FF7E8FC3FF7AEFC204647E7D5020000CE
:102DA000AA050000D87CFC07001500500022704BDB
:102DB000588A374DE969081828621A9BD86B3E4D2E
:102DC0002840334D0843D863D86B3E490840696AB0
:102DD00089020143D963D86B32490840296A490501
:102DE0000818D8633848824247D2F149086E496EC4
:102DF00000235CF731F90903000D4018411E686A91
:102E0000421C914200D00846274909794A1E914147
:102E100046F7AAFD2D48C06A80471A99199A086B8F
:102E20001042FCD00D991E4A10680842FCD0106870
:102E30000F998843106012484089452805D84621DB
:102E40000F4A5181081ADA4908643FF73EFA144ADA
:102E50009068D749C86310680006FCD538890F9977
:102E600088433881084B114800780128129800D116
:102E7000DDE61898DBE6FEE7FEE7FEE7BC59FC0757
:102E8000003300500403005052000050D87CFC076F
:102E9000BC59FC07FDB9FC0758B9FC07C8FEFFFF89
:102EA00000020040FFFF1F0054BAFC07B4BAFC0741
:102EB00000E200E010ED00E000FCFFFF74BEFC0744
:102EC00038300050FF03E0FF40420F0058BFFC07BE
:102ED0002000F407F0B569212448415C1030B44A61
:102EE000927900230C4E8B4212D247680A2A3C4644
:102EF00006D33D46074C2540204C246864042C43EF
:102F00000568B54200D127462F6008305B1CEAE710
:102F1000F0BDC046FFFF01FC38300040F0B568212D
:102F20001248415CF64A92790023124D134E8B42AF
:102F30001AD290C80838AC4212D1FC01640C2C465D
:102F40000ED00A2A2C460BD3032424023C403F0413
:102F5000BF0E3C192C60C488074F3C40346000E031
:102F6000276008305B1CE2E7F0BDC046507CFC07E0
:102F7000D87CFC074C100040FF010000F84DFC0716
:102F800080B548F72AFD5C200449085C002800D081
:102F900080BD10205AF7A3FA80BDC046B0BBFC0725
:102FA000FEB50127052000900507688DC0057F4C00
:102FB0001AD57F488078012803D101F0E5F91B2854
:102FC00012D87C48408AC00400D4208CFF201C30DA
:102FD000794908801B2001F0E1F9784801883943DC
:102FE0000180688D4007FCD575487649182201920A
:102FF0005CF782F8744875494CC84CC1FDF7C7FDB1
:103000002C2002906C490F540B46714871490160A5
:10301000714A107F0004517F09060818567C31025E
:1030200040183C46177CC01998626C483C306CA133
:10303000019A5CF761F8422068490E5441200F5410
:103040000E46274600F0FCFD6B48018810220A431B
:103050000280FF20000669490A688243E0071018D1
:10306000086000F0F3FF00F02FFF53496448306020
:103070000298085C002802D0886A000A02E06148D1
:1030800088620720544E39020291C0B20A210024FE
:1030900001912246FEF7C2F800F0D8FFB179727DA7
:1030A0005948002A41D1B27D0B2A3ED8002902D1CD
:1030B000F37993423AD0B378002B02D1F37893425C
:1030C00033D0F37A002B02D1337B93422DD0337C63
:1030D000002B02D1737C934227D0337F002B02D187
:1030E000737F934221D02B88022A08D00C242340DE
:1030F000042B009800D001989042434803D16B8A7A
:10310000424C1C406C82294B1F803B4693400380FD
:103110005300C31800245C80264B5F80F47D651E3D
:10312000AC41E401521C22431A800C460194727C8B
:1031300039469140337C5B01C518AD1E2980811C46
:103140005B18029D1D3552009D52327B3B469340D9
:10315000F57A6D012B526B1852001C259D52F278A6
:103160003B469340B5786D012B526B1855000322F6
:10317000140202941B345C53F3793D469D40019C3C
:103180006401255264185B001A25E552737F3C46A2
:103190009C40357F6D012C5268185900029A4252AA
:1031A0000249888938438881FEBDC046000300502B
:1031B000D87CFC0740000050BC59FC078000005040
:1031C00020000840BC47FC07D447FC07C000FC07B0
:1031D00000000840070010001001FC074C7DFC07B0
:1031E0000700A00F0000070000000000E117FC0727
:1031F000EB17FC07000300000833005010E400E068
:10320000013FFC0700070009043000507FFE00006A
:1032100003480188034A11408918091D018070473D
:1032200012000050FC7F0000B0B5044601201E4D86
:10323000C0070BD0E88A5EF761F8002803D08268E7
:1032400028462146904718350020F1E7B0BDC0461A
:1032500070B50125144C002814D0E80722D0E08A6C
:103260005EF74CF8002802D04168204688470025C8
:10327000E5816560A560FF20E082207D59F713FE9F
:103280001834EAE7094EE8070CD000252560656090
:10329000A560E560256166611020214659F7A9FD0A
:1032A0001834F0E770BDC046BC7CFC071000FF007E
:1032B000B0B5D24D2978012921D11249002803D077
:1032C00008884007FCD402E00888400717D4002390
:1032D0002B70C8888988000444181F2040064921A3
:1032E000224660F7BDF82866696664214143080CF0
:1032F000A86405486043800B401C40082865B0BDA9
:10330000D87CFC07001600501111010010B5F44CD8
:10331000082020701120FDF787FE0320607010BD8B
:10332000FEB5634803250570624C204614380168D9
:1033300014220A436B218A430260A06A5E498861B5
:103340000020C043A06220683F218843206020689D
:103350005A4908402060606859490840012101919C
:10336000890202914018606060684021014330206A
:1033700081436160A069534908400B214906401808
:10338000A061A0695049084069024018A061A06985
:103390001821014327208143A161432020714B481C
:1033A00080474B4880474B4880474148057000950F
:1033B0004948066849488047494880472068494944
:1033C0000840F105401820603C4E403620683040EF
:1033D000490C40182060412727716068384908402F
:1033E0000299401860603948804739488047394819
:1033F00080472F4805703848056838488047384866
:103400008047206837490840E90540182060206857
:103410003040490C401820602771606828490840F6
:103420000299401860602948804729488047294808
:1034300080471F4800990170274800682168294A81
:103440001140C2058918216021683140264D054090
:10345000A801081820606068019988436060164ED2
:10346000B069A06220681C210143232081432160B0
:103470002068124908402060A069124908400721CD
:1034800089064018A061A0690F4908400F21C901B1
:103490004018A061A0691E21014321208143A16140
:1034A0000E4880470E4880474A203552FEBDC04630
:1034B0000510004018300040BC59FC07FF7FFFFF9B
:1034C000FFF9FFFFFFFFFFC03FF0FFFF9116FC0772
:1034D000ED17FC070B10FC07883000406D16FC0749
:1034E000F70FFC07FFFF7F00FF010000704700009F
:1034F000F0B58BB03022002181541F221204354BCD
:103500001D68954301246204AA181A60334B344D98
:103510004561344D344E354F354AC26106624362CF
:103520002D4A8262C562334A07604260E004CC4A99
:10353000136883431360282903D001A84154491C10
:10354000F9E72D480068403001A928225BF7D4FD37
:10355000C74D0920A871FFF7D9FEFFF7DFFCFFF781
:10356000B9FC00F093F900F03BFF00F06BF8FFF7B7
:10357000D7FEEC7122480088072101406972FDF7EF
:10358000D7FCFDF7FDFFFEF70FF81E490B881E481C
:1035900004681E4A1440E31803601D4B1C888569AB
:1035A00015402C1984615B88C4691440E318C36119
:1035B0004B8A046A1440E3180362898A436A134001
:1035C00059184162A84802218170002101800BB086
:1035D000F0BDC046740000404136FC073D36FC0794
:1035E0002937FC070D37FC07F913FC07E536FC0704
:1035F000E736FC07ED34FC074CB9FC07D87CFC0728
:10360000B810004010300040889CFC070000FFFF0D
:103610006430004080B5FFF779FEFFF75BFC00F0F7
:1036200035F900F0DDFEFDF783FCFDF7A9FF8E48BC
:10363000022181700021018080BDC04600207047BA
:10364000704700000E4908880E4A024001204302DC
:10365000D2180A804105824A13688B4313608107A0
:1036600000224A671F2212044B6F9343400418182C
:1036700048670868E0220243102082430A607047CE
:1036800038300050FFFC000080B51F2000040121ED
:103690008A07536F8343480418185067106807213E
:1036A000884310600D48018808220A430280FFF712
:1036B0002DFEFFF733FCFFF70DFC00F0E7F800F0FC
:1036C0008FFEFFF7BFFFFDF76FFF67480221817094
:1036D000002101800520FDF753FC80BD080000504B
:1036E00004100040704780B54108732900D3E620DC
:1036F000282800D82820F9214A0042437D20C10013
:1037000010465BF77FFC7F38C0B280BD054801687A
:1037100007220A4302600120800451490A6882435B
:103720000A60704730000040012906D0022903D109
:10373000032804D20C207047FEE7032802D3FF2899
:1037400000D0FEE7E14880797047C046F8B54448AC
:103750000168C90703D0016802220A4302600124FC
:103760000168490203D5A10502680A4302602702E5
:1037700065023C490095084608380668002E6ED060
:10378000300606D5802008604AF781F8FDF722FF51
:103790003449B00704D50220086045F776FF314967
:1037A000300714D508200860FDF7B4F93D462746D8
:1037B0000024204645F722FF2A490420E74A907258
:1037C0000220294A907014803C462F46009D3E42BC
:1037D00004D00F60012045F711FF22492E4203D08B
:1037E0000D604AF7BDF81F49700604D540200860F7
:1037F00045F7FFFE1B49F00604D51020086044F78A
:10380000BBFA184970071BD50420086017490888BF
:10381000A043088017480078C00702D13EF752FF46
:1038200004E000203EF79EFF3EF764FF59F74CFE90
:103830003EF706FFFDF7CEFE0020E64988720949F3
:10384000F00707D00C6059F75BFE4AF720F80549EE
:10385000E0488472B0068ED5202008608BE7F8BD62
:1038600000020040180000400410004008330050DF
:10387000D87CFC07FDB9FC0702210143022901D1D4
:1038800001487047FEE7C046E047FC07FCB57F20D3
:103890000002594A516981430B2000020818506107
:1038A000106880B25549401810609069544C04402B
:1038B000012358030090201890610320019000021A
:1038C000146B04431463908F1024044394879088EE
:1038D000184390804B484C4A02604C4A10461038BE
:1038E0004B4DAC8B044015204301E0185030A883A9
:1038F0006869484C0440484820186861A869474CEA
:103900000440092040022018A8612868444C044063
:103910004448201828606868434C044043482018F5
:103920006860A868424C044042482018A860E868D3
:10393000414C044041482018E860C1204001A54C9A
:10394000A479240620183E4C2060052080023D4FBB
:103950003880401DB880388C55260643AA208643FF
:103960003E84FF266C363046C930388536490846D5
:103970000E30B88535483886B986C01D388734483A
:103980002885A86B3349014033480818A863334D94
:103990002E80288F10401F462037C01928873048B6
:1039A000018811408919D531018081881140C918D9
:1039B000818001891140C91901812136AE802948D1
:1039C00001881140C91860310180818A19220A4397
:1039D00006218A438282A08F23490140009808185B
:1039E000A08722480168019A114304229143016093
:1039F0001F486066FCBDC04620300040000088883B
:103A0000FF00FEFF8000004059055C071FFCFFFF20
:103A1000042000400000E0FF09581A00FEE1FFFF0B
:103A2000E0E000000809294900000303696A686CA6
:103A3000031FFFFF70600000E0E0E0E00B0A0A08EF
:103A40000010004028130040260A00005108000022
:103A5000070F00002F64E0FE101A0601001200405C
:103A60004412004088120040FF9F00008010004078
:103A700050015001F8B5642013490E5ACF4FBC6C69
:103A8000304660431249401812495BF7BBFA0546BD
:103A900078823C3666430E4830180E495BF7B2FA1E
:103AA000001D0D49C8612818C01D48620B4A1278D4
:103AB000022A01D111304862FEF752FA0849401833
:103AC00080B259F72BFDF8BD507CFC07D87CFC0771
:103AD00020A1070040420F00BC59FC07B4BAFC0704
:103AE000E204000070B514460D46064600F076F874
:103AF000411E88414100EB48806A828906239A432F
:103B0000511881818680310CC180691E01814181FB
:103B1000818908220A438281818901220A438281A4
:103B2000400838210140F348401800214465816570
:103B3000DD48018810220A43028070BD80B5D94853
:103B40000279D20704D1244A0023D35E002BFBD490
:103B5000026A002A01D00846904780BDD87CFC0745
:103B6000B0B50C46054600F039F8411E88414100C9
:103B7000CC48C06A828906239A4351188181058006
:103B8000290C4180611E01814181828908218A437B
:103B900082818289012313438381400838220240B5
:103BA000F2488018002242658265BF4802880A43B5
:103BB0000280B0BD80B5BB480279D20704D1064A65
:103BC0000023D35E002BFBD4426A002A01D00846B2
:103BD000904780BDD87CFC0718120050134800881D
:103BE0004006C00E1CD04108014388080843010963
:103BF0000143080A0843010C0143C84341080C4A29
:103C00000A40801A0B49820808400A4080180109BE
:103C100040180949014009484843000E1D3800E09A
:103C20000320C11740184840C0B27047041200502A
:103C300055555555333333330F0F0F0F0101010124
:103C4000F0B589B0EFF31081012080F31088820273
:103C5000594B1C8814431C80002902D080F3108823
:103C600002E0002181F310888F4E202101913180E4
:103C70004023D24CE25C072111400229009308D076
:103C800001290AD00029B2881C21114360229143E6
:103C900007E0B2887C21114303E0B2883C21114344
:103CA0009943B1803C21625CB3880325AB43120782
:103CB000520F1A43B280635CB58880229543DB07BC
:103CC0001B0EEB18B380635C0340DE4F3879FE2592
:103CD0000540E8183D46234638710027B7813089F2
:103CE00010433081605CC00726D12879F121014062
:103CF000009D585D80080E2202408818D149087145
:103D0000D98F7D200002814202D131897F2008E0D5
:103D100049005BF777F9234631897F229143401EA2
:103D2000C0B2084330815220185C3188A943C007D3
:103D3000400E08183080C34D1A46443207CA2C463C
:103D40001C3407C450200090185CC0071C4C20464F
:103D500001D020462030A86202AD6F800421297076
:103D60002F82EF806F715121595C0E01711D2971F5
:103D7000089707970597EE491C31049129461F467D
:103D8000FDF78EFCF01C28710098385CC00701D04C
:103D9000303400E01034E748C462E54E304620304D
:103DA000059020462946FDF77BFC30880199884321
:103DB000308009B0F0BDC04604000050D87CFC073C
:103DC00000360050F8B50C460546DA480779FFF78B
:103DD00005FFD74E31881F2291433180328802215E
:103DE0000A4332803388042213433380FB0726D1F1
:103DF000022830D1B088318801220A43328040063F
:103E0000C00E401CC0080021284A8BB2A34211D228
:103E1000338B9B04FCD46B8833852B883384338BA2
:103E2000DB04FCD42D18B38B378D3F04FB1808C27C
:103E3000491CEAE71820305E0028FBD4F8BD33881F
:103E400001273B433380022819D001281CD00028C9
:103E5000F4D128781AE01548154A2146FFF742FEAA
:103E6000B448C06A818940220A438281284621469B
:103E7000FFF776FE3088012101433180F8BD688864
:103E800030862888174601E028880F46B085074805
:103E9000074A2146FFF726FEE819611E89B2FFF79F
:103EA0005FFEF8BDD87CFC0700120050FC4DFC07FB
:103EB000B53BFC0780B50B20FDF70AFAFDF7C0FA09
:103EC000012000F025F880BD80B53C480A494160DA
:103ED0002C215D48415C002902D0806A000A02E082
:103EE000064981620720C0B20B210122FDF796F935
:103EF00080BDC0464C7DFC07B53EFC0700070009AD
:103F000080B50A20FDF7E4F9032000F001F880BD38
:103F1000F8B50446144E307801280CD1082002214F
:103F200058F75AFC01460471244814303EF7CCFD82
:103F30003078002816D101203070204F7869002891
:103F40000BD0384614303EF7A3FD0546007900F04B
:103F5000F5F8284658F7BBFCF0E7204600F0EEF8ED
:103F600000203070F8BDC046B859FC074C7DFC07F6
:103F7000EA490889CB88834200D2FEE7E64A5279B3
:103F8000022A01D3002200E00122834202D1887874
:103F9000824300E000222820085C4001064BC05A02
:103FA000F84B5B69002B01D000207047283149781D
:103FB000C84010407047C046003000504C7DFC07A0
:103FC00070470000F8B50C46D44DA978012900D1FE
:103FD000FEE700280BD0EE8831094B2908D22F8943
:103FE000F11BA14205DAEC7068610120F8BDFEE723
:103FF000FEE7CC49C91922465BF77EF838192881BB
:1040000080B2864202D100202881E88000206861C9
:10401000E870F8BD10B5002808D0002907D0D84BAB
:104020009A63BE4CA278012A02D1FEE7FEE7FEE7C2
:1040300089B2FFF7C7FF002800D010BD0120A07093
:1040400010BDC046D87CFC07BC59FC07F8B5B94F79
:1040500020243C80FFF7F4FD3888A0433880C84C0A
:104060002579FFF7BBFD39881F22914339803988B4
:10407000EA0723D1022211433980398804220A43F6
:104080003A80022832D139880120014339806834CE
:10409000C0070ED0388B8004FCD4002038853884CB
:1040A000398BC904FCD4B98B3A8D1204511802C45F
:1040B000EEE71820385E0028FBD4F8BD0422114337
:1040C0003980022828D13988012001433980683499
:1040D000C007F2D0388B4104EFD4C004FAD4B88BB7
:1040E000398D0904081801C40020F1E76D4600204D
:1040F00028702046683001260F4A3146FFF7F2FC4F
:10410000E06A818940229143818128463146FFF748
:1041100027FD3888304308E068340125064A2046E8
:104120002946FFF7DFFC388828433880F8BDC046B1
:1041300000120050D87CFC073D3BFC07F8B5754FDA
:104140007A88694600240C708D4E7179032912D249
:10415000042876D0022877D0012874D1022070710B
:104160002B206E49085C012282402A20085C400115
:104170006B494252F8BD29D0042964D1032862D189
:104180002B2066490A5C0120034693402A22895C61
:104190004901634A89184B80747139888143398099
:1041A0003988082291433980398A1143398234632E
:1041B000398A01433982716B002902D07463204629
:1041C0008847FFF781FEFFF741FFF8BD03283AD18A
:1041D0007471524EF488A01800094B282FD2514810
:1041E00000195149891C951E2A465AF785FF4F49E7
:1041F0004D485AF79AFF6019F0800124E04339884E
:10420000014039800821C9433A880A403A803A8AF5
:1042100002403A82388A08403882FFF755FEFFF79D
:1042200015FF3089F18881420AD92B20305C844007
:104230002A20305C40013A494018448003E0FEE700
:10424000FEE700291ED0F8BD6820305C612825D02B
:104250009E2816D14B20C4006A203452032070716E
:10426000354DA81C21465AF760FF2C80314E20277F
:104270003780FFF7E5FC3088B8433080A11C284622
:104280003AE0FEE7012070712B21244A515C8840FE
:104290002A21515C4901224A8852F8BD04207071DC
:1042A0004B20C100224D28465AF73FFF6C27F4539C
:1042B0003448816A002913D028303EF7E9FB0446D0
:1042C00030670289A81C21460A315AF715FF208958
:1042D000F053204658F7FBFAF05B2870000A68702C
:1042E000144C20252580FFF7ABFC2088A8432080B4
:1042F000F05BC01C81B20E48FFF764FD2B2007491C
:10430000085C012282402A20085C400104494018D0
:104310004280F8BD0C360050D87CFC07BC59FC0725
:1043200002300050B052FC07FC4DFC075A0200005E
:104330006057FC07001200505650FC0770B500286B
:1043400008D00C46002906D005460D48016B00290F
:1043500002D0FEE7FEE7FEE70563426320460C302D
:10436000022158F739FA06460A30294622465AF7FA
:10437000C3FE34810348283031463EF7A5FB70BDAB
:10438000D87CFC074C7DFC070E480188890918225F
:104390000A4000888004400F8018704710B51F2124
:1043A000490282010A4007490B88074C1C4014430C
:1043B0000C800A88054B13404007800C18180880B1
:1043C00010BDC04654000050FFF90000FFC70000B8
:1043D0000248018801229143018070470411005076
:1043E00018B50848016800910099074A009B1A40D7
:1043F000FF2424040C40D9B20919044BC9181143F5
:10440000016018BD8000004000FF00FF0A000A00A4
:1044100002E008C8121F08C1002AFAD1704770478D
:10442000002001E001C1121F002AFBD170470000EB
:10443000034880F3098800F029F8FBF789FEC0469D
:104440002861FC0704207146084203D0EFF309807D
:104450000A490847EFF308800949084770470420D4
:104460007146084203D0EFF3098006490847EFF38D
:104470000880054908477047FEE70000C513FC07A0
:10448000C513FC072113FC072113FC071C4988886E
:10449000072290438880052000078A89D20710D020
:1044A000098800290DD117494A8802858A888284A3
:1044B000CA880284428A144B13400988C9011943EF
:1044C0004182124906220A800121CA03104B1A6058
:1044D000BFF34F8FBFF36F8F02221A60BFF34F8F6E
:1044E000BFF36F8F1960BFF34F8FBFF36F8F418999
:1044F0000422914341810021018062B67047C04689
:1045000004030050A000FC077FFE000000340050B0
:1045100080E100E0F4011100F4352348F40108C4FF
:10452000140A00001445FC07307DFC07F134FC0739
:104530008936FC078513FC07F1DEF0073513FC070D
:1045400049DFF00761DFF00777DFF00799DFF00759
:1045500019E3F007BDE5F007FDE3F0071DE4F00700
:104560003DE4F0077BE4F0078BE4F007F5F9F00792
:10457000B1F7F007CFF7F007EBF7F00705F8F00712
:1045800019F8F00797F8F007AFF8F007DFCDF1075B
:1045900067D0F107812FFC07CD0DF207B10EF207AE
:1045A000AD0EF207A90EF2077938FC071132FC07AD
:1045B000FD1EFC073D1FFC07911FFC07891FFC0720
:1045C000B57EF007837DF007D501FC07599EF10702
:1045D000634CF1075132FC07D110F2072932FC0776
:1045E000B111F207E714FC070115FC0700000000F9
:1045F0004516FC074716FC07B9C6F007D592F10728
:104600006302FC075F9DF1075F9CF1077505FC07DE
:10461000EB72F107B922F1076B04F1074116FC07B1
:104620002BA4F007F1D2F0075FBDF007D5BDF0076E
:1046300085BEF007DB2DF007752EF0071581F0071A
:10464000DF7FF0070937F007000000004916FC077C
:104650005116FC073D15FC07F3C3F10775C4F107BC
:1046600003C5F1075515FC0700000000000000001D
:10467000000000000000000000000000000000003A
:10468000000000000000000000000000000000002A
:10469000000000000000000000000000000000001A
:1046A0000000000000000000050000002861FC0779
:1046B00000080000CC81FC0704080000C07DFC0756
:1046C00000040000DC89FC07900B000020030000C0
:1046D00000A60E0005000000D2000000320000001D
:1046E0003C0000000100000001000000020000008A
:1046F00002000000040000000300000006000000AB
:1047000000000000020000000200000000000000A5
:10471000000000000300000003000000050000008E
:1047200005000000060000000A0000000A0000006A
:10473000C8000000B80B000002000000B80B000029
:10474000B80B000010000000D4010000CC010000F4
:10475000700200006A000000040000000300000076
:10476000200000000A00000001000000E204000038
:104770008A020000DC050000AF0000002445FC07B1
:104780009447FC07000000007048FC070000000090
:1047900000000000A8B8FC07A0B8FC07B8B8FC07E8
:1047A000F8B8FC0701000001650AFC0701000002DF
:1047B000550BFC070000000000000000F99DF00709
:1047C00000000000E3A1F107000000004FA4F10782
:1047D00000000000BD05FC07EB08FC07FB09FC0717
:1047E0001540FC073D43FC07C13FFC07713FFC0738
:1047F000080004900000000000000000030005D045
:104800008B0035F010005CF0000010B0000018B014
:1048100000001AB0030051F0000038B000003AB0B8
:10482000000064B0000066B0000022B0000024B0B8
:10483000010005D0000000000A0000800803049079
:10484000000004F0030006D0000000000A00008011
:1048500008030490000004F0030006D000000000EC
:1048600014000000ED14F207FF000000000000003B
:104870006048FC07BC7CFC0701000000FFFF000053
:104880002D18FC077C48FC07010000000000000018
:104890008448FC07D47CFC0702000100E47FF80791
:1048A000E87FF807F47EF807FC7EF80710000000A8
:1048B000E448FC07E848FC07401100002044FC07DE
:1048C000E448FC07285AFC07000700002044FC07C6
:1048D000487CFC07487CFC07780100002044FC076A
:0448E0000E000000C6
:0400000507FC0151A2
:00000001FF
