:0200000407FCF7
:100000009448FC077D2BFC07912BFC07AB2BFC07CE
:10001000C52BFC07C52BFC07C52BFC07C52BFC0714
:10002000000000000000000000000000C52BFC07DD
:100030000000000000000000C52BFC07C52BFC07DA
:100040001906FC072524FC07A526F0075D08FC0718
:100050008507FC075B08FC07DD05FC07C52BFC07D3
:10006000E905FC07C52BFC071507FC071F07FC0764
:100070002907FC073307FC073D07FC07C52BFC07D6
:10008000A108FC07C52BFC07C52BFC077D06FC0758
:10009000C52BFC07C52BFC07C52BFC07C52BFC0794
:0800A000000000008E070E00B5
:0200000407FCF7
:10011000444F000644490005434C4B000843534EEE
:100120000007504F5200000144524459000900009A
:0200000407FCF7
:100130004669726D776172650000000032363332B5
:0C01400006001900C605000300000000C6
:0200000407FCF7
:100150000348854600F030FA00480047BD15FC070B
:100160009448FC0770477047704700007FB5E4482B
:100170006B460188428889186A46118001214C002B
:1001800022181546403DED8F065B5288AD19AA181E
:10019000491CC9B21A530729F1D38189C0890818AB
:1001A00081B2D981D888002821D01889002820D090
:1001B000988800281FD0588900281ED098890028C8
:1001C0001DD0588800281CD000291CD01888002871
:1001D0000BD00720062254001C5B8C4201D2214622
:1001E000D0B2521E52B2002AF5DA04B070BD03201C
:1001F000FBE70420F9E70220F7E70520F5E70620F2
:10020000F3E70120F1E70720EFE7F0B595B0EFF352
:1002100010801090012080F31088BA48816B4A0743
:10022000520F69460A800A92816B0122C908C900EF
:100230008163B5498B8869464B800224B24B00210B
:100240009980C16A09078B0F69468B800F93C16A39
:100250000C2399430831C162052109070988090661
:10026000CB0F6946CB8005210907099309888023B4
:10027000194305231B071980A449898A4906CB0F16
:1002800069460B81A1490893898A402319439F4BF2
:100290009982016A09074B0F69464B810C93036AE7
:1002A0000E218B4303629B4D99486860FF204030CC
:1002B000A8602888A0432880974841680B071B0F37
:1002C00069468B810B934168090909010831416036
:1002D000416849064B0F6946CB810D9341687023F5
:1002E0009943603141608748403801688904CB0FE9
:1002F00069460B820293036841140B430360016853
:10030000CB07DB0F69464B820E93016811430160F6
:1003100041688903CA0D69468A8203924168CA0509
:10032000D20D6946CA82049281688903CA0D694662
:100330000A8301928168CA05D20D69464A830592F3
:100340004168764A11400322D2038918416041680E
:10035000490A4902FF314131416081686F4A1140C9
:100360000322D203891881608168490A4902FF315A
:1003700041318160642000F00FF9A8896946800747
:10038000C00F8883A8892043A8810024604F288853
:1003900000260121084328800A2000F0FDF8FF20F4
:1003A0005F4941303A680A4200D0761C401E3F1D2A
:1003B0000004000CF6D1A88A8004FCD15149886B56
:1003C000671CC208D2007807400F02438A630A20E4
:1003D00000F0E2F860004A49FCB20E52082CD5D376
:1003E00048480A99826BD208D2000A438263694660
:1003F000454A498891800F998A00C16A0C23994324
:100400001143C1620999CA0105210907098880239E
:100410009943114305221207118008998A013B492B
:10042000898A402399431143384A91820C994A00A2
:10043000016A0E2399431143016237480B994268C0
:10044000120912010A4342600D99426809017023A2
:100450009A430A434260029841032A4840380068A0
:1004600001225203904308432649403908600E9800
:10047000096849084900014322484038016003984F
:1004800042022048403840682449084010431D4A31
:10049000403A506004985268520A52020243194886
:1004A000403842600198174A4002403A92680A4038
:1004B00002431448403882601249059840398968DF
:1004C000490A490201430F484038816010980028CA
:1004D00000D0012080F3108815B0F0BD10B5114C8C
:1004E0002078002808D0FFF790FEFFF73FFE0E4966
:1004F00008700020207010BD5FF738F80120F9E780
:100500008035FC0780100040001200402030005071
:100510008030FC070035005040200040FF01FCFF08
:10052000C0C0C0C0DF7CFC07E07CFC0710B5FF2228
:10053000154901320A60BFF34F8FBFF36F8F134924
:100540000A6013490B6840241B0A1B0223430B60FB
:100550001049898A0021C30700D03521830702D5BD
:100560007D231B021943430702D575231B0419433E
:10057000000702D53D2000060143064820380163EC
:1005800001488038026010BD80E100E080E200E0B8
:1005900008E400E0A010004000280CD000BF00BF1D
:1005A00000BF00BF00BF00BF00BF00BF00BF00BF53
:1005B00000BF401EF0D17047064C0125064E05E0F5
:1005C000E36807CC2B430C3C98471034B442F7D374
:1005D000FFF7C2FD4830FC077830FC0701480121D5
:1005E000018070470E1500500A48011F0988CA078C
:1005F00006D0028807239A431D4B1B7A13430380BE
:10060000490706D5018807229143194A527A0A43BD
:1006100002807047B810004010B5144808210180CE
:10062000134C618A208A5EF785FC5CF7B6FF874829
:100630004188890703D04188032291434180018882
:1006400080220A4302800189042291430181818929
:100650008907FCD541F765FEE06B0649086006484E
:10066000016801684907FCD510BDC0460033005041
:10067000D87CFC070802004010000040FEB53F4C4B
:1006800054342048068801200190C00402900027BD
:100690001D4D002E34D0042F32D2F0072BD0A88964
:1006A000000605D428896989401A4142414100E089
:1006B00000210198B840134A50802889029A134BB0
:1006C0001A60BFF34F8FBFF36F8F002907D0A9893E
:1006D000019A9143A981A98908229143A98122689D
:1006E000002A05D0411C606889B200949047009CA4
:1006F0000298074908601035083476087F1CC8E75F
:10070000FEBDC046823600500036005080E100E059
:1007100000E100E080B50A2000F01CF880BD80B543
:100720000B2000F017F880BD80B50C2000F012F807
:1007300080BD80B50D2000F00DF880BD80B50E2085
:1007400000F008F880BDE0B50023009301235DF7B9
:1007500055F88CBD10B504465DF726F9E0B281006E
:10076000064A891828390968002901D0884710BD30
:10077000012181403648016010BDC046487DFC071C
:10078000FEE70000024800883148102101607047F0
:100790002C130050B0B5114D2888400602D528888A
:1007A000800609D40E49086A0024002814D0CA69BA
:1007B000521CCA6182420FD309480024C461281F19
:1007C000046017480088FFF7E7FE2888C00701D1BA
:1007D000012401E04AF756FF2046B0BD1410005036
:1007E00084BAFC0780B54AF71EFF0B488289802136
:1007F0000A438281027903781202D21814235343E8
:10080000064A12881207D20ED218921C044B1A8084
:1008100082898A43828180BD00100050C010005040
:10082000487CFC070948018904220A4302810188A7
:1008300040220A430280064901220A604189054A92
:1008400011408918091D41817047C04608000050B9
:1008500080E200E0FC7F00007047FEE710B50F4C1F
:10086000A1880F200840022806D004280BD00C28AD
:100870000CD00128F4D110E0208802218843208088
:100880002088802106E002F061F9E9E702F05EF9D4
:100890002088012188432080E2E710BD0411005028
:1008A00080B55CF77AFE1948018809050CD518490E
:1008B0000A8805231340052B06D108880422024329
:1008C0000A80088801221EE00188C90606D5114960
:1008D0008A88D20702D00A88120610D40088C0067F
:1008E0000CD50C488188890708D50188C90505D52C
:1008F000022181800188084A0A40028080BD0120CF
:100900008880088880229043088080BD04000050C1
:100910000002005000010050FFFE000010B501244D
:10092000204658F77BFB002805D1002058F776FBBE
:100930000446401E8441204610BD80B5C1B20C293A
:1009400004D1A02108435F21884380BD08465FF79A
:1009500003F980BD80B5C1B2A02904D10C210843A0
:10096000F321884380BD08465FF712F980BD00007F
:10097000022806D803490870C0000349C140034853
:10098000C170704780BAFC070001010020BAFC0763
:10099000B0B50C460025202D04D041F7AAFF6055C4
:1009A0006D1CF8E70020B0BDB0B5044609480A4DFB
:1009B000402229465AF752FC483508483022294639
:1009C0005AF74CFC0648001B064908801430488042
:1009D000B0BDC046709CFC07D017F207B09CFC0766
:1009E000B89CFFFF789CFC0707481E2141800188C6
:1009F00003220A430280018804220A430280E94854
:100A0000012101707047C0460016005080B5E448CF
:100A10000078C00708D1052058F700FB00280FD147
:100A20002A200949085C04E00648417D012907D1D4
:100A3000007D41424141C21E50425041084380BDA9
:100A4000002080BD34BDFC07DCBCFC0780B503483A
:100A50000168D448801C5CF7B7FA80BD7830FC0789
:100A6000704770477047704780B55CF751FB80BD99
:100A7000F8B56946C870020A8A70020C4A70000E06
:100A8000087008465CF72CFB8FBD7047704770B547
:100A900005460469261D3068002805D0304641F718
:100AA000F1FF57F7E2FFF6E700202861204657F7ED
:100AB000DCFF70BDF0B58BB01E4607920F460446B2
:100AC000109806900088089000210120024609290C
:100AD00013D003258540099020463446089ECE4019
:100AE0003B46012737407E421F462E403243264672
:100AF00004460998801C491CE9E70A92802030438B
:100B00009E210140A08A03911D490291019000207D
:100B100000901C490AAA132338464DF739FE0546B2
:100B2000002829D10897202701210591384657F739
:100B300021FF0996064639465AF7A9FB2661304639
:100B40001E3011496160A0600898008830830598C4
:100B5000E0811420E082A08A70800998C003079980
:100B600008433080069800887083301D41F782FF6B
:100B7000A08A002158F73DFA28460BB0F0BDC046C8
:100B8000E42EFC070A180000F02FFC07004870470D
:100B9000C82FFC07FEB51F4616460C4614205EF70C
:100BA000B3FF002819D001972778082F029615D88F
:100BB0000546418B008B3A4600F096F800280FD08E
:100BC00060788D2680283AD8082F0BD0072F0CD0BC
:100BD000062F0CD108280AD031E0FEE781262EE04E
:100BE00082262CE0072802D029E0062827D32E1DD4
:100BF00035462D68002D0BD02979B942F9D1002254
:100C00003046294641F7AEFF284657F72EFF607859
:100C10000830012157F7AEFE0546617808315AF7D2
:100C200036FB2078287160786871A81D6278A11C55
:100C30005AF714FB3046294641F740FF0026064884
:100C400002230199029A57F7A3FF21780170467099
:100C500057F7B9FF0020FEBD01140000F8B5144697
:100C60000D46104658F7DAF9012838D114205EF7FE
:100C70004BFF002821D00746418B008B3E7F324638
:100C800000F032F80090787F010208312A78154888
:100C9000964213D16A7889B2931D224657F778FF9E
:100CA0000746002038710098388068787880781D71
:100CB0006A78A91C5AF7D2FA0AE0FEE789B206233D
:100CC000224657F765FF0746802038710098388024
:100CD000384657F778FF0021204658F78AF9002058
:100CE000F8BDC046140C0000B0B58BB2411C00200A
:100CF0000446092C0DD01D46E540ED0702D0A24266
:100D000002D0891C641CF4E7092A01D0481C00E0C9
:100D1000002080B2B0BD000080B558F7A3FC4AF7B0
:100D200080F920480121817280BDC04670470000D3
:100D300080B5002047F7E7FA1A48042181725EF770
:100D400065FC80BD80B5012047F7DDFA80BD80B528
:100D50004AF767F9FFF748FE80BD80B547F71FFBEC
:100D600080BD000080B50D480188012291430180BB
:100D70000B480078C00702D141F7A4FC04E0002032
:100D800041F7F0FC41F7B6FC58F750FC41F758FC2E
:100D9000FFF72AFE03480021817280BD083300500E
:100DA000CDB9FC07D87CFC07F0B50A795301402483
:100DB0001C40130180251D401609360275192C1997
:100DC000D20020251540621910241C4012190B78FE
:100DD0005B0008241C40121906241C401219CB7910
:100DE000DB079B0C4C796508ED07ED0CEB18E4076D
:100DF000240D1B19134383818A790F2A43D0354A66
:100E000082180423DA41931E022B1BD3012A3AD8FD
:100E1000EFF31083012282F310888D792E4C2688FF
:100E2000F6B23609B54203D12688F027374327802A
:100E300026880F27BE432E432680002B1CD082F32A
:100E4000108820E0EFF31083012282F31088224CF7
:100E500027880F2637408D79AF4202D12788374344
:100E600027802688F027BE432D0135432580002B9F
:100E700006D082F3108806E0002282F3108802E098
:100E8000002282F310888A680280120C4280CA68AD
:100E90008280120CC2800A8A521E42814A88002A2D
:100EA00000D10A8A521E02814008382202400B48B3
:100EB00080184A69426589698165FF2000060849F2
:100EC0000A6882430120C307D2180A60C00405499A
:100ED0000860F0BD00CAFFAF80360050487DFC07B7
:100EE00010E400E000E100E080B5022001F076FCB3
:100EF00080BDFEE7F0B589B00E460C4940180D28BC
:100F000000D97FE14000C046784480884000874493
:100F10000F0079012900790140007901530079011E
:100F20005E00EE007901010179013001FF5FFFFFF2
:100F30003078841CF4480C221946234657F728FEC3
:100F40000446002505703078607031788D4200D3FA
:100F500055E1A90701D15CF7DBF8611988706D1CB8
:100F6000000AF2E7F4480C22142519462B4657F7DD
:100F70000FFE0446F14908312A465AF76FF9F04846
:100F80000178217001796170017AA170007BE070B5
:100F900035E1EC480C2202241946234657F7F8FDA8
:100FA000044606202070307841B2002902D403287C
:100FB00000D215E1302021E1F9480C220124194624
:100FC000234657F7E5FD0446F648807902E1F848E4
:100FD0000C27022519463A462B4657F7D9FD0446F9
:100FE000457030782070022800D2F5E000D100E191
:100FF000032800D003E1FFF791FC002800D0FCE0BB
:1010000070888006C00E00D17CE108970020079010
:101010006070204657F7D7FDE74F58F7A0FA388899
:101020004006FAD50798C143E44801607088E44A55
:101030000823079313807278059272B6E14A116013
:10104000E14AD189C905890FE04E3180118AC9066C
:10105000FCD40323D901D6898E43D681DC490E897D
:101060007C27BE43C0B2400880003043088101267F
:10107000D08CC00406D4088928400F89AF433818A3
:10108000684008813003D78C0742FCD00889304380
:101090000881D048076804960426069637430760FF
:1010A0000393D843978A0740059E37439782978AD0
:1010B000089B9F43B3003B439382938A3027BB43F3
:1010C0003701049E1F439782D3890340D3818888C8
:1010D000B04388800B88072003430B80938A152731
:1010E0001F40152F00D12FE10D2080022DE1B048C7
:1010F00005210C22022357F74BFD044600206070A7
:10110000AC480078421E51425141022800D10146AC
:10111000217074E0B3480C2208241946234657F77F
:1011200037FD0446FF20E071AF49062230465AF7EA
:10113000B9F8002815D03078717809020818B1780C
:1011400009044018F17809064018A8490860307968
:101150007279120210184860304649F727FB0020C8
:10116000E0710622204631465AF778F8B079A0712E
:1011700045E03078841C8C480C221946234657F7EA
:1011800007FD0446851C317828465AF780F8302040
:101190002070307860703178102930D828465AF79E
:1011A00076F800F0A7F900F09FF900257F4E102D8A
:1011B0000DD06719705900685BF7FEFFB870010E1B
:1011C0007971010C3971000AF8702D1DEFE700F0FC
:1011D00083F90020207012E0FFF7CAFB00200DE029
:1011E0000021617083A1085C8149887101F03EF99A
:1011F00005E0FFF793FB002807D001206070204630
:1012000057F7E1FC002009B0F0BD0897B18870885D
:101210000122002707923B465CF750FC0497677059
:10122000204657F7D0FC644F58F799F938884006A4
:10123000FAD563480821039101807078059072B651
:10124000614EB08904221043B081B0888021884368
:10125000B080B088402102910843B0805E48069279
:10126000028030885D49014031800498C04355496F
:101270000860308AC006FCD40322D101F3898B4375
:10128000F3810798C0430490514B1F8907401F8189
:10129000504F3868069908433860B08A01929043ED
:1012A00005990843B082B08A089FB8438F0007436E
:1012B000B782B08A3027B843079F0A010243B2823F
:1012C000B0893843B08198880499084098800F20ED
:1012D0008002198B81430720C00208181883B803C5
:1012E000198B01431983F08C3D490A88C0050DD53F
:1012F00020200243029EB2430A80198B2943B9433E
:10130000039A0BE065707AE702A0000060200243B8
:101310000A80198B01980143039A029E1983188B46
:1013200010431883188B069988431883988B304391
:101330002021884398832EE004A000003001FC07A0
:101340000032005006A00000C0020F239B020F8B4A
:101350009F43C0190883B0030B8B03430B83D28CCC
:10136000088BD20506D5402210430883088B2843FA
:10137000B04301E0039A10430883088B079A104397
:101380000883088B069A90430883888B4022024387
:10139000202082438A8300BF00BF00BF30BF2EE7FA
:1013A00008A00000D87CFC070FA000003430FC0728
:1013B0000BA0000080BAFC071410005080E100E090
:1013C0000033005080E200E004000050A000FC0761
:1013D0000803005010ED00E000020050FFF700008D
:1013E000520000500DA0000040B3F107240000405F
:1013F000D87CFC070C090100F8B51E4614460D46C2
:10140000104657F70BFE01281AD0002847D11420A8
:101410005EF77AFB002812D00096418B2A88038B56
:101420005E1C0023092B2ED00F46DF40FF0704D09F
:10143000B7B27F1C974205D0B61C5B1CF2E7FEE7F3
:1014400002242DE0DFB2082F1DD8061D3668002EBD
:1014500028D03179B942F9D17079831D1C4800999F
:10146000224657F795FB07462888388000243C71B0
:1014700070797880781D7279B11D59F7EFFE384682
:1014800057F7A1FB0CE0124806230099224657F7B4
:101490007FFB298801808021017157F794FB00248C
:1014A0002046F8BD07770099090A41775EF74AFBA5
:1014B00001460848012522462B4657F769FB07706D
:1014C00057F781FB2046294657F793FDE7E7C046CB
:1014D000140C00000214000080B53548C01C0949F6
:1014E000091D5DF793FA80BD80B502205DF7AAF96A
:1014F00080BD000080B52E48C01C0249091D5DF763
:10150000D9F980BD5041FC0770B5174EB06800F0A6
:101510002DF827490A6C00230B641518084C28463F
:10152000214659F721FE706106494143481901D00F
:10153000201A80B23061306808210143316070BDEB
:10154000710200008FFDFFFF80B506480021016099
:1015500000F09CFF0120C00703490A6882430A602B
:1015600080BDC046A4B9FC073000004080B50246EB
:10157000C00B09D00E48406E00210B4659F71EFEE5
:101580008905800A401880BD0948406E4243900A90
:1015900080BDC04680B5FFF7E9FF80BD80B5044936
:1015A000096E414303480818034959F7DDFD80BD22
:1015B000D87CFC0720A1070040420F0000B599B07D
:1015C000C84808270780C84E308816AC208020887D
:1015D000C046C04620880422D1430842119202D05E
:1015E0000020308003E0B08901218843B081B08BB6
:1015F000BE49014007201290C0020818B083BC4DBC
:10160000288838432880E98D06208143E985012315
:101610009903B28B0A43B2832988B64A0A402A80CA
:1016200069880143B943698005242607718DB24A50
:10163000FF32E88D10407D22D2000B970F27C9059D
:101640001493089213971AD5114618310843E88568
:10165000E88DAA490140D8030818E885A24A908B72
:101660000B9908439083908B119FB8439083E88D2A
:101670009843E885908B4021884390831CE0390390
:10168000032252021043E885E88D0843E885964A14
:10169000908B0B9988439083908B0421884390838F
:1016A0006888974901406980E88D01210143E985F7
:1016B000119F708D4007FCD58B4A908B03210F91B1
:1016C000084390832988202319434020C0430140C8
:1016D0002980118C0E93194301401184F18A8022D4
:1016E000099211430140F182318EFF2291433186EC
:1016F000318F3943182291433187318FA0220A4319
:10170000024032877F480780B0887F490140B1801E
:101710007E4D1498A87000047D490860FFF7EAFE2A
:10172000FFF7E2FE3A467B4F3868C1B20C20AA2987
:10173000014600D011463288824388183080C04666
:10174000C046754800884C21685274480068A864F7
:101750001498C046C04672480090724A0C32724DCE
:101760007249734B28465BF74DFD6420295A0029C6
:10177000089900D129526621685A002806D1386894
:10178000C0B2AA28099800D06E2068525F4D288206
:101790005BF732FC7F206870B86962494861FFF7E7
:1017A0009BFE6448006864498842139D00D08DE028
:1017B0006248634959F76BFD12980102614859F775
:1017C00066FDFEF7D1FC60486049016060486149F0
:1017D00030273A4659F742FD5F480024C4718471AE
:1017E00044710471C470847044703F2101705B487F
:1017F0005BA140220D9259F731FD6948C471847193
:1018000001224271C02101710E99C170877044702C
:101810000570644813940470634864490160644827
:1018200064490160644965480860654832210A914D
:10183000017064480921016063480F9901606348A1
:101840000B21016062480C21016062480D2101609A
:1018500061480E21016012921702B81D5F490860AD
:101860005F4908605F4C3548206000F0FBFB5BF788
:10187000F1FA5BF735FB5BF74FFB2E4800682E490A
:101880008842079700D1C3E0206857498860254AFD
:1018900050691074010ED174010C9174000A5074D7
:1018A0003846C03051490A46002800D1A2E00B1842
:1018B0005B1E1B7817787B400F9D2F40194DEF1949
:1018C0003F7C5F401770401E521CEDE700204849E6
:1018D000464A6302984200D96AE743588350001D84
:1018E000F7E7C0460033005004030050FFC3000078
:1018F00052000050FFBF000000F0FFFFFF0F00008C
:10190000FFF9000000020050FFF70000D87CFC0740
:1019100080E200E0D07FF807D87FF807D47FF8078F
:10192000000000005041FC074C7CFC07A000FC07B5
:101930000520FC079CB8FC0765873412009CFC0757
:10194000D01A000000B9FC072CBAFC07742EFC0763
:10195000D0B9FC0794BCF107ABB9FC075CBCFC0731
:101960002000800000C000000000040000002822C9
:10197000000000000000040000F7C3F77E00000034
:1019800030F0070800000000000400000000000024
:101990000000000000000000000000000000000047
:1019A000B3B9FC07CDB9FC0750B9FC072A17F207F9
:1019B00054B9FC07002CFC0758B9FC07782DFC072C
:1019C000AAB9FC075CB9FC0760B9FC0764B9FC075D
:1019D00068B9FC076CB9FC0770B9FC0748B9FC078B
:1019E00044B9FC074CB9FC0700020040BC7DFC0771
:1019F00000B0FC07F14F3437F1491C2238465CF740
:101A00003FF938465BF76CFBEE48EF490160079FF2
:101A1000149D28020C90206840F71CFCEB48139C96
:101A20000471C470129881070868384311910860E6
:101A3000FEF7DAFF284600F01BFCE448C470E44DD2
:101A40002C70E448E44948640C27E449384657F7C9
:101A50009EFA3846214657F7CCFADC48C4702C7001
:101A6000FFF772FD0520FEF761FD1298C00310908C
:101A7000DB4DDC48DC490818DC4940188008401E72
:101A8000069030890006149C00D492E01198006BF7
:101A90001099084200D08CE0CC480088C00700D0E4
:101AA00087E057F75CFD0027384600F0E1FBCA48A5
:101AB000807A04287DD1204600F0DAFB159715A81E
:101AC000042149F705FC002873D01298C849086022
:101AD00008680028FCD11198C069BF4B5969884239
:101AE00001D25F613946411ACA09D979182A01D849
:101AF00000295ED0002906D0B7498869401C88615A
:101B000000F03AFC55E0B44C6061BA4C2088059076
:101B100060880490A0880390E08802901797B648E8
:101B20001690A64FB91C16A8B44A5DF779F8089824
:101B3000173021890140A84A918161890140D181F2
:101B40002089AF4F3840129949024018208160899E
:101B5000384040186081994840885DF775F99E4B80
:101B60009A892189394011432181DA896189394073
:101B7000114361811C4659787F290FD0421A51B216
:101B8000C91152184A4051B2052908DB924CA1698B
:101B9000491CA161074600F0EFFB3846607095488C
:101BA00004994180039981800299C180059901803F
:101BB000149CA86A0028139F08D0F3484079002895
:101BC000129F03D1042000F009FE129FEF4B5978B9
:101BD000002910D01889DA8882420CD09869002830
:101BE00000D1C8E11A78012A00D1C5E100F04CFE0D
:101BF000FC4B002802D01878012805D1002018706D
:101C0000F749896B884701276869002820460ED06C
:101C10002846143040F736FF0746007900F0A2FE50
:101C2000384656F722FF6969484248410127DC4A95
:101C300011681268F14B5B79002B00D021E7012479
:101C4000E3021A4000D01CE7A202114000D018E7BE
:101C5000A96A002900D014E7002800D111E7002F5D
:101C600000D00EE7FEF7D2FE002800D109E772B6D9
:101C700015A900200870C84A1279022A02D0C44867
:101C80000068406A1690DE4F1C373846C74A5DF739
:101C900093F9002830D1C648806A002803D0BC4898
:101CA0000068406A169000F0F1FB16A938465DF70F
:101CB000B9F9002820D14BF705FA002819D049F7C7
:101CC00009FF002815D016A85DF7CEF9002813D11A
:101CD00001205BF76DFC169A002A00D192E0119862
:101CE000006AB4494018DA2800D98CE0521E1692D6
:101CF00089E015A800210170A8480078012801D0CA
:101D00000F9900E0022115A80078042800D00146B0
:101D1000881E022809D2308A042738433082A86AF4
:101D20000028B7480BD00020E2E0012900D020E1D4
:101D3000FEF76CFE002800D11BE130BF19E10278EC
:101D40000020002A024600D10A466969002900D015
:101D5000CEE0022A25D0032A00D0C8E0059291499E
:101D600008683843086086490889A0430881708A5A
:101D7000B8437082FFF7BEFB708A10210143718265
:101D8000069891490860EFF3108084F31088318839
:101D9000099A91433180002800D193E084F31088A0
:101DA00093E0804908683843086075490889A04372
:101DB0000881708A10218843708296E05041FC07A8
:101DC000BC7DFC079CB8FC076587341220BAFC0771
:101DD00080BAFC07630AFC07D87CFC072430FC07A8
:101DE000487DFC072C2F00005001FC07030004F87D
:101DF000FC00004000150050010400004C7CFC0772
:101E000000FCFFFF0022F74B588AF74F396A081889
:101E10007862119BD86B644F3840F34F0843D86306
:101E2000D86B65490840B96A89020143D96315A88E
:101E300004210170D86B61490840796A4905081886
:101E4000D8635F48824200D397E0E649886EC96E46
:101E5000002359F7B3F90903000D4018411EB86A71
:101E6000421C914200D008464B4909794A1E9141D3
:101E700046F796FB5348C06A80470799119A109B12
:101E8000444F106B1842FCD038680842FCD03868C8
:101E900009998843386039484089452805D8462142
:101EA000364A5181081AFD49086440F70EFAB868AD
:101EB000FA49C86338680006FCD530890999884317
:101EC000308119E7002080F31088059A708D0C99F5
:101ED00008420AD00020F149C8700B205BF79AFB3A
:101EE000059A2849C88D2043C885002030831046B4
:101EF000718D0C9A114206D1224A11880D9B19430B
:101F00000E9B994311801E4A118C0D9B19430E9B09
:101F100099431184FE21084002280FD1B08CA043C0
:101F2000B0840D20FEF738FB7089204302218843DE
:101F3000708170894006FCD50A987080B08AC0060E
:101F400002D50E480B99018030BFB08A0D4A108827
:101F50000E9B18430D99C94308401080084A108C05
:101F600018430840108400F07DF80E490868B84313
:101F7000086062B685E5FEE7FEE7FEE70033005045
:101F80000403005052000050D87CFC075041FC076D
:101F900058B9FC070002004020BAFC0780BAFC07D1
:101FA00000E200E010ED00E000FCFFFF4D0AFC073E
:101FB0001CBEFC07C8FEFFFFFF03E0FFFFFF1F0082
:101FC00040420F0000BFFC072000F40780B5E8483E
:101FD00083798548C1681A4800225BF795FA80BD6D
:101FE000D87CFC075041FC0780B5E14883797E49E5
:101FF0000C31134800225BF753FA80BDD87CFC07F4
:102000005041FC0770B51E2816D10C48101849081D
:102010000B4A0B0610D0046843680830002635468A
:102020000835382D06D096193669A6422E46F7D1C6
:102030005419E360491EECE770BDC046D47EF80732
:102040004C7CFC0780B547F7D6FB40200449085C70
:10205000002800D080BD102057F7F3FA80BDC0469D
:102060007CBBFC07FEB55F48C2785F4C211D1B207E
:102070005BF728FB302101200290019160545B48FE
:10208000002101605A4E307F0004717F0906081854
:10209000777C39024018357C4019E062554C204667
:1020A0003C3055A1182259F7D9F842202754412035
:1020B000255400F0A9FA002800D0FEE75448018812
:1020C00010220A430280FF20000652490A68824318
:1020D000029FF8071018086000F01AFC00F05CFB83
:1020E0004D48206040490198085C002802D0C86A29
:1020F000000A02E04948C8620720C0B20A2500224F
:102100002946FEF720FB00F003FCB07D5BF76AFB7D
:10211000434C002843D0707DB179814203D1B17D19
:10212000F2798A423BD0B178814203D1B17DF27815
:102130008A4234D0F17A814203D1B17D327B8A4226
:102140002DD0317C814203D1B17D727C8A4226D070
:10215000317F814204D1B07D717F814201D11EE087
:10216000B07D052211070B88022807D00C242340DC
:10217000042B00D02A468242294C03D14A8A294B9B
:1021800013404B82278000210A460B465BF700FB79
:10219000F17D481E8141B07D3A465BF717FC707CAB
:1021A00039021D22204C3B46A047307B1C220025D3
:1021B00029462B46A047F07803210F021B223946FF
:1021C0002B46A047F0791A2229462B46A047707F5C
:1021D00039462A462B46A04711498889029A10435E
:1021E0008881FEBDD87CFC075041FC0700000840F8
:1021F0001001FC07487DFC070700A00F0000070046
:1022000000000000E90EFC07F30EFC0700030000CD
:102210000833005010E400E0CD27FC070007000958
:10222000000300507FFE000091D7F10703480188AA
:10223000034A11408918091D01807047120000509F
:10224000FC7F0000B0B504460120084DC0070BD04C
:10225000E88A5DF7DFFC002803D082682846214623
:10226000904718350020F1E7B0BDC046B87CFC07A8
:1022700080B50146DA480278012A0ED1084A0029C1
:1022800003D011884907FCD402E01188490704D41F
:102290000021017060305AF759FE80BDD87CFC07E0
:1022A0000016005070470000F0B58BB030220021BE
:1022B00081541F221204244B1D689543012462049B
:1022C000AA181A60224B234D4561234D234E244FFB
:1022D000244AC261066243621C4A8262C562224A83
:1022E00007604260E0045A4A136883431360282958
:1022F00003D001A84154491CF9E71C48006840304C
:1023000001A9282258F7AAFFE54D0920A8715DF719
:1023100067F9FFF769FEFFF759FE00F0A7F85DF7D0
:102320009DF95DF7AFF95DF721F9EC71114800886F
:10233000072101406972FEF7D1F82F485DF7E0F9F7
:102340005DF764F90BB0F0BD74000040A123FC07F9
:102350009D23FC070124FC0741F6F1075908FC07FF
:10236000FD23FC071DF6F107A522FC074CB9FC076D
:10237000D87CFC07B810004080B55DF731F9FFF755
:1023800025FE00F073F85DF769F9FEF7A7F81A4823
:102390005DF796F95DF73AF980BDC04600207047B9
:1023A0007047000080B51F20000401218A07536F89
:1023B0008343480418185067106807218843106049
:1023C0000C48018808220A4302805DF709F9FFF7EB
:1023D0000BFEFFF7FBFD00F049F85DF73FF95DF7F5
:1023E00051F905485DF77CF95DF710F90520FEF716
:1023F0009DF880BD08000050709CFC0770470000ED
:10240000012906D0022903D1032804D20C207047E9
:10241000FEE7032802D3FF2800D0FEE7D5488079E5
:102420007047C04680B50A480168C90703D00168F3
:1024300002220A4302600168490204D5012189058C
:1024400002680A43026003485CF79EFD80BDC046F7
:10245000000200408C2EFC0702210143022901D119
:1024600001487047FEE7C0467C2EFC0780B55CF74C
:1024700023FEC1204001BF49897909060818024995
:1024800008605CF793FE80BD00100040F8B5642042
:1024900013490E5AB74F3C6E3046604311494018FD
:1024A000114958F761FE054678823C3666430D486F
:1024B00030180D4958F758FE001DEF4908622818DA
:1024C000C01D8862094A1278022A01D1113088623F
:1024D000FFF74CF80649401880B257F7D1F8F8BD1D
:1024E0004C7CFC0720A1070040420F0080BAFC078B
:1024F000E204000070B514460D4606465BF78CFEFC
:10250000411E88414100DD48806A828906239A4342
:10251000511881818680310CC180691E0181418101
:10252000818908220A438281818901220A438281AA
:10253000400838210140D248401800214465816597
:102540008F48018810220A43028070BD80B5EE4892
:102550000279D20704D1234A0023D35E002BFBD497
:10256000026A002A01D00846904780BDB0B50C46EB
:1025700005465BF751FE411E88414100E248C06AB2
:10258000828906239A43511881810580290C418054
:10259000611E01814181828908218A438281828969
:1025A000012313438381400838220240B448801835
:1025B000002242658265E84802880A430280B0BD75
:1025C00080B5E6480279D20704D1064A0023D35EDB
:1025D000002BFBD4426A002A01D00846904780BDF8
:1025E000D87CFC071812005080B52F20C749085C22
:1025F0005BF7C6F880BDC04680B52F20C349085C94
:102600005BF7B6F880BDC046F0B587B09C490C4674
:102610003C34234608330DCBD04E35461C350DC512
:10262000204D207DC007284601D028462030B062CA
:102630003C22895C01220A403179F0230B40991831
:10264000227992080E231340591831716E460021E9
:102650007180042232703182F1807171627D1701C4
:102660007A1D32710691059103910F49029131460D
:10267000FEF79AFBF81C3071207DC00701D0303581
:1026800000E01035B548C5620748001D0390284694
:102690003146FEF789FB20465BF73CFD07B0F0BDF5
:1026A000D87CFC07003600501C120050F8B50C46D0
:1026B0000546AA4F3879C00732D15BF7ADFDA64E6B
:1026C00031881F2291433180318802220A433280AF
:1026D000318804220A433280022837D15BF792FD09
:1026E000318801220A4332800021234A8BB2A3425F
:1026F00011D2338B9B04FCD46B8833852B883384B5
:10270000338BDB04FCD42D18B38B378D3F04FB18BF
:1027100008C2491CEAE71820305E0028FBD4F8BD47
:10272000F24E02232846314622465BF785FB134AC8
:1027300030462146FFF7DEFE5BF76EFD012181404A
:102740006818611E89B2FFF711FFF8BDE7480B4A10
:102750002146FFF7CFFEF86A818940220A43828131
:1027600028462146FFF702FF3088012101433180CE
:10277000F8BDC046D87CFC079035FC07C125FC0796
:102780000012005080B50B205BF70EF9FEF788F8B9
:10279000012000F023F880BD80B5EB480949416075
:1027A0003021D048415C002902D0C06A000A02E012
:1027B0000549C1620720C0B20B210122FDF7C3FF0A
:1027C00080BDC0468527FC070007000980B50A20A8
:1027D0005BF7EAF8032000F001F880BDF8B5044685
:1027E000144E307801280CD10820022156F7C2F887
:1027F00001460471D448143040F760F9307800285D
:1028000016D101203070D04F786900280BD038469F
:10281000143040F737F90546007900F0A3F8284650
:1028200056F723F9F0E7204600F09CF800203070BE
:10283000F8BDC0464C41FC0710B5AA480189C288C2
:102840008A4200D2FEE7BF4B5B79022B01D3002402
:1028500000E001248A4202D101788C4300E0002488
:102860002D21405C5AF7B2FFB7494969002901D0D0
:10287000002010BD204010BD5041FC07D87CFC0753
:10288000487DFC0770470000F8B50C46954D297847
:10289000012900D1FEE700280BD0EE8831094B2931
:1028A00008D22F89F11BA14205DA6C70A8610120C2
:1028B000F8BDFEE7FEE78C49C919224658F7CEFC61
:1028C0003819288180B2864202D100202881E88010
:1028D0000020A8616870F8BD10B5002808D0002954
:1028E00007D0984B9A637F4C2278012A02D1FEE7E9
:1028F000FEE7FEE789B2FFF7C7FF002800D010BD52
:102900000120207010BDC046D87CFC075041FC0758
:1029100070B5794E20243480FFF776FE3088A043CE
:102920003080884C20795034C00705D10121022223
:1029300020465BF7F7FA70BD0125022220462946A2
:102940005BF722FA064A20462946FFF7D3FD308876
:102950002843308070BDC04600120050D87CFC0770
:102960004D25FC07F8B55E4F7A88694600240C7047
:10297000744E7179032907D2042858D0022859D0FF
:10298000012856D1022074E020D0042951D1032817
:102990004FD1FFF731FE74713888012188433880A8
:1029A0003888082290433880388A1043388234634C
:1029B000388A08433882716B002902D0746320463C
:1029C0008847FFF7E9FEFFF7A3FF32E0032830D185
:1029D0007471444EF488A01800094B2826D242484E
:1029E00000194249891C951E2A4658F737FC404970
:1029F0003E4858F74CFC6019F0800120C0433988EC
:102A0000014039800821C9433A880A403A803A8A0D
:102A100002403A82388A08403882FFF7BDFEFFF74D
:102A200077FF3089F188814257D8FEE7FEE7002919
:102A30001ED0F8BD5020305C61281ED09E2816D1D3
:102A40004B20C40052203452032070712B4DA81C1F
:102A5000214658F71CFC2C80274E20273780FFF793
:102A6000D3FD3088B8433080A11C284633E0FEE710
:102A700001207071FFF7B8FDF8BD042070714B2084
:102A8000C1001C4D284658F702FC5427F4532E4829
:102A9000816A002913D028303FF7F4FF0446B0655F
:102AA0000289A81C21460A3158F7D8FB2089F05327
:102AB000204655F7DAFFF05B2870000A68700E4C6C
:102AC00020252580FFF7A0FD2088A8432080F05B0B
:102AD000C01C81B20748FFF7E9FDFFF78DFDF8BD87
:102AE0000C3600505041FC07443AFC079035FC0777
:102AF0005A020000F43EFC0700120050EA37FC07BF
:102B000070B5002808D00C46002906D005460D48AF
:102B1000016B002902D0FEE7FEE7FEE70563426392
:102B200020460C30022155F725FF06460A3029467B
:102B3000224658F793FB34810348283031463FF74B
:102B4000BDFF70BDD87CFC07487DFC0702480188AA
:102B500001229143018070470411005002E008C82F
:102B6000121F08C1002AFAD170477047002001E007
:102B700001C1121F002AFBD170470000034880F3F7
:102B8000098800F029F8FDF7E3FAC0469448FC07ED
:102B900004207146084203D0EFF309800A49084730
:102BA000EFF308800949084770470420714608423E
:102BB00003D0EFF3098006490847EFF30880054981
:102BC00008477047FEE700002508FC072508FC07BA
:102BD0008107FC078107FC0780B5024859F758FEBA
:102BE00080BDC046A000FC07F4011100F435234865
:102BF000F40108C4140A0000E82BFC07207DFC0740
:102C0000A922FC07A523FC07E507FC0785B6F0070A
:102C10009507FC07DDB6F007F5B6F0070BB7F00730
:102C20002DB7F007ADBAF00751BDF00791BBF00723
:102C3000B1BBF007D1BBF0070FBCF0071FBCF0071A
:102C400079D0F00735CEF00753CEF0076FCEF007FE
:102C500089CEF0079DCEF0071BCFF00733CFF007EA
:102C60007B8FF1070392F1074520FC076DCDF1073B
:102C700051CEF1074DCEF10749CEF1075924FC079B
:102C80002D22FC070915FC074915FC079D15FC07BB
:102C90009515FC07BB70F007896FF0072970F007E6
:102CA000F965F1070122F10769F9F107E9F9F1077F
:102CB0004522FC07C9FAF1073B09FC075509FC0747
:102CC00000000000650AFC07670AFC079BA1F007EB
:102CD000595AF107C760F107FD64F107FD63F10779
:102CE000D736F1076545F1075DF9F0070DDBF00711
:102CF000610AFC0785AAF007599AF007D19AF007F4
:102D00008D9BF007CF2DF007892EF0071D73F0077C
:102D1000E771F0078536F00700000000690AFC073C
:102D2000710AFC079109FC07A785F1071B86F107CB
:102D30009F86F107A909FC070000000000000000C1
:102D40000000000000000000000000000000000083
:102D50000000000000000000000000000000000073
:102D60000000000000000000000000000000000063
:102D70000000000000000000050000009448FC076F
:102D800000080000C881FC072C070000BC7DFC0780
:102D9000000400000089FC07900B000020030000E5
:102DA00000A60E0005000000D20000003200000066
:102DB0003C000000010000000100000002000000D3
:102DC00002000000040000000300000006000000F4
:102DD00000000000020000000200000000000000EF
:102DE00000000000030000000300000005000000D8
:102DF00005000000060000000A0000000A000000B4
:102E0000C8000000B80B000002000000B80B000072
:102E1000B80B000010000000D4010000CC0100003D
:102E2000700200006A0000000400000003000000BF
:102E3000200000000A00000001000000E204000081
:102E40008A020000DC050000AF000000F82BFC0740
:102E5000642EFC07000000000830FC0700000000A2
:102E600000000000A8B8FC07A0B8FC07B8B8FC0731
:102E7000F8B8FC070000000000000000D928FC079B
:102E8000012BFC078528FC073928FC07800000007F
:102E90004F0DFC07020000005B0DFC07080000005E
:102EA000310DFC0700010000450DFC070002000089
:102EB000F5B0F00740000000FD82F00710000000B0
:102EC0007F6FF00704000000650DFC0701000000A3
:102ED000190DFC07200000002D0DFC07000000006C
:102EE00000000000002800000100000000000000B9
:102EF000032800000100000002000000292A000051
:102F00000100000080800000032800000100000094
:102F100004000000242A000001000000808000005E
:102F2000032800000100000006000000252A000020
:102F30000100000080800000032800000100000064
:102F400008000000272A0000010000008080000027
:102F500003280000010000000A000000262A0000EB
:102F60000100000080800000032800000100000034
:102F70000C000000282A00000100000080800000F2
:102F800003280000010000000E000000232A0000BA
:102F9000010000000880000003280000010000007C
:102FA000100000002A2A0000010000000880000034
:102FB000032800000100000012000000502A000059
:102FC0000100000007800000B50AFC078F0AFC071B
:102FD0008D0AFC078B0AFC0700140000950BFC0708
:102FE000130C0000F913FC07031400005D0CFC0730
:102FF000D82FFC0703000000140000008D0BFC0715
:10300000FF00000000000000F82FFC07B87CFC0760
:1030100001000000FFFF0000F50EFC071430FC0764
:1030200001000000000000001C30FC07D07CFC0701
:1030300002000100E47FF807E87FF807F47EF80754
:10304000FC7EF807100000007C30FC078030FC0795
:10305000141100006C2BFC077C30FC079441FC072A
:10306000000700006C2BFC07487CFC07487CFC0731
:0C307000740100006C2BFC07E001000064
:0400000507FC0151A2
:00000001FF
