:0200000407FCF7
:10000000082CFC07F11FFC070520FC071F20FC073C
:100010003920FC073920FC073920FC073920FC0770
:100020000000000000000000000000003920FC0774
:1000300000000000000000003920FC073920FC0708
:10004000E902FC07051DFC07A526F0077504FC075F
:100050009D03FC073920FC07DD02FC073920FC0763
:100060003920FC073920FC074903FC075303FC0730
:100070005D03FC076703FC077103FC073920FC07DD
:10008000B904FC073920FC073920FC073920FC079C
:100090003920FC073920FC073920FC073920FC07F0
:0800A0000000000090070E00B3
:0200000407FCF7
:100110005458000652580005525453000743545394
:100120000008504F520000010000000000000000D5
:0200000407FCF7
:100130004669726D776172650000000033303831B6
:0C01400006001800B805000300000000D5
:0200000407FCF7
:100150000348854600F0AAF800480047C90FFC078D
:10016000082CFC07F0B50546007985B007073F0F5E
:10017000284642F772FC029028794006C00F03908F
:10018000284642F76AFC4448806A8079012825D0D5
:100190000126414840300079800775D5002E73D084
:1001A00000222B2311463D485AF7A6FD022707706F
:1001B00001263B4946700446C969A87988472A2127
:1001C0000855287900210007000FA07003005DF793
:1001D00043F90737393B423F423D420002980190C4
:1001E0002D4814300090002604680BE0611D019832
:1001F00042F749FD002804D02079B84201D10126F8
:100200001BE02468002CF1D1009842F732FD25490B
:100210000978884202D1244806780EE000210C209B
:100220005AF75CFC04460622401D01995DF7C0F8B0
:1002300027712146009842F74DFC01204640A8E76F
:10024000A1700AE0A67021E0032002E0A77004E09C
:100250000420A07001E0012818D0A888000A801F9F
:10026000A072284642F7F9FB811D2046A27A0B3086
:100270005DF79EF80622201D02995DF799F8039814
:10028000E07020464DF7BAFD05B0F0BDA172F1E770
:10029000704770477047000074FBFC0704080000BB
:1002A000E4FEFC07A1F9FC07A2F9FC071CB509480C
:1002B00000900948019005460126009C05E0E3688E
:1002C00007CC33430C3C98471034AC42F7D3FFF7CC
:1002D00043FF0000A424FC07D424FC0701480121AB
:1002E000018070470E15005010B514480821018098
:1002F000E14CA189608960F711FF5FF752FA594814
:100300004188890703D041880322914341800188B5
:1003100080220A430280018904229143018181895C
:100320008907FCD541F7FDFFA0690549086005482C
:10033000016801684907FCD510BDC0460033005074
:10034000080200401000004080B50A2000F01AF8B2
:1003500080BD80B50B2000F015F880BD80B50C2065
:1003600000F010F880BD80B50D2000F00BF880BDC6
:1003700080B50E2000F006F880BD80B500235FF741
:100380000BFB80BD10B504465FF712FCE0B2012103
:1003900081403548016010BDFEE70000024800883A
:1003A00031481021016070472C130050B0B5114D39
:1003B0002888400602D52888800609D40E49086A94
:1003C0000024002814D0CA69521CCA6182420FD38B
:1003D00009480024C461281F0460174800885FF79B
:1003E000C5F92888C00701D1012401E04CF789F93B
:1003F0002046B0BD141000507CFAFC0780B54CF7C5
:1004000052F90B48828980210A438281027903785C
:100410001202D21814235343064A12881207D20E2E
:10042000D218921C044B1A8082898A43828180BD33
:1004300000100050C0100050C0CBFC0709480189D3
:1004400004220A430281018840220A4302800649AD
:1004500001220A604189054A11408918091D41811C
:100460007047C0460800005080E200E0FC7F0000BA
:100470007047000010B50F4CA1880F2008400228DB
:1004800006D004280BD00C280CD00128F4D110E0A1
:1004900020880221884320802088802106E001F006
:1004A0008FFDE9E701F08CFD208801218843208041
:1004B000E2E710BD0411005080B55FF772F91948EA
:1004C000018809050CD518490A8805231340052B16
:1004D00006D10888042202430A80088801221EE00F
:1004E0000188C90606D511498A88D20702D00A8830
:1004F000120610D40088C0060CD50C4881888907E4
:1005000008D50188C90505D5022181800188084ADE
:100510000A40028080BD01208880088880229043A4
:10052000088080BD0400005000020050000100500F
:10053000FFFE000010B5012420465AF723FE0028D4
:1005400005D100205AF71EFE0446401E8441204675
:1005500010BD80B5C1B20C2904D1A02108435F2190
:10056000884380BD084661F7F1FA80BD80B5C1B20D
:10057000A02904D10C210843F321884380BD0846FB
:1005800061F700FB80BD0000022806D8034908700F
:10059000C0000349C1400348C170704778FAFC07A6
:1005A0000001010018FAFC07B0B50C460025202D0B
:1005B00004D042F7A4F960556D1CF8E70020B0BDE7
:1005C000B0B5044609480A4D402229465CF7F0FEC2
:1005D00048350848302229465CF7EAFE0648001BE9
:1005E0000649088014304880B0BDC04670E0FC0762
:1005F0007C37F207B0E0FC07B8E0FFFF78E0FC07CB
:1006000007481E214180018803220A430280018895
:1006100004220A430280EA48012101707047C04663
:100620000016005080B5E5480078C00708D10520C5
:100630005AF7A8FD00280FD12A200949085C04E0D8
:100640000648417D012907D1007D41424141C21E3A
:1006500050425041084380BD002080BD14FDFC077E
:10066000BCFCFC0780B503480168D548801C5EF7D8
:10067000CFFD80BDD424FC0770CCFC0770477047C9
:10068000704780B55EF768FE80BDF8B56946C870F2
:10069000020A8A70020C4A70000E087008465EF763
:1006A00043FE8FBD7047704770B505460469261D2F
:1006B0003068002805D0304642F7F0F95AF789FA39
:1006C000F6E70020286120465AF783FA70BD000043
:1006D000F0B58BB01E4607920F4604461098069060
:1006E00000880890002101200246092913D0032523
:1006F0008540099020463446089ECE403B4601275F
:1007000037407E421F462E40324326460446099813
:10071000801C491CE9E70A92802030439E21014059
:10072000A08A03911D4902910190002000901C496C
:100730000AAA132338464FF7F5F80546002829D1B1
:10074000089720270121059138465AF7C7F90996DD
:10075000064639465CF745FE266130461E30114993
:100760006160A0600898008830830598E0811420BB
:10077000E082A08A70800998C003079908433080FE
:10078000069800887083301D42F780F9A08A002106
:100790005AF7E3FC28460BB0F0BDC046BC20FC076E
:1007A0000A180000A021FC0700487047C021FC0780
:1007B000FEB51F4616460C46142061F79FF9002827
:1007C00019D001972778082F029615D80546418B36
:1007D000008B3A4600F096F800280FD060788D26FE
:1007E00080283AD8082F0BD0072F0CD0062F0CD119
:1007F00008280AD031E0FEE781262EE082262CE090
:10080000072802D029E0062827D32E1D35462D685B
:10081000002D0BD02979B942F9D100223046294662
:1008200042F7ACF928465AF7D4F96078083001212C
:100830005AF754F90546617808315CF7D2FD207803
:10084000287160786871A81D6278A11C5CF7B0FD02
:100850003046294642F73EF9002606480223019910
:10086000029A5AF749FA2178017046705AF75FFAEE
:100870000020FEBD01140000F8B514460D461046D8
:100880005AF780FC012838D1142061F737F9002885
:1008900021D00746418B008B3E7F324600F032F874
:1008A0000090787F010208312A781548964213D1CA
:1008B0006A7889B2931D22465AF71EFA074600202D
:1008C00038710098388068787880781D6A78A91C1B
:1008D0005CF76EFD0AE0FEE789B2062322465AF76E
:1008E0000BFA0746802038710098388038465AF74E
:1008F0001EFA002120465AF730FC0020F8BDC04601
:10090000140C0000B0B58BB2411C00200446092C29
:100910000DD01D46E540ED0702D0A24202D0891C51
:10092000641CF4E7092A01D0481C00E0002080B2D2
:10093000B0BD000080B55AF73FFF4BF7B2FB20482F
:100940000121017180BDC0467047000080B50020C4
:1009500048F776FD1A480421017160F751FE80BD09
:1009600080B5012048F76CFD80BD80B54BF799FB41
:10097000FFF746FE80BD80B548F7AEFD80BD0000A4
:1009800080B50D4801880122914301800B48007811
:10099000C00702D141F796FE04E0002041F7E2FED5
:1009A00041F7A8FE5AF7ECFE41F74AFEFFF728FE92
:1009B00003480021017180BD08330050C5F9FC07D0
:1009C00070CCFC07F0B589B00D460B4940180B28D8
:1009D00000D945E14000C046784480884000874403
:1009E0000D003F0127003F0151003F0164003F011E
:1009F00070003E003F01FA00FF5FFFFF2878841C73
:100A0000EE480C22194623465AF776F9044600268A
:100A100006702878607029788E4200D31DE1B107F6
:100A200001D15EF799FCA1198870761C000AF2E7E3
:100A3000F8480C22142519462B465AF75DF904464E
:100A4000F54908312A465CF7B3FCF4480178217077
:100A500001796170017AA170007BE070FDE0D848F7
:100A600005210C2202235AF747F904460020607042
:100A7000D4480078421E51425141022800D101461B
:100A80002170EAE0E1480C220224194623465AF775
:100A900033F9044606202070287841B2002902D498
:100AA000032800D2CAE03020D6E0D6480C22012428
:100AB000194623465AF720F90446D3480078207097
:100AC000CBE0BF480C260227194632463B465AF770
:100AD00013F90446477028782070022800D2A9E054
:100AE00000D1B4E0032800D0B7E0FFF723FD0028D1
:100AF00000D0B0E068888006C00E00D13AE10896C8
:100B000000200790607020465AF711F9AE4E5AF750
:100B1000D0FD30884006FAD50798C143AB48016044
:100B20006888AB4A0823079313806A78059272B6E7
:100B3000A84A1160A84BD989C905890FA74A118015
:100B4000198AC906FCD40322D101DD898D43DD81D8
:100B5000A3490D897C26B543C0B2400880002843D4
:100B600008810125D88CC00406D4088938400E8934
:100B7000BE433018784008812803DE8C0642FCD042
:100B800008892843088197480668042706973E434A
:100B90000660D0439E8A064004951546059A164382
:100BA0009E829E8A089FBE4397002A46049D374333
:100BB0009F82DE890640DE818888A84388800E886F
:100BC000072006430E809E8A15273740152F00D137
:100BD000D2E01003D1E088480C22082419462346AD
:100BE0005AF78AF80446FF20E07184490622284615
:100BF0005CF702FC002815D02878697809020818EB
:100C0000A97809044018E978090640187C49086069
:100C100028796A7912021018486028464AF7B3FE0C
:100C20000020E0710622204629465CF7C1FBA87926
:100C3000A07112E0FFF7A8FC00200DE00021617018
:100C400073A1085C7049087001F076F805E0FFF7C1
:100C500071FC002807D00120607020465AF767F821
:100C6000002009B0F0BDA9886888012200270692FB
:100C70003B465FF737F80497677020465AF757F8F6
:100C8000514F5AF716FD38884006FAD50896504855
:100C90000821039101806878059072B64E4DAA89AB
:100CA00004200243AA81AA8880239A43AA80AA88A2
:100CB000402101910A43AA804C4A079010802A885B
:100CC0004B4B13402B800498C243424B1A602A8A34
:100CD000D206FCD40322D001EB898343EB81069F2B
:100CE000F84304903E4B1E8906401E813D4E3168FC
:100CF000079801433160A98A029291430598014304
:100D0000A982A98A089EB14380000843A882A889C5
:100D10003843A88198880499084098800F20800261
:100D2000198B01431983B803198B01431983E88C8C
:100D3000C00508D42F48818839438180018860220A
:100D40009143018009E02B48018820220A43019940
:100D50008A430280188B084318830399029A188BE0
:100D600010431883188B08431883188B07998843FE
:100D700018831DE0677070E7C0020E8B1A4F374072
:100D8000C0190883A8030D8B05430D83DB8C088BEA
:100D9000DB0503D5402318430883088B10430883E1
:100DA000088B079A10430883088B069A90430883A0
:100DB00000BF00BF00BF30BF4FE7C04602A0000029
:100DC0000BA0000078FAFC071410005080E100E04E
:100DD0000033005080E200E004000050A000FC0757
:100DE0000803005010ED00E0FFC3000000020050B7
:100DF000FFF70000520000500DA0000094D4F1074E
:100E00002400004008A0000050CCFC0706A0000011
:100E10000C08010004A000003001FC070032005063
:100E2000F8B51E4614460D4610465AF7ABF9012890
:100E30001AD0002847D1142060F760FE002812D095
:100E40000096418B2A88038B5E1C0023092B2ED031
:100E50000F46DF40FF0704D0B7B27F1C974205D092
:100E6000B61C5B1CF2E7FEE702242DE0DFB2082F80
:100E70001DD8061D3668002E28D03179B942F9D127
:100E80007079831D1C480099224659F735FF0746A3
:100E90002888388000243C7170797880781D7279B8
:100EA000B11D5CF785FA384659F741FF0CE012484E
:100EB00006230099224659F71FFF298801808021C7
:100EC000017159F734FF00242046F8BD07770099D7
:100ED000090A417760F730FE01460848012522469D
:100EE0002B4659F709FF077059F721FF204629467D
:100EF0005AF733F9E7E7C046140C0000021400006B
:100F000080B52E48C01C0249891C5FF70FFE80BDCA
:100F1000D824FC0770B5174EB06800F02DF82749AB
:100F2000CA690023CB611518084C284621465CF796
:100F3000C5F9706106494143481901D0201A80B2B1
:100F40003061306808210143316070BD71020000DA
:100F50008FFDFFFF80B506480021016000F0F8FF1B
:100F60000120C00703490A6882430A6080BDC04669
:100F70009CF9FC073000004080B50246C00B09D048
:100F80000E48C06A00210B465CF7C2F98905800A49
:100F9000401880BD0948C06A4243900A80BDC046DF
:100FA00080B5FFF7E9FF80BD80B50449896A4143F8
:100FB0000348081803495CF781F980BD70CCFC0731
:100FC00020A1070040420F0000B5A3B0DD48082172
:100FD0000E460180DC4F388820AC20802088C04637
:100FE000C04620880422D1430842119202D000203A
:100FF000388003E0B88901218843B881D34D28881F
:101000003446304328800126300210902C305EF7A1
:10101000ADFB688880210991084368800F20810218
:10102000BA8B0A43BA83E98D06239943E985B10354
:10103000BA8B0A43BA832988C54A0A402A8069883C
:10104000159319430A94A1436980052113910C0754
:10105000628DC04BFF33E98D19407D23DB00070310
:10106000D0050793149721D4032042021143E98548
:10107000E98D3943E985B44B998B0A9FB94399832C
:10108000998B0422914399836988B34A0A406A8004
:101090006988B24A0A40C00210186880E88D30435F
:1010A000E885119A608D4007FCD519E01846183084
:1010B0000143E985E88DAA490140F0030818E88555
:1010C000A14B988B0A9F38439883988B119A904331
:1010D0009883E88DB043E885988B4021014399833C
:1010E000988B03210F9108439883288820210E9123
:1010F0000843402188432880208F022738432087D7
:1011000098480280A08898490140A180974886703D
:1011100030049749086035461646FFF7F1FE1297EE
:1011200038465FF7CBFC93480068C1B20C20AA296F
:10113000014600D031462288824388182080C0466C
:10114000C0468D480088894988848C4800680862B8
:1011500011952846C046C046882789480026C653B0
:1011600017AD88A1242228465CF722F98E498448CD
:1011700032462B465EF77AF9814BD85D4008D85548
:101180008920195C490819548420195A002901D171
:10119000079919528621585A0028139F16D1FF200B
:1011A000020274480068104035221202904209D0B1
:1011B0000D229202904203D033221202904204D1B7
:1011C000942000E09020585200E00020674D688194
:1011D0005EF736F87F2068706648806973498860DA
:1011E000E81C891C5FF74EFD7149888850220D92DA
:1011F0001043AF220C92904388806E4800686E497D
:10120000884200D094E06D486D495CF7EAF8072603
:1012100031026C485CF7E5F8FFF73CF86A486B4927
:1012200001606B486B4930225CF7C2F86A480025C0
:10123000C571857145710571C570857045703F2117
:1012400008910170654866A140220B925CF7B0F8E6
:101250007348C57185710F994171FF210171C1708A
:101260008170417001706F4805706F486F4901606F
:101270006F487049016070497048086070480A21E1
:1012800001707048057070480760704811990160DE
:101290006F4807606F48159901606F4806606F4896
:1012A0000A990160109FB81D6D4908606D4908607A
:1012B0006D494248086000F0E5FB5DF7EFFE5DF721
:1012C00033FF1499FF31E08C084071020143E1843F
:1012D0005DF746FF37480068374988423E46624F0F
:1012E000139500D1D7E03868604988603B462F4F9E
:1012F000B8683871010EF971010CB971000A787182
:101300003046C0305A4A002800D1B5E0401E194688
:10131000574BC35C167835460F9F3D40234F7D19D0
:101320002D795D400B467540109E1570521CEAE702
:1013300050484F497A02964200D964E732587250B9
:10134000361DF7E7003300500403005052000050F0
:10135000FFBF000000F0FFFFFFF90000FFC7000023
:10136000FF0F000000020050FFF7000070CCFC07E8
:1013700080E200E0D02FF807D82FF807D42FF80725
:10138000C4CBFC076D1AFC07491AFC07FD19FC07C2
:1013900000000000211AFC07C119FC070000000032
:1013A000D02EF807C02FF807A000FC07D824FC07B0
:1013B000001500509CF8FC076587341200E0FC071C
:1013C000AC14000000F9FC0724FAFC07E021FC073C
:1013D000C8F9FC075CDEF107A4F9FC073CFCFC073C
:1013E0002000800000C0000000000400000028224F
:1013F000000000000000040000F7FFFF7F00000075
:1014000030F00708000000000004000000000000A9
:1014100000000000000000000000000000000000CC
:10142000ACF9FC07C5F9FC0750F9FC07E036F207F8
:1014300054F9FC071023FC0758F9FC070822FC07A5
:10144000A1F9FC07A2F9FC075CF9FC0760F9FC07AD
:1014500064F9FC0768F9FC076CF9FC0770F9FC07F4
:1014600048F9FC0744F9FC074CF9FC07000200406E
:10147000A8CCFC0700F0FC073D461C35EA491C22BD
:1014800028461F465EF710FD28465DF74DFFE748EA
:10149000E7490160139D386840F7DCFEE5480571B7
:1014A000C57011988707386830433860FFF7A8F88F
:1014B000119800F059FBDF48C570DF4805700C201B
:1014C0001590DE4959F717FE1598294659F745FE3C
:1014D000D848C570D8480570FFF73CFD11994802FF
:1014E0000290089880020190C8031490D4480C30F0
:1014F0001590D448D4490818D44940188008401E93
:1015000008902089000600D4ACE0386B149908429A
:1015100000D0A7E0C7480088C00700D0A2E05AF773
:10152000C8F80025284600F01FFBC94800790428A8
:1015300000D097E0119800F017FB169516A804212B
:101540004AF706FF0028F54A00D18BE01198C149FF
:10155000086008680028FCD1F8691169884201D246
:1015600015612946411AC90919297BD31061EE4931
:10157000088806904888059088880490C888039059
:101580002195F148209017ABF0A0194664C864C1BA
:101590007C20E34A105A0009187120A8E1495FF73E
:1015A00073FC07981730E04E31890140DB4BD9803E
:1015B0007189014019813089019D284002990843B1
:1015C000308170892840084370815FF751FDD5490B
:1015D0000988D24AD28833892B4013433381CF4ABA
:1015E000128973892B401343079A7381401A11465D
:1015F0004143002804DCD34A8918C017084001E0A1
:1016000050189630D4495BF76FFE85091935C34AE7
:1016100050787F28109E1BD0281A41B2C91148402B
:10162000401A40B2082814DB5069401C50615FF733
:10163000D1FF00F0A3F900F07FFB60F709F85FF736
:101640008FFFBA48703060F735F85FF7D9FFB34ABB
:101650005570B54805994180049981800399C180EE
:1016600006990180FEF7DEFF002800D149E772B637
:1016700020A9139A0A70B04800790228104602D0B7
:10168000AB480068406A17901598B44A5FF788FD28
:1016900000282FD1B248806A002803D0A4480068EF
:1016A000406A179000F054FC17A915985FF7AEFD3B
:1016B00000281FD14CF7D0FD002818D04BF74CFA6A
:1016C000002814D017A85FF7C3FD002812D101200D
:1016D0005EF772F8179A002A00D1BDE0386AA14976
:1016E0004018DA2800D9B8E0521E1792B5E020A8B9
:1016F00000210170914800780128129800D00F98BD
:1017000020A90978042900D00846811E02292BD27D
:10171000218A0425294321820228119A2CD00328EA
:101720007D494BD186490868284308607949088972
:1017300090430881608AA8436082FFF7E1FB119A19
:10174000608A10210143618208988B490860EFF399
:10175000108082F310882188099B994321800028FA
:1017600018D082F3108818E001285BD1FEF75AFFE9
:10177000002857D030BF55E07149086828430860F9
:101780006449088990430881608A102188436082F7
:10179000614911E0002080F31088608D30425E497D
:1017A0000AD000205D49C8700B205EF737F8119A07
:1017B0005949C88D1043C88500202083608D304270
:1017C00007D188881043888008886021884352495F
:1017D0000880A08C9043A0840D2016465DF7C6FFBC
:1017E00060893043022188436081A08AC00602D507
:1017F0000A984749088030BFA08A474908880E9A4E
:1018000010430B9A9043088000F03CF946498888C1
:101810000D9A10430C9A9043888049490868A84360
:101820000860109E62B66CE6A8CCFC079CF8FC072A
:101830006587341218FAFC0778FAFC075420FC0775
:10184000D824FC07882300005001FC07030004F89B
:1018500070CCFC07FC0000400022304DA889314DBF
:1018600029690818686137487E30FB6B03400B43D9
:10187000FB63F86B3C490840A96989020143F9639D
:1018800020A804210170F86B3849084069694905AE
:101890000818F8633648824239D22049086B496BF0
:1018A00000235BF735FD0903000D4118A869821C70
:1018B0008A4200D0481E204909794A1E914147F7C3
:1018C0007BFF2C48C06A80471499386B0842FCD0D3
:1018D000184D28683042FCD0286809998843286050
:1018E0000B484089452805D84621094A5181081AE4
:1018F0000A49C86140F7E9FCA86808498861286876
:101900000006FCD52089099988432081F2E6FEE78C
:1019100000330050040300505200005070CCFC070C
:10192000C4CBFC07D824FC070015005000E0FC07DE
:1019300058F9FC070002004018FAFC0778FAFC0787
:1019400010ED00E082FBFFFF010400005BB0050228
:101950000000000032000000FC0800006506FC07E3
:1019600000FEFC07C8FEFFFFFF03E0FFFFFF1F00B4
:1019700040420F00E4FEFC072000F40710B5E04CE5
:101980002078401C20700D490968C3B23C480022F1
:101990005DF7BEFE2078401E207010BD10B5D84CFB
:1019A0002078401C2070C3B23548044900225DF7FE
:1019B0007BFE2078401E207010BDC0460425FC0729
:1019C000F0B51E2818D12848101849082C4A0B06D3
:1019D00012D003680024E4431646303645680830C8
:1019E000052C07D0641C376808369F42F8D1E30005
:1019F000D3185D63491EEAE7F0BDC04670B50C46DA
:101A00001948111889251E4E705DC00030183030FD
:101A1000A2005BF7CDFC705D0019705570BDC0462B
:101A20001148115809234B431058000C1A1A12047C
:101A3000D214134B60331A8489B2401A0104890C02
:101A40000818401CD883704770B50C46064811181A
:101A500088250B4E705DC0003018A2005BF7A8FC13
:101A6000705D0019705570BDD42EF80788001018ED
:101A7000024940587C21024A50527047D02EF80744
:101A8000C4CBFC07F8B54348C2782C48811C1B2006
:101A90005DF71CFF2A480021016008200B21032468
:101AA000224640F703FE274FB87D5DF79FFF264B88
:101AB000002826D0B87D797DBA798A4202D1FA7998
:101AC00082421ED0BA788A4202D1FA78824218D075
:101AD000FA7A8A4202D13A7B824212D03A7C8A4216
:101AE00002D1797C81420CD001251D8000210A465B
:101AF000FEF743FCF97D481E8141B87D2A465EF71A
:101B000069F8F878250202223C46104F2946B8476A
:101B1000E0790026012431462246B8470948007B77
:101B200014222946B8470748407C13223146B8475B
:101B30000549888920438881F8BDC046D824FC0720
:101B4000000008401001FC07000300507B03FC0765
:101B500003480188034A11408918091D0180704714
:101B600012000050FC7F000080B501460948027851
:101B7000012A0ED1084A002903D011884907FCD454
:101B800002E01188490704D40021017028305DF774
:101B900001FB80BD70CCFC070016005070470000B0
:101BA000F0B58BB03022002181541F221204204B4B
:101BB0001C6894430122550464191C601E4C1F4D7F
:101BC00045611F4D1F4E204F204BC361066244628A
:101BD000184B8362C5621E4B07604360D004544AB1
:101BE000136883431360282903D001A84154491C7A
:101BF000F9E718480068403001A928225BF7D8FBB4
:101C0000C648082101705FF7E5FCFFF7C7FEFFF744
:101C1000B5FE00F091F85FF71BFD5FF72DFD5FF754
:101C20009FFC23485FF766FD5FF7EAFC0BB0F0BD51
:101C3000740000405D1CFC07591CFC07DD1CFC0700
:101C40003516F2077104FC07B51CFC07B71CFC072E
:101C50009D1BFC074CF9FC070020704770470000F3
:101C600080B51F20000401218A07536F8343480475
:101C70001818506710680721884310600B480188C6
:101C800008220A4302805FF7A5FCFFF787FEFFF7F3
:101C900075FE00F051F85FF7DBFC5FF7EDFC0448E0
:101CA0005FF718FD5FF7ACFC80BDC0460800005030
:101CB00070E0FC07704780B5E62800D3E6202828AE
:101CC00000D82820FF22EC3242437D20C10010467C
:101CD0005BF7F4FA7E38C0B280BD0000022901D063
:101CE000012904D1002803D0FF2805D0FEE7FEE734
:101CF000022901D10C207047884800787047C046FF
:101D000050CCFC0780B50A480168C90703D00168B8
:101D100002220A4302600168490204D501218905B3
:101D200002680A43026003485FF722FA80BDC0469A
:101D3000000200406420FC07FCB57F2001026448DB
:101D400042698A430B21090251184161016889B235
:101D5000604A8918016081695F4A0A4082610321F3
:101D600001910902026B0A430263818F10220A4328
:101D70008287818801220092114381805748584907
:101D800001605849088810430880574D284610388C
:101D9000564EB18B01401520440108195030B083D4
:101DA000706953490140534808187061B06952493D
:101DB0000140092040020818B06130684F490140D5
:101DC0004F480818306070684E4901404E48081866
:101DD0007060B0684D4901404D480818B060F06827
:101DE0004C4901404C480818F060C12040014B4963
:101DF0000978090608184A490860052082024949FD
:101E00000A80571D8F800F8B34203843CB27B8436F
:101E10000883088C55270743AA2087430F84FF2790
:101E20006C373846C93008853F4B18460E308885D8
:101E30003E4808868B860A3008870A323285B06BA6
:101E40003B4901403B480818B0633B480780028F7C
:101E50002A402146203152180287384E32882A40C3
:101E6000D219D5323280B2882A401219B280328912
:101E70002A4051183181394621318180304801880A
:101E80002940091960310180018A17220A4308217B
:101E90008A430282818A19220A4306218A43828266
:101EA00007841F4A908F2749014000984003081873
:101EB00090870C4A106C01990843042188431064F0
:101EC000506A21490140214808185062FCBDC046B3
:101ED0002030004000006666FF00FEFF80000040EA
:101EE00059055C07401000401FFCFFFF0420004024
:101EF0000000E0FF09581A00FEE1FFFFE0E00000EB
:101F00000809294900000303696A686C031FFFFF81
:101F100070600000E0E0E0E00B0A0A0850CCFC072B
:101F20000010004028130040260A00004E08000060
:101F30002304E0FE181A060100120040441200407B
:101F400088120040FF9F000000FE00FE500150017B
:101F5000F8B5842013490E5A134FBC6A30466043CB
:101F60001249401812495BF7A9F90546B8813C3679
:101F700066430E4830180E495BF7A0F9001D0D4965
:101F800008612818C01D88610B4A1278022A01D105
:101F900011308861FEF7F0FF0849401880B259F708
:101FA00019FCF8BDC4CBFC0770CCFC0720A10700CE
:101FB00040420F00D824FC0778FAFC07E204000036
:101FC00002480188012291430180704704110050AA
:101FD00002E008C8121F08C1002AFAD170477047F2
:101FE000002001E001C1121F002AFBD17047000050
:101FF000034880F3098800F025F8FEF7A9F8C046E9
:10200000082CFC0704207146084203D0EFF3098036
:102010000A490847EFF30880084908477047042039
:102020007146084203D0EFF3098005490847EFF3F2
:102030000880034908477047FEE700003D04FC079D
:102040009903FC0780B502485CF746FD80BDC04699
:10205000A000FC0700000000D021FC076CCCFC07AE
:1020600002000100800000006B09FC070200000074
:102070007709FC07080000004D09FC07000100007B
:102080006109FC070002000075C1F0074000000074
:102090003794F00710000000C97BF007040000002F
:1020A0008109FC07010000003509FC072000000041
:1020B0004909FC07000000000000000000280000A3
:1020C00001000000000000000328000001000000E3
:1020D00002000000292A00000100000080800000AA
:1020E000032800000100000004000000242A000072
:1020F00001000000808000000328000001000000B3
:1021000006000000252A0000010000008080000079
:10211000032800000100000008000000272A00003A
:102120000100000080800000032800000100000082
:102130000A000000262A0000010000008080000044
:1021400003280000010000000C000000282A000005
:102150000100000080800000032800000100000052
:102160000E000000232A000001000000088000008B
:102170000328000001000000100000002A2A0000CF
:10218000010000000880000003280000010000009A
:1021900012000000502A000001000000078000002B
:1021A000A821FC070300000000140000B107FC0791
:1021B000130C0000210EFC07031400007908FC0733
:1021C000D106FC07A906FC07A706FC07A506FC0725
:1021D000D821FC0701000000FFFF0000C509FC0733
:1021E0000000000000000000F4011100F435234855
:1021F000F40108C4140A000014000000A907FC0739
:10220000FF0000000000000005000000082CFC0793
:1022100000040000B4D0FC07B0020000A8CCFC070A
:102220000004000070D3FC077005000020030000CC
:1022300000A60E0005000000D200000032000000E1
:102240003C0000000100000001000000020000004E
:10225000020000000400000003000000060000006F
:10226000000000000200000002000000000000006A
:102270000000000003000000030000000500000053
:1022800005000000060000000A0000000A0000002F
:10229000C8000000B80B000002000000B80B0000EE
:1022A000B80B000010000000D4010000CC010000B9
:1022B000700200006A00000004000000010000003D
:1022C000200000000C00000001000000E2040000FB
:1022D0008A020000DC050000AF0000009024FC072B
:1022E0000023FC07000000009824FC070000000009
:1022F0000000000000000000000000005E0100007F
:10230000A8F8FC07A0F8FC07B8F8FC07F8F8FC07E9
:10231000A11BFC07611CFC07FD03FC0703C7F007BA
:10232000AD03FC075FC7F00777C7F0078DC7F0075D
:10233000AFC7F00731CBF007D5CDF00715CCF007CC
:1023400035CCF00755CCF00793CCF007A3CCF007C1
:102350000DE2F007C9DFF007E7DFF00703E0F00761
:102360001DE0F00731E0F007AFE0F007C7E0F0074D
:10237000E3B0F1076BB3F10707A9F007B5EFF10779
:1023800099F0F10795F0F10791F0F1078D21F00731
:10239000511BFC07150FFC07550FFC07A90FFC0785
:1023A000A10FFC07057DF007D37BF007737CF007D6
:1023B000AD82F1074134F1075D19F207DD19F2072B
:1023C000811AF207BD1AF2075305FC076D05FC07D9
:1023D000000000007F06FC078106FC077DB3F007C4
:1023E000D976F107617DF107B181F1079780F10797
:1023F000C549F1079759F107F10AF107A1ECF00778
:102400007D06FC076501FC07DDBAF00725AAF00789
:1024100099AAF00749ABF007E72DF007A32EF007C4
:10242000657FF0072F7EF0070136F00700000000FF
:102430008306FC078B06FC07A905FC0701A7F1072B
:1024400083A7F10707A8F107C105FC07B5B7F00797
:10245000000000000000000000000000000000007C
:10246000000000000000000000000000000000006C
:10247000000000000000000000000000000000005C
:10248000000000000000000000000000000000004C
:10249000E821FC0790CCFC07F821FC0754CCFC0792
:1024A00001000000D824FC07D824FC0730000000FD
:1024B000E01FFC07D824FC070825FC0700070000E4
:1024C000E01FFC07C0CBFC07C0CBFC07E800000006
:0824D000E01FFC07E001000021
:0400000507FC0151A2
:00000001FF
