:0200000407FCF7
:10000000A447FC07D136FC07E536FC07FF36FC07A2
:100010001937FC071937FC071937FC071937FC0794
:100020000000000000000000000000001937FC077D
:1000300000000000000000001937FC071937FC071A
:100040004510FC077132FC07A526F0070D12FC07CE
:100050008911FC071937FC070910FC071937FC0741
:100060001510FC071937FC07F110FC07FB10FC0703
:100070000511FC070F11FC071911FC071937FC07C4
:100080005112FC071937FC071937FC071937FC0711
:100090001937FC071937FC071937FC071937FC0714
:0800A000000000008E070E00B5
:0200000407FCF7
:1001100054580000525800015254530003435453A2
:100120000004504F520002010000000000000000D7
:0200000407FCF7
:100130004669726D776172650000000032363332B5
:0C01400006001800B805000300000000D5
:0200000407FCF7
:100150000348854600F040FF00480047E51BFC07C8
:10016000A447FC07F8B5074601200023024600908B
:100170001946032049F746F90446022180300170F0
:10018000FF4DFE482A6843881146FF31F7310B8640
:1001900080884886FB48066A0123DB069E431E438F
:1001A0000662FF320020FF32383250829082D082C5
:1001B0001D200882F4484884F448C882F448088323
:1001C00000204882384649F75DFC01462868FF3028
:1001D000F730C28B920992010A43C283ED4841680D
:1001E00000208847002C02D0204648F7F4FC204627
:1001F000F8BDFFB58BB0064616980027022821D01F
:100200000D9801881498814278D371880846403847
:100210003F2802D8159855F7F1FC0C98361D008838
:10022000149A80190E995EF767FF0C98018814984C
:1002300008180C9908800D9801881498081A0D99CF
:1002400008805CE100200E9D079069782C780902F7
:1002500021433180E978AC780902214371808C46D2
:10026000403904242D1D024603468E46402900D302
:100270002878614604291FD0052914D0062918D0F2
:1002800070463F283DD8159855F7B8FC0006000E7B
:1002900004D0C148008D0006C00F30D002230120D9
:1002A000BE4A002712E0697800290FD0BC4A172304
:1002B0000CE0BC4A0F2309E0522802D0D22802D019
:1002C00002E0142000E01520B74A1F23002A1AD0AC
:1002D000984218D2800010580490002813D00020B3
:1002E0000890059070884038402803D3287805246A
:1002F00030716D1C701D00900498B5E0FEE0302751
:10030000F0E03327EEE07088042872D10627E9E098
:10031000522862D00CDC4B283FD004DC41286AD044
:10032000422858D111E04C2820D0502853D140E029
:10033000632830D004DC572818D061284BD19BE0CB
:100340006C2864D0772846D109E00098297801709C
:100350000098641C401CA4B26D1C009081E00498BD
:10036000401C04900178089881427AD10098A41C1E
:10037000401C41084900881C009068782A780002D7
:10038000104308800599AD1CA4B2002969D00890DB
:100390000020059065E00120FBE710222946009827
:1003A0005EF7AAFE009810341030A4B21035009009
:1003B00057E0204640301499039088420BD84022E1
:1003C000294600985EF798FE009840300090039808
:1003D000403584B245E0342743E00822294600989E
:1003E0005EF78AFE009808340830A4B20835009001
:1003F00037E068E0FFE70622294600985EF77CFEBA
:100400000098A41D801DA4B2AD1D009029E0149891
:10041000001B80B203903088001B001D81B20120B8
:1004200007900498401C04900098401C400840002D
:1004300000900498007857281CD04228CBD100980F
:100440000170090A417000982946801C0090039AA7
:100450005EF752FE03980399201884B20098401862
:1004600000900498401C0490007800281ED0002FB3
:1004700017D01BE04908E2E71498001B81B20098EE
:100480000391401C40084000009001200A4607905C
:10049000294600985EF730FE0399601884B20098F0
:1004A000DDE70D990988A14200D331E70D98008856
:1004B000A04208D304990978002904D1079900299A
:1004C00003D1A04201D034270CE00D99001B088015
:1004D0000C9801880098801B001F08180C99002FA9
:1004E00008800CD07088042809D0062807D040382E
:1004F000402804D30E984079707100E034273846C4
:100500000FB0F0BDFFB581B01F4616460C46104631
:100510005CF7B6FC00257F2802D02189062909D086
:100520003B4632462146019855F7FBFE05462846D4
:1005300005B0F0BDC00601D50225F8E720780028F7
:10054000F5D1300AA11D42F784F8F0E7F1B598B073
:10055000189842F77CFA0446189805210079134A46
:100560004006C00F099068460184618B08460A382E
:10057000904276D2E08A062873D319E030BCFC079B
:100580004CB9FC07C0000040108000002941000069
:100590007671000058BFFC0748BEFC073803F2071D
:1005A0004003F2079C03F207D803F207770C000020
:1005B0001922D201904254D8228BFF23F5339A425C
:1005C0004FD8521C9300D2184243521C0A23521097
:1005D00059438A4245DC217F00290CD1617F0029E3
:1005E00009D1A17F002906D1E17F002903D1202173
:1005F000095DC90635D0274620377978C906C90E66
:10060000491F0C292DD2A18A81422AD8E17C0029D8
:1006100027D0421E082A01D9082000E0401E81424E
:100620001FD8684646F7D4FA00281AD1FE4D062294
:10063000286221460AA85EF75FFDA8792E46803E13
:1006400000287DD06079800901280BD00AA809997B
:100650004CF78DFD010003D03820405C002870D09D
:100660009BE008E1F06A807A012808D0042806D0CF
:100670000AA84CF7E9FD286200284ED054E0686AC9
:1006800006220AA932305EF75BFD002806D00AA8D0
:100690004CF7DAFD2862002802D012E0686AF9E718
:1006A00000210AA84CF7E6FD2862F16A897A01293F
:1006B00005D18B071A6849068A430A431A60002845
:1006C00011D0F16A286A0622253010315EF738FD14
:1006D000002808D1286AF16A2030C07AC97B884294
:1006E00001D1286A1EE0D148D1490088C96880B28A
:1006F00006225043081842F7AFF9014614A8062213
:1007000002305EF7F9FC13AA00213C2042F771FC8D
:100710000121B06D47F798FEA9E011A90AA84CF78E
:10072000A9FD2862002838D00146253106220FA8ED
:100730005EF7E2FC286A08AA2030C17A0FA801E01F
:1007400041E024E04CF7F6FB002812D0286A203064
:10075000C07A002809D16846B649008C4BF75DFB8A
:1007600008AA0121B3484CF7E5FB68460AA9008CAA
:100770000AE008AA012111A84CF7DCFB00280CD0E4
:10078000296A6846008C32314BF75DFB05E00A1898
:10079000527D002A08D010286DDBF06A407A0228CA
:1007A00006D0032804D00EE0401C1028EFDBF4E74D
:1007B0006846008C052806D308AA0AA809994CF7B0
:1007C000B9FB002857D00022694620464CF75BFC55
:1007D000002850D1F06A407A02280BD0032809D0B3
:1007E0000023684602880AA809994CF76DFC002886
:1007F00002D02FE00123F4E7E18A68460181218BD2
:100800004181618B81817878062241096846817532
:100810007878C106C90E6846417521460E305EF7EC
:100820006BFC189800794006C10F68460175038873
:10083000214602A8B26D47F7ADF90146B06502A89E
:1008400042F725FC0020B065214668461C3100882F
:1008500046F711FA49F790FA734C2034207A0028B1
:1008600005D0002109205CF74EFC002020720021F9
:1008700008465CF7F0FA19B0F0BDF8B56E4C0646C4
:1008800085000F4660594C21095C24290ED140692E
:100890001022791D2E305EF72FFC61592520403142
:1008A000087300221146304654F7FBFA60594C2178
:1008B000095C0C291FD140691022791D2E305EF78A
:1008C0001BFC60595F214069095C09072DD4014672
:1008D0002E3110221E305EF733FC00280CD06059F8
:1008E000092140300173304654F7F8FF01460022D9
:1008F000304653F755FEF8BD0421684601706A463C
:100900000521304653F7F6FF684601786020014321
:1009100068460170304654F7E1FF014668460278A8
:100920000123304653F751FFF8BD304654F7D6FF48
:10093000012809D060590721403001730022114677
:10094000304654F7AEFAF8BD615900204969C0310C
:10095000887160590421426930461E3253F7CAFF3C
:10096000605941694031897F002907D01A21403000
:1009700001730021304654F71EFBF8BD1B214030A7
:100980000173304654F76CFBF8BDF8B52A4C0546A8
:100990008600A0594C22125C192A11D140224D30F8
:1009A000491D5EF7A9FBA059402224494D305EF74E
:1009B000C7FB002805D02149284620395BF72BFDCD
:1009C000F8BD0B21684601706A460521284653F799
:1009D00091FF68460178602001436846017028460F
:1009E00054F77CFF0146684602780123284653F7F6
:1009F000ECFEF8BDFFB581B003980C46060A002551
:100A00005CF73EFA002827D0132825D0142823D0DD
:100A10000B48B700C0592030407BC00637D503983B
:100A20005CF72EFA15280DE030BCFC0768B9FC070E
:100A300060BBFC0750F5F1073CBEFC07FCBDFC07A2
:100A400078BBFC070CD0A07941F7F4FF304647F79C
:100A50008FF8032806D015E0A07941F7EBFF1FE0DF
:100A600002251DE03248C0592030407B400704D5A4
:100A70003D21304642F7DCFC04E03D2200213046B7
:100A800042F7E5FC3D21304646F7BAF808E020463B
:100A9000103828490181468120464EF7A3FD0125E3
:100AA000284645E524485222006864308188C37E88
:100AB0005143224A12688918FF225F32525AFF318D
:100AC000120AD21A01310B8CD2B2DB0B09D00B8C7B
:100AD0005B045B0C0B84002A03D18088184A012137
:100AE00011547047FFB51746140A81B0104A029896
:100AF000A100515840780026114D002907D0295DEA
:100B0000002905D0002803D1204643F7F5FE2E55D5
:100B10003A46049B0299019844F77FFE08E50A488B
:100B200008490160094941607047704770470000FB
:100B300078BBFC070608000084BBFC074CB9FC0727
:100B4000C28BFC070459F007C0000840490C00BFE5
:100B50007FB5E4486B460188428889186A4611804F
:100B600001214C0022181546403DED8F065B52884E
:100B7000AD19AA18491CC9B21A530729F1D38189A2
:100B8000C089081881B2D981D888002821D0188955
:100B9000002820D0988800281FD0588900281ED00F
:100BA000988900281DD0588800281CD000291CD006
:100BB000188800280BD00720062254001C5B8C42AA
:100BC00001D22146D0B2521E52B2002AF5DA04B048
:100BD00070BD0320FBE70420F9E70220F7E70520BA
:100BE000F5E70620F3E70120F1E70720EFE7F0B58E
:100BF00095B0EFF310801090012080F31088BA4870
:100C0000816B4A07520F69460A800A92816B012262
:100C1000C908C9008163B5498B8869464B800224A5
:100C2000B24B00219980C16A09078B0F69468B80FE
:100C30000F93C16A0C2399430831C162052109074A
:100C400009880906CB0F6946CB800521090709935E
:100C500009888023194305231B071980A449898A21
:100C60004906CB0F69460B81A1490893898A402325
:100C700019439F4B9982016A09074B0F69464B81C3
:100C80000C93036A0E218B4303629B4D9948686065
:100C9000FF204030A8602888A043288097484168FA
:100CA0000B071B0F69468B810B93416809090901EA
:100CB00008314160416849064B0F6946CB810D936D
:100CC000416870239943603141608748403801682A
:100CD0008904CB0F69460B820293036841140B43CE
:100CE00003600168CB07DB0F69464B820E930168F6
:100CF0001143016041688903CA0D69468A820392E3
:100D00004168CA05D20D6946CA8204928168890386
:100D1000CA0D69460A8301928168CA05D20D6946E7
:100D20004A8305924168764A11400322D20389180A
:100D300041604168490A4902FF314131416081689F
:100D40006F4A11400322D203891881608168490AE1
:100D50004902FF3141318160642000F02DF9A889FA
:100D600069468007C00F8883A8892043A881002492
:100D7000604F288800260121084328800A2000F0BF
:100D80001BF9FF205F4941303A680A4200D0761CC7
:100D9000401E3F1D0004000CF6D1A88A8004FCD13F
:100DA0005149886B671CC208D2007807400F024384
:100DB0008A630A2000F000F960004A49FCB20E5232
:100DC000082CD5D348480A99826BD208D2000A432E
:100DD00082636946454A498891800F998A00C16AB1
:100DE0000C2399431143C1620999CA0105210907DE
:100DF000098880239943114305221207118008991D
:100E00008A013B49898A402399431143384A918298
:100E10000C994A00016A0E23994311430162374835
:100E20000B994268120912010A4342600D99426807
:100E3000090170239A430A434260029841032A48F9
:100E40004038006801225203904308432649403944
:100E500008600E9809684908490001432248403853
:100E60000160039842022048403840682449084005
:100E700010431D4A403A506004985268520A520288
:100E800002431948403842600198174A4002403AEC
:100E900092680A400243144840388260124905981B
:100EA00040398968490A490201430F484038816046
:100EB0001098002800D0012080F3108815B0F0BDF4
:100EC00010B5114C2078002808D0FFF790FEFFF7EE
:100ED0003FFE0E4908700020207010BD01F0B4FFE5
:100EE0000120F9E73840FC07801000400012004064
:100EF00020300050383BFC070035005040200040B7
:100F0000FF01FCFFC0C0C0C05D8CFC075E8CFC070D
:100F100010B5FF22154901320A60BFF34F8FBFF3AE
:100F20006F8F13490A6013490B6840241B0A1B0288
:100F300023430B601049898A0021C30700D0352163
:100F4000830702D57D231B021943430702D575236E
:100F50001B041943000702D53D2000060143064843
:100F60002038016301488038026010BD80E100E054
:100F700080E200E008E400E0A010004010B5062088
:100F800000F01AF810BD10B5092000F015F810BDDA
:100F900010B5812000F010F810BD10B5044800F025
:100FA0000BF810BD10B5034800F006F810BD0000A6
:100FB000010200000108000000280CD000BF00BFA3
:100FC00000BF00BF00BF00BF00BF00BF00BF00BF29
:100FD00000BF401EF0D170471CB509480090094879
:100FE000019005460126009C05E0E36807CC3343E9
:100FF0000C3C98471034AC42F7D3FFF7ADF8000033
:10100000003BFC07303BFC07014801210180704791
:101010000E1500500A48011F0988CA0706D0028829
:1010200007239A432F4B9B7913430380490706D527
:10103000018807229143F74AD2790A430280704718
:10104000B8100040B0B5264B0820188005200007D6
:101050000188302211430180048803210C4304805D
:101060001C896407FCD403889343038003888B4363
:101070000380E84CE3894380238A9D1EE44B5D8016
:1010800007251D8005881543058005880D430580CB
:101090001D886D07FCD403889343038002888A432C
:1010A00002804289920702D042898A4342810189A3
:1010B00080220A430281018A042291430182818AAB
:1010C0008907FCD541F72DF9E0690749086002F06E
:1010D000D1FA0648016801684907FCD5B0BDC04691
:1010E00000330050588CFC070802004010000040FC
:1010F00080B50A2000F024F880BD80B50B2000F0F8
:101100001FF880BD80B50C2000F01AF880BD80B5B6
:101110000D2000F015F880BD80B50E2000F010F80D
:1011200080BD0000B0B501248C404001034D445304
:101130001A434019490008184280B0BD04300050DD
:10114000F0B503460A3B01210A469A4093B20B4D83
:101150005C19661C5E400A4B1C8800272E4203D097
:101160007F1C7608B6B2F9E79443BAB20D469540B3
:1011700025431D80814022480160F0BDFEFF010033
:101180000E140050FEE70000024800881C481021A1
:10119000016070472C13005080B54CF77AFE0B4865
:1011A000828980210A438281027903781202D2184F
:1011B00014235343064A12881207D20ED218921CE7
:1011C000044B1A8082898A43828180BD00100050BE
:1011D000C0100050C08BFC07DD48018904220A437F
:1011E0000281018840220A430280054901220A60E7
:1011F0004189044A11408918091D41817047C04640
:1012000080E200E0FC7F00007047000010B50F4C4A
:10121000A1880F200840022809D0042804D00C28F7
:101220000CD00128F4D110E002F004FAF0E7208895
:101230000221884320802088802103E002F0FAF90F
:101240002088012188432080E2E710BD041100506E
:1012500080B505210807028830239A43028002885E
:1012600003239A430280828812050DD51A4A1388F7
:101270000B40052B08D110880421014311801088F0
:1012800001218843108080BD8188C90606D5C549E3
:101290008A88D20702D00A88120610D48088C00635
:1012A0000CD5C0488188890708D50188C90505D5AE
:1012B000022181800188094A0A40028080BD012004
:1012C00088800888802290430880B74800680028FA
:1012D000F4D000F021F980BD00020050FFFE0000B4
:1012E00010B5012420465BF7CBFD002805D1002076
:1012F0005BF7C6FD0446401E8441204610BD80B504
:10130000C1B20C2904D1A02108435F21884380BDCC
:1013100008465FF795FF80BD80B5C1B2A02904D112
:101320000C210843F321884380BD08465FF7A4FFE2
:1013300080BD0000022807D804490870C006000ECE
:101340000349C1400348C1707047C046B4BAFC07A6
:101350000001010054BAFC07B0B50C460025202D51
:1013600004D041F7CCFA60556D1CF8E70020B0BD01
:1013700010B504460548064970225DF7BDFE0548D4
:10138000001B054908801430488010BD70A0FC0780
:10139000BC37FC07B8A0FFFF78A0FC0710B50748D2
:1013A0000188074A1368114C23405918116040887E
:1013B000516821400818506010BDC04618300040E8
:1013C0008CA0FC0710B507480188074A1368074C32
:1013D0002340591811604088516821400818506016
:1013E00010BDC0463830004098A0FC070000FFFF49
:1013F00007481E214180018803220A430280018898
:1014000004220A4302805448012101707047C046FB
:1014100000160050588CFC0780B50D480078C007B6
:1014200008D105205BF72CFD00280FD12A200A499E
:10143000085C04E00748417D012907D1007D414255
:101440004141C21E50425041084380BD002080BD32
:10145000FDB9FC0788BDFC0730BDFC07704770472D
:10146000704780B55FF788FD80BDF8B56946C870E4
:10147000020A8A70020C4A70000E087008465FF774
:1014800063FD8FBD80B51B4800210160FFF780FD23
:10149000164800781F214901134A13688B43C00680
:1014A000800DC018106080BD80B511480221017008
:1014B000FFF764FD80BDC04680B50B480168890513
:1014C000C90E0A4A11701F21490102688A4302604D
:1014D0000748012101700748016803220A4302609E
:1014E000FFF756FD80BDC0464C120040303BFC0764
:1014F00006100040AC10004080B506480088C007C8
:1015000005D14548202101603220FFF755FD4CF7F9
:10151000EFFC80BD0030005080B5EFF3108101205A
:1015200080F310880A4A1288120603D4094A1388E5
:1015300003431380002902D080F3108802E00021C9
:1015400081F310880449C87000F008F880BDC046D7
:101550000800005008330050588CFC0710480188E0
:1015600010220A4302800F490420888008883F2205
:10157000904308800120888100224A800A888023C5
:101580001A430A8008810849084A0A6008490A681B
:101590001A437F239A430A60000406490860704793
:1015A0000400005000010050C88BFC071915FC070F
:1015B00010E400E000E100E0B0B5124D28884006DC
:1015C00002D52888800609D40F49086A002400281B
:1015D00015D0CA69521CCA61824210D30A4800243D
:1015E000C461281F2021016008480088FFF7E4FC3F
:1015F0002888C00701D1012401E04CF779FC20467E
:10160000B0BDC04614100050B8BAFC07C08BFC0730
:1016100001482021016070471010005080B54CF740
:10162000AAFCFFF769FF80BDF0B589B00E460B49F3
:1016300040180B2800D94BE14000C0467844808810
:10164000400087440D0045013A00450180004501F6
:10165000930045019F00270045015100FF5FFFFFF8
:101660003078841CF0480C22194623465BF7C2F9F7
:10167000044600250570317841708D4200D324E185
:10168000A90701D15FF778FC611988706D1C000A09
:101690003178F2E7F34805210C2202235BF7AAF91F
:1016A000044600206070F0480078421E51425141CB
:1016B000022800D10146217007E1DC480C221425E4
:1016C00019462B465BF796F90446FB4908312A4632
:1016D0005DF712FDF9480178217001796170017A96
:1016E000A170007BE070F0E0EC480C220824194661
:1016F00023465BF77FF90446FF20E071E8490622A4
:1017000030465DF71DFD002815D03078717809024C
:101710000818B17809044018F17809064018E14921
:1017200008603079727912021018486030464BF721
:1017300073FC0020E0710622204631465DF7DCFC98
:10174000B079A071C1E0DA480C2202241946234680
:101750005BF750F9044606202070307841B200292A
:1017600002D4032800D2A1E03020ADE0CE480C2204
:101770000124194623465BF73DF90446CB4800791E
:101780002070A2E0B7480C27022519463A462B469E
:101790005BF730F90446457030782070022800D29B
:1017A00080E000D18BE0032800D08EE0FFF798FDA9
:1017B000002800D087E0089700200790607020463E
:1017C0005BF733F9A94F5BF718FE38884006FAD566
:1017D000FFF7F2FE0798C143A5480160A54808221B
:1017E000069202807078039072B6A34A1160A34AF1
:1017F000D189C905890FA24B1980118AC906FCD469
:1018000003200790C101D3898B43D3819D490B8964
:101810007C26B3430B810120D38CDB0406D40B89D7
:101820002B400F89AF43FB186B400B810303D78C10
:101830001F42FCD00B8903430B81934B1F68042686
:10184000049637431F600590079EF343978A1F4015
:1018500003990F439782978A0898874388003843F3
:101860009082908A3027B8430F01864907439782B8
:10187000D0891840D081854B2020089018803702ED
:10188000059E9F818B88B3438B800F8807231F435E
:101890000F80978A15203840152800D19BE00D2035
:1018A000830299E0FFF746FD00200DE00021617002
:1018B00080A1085C7D49087101F070FD05E0FFF72B
:1018C0000FFD002807D00120607020465BF7ADF8BF
:1018D000002009B0F0BD0897FFF740FE00200290FD
:1018E000607020465BF7A1F8604F5BF786FD388893
:1018F0004006FAD5FFF760FE5E4808210591018099
:101900007078039072B66148202106910180032609
:101910003102818159488189042319438181818859
:1019200080229143818081884022049211438180EA
:10193000574907930B800188564A0A400280029952
:10194000C9434D4A1160018AC906FCD4F101C2891C
:101950008A43C28101210191CA43029249490F89F8
:1019600017400F81484F3B68079A13433B60838AB7
:101970000096B343039A13438382838A089FBB4331
:1019800097001F438782838A3027BB431701019A40
:101990001F4387828389134383818B88029E334050
:1019A0008B800F239B020E8B9E430723DB02F318D1
:1019B0000B8393030E8B1E430E83C68C364803881D
:1019C000F6051AD4602213430380088B009A104353
:1019D000069E049F19E0DB020F2080020F8B8743D5
:1019E000D8190883B0030B8B03430B83D08C0A8B6D
:1019F000C0051DD40798024320E0069E3343049F90
:101A0000BB430380088B284390430883088B059AC7
:101A100010430883088B079A90430883888B3843C8
:101A2000B043888319E0C04602A0000004A0000073
:101A3000402002430A830A8B2A43B2430A83088B5D
:101A4000069A10430883088B049A90430883888B76
:101A500040220243089882438A8300BF00BF00BF30
:101A600030BF32E70BA00000B4BAFC0714100050DE
:101A700080E100E00033005080E200E0040000500C
:101A8000A000FC070803005010ED00E004300050F7
:101A900000020050FFF70000520000500DA00000AF
:101AA000DCF1F1072400004008A00000588CFC077E
:101AB00006A000000C0901003001FC0700320050B4
:101AC00070B5EFF31085012484F310880520060714
:101AD000708DC00509D54048847001F089FD0F491B
:101AE00008700F48008820404870308880210143EA
:101AF00031800C4801680722914301604168490721
:101B0000FCD50949016109494161002D02D084F3E6
:101B1000108870BD002080F3108870BD4840FC071D
:101B2000800000500000F4070F009909090404A484
:101B300070B5174EB06800F02DF827490A6A0023E7
:101B40000B621518084C284621465DF75BFA706158
:101B500006494143481901D0201A80B230613068EB
:101B600008210143316070BD710200008FFDFFFF4D
:101B700080B506480021016001F002FD0120C00788
:101B800003490A6882430A6080BDC046A8B9FC07C1
:101B90003000004080B50246C00B09D00E48006BF3
:101BA00000210B465DF758FA8905800A401880BD70
:101BB0000948006B4243900A80BDC04680B5FFF7DC
:101BC000E9FF80BD80B50449896A4143034808188C
:101BD00003495DF717FA80BD588CFC0720A1070068
:101BE00040420F0000B59FB09D48082505809D4FDD
:101BF00038881BAC20802088C046C046208804223C
:101C0000D14308421A9202D00020388003E0B889FC
:101C100001218843B881B88B934901400720119076
:101C2000C0020818B883914C208828432080E08D9A
:101C300006229043E0850126B003B98B0143B983A6
:101C400020888B490140218060880D921043A84371
:101C5000608005202B460F900507698D0F200190AD
:101C60000202E08D9043C9058249834A09931AD440
:101C7000032149020843E085501CE18D0143E185C1
:101C8000B88B9843B883B88B04218843B8836088A5
:101C90007A4901406180E08D3043E0851A9B688D70
:101CA0004007FCD516E00A46B1020843E085E08D06
:101CB0001040F1034018E085B88B1843B883B88B07
:101CC0001A9B9843B883E08DB043E085B88B4021E0
:101CD0008843B88330021490B88B032102910843E3
:101CE000B88320882021084340221592D243104017
:101CF0002080388C1791084310403884E88A80216E
:101D0000049108431040E882288EFF2188432886EA
:101D1000288F184318210C9188432887288FA021E9
:101D2000014312921140298755480380A8885549DC
:101D30000140A9803746300453490860FFF7C0FED0
:101D4000524C2068119908401CA908700878022894
:101D50001ED0688D1499084211D001F049FC0A2860
:101D600002D80B2001F04EFC4048C08DC00706D1C0
:101D70003E49C88D3843C885688D4007FCD520682A
:101D8000022101430F988143216060684007FCD520
:101D90003F480068C1B20C20AA29014600D01A9918
:101DA0002A88824388182880C046C046394800687F
:101DB000394909886823394E00220E921093F25255
:101DC000374A1187506301273846C046C0460298FB
:101DD000000213903348001F006833498842189767
:101DE00000D03BE101980607042000210B911696D4
:101DF00003462C4A1118081FEC32904200D330E100
:101E00001A9300681E901E9B3340092004071E9AF7
:101E1000A34258D11E9B1F0AFBB21993D2B2531E84
:101E2000162B00D9DFE05B007B449B885B009F445E
:101E3000F400F400DA00F400DA003D00A500DA0056
:101E4000DA00DA00DA00DA00DA00DA00DA00DA00C2
:101E5000B4008A00C9008500DA00D4009E00C046A4
:101E60000033005004030050FFC300005200005034
:101E7000FFBF0000FF0F0000FFEF0000FFF90000B0
:101E800000020050FFF7000080E200E00000F407CD
:101E9000D07FF807D47FF807D87FF807CC8BFC07F2
:101EA000588CFC07D47EF807A5A5A5A5AF4C109EBD
:101EB000A05DC0002018199A92005DF71DF9A05D81
:101EC000C019A05567E0900F1A9C0FD01E98A84922
:101ED00088420BD820460830294628311E9A8A426B
:101EE00022D1A4496158A44A518081E71E9830400C
:101EF00011990907884203D10020C046C04611E06D
:101F00001E983040F90788420CD01E9830400F9937
:101F10004907884206D01E983040029949078842F6
:101F200000D08BE0201D63E7A91C1E9A8A428F4BCC
:101F30007AD1904961586622995259E78D481A9989
:101F40000858622117E08B4A1A9B995848439A58BF
:101F5000120C801A00B2C0085A23844CE052501A66
:101F60008108864A11400818401C582128E0814801
:101F70001A99085864217D4A50524EE069247B4EDC
:101F8000305DC00030181030199A92005DF7B4F837
:101F9000305DC0193055169E3FE0764A1A9B99581D
:101FA00048439A58120C801A00B2C00856236F4C4E
:101FB000E052501A8108714A11400818401C5421FF
:101FC00060522AE00B9CA0001CAA1018199FBA00AE
:101FD0005DF792F83C190B941FE066481A9908586F
:101FE0006249086519E01E2A17D1199840080206AF
:101FF00013D00B684A680831002427460837382F69
:1020000008D05A4E341924699C423C46F6D1574BAD
:10201000DB19DA60401E169EE9E7199880001A99CC
:102020000818001D189FE3E6294624311E9A8A42AB
:1020300009D150496158504A9180D9E61E98401CF8
:1020400020460ED0D4E6294620311E9A8A4200D07E
:10205000CEE648496158484AD180C9E66620365ADA
:1020600031E05C201C99414C21521099605C400881
:1020700060546920215C4908215409201D99484376
:102080000A0C801A00B2C0086023E0522346501A9E
:1020900081083A4A11400818401C5E2160526420B1
:1020A000215A002902D11399E831195266201E5A8B
:1020B000002E334C07D133490968C9B2AA29049EBE
:1020C00000D06E261E523048C681A88CB843A88422
:1020D0000D20FEF771FF6889384302211091884373
:1020E000688168894006FCD56E807D20C00006901E
:1020F000FEF762FF68890299884368816889000653
:10210000FCD57F20204A50701E4880691F49886096
:10211000EFF3108687F310882888049908432880F5
:1021200020681199884320600E9B60684007FCD5A9
:1021300017482061174860612888049988432880DF
:10214000688D149908420CD09370104C207801F0DF
:1021500059FA0E9B10496078002802D1C88DB84307
:10216000C885002E1AD087F310881AE0CC8BFC07A4
:102170004C420050D47EF807A000FC07FF3F00004F
:102180000000F407D07FF807588CFC074840FC0794
:102190000F009909090404A452000050002080F3A4
:1021A00010880F9FE3480068E349884200D0C8E0E8
:1021B000E248E3495CF7B9FF11980102E1485CF796
:1021C000B4FFFEF7B3FCE048E0490160E048E149B4
:1021D000302422465CF790FFDF480026C6718671E6
:1021E00046710671C670867046703F210F9101706E
:1021F000DA48DBA1159A5CF77FFFE9480670E948E9
:10220000E9490160E948EA490160EA49EA480860A9
:10221000EA480A210170EA4819960670E948322115
:1022200008910170E8480760E84818990160E8489B
:102230000760E8480D990160E74811990160E74897
:10224000099F0760189800020090801DE44908600B
:10225000E4490860E448B949016000F07FFC28893E
:102260000594A04328812889049908432881288956
:102270003843189F2881288CB843288468890C9992
:10228000884368812889159908432881288A042170
:1022900088432882A88A8007FCD51691E88CD34908
:1022A00008400B2109020143E984E88C3843E884A3
:1022B0006889099908431021079188436881688CCF
:1022C000B84368842889159988432881C8483730DD
:1022D000BA07116801401A9211600F984002C54A6E
:1022E00011688143780308181060C348401C1168C6
:1022F000014311608F4800688F49884238D0BA483E
:102300000068BC498860BD4A90681071010ED171A7
:10231000010C9171000A50710098C030B8490A460A
:10232000002818D0401E435C17783C46029E34407B
:10233000B24E341924795C407C40189F1470521CB2
:10234000EEE7B048AE497A02934200D930E71A5816
:102350005A501B1DF7E7A94C1C34A9491C222046E2
:102360005EF75EFE20465EF7EFFD7248724901603F
:102370009D4800683FF76EFFA348199E0671C6701E
:1023800004461A9A1068009908431060FFF730F865
:10239000384600F021FDE6709C4806700C249C49EC
:1023A00020465AF726FD204631465AF754FD01F0E3
:1023B00061F99548C67095480670FFF7D9FB05206E
:1023C000FEF7A6FD934894490818944940188008E0
:1023D000401E039078020E900F9880020F90F90330
:1023E0008F4C0E462889000600D4ADE11A98006B88
:1023F000084200D0A8E184480088C00700D0A3E1CB
:102400005AF7FBFF0027384600F0E6FC854B187AA8
:10241000042800D08FE1189800F0DEFC1C971CA85F
:10242000042421464BF78AFB7E4B002800D181E132
:1024300018987D49086008680028FCD11A98C0697E
:102440005969884201D25F613946411ACA095979EE
:10245000182A65D9C90766D11194744C21880D9149
:1024600061880C91A1880B91E1880A9127800E99CF
:1024700010316180159AA2805C216D4B595AA1815F
:1024800068494861A08910430599C9430840A08163
:1024900068480260BFF34F8FBFF36F8F20881043EF
:1024A0002080E08810430840E0802088119988430C
:1024B0002080A088C0B2A080E0887021014040291F
:1024C00000D0C3E06220185A00285B4900D00146C2
:1024D0004A4841805948401C2188014321801920E5
:1024E000FEF76AFD20880E9A1043208020881599F7
:1024F00008432080608811990843608060885049B3
:1025000008406080019840026188014361806088D2
:102510004C49084014990818803060804A48A9E066
:10252000C80700D106E19869401C986100F004FEDC
:102530003C4BFFE09CB8FC076587341200A0FC0709
:10254000AC14000000B9FC0760BAFC073C38FC077B
:1025500000BAFC077CFCF107DAB9FC07B0BCFC0749
:102560002000800000C0000000008400000028223D
:10257000000000000000040000F7FFFF7F000000E3
:1025800030F0FF0F00000000000400000000000019
:10259000000000000000000000000000000000003B
:1025A000FDB9FC0750B9FC07603FF20754B9FC07BE
:1025B0007039FC0758B9FC077438FC07B0B9FC0740
:1025C000B1B9FC07D9B9FC075CB9FC0760B9FC07D5
:1025D00064B9FC0768B9FC076CB9FC0770B9FC0763
:1025E00048B9FC0744B9FC074CB9FC07FFF00000F0
:1025F000C8FEFFFF00020040FFFF1F004840FC072D
:10260000A08CFC0700B0FC0754BAFC07B4BAFC0766
:10261000AC37FC07E43900005001FC07030004F864
:1026200000330050588CFC07FC000040001500509F
:10263000CC8BFC0780E100E040760000FF0F00003B
:10264000FF1F00003FFE0000FCFF00002088FA4949
:10265000084020806088FA490840608060880299BC
:1026600088436080F74A1046403821880140218025
:1026700010460E9A618801406180208818990843AD
:1026800020801398FF3021890140F34B59816189E3
:102690000140998120890F99084010432081608969
:1026A00008401043608120881099084320802088CA
:1026B0008007FCD41898E081208A1190E749498866
:1026C0005A8923890F98034013432381E24A928950
:1026D00063890340134363811198401A069941436B
:1026E000002804DCE84A8918C017084001E0E748E0
:1026F0000818E7495CF79CFC84091934FB4B5878AF
:102700007F280DD0201A41B2C9114840401A40B26A
:10271000052806DB9869401C986100F00DFDF34B1D
:102720005C70D6480C9941800B9981800A99C180D0
:102730000D990180C44CD878012805D1FEF7DCFE44
:102740003146EA48C7704DE6FEF766FE314600287E
:1027500000D147E672B6C74800790228199802D01E
:10276000C0480068806A1C902089C00700D060E1E2
:1027700059F70FFF3146002800D15AE1BD48C07813
:10278000012800D04FE1A88AC00700D0AFE0B948C7
:102790000088002800D046E1BE48806A002803D0A7
:1027A000B0480068806A1C9000F0EAFEB148817869
:1027B0001CA85AF7E6FC002800D134E11A980069F9
:1027C000400600D52FE1AB4881781CA84BF7B6F93D
:1027D000002800D127E14DF733F93146002800D118
:1027E00027E14BF7ADFD3146002800D121E1A1489A
:1027F00081781CA85AF7C5FC002800D107E11A9877
:102800000069400600D502E19A4881781CA84BF780
:1028100095F9002800D1FAE00F98FF30984A918E80
:1028200001401498014391861C98002807D01A99FA
:10283000096A8D4A8918DA2901D8401E1C90C34BB9
:10284000188A864F3969081878611A9AD06B924BAA
:1028500018400843D063D06B90490840B969890299
:102860000143D163D06B8249084079694905081852
:10287000D0631C9A8A48824200D3DFE0B349086CD7
:10288000496C00235CF7E8FB0903000D4118B869A7
:10289000821C8A4200D0481E764909794A1E91411D
:1028A00047F762F87F48C06A80471A996F4F3246EF
:1028B000086B1042FCD0009938680842FCD0386898
:1028C0000499884338606089452804D8462161818D
:1028D000081A9E4908623FF7F8FCB8689B49C8612E
:1028E00038680006FCD52889049988432881624805
:1028F00000781799624A118013999181298A169A52
:1029000011432982F949CC78002C504A189F3ED1B6
:1029100011945C4C2168169B194321601189B943BD
:102920001181698A012804D1079881436982119C29
:102930002BE099436982FFF7C3F8688A0799084337
:102940006882444803990162EFF3108087F310888E
:102950002988049A91432980002802D087F310889F
:1029600002E0002080F31088119C688D14990842C1
:10297000364ADE4909D0002088700B2000F042FE64
:10298000324A3349C88D3843C88500202883688D72
:102990001499084206D12E490888159B1843179BA5
:1029A00098430880108C1599084317998843108420
:1029B000002C254C10D1A88CB843A8840D20FEF71C
:1029C000FBFA688938431099884368816889400612
:1029D000FCD5089868801D4AA88AC00601D50998C8
:1029E000208030BFA88A1A490888179B1843129F75
:1029F00038400880108C18433840108400F0AEF83E
:102A0000204A1068169988431060314611E0144836
:102A10000078C00702D13FF755FE04E000203FF7E1
:102A2000A1FE3FF767FEFEF7F7FC3146002800D015
:102A300030BF62B6D6E4C046FFEF0000FEE7C046F6
:102A4000FFE100003FFE000000330050040300508F
:102A5000520000500000F407588CFC074840FC0767
:102A6000FDB9FC0758B9FC07C8FEFFFF0002004093
:102A7000FFFF1F0054BAFC07B4BAFC070015005052
:102A80000430005010ED00E02BFDFFFFD5020000E8
:102A9000AA05000074BEFC0700FCFFFFFF03E0FF77
:102AA00040420F0058BFFC07F0B569212648415C41
:102AB0001430DD4A13790022DDB20E4E8A4213D261
:102AC00007680A2D3B4606D33C46094B1C40224B67
:102AD0001B685B042343041F2468B44200D11F46D3
:102AE00027600830521CE9E7F0BDC046588CFC074F
:102AF000FFFF01FC38300040F0B568211248415C0E
:102B0000C94A12790023124D134E8B421AD290C833
:102B10000838AC4212D1FC01640C2C460ED00A2AB3
:102B20002C460BD3032424023C403F04BF0E3C1927
:102B30002C60C488074F3C40346000E027600830B8
:102B40005B1CE2E7F0BDC046CC8BFC07588CFC0751
:102B50004C100040FF010000A040FC07FEB5604E95
:102B6000308BC0055F4D604F1AD5604880780128D2
:102B700003D100F03DFD1B2812D8688AC00400D4A0
:102B8000388CFF201C305A4908801B2000F03AFD89
:102B90005848018801220A430280308B4007FCD547
:102BA000554856A118225CF7A7FA5AA05C491CC8E0
:102BB0001CC1FDF7B4FF5B485B49016008200B2195
:102BC000032422463FF772FD584A507D002848D121
:102BD000917D0B2945D89079002802D1D07988427F
:102BE0003FD09078002802D1D078884239D0D07A6E
:102BF000002802D1107B884233D0107C002802D1FB
:102C0000507C88422DD0304612380088022908D0E6
:102C10000C221040042801D00A2000E00520884240
:102C200003D13088424A1040308001263E80002780
:102C300038463A463B46FEF775FA6E803B4AD17DF0
:102C4000907D0029014601D0014680390C2801D32E
:102C5000384601E0481CC0B2517D002900D03846FA
:102C60002880D178907827020223324D14463A46C4
:102C7000A847E179A07900220192012633462D4D23
:102C8000A847217BE07A142302973A46294FB84798
:102C9000617C207C34461323019AB847104B188876
:102CA000234E304018802448042101806102C180F5
:102CB0000C4A5480832111801946123909880C224C
:102CC0000A40042A02D1198831401980202101804C
:102CD000029981810449888920438881FEBDC046CC
:102CE000120000504000005000030050588CFC07B8
:102CF0004840FC078000005020000840F99DF00784
:102D000000000000E3A1F107000000004FA4F1075C
:102D1000000000004D05FC077B08FC078B09FC0741
:102D2000C000FC0700000840070010001001FC076D
:102D30007FFE00002511FC07043000500348018885
:102D4000034A11408918091D018070471200005084
:102D5000FC7F0000B0B5044601201D4DC0070BD01C
:102D6000E88A5EF7CBFA002803D08268284621461D
:102D7000904718350020F1E7B0BDC04670B5012579
:102D8000134C002821D1134EE80720D000252560E0
:102D90006560A560E56025616661102021465AF7EF
:102DA00028F81834F0E7E08A5EF7A8FA002802D085
:102DB0004168204688470025E5816560A560FF20C1
:102DC000E082207D5AF76FF81834E807EBD170BD28
:102DD000388CFC071000FF00B0B5D14D29780129CF
:102DE00021D11249002803D008884007FCD402E012
:102DF0000888400717D400232B70C88889880004EE
:102E000044181F2040064921224660F729FB286408
:102E1000696464214143080CA86205486043800B43
:102E2000401C40082863B0BD588CFC0700160050B9
:102E30001111010010B5F34C082020701120FEF78D
:102E4000BBF80320607010BDFEB562480325057015
:102E5000614C20461438016814220A436B218A43CE
:102E60000260A06A5D49C8600020C043A06220687B
:102E70003F218843206020685949084020606068ED
:102E8000584908400121019189020291401860606F
:102E9000606840210143302081436160A06952494C
:102EA00008400B2149064018A061A0694F4908401D
:102EB00069024018A061A0691821014327208143BD
:102EC000A161432020714A4880474A4880474A48C8
:102ED0008047404805700095484806684848804744
:102EE00048488047206848490840F105401820605C
:102EF0003B4E403620683040490C40182060412746
:102F00002771606837490840029940186060384866
:102F1000804738488047384880472E4805703748F2
:102F20000568374880473748804720683649084059
:102F3000E9054018206020683040490C40182060A6
:102F40002771606827490840029940186060284846
:102F5000804728488047284880471E4800990170CC
:102F6000264800682168284A1140C2058918216056
:102F700021683140254D0540A8010818206060688F
:102F8000019988436060154EF068A06220681C219A
:102F900001432320814321602068114908402060BB
:102FA000A06911490840072189064018A061A0695D
:102FB0000E4908400F21C9014018A061A0691E21D7
:102FC000014321208143A1610D4880470D4880477E
:102FD000F586FEBD05100040183000404840FC0753
:102FE000FF7FFFFFFFF9FFFFFFFFFFC03FF0FFFF85
:102FF000A914FC07B914FC079B0FFC07883000409C
:103000008514FC07870FFC07FFFF7F00FF0100000E
:1030100070470000F0B58BB03022002181541F2290
:103020001204354B1D68954301246204AA181A60E6
:10303000334B344D4561344D344E354F354AC261C2
:10304000066243622D4A8262C562334A076042606B
:10305000E004CC4A136883431360282903D001A8F5
:103060004154491CF9E72D480068403001A9282245
:103070005CF742F8C74D09202871FFF7DBFEFFF728
:103080003BFDFFF711FD00F089F900F0DBFA00F0DD
:103090006BF8FFF7D9FE6C712248008807210140C8
:1030A000E971FDF70DFFFEF779F9FEF78BF91E497F
:1030B0000B881E4804681E4A1440E31803601D4B29
:1030C0001C88856915402C1984615B88C46914408B
:1030D000E318C3614B8A046A1440E3180362898AC7
:1030E000436A134059184162A848022181700021A7
:1030F00001800BB0F0BDC046740000406531FC0794
:103100006131FC074D32FC073132FC070912FC0724
:103110000932FC070B32FC071130FC074CB9FC07E5
:10312000588CFC07B81000401030004088A0FC0705
:103130000000FFFF6430004080B5FFF77BFEFFF723
:10314000B3FC00F02BF900F07DFAFDF7B9FEFEF7B5
:1031500025F98E48022181700021018080BDC04682
:1031600000207047704700000E4908880E4A024050
:1031700001204302D2180A804105824A13688B431A
:103180001360810700224A671F2212044B6F93438A
:103190004004181848670868E02202431020824360
:1031A0000A60704738300050FFFC000080B51F20D7
:1031B000000401218A07536F83434804181850679D
:1031C00010680721884310600D48018808220A43CF
:1031D0000280FFF72FFEFFF78FFCFFF765FC00F082
:1031E000DDF800F02FFAFFF7BFFFFEF7EBF86748B6
:1031F00002218170002101800520FDF789FE80BD3C
:103200000800005004100040704780B5E62800D345
:10321000E620282800D82820F9214A0042437D20B2
:10322000C10010465BF7EEFE7F38C0B280BD0000E3
:103230000548016807220A430260012080045149C1
:103240000A6882430A60704730000040022901D0BA
:10325000012904D1002803D0FF2805D0FEE7FEE7AE
:10326000022901D10C207047DB4800797047C04625
:10327000F8B544480168C90703D0016802220A432F
:10328000026001240168490203D5A10502680A43CE
:103290000260270265023C49009508460838066826
:1032A000002E6ED0300606D5802008604AF7EFFA6F
:1032B000FEF79EF83449B00704D50220086046F7AF
:1032C000E4F93149300714D508200860FDF7EAFB1E
:1032D0003D4627460024204646F790F92A49042017
:1032E000BD4A10720220294A907014803C462F4635
:1032F000009D3E4204D00F60012046F77FF922492D
:103300002E4203D00D604AF72BFB1F49700604D5EF
:103310004020086046F76DF91B49F00604D51020DF
:10332000086044F729FD184970071BD50420086080
:1033300017490888A043088017480078C00702D1C1
:103340003FF7C0F904E000203FF70CFA3FF7D2F94D
:103350005AF7BAF83FF774F9FEF74AF800209E4989
:1033600008720949F00707D00C605AF7C9F84AF704
:103370008EFA054998480472B0068ED52020086060
:103380008BE7F8BD00020040180000400410004028
:1033900008330050588CFC07FDB9FC07FCB57F20B2
:1033A0000002594A516981430B20000208185061FC
:1033B000106880B25549401810609069544C044020
:1033C000012358030090201890610320019000020F
:1033D000146B04431463908F1024044394879088E3
:1033E00018439080A0484B4A02604B4A1046103860
:1033F0004A4DAC8B044015204301E0185030A8839F
:103400006869474C0440474820186861A869464CE1
:103410000440092040022018A8612868434C044059
:103420004348201828606868424C044042482018ED
:103430006860A868414C044041482018A860E868CA
:10344000404C044040482018E860C1204001624CD4
:103450002479240620183D4C2060052080023C4F32
:103460003880401DB880388C55260643AA208643F4
:103470003E84FF266C363046C930388535490846CB
:103480000E30B88534483886B986C01D3887334831
:103490002885A86B3249014032480818A863324D8C
:1034A0002E80288F10401F462037C01928872F48AC
:1034B000018811408919D531018081881140C918CE
:1034C000818001891140C91901812136AE802848C7
:1034D00001881140C91860310180818A19220A438C
:1034E00006218A438282A08F224901400098081851
:1034F000A08721480168019A114304229143016089
:103500001E486066FCBDC046203000400000888830
:10351000FF00FEFF59055C071FFCFFFF0420004071
:103520000000E0FF09581A00FEE1FFFFE0E00000A4
:103530000809294900000303696A686C031FFFFF3B
:1035400070600000E0E0E0E00B0A0A0800100040B4
:1035500028130040260A000051080000070F000051
:103560002F64E0FE101A06010012004044120040D1
:1035700088120040FF9F0000801000405001500161
:10358000F8B5642013490E5A134FBC6A30466043A5
:103590001249401812495BF735FD054638823C3622
:1035A00066430E4830180E495BF72CFD001D0D498F
:1035B00008612818C01D88610B4A1278022A01D1BF
:1035C00011308861FEF7E6FA0849401880B259F7D1
:1035D000A5FFF8BDCC8BFC07588CFC0720A1070089
:1035E00040420F004840FC07B4BAFC07E204000068
:1035F0000D480188890918220A4000888004400F7C
:103600008018704708490A88084B1340F822024086
:1036100092011A430A800A88054B13404007800C28
:10362000181808807047C04654000050FFF9000089
:10363000FFC70000024801880122914301807047C2
:103640000411005018B50848016800910099074A14
:10365000009B1A40FF2424040C40D9B20919044BE2
:10366000C9181143016018BD8000004000FF00FF31
:103670000A000A003F2001020A4802688A431F210B
:103680000902511801600121C90302680A4302605E
:103690000721090542680A43426003480349018043
:1036A0007047C0460C02004010300050120300006A
:1036B00002E008C8121F08C1002AFAD170477047FB
:1036C000002001E001C1121F002AFBD17047000059
:1036D000034880F3098800F025F8FCF739FDC0465F
:1036E000A447FC0704207146084203D0EFF3098089
:1036F0000A490847EFF30880084908477047042043
:103700007146084203D0EFF3098005490847EFF3FB
:103710000880034908477047FEE70000D911FC07FD
:103720008511FC071C498888072290438880052062
:1037300000078A89D20710D0098800290DD11749BE
:103740004A8802858A888284CA880284428A144B05
:1037500013400988C90119434182124906220A808F
:103760000121CA03104B1A60BFF34F8FBFF36F8F55
:1037700002221A60BFF34F8FBFF36F8F1960BFF340
:103780004F8FBFF36F8F4189042291434181002104
:10379000018062B67047C04604030050A000FC07D9
:1037A0007FFE00000034005080E100E000000000D7
:1037B0002C38FC07508CFC07020001000800049024
:1037C0000000000000000000030005D08B0035F071
:1037D00010005CF0000010B0000018B000001AB03B
:1037E000030051F0000038B000003AB0000064B0AF
:1037F000000066B0000022B0000024B0010005D037
:10380000000000000A00008008030490000004F09B
:10381000030006D0000000000A00008008030490A6
:10382000000004F0030006D0000000003438FC075C
:1038300001000000FFFF00002916FC070100000145
:10384000F509FC0701000002E50AFC070000000082
:1038500000000000F4011100F4352348F40108C40D
:10386000140A000014000000ED14F207FF0000002D
:103870000000000005000000A447FC070004000051
:10388000AC90FC07AC020000A08CFC070004000018
:103890006493FC07700500002003000000A60E00E2
:1038A00005000000D2000000320000003C000000D3
:1038B0000100000001000000020000000200000002
:1038C00004000000030000000600000000000000EB
:1038D00002000000020000000000000000000000E4
:1038E00003000000030000000500000005000000C8
:1038F000060000000A0000000A000000C8000000E6
:10390000B80B000002000000B80B0000B80B00006C
:1039100010000000D4010000CC0100007002000083
:103920006A00000004000000010000002000000008
:103930000A00000001000000E20400008A0200000A
:10394000DC050000AF000000EC3AFC076039FC0722
:1039500000000000F43AFC07000000000000000036
:10396000A8B8FC07A0B8FC07B8B8FC07F8B8FC0773
:103970001530FC07AD31FC079911FC071116FC0747
:10398000B915FC0749DFF00761DFF0071D16FC07DA
:1039900099DFF00719E3F007BDE5F007FDE3F00755
:1039A0001DE4F0073DE4F0077BE4F0078BE4F0074B
:1039B000F5F9F007B1F7F007CFF7F007EBF7F007ED
:1039C00005F8F00719F8F00797F8F007AFF8F007D7
:1039D000DFCDF10767D0F107DBB9F007CD0DF207B6
:1039E000B10EF207AD0EF207A90EF2078D21F00716
:1039F0003D2DFC07311BFC07711BFC07C51BFC0799
:103A0000BD1BFC07B57EF007837DF0076501FC0751
:103A1000599EF107634CF1077D2DFC07D110F20789
:103A2000552DFC07B111F207FF12FC071913FC0713
:103A3000000000005F14FC076114FC07B9C6F00722
:103A4000D592F107F301FC075F9DF1075F9CF10739
:103A50000505FC07EB72F107B922F1076B04F107CA
:103A60005D14FC072BA4F007F1D2F0075FBDF0074F
:103A7000D5BDF00785BEF007DB2DF007752EF007EA
:103A80001581F007DF7FF0070937F007000000001D
:103A90006314FC076B14FC075913FC07F3C3F1070D
:103AA00075C4F10703C5F1077113FC07000000009E
:103AB0000000000000000000000000000000000006
:103AC00000000000000000000000000000000000F6
:103AD00000000000000000000000000000000000E6
:103AE0000000000000000000000000005438FC0747
:103AF0008C8CFC076438FC07388CFC070100000044
:103B0000343BFC07383BFC076C050000C036FC0763
:103B1000343BFC07A440FC0700070000C036FC074C
:103B2000C08BFC07C08BFC07E0000000C036FC0720
:043B30000E00000083
:0400000507FC0151A2
:00000001FF
