:0200000407FCF7
:10000000EC47FC071D37FC073137FC074B37FC0773
:100010006537FC076537FC076537FC076537FC0764
:100020000000000000000000000000006537FC0731
:1000300000000000000000006537FC076537FC0782
:100040004510FC07B932FC07A526F0071112FC0782
:100050008D11FC076537FC070910FC076537FC07A5
:100060001510FC076537FC07F110FC07FB10FC07B7
:100070000511FC070F11FC071911FC076537FC0778
:100080005512FC076537FC076537FC076537FC0729
:100090006537FC076537FC076537FC076537FC07E4
:0800A000000000008E070E00B5
:0200000407FCF7
:100110005458000652580005525453000743545394
:100120000008504F520000010000000000000000D5
:0200000407FCF7
:100130004669726D776172650000000032363332B5
:0C01400006001800B805000300000000D5
:0200000407FCF7
:100150000348854600F040FF00480047E11BFC07CC
:10016000EC47FC07F8B50746012000230246009043
:100170001946032049F746F90446022180300170F0
:10018000FF4DFE482A6843881146FF31F7310B8640
:1001900080884886FB48066A0123DB069E431E438F
:1001A0000662FF320020FF32383250829082D082C5
:1001B0001D200882F4484884F448C882F448088323
:1001C00000204882384649F75DFC01462868FF3028
:1001D000F730C28B920992010A43C283ED4841680D
:1001E00000208847002C02D0204648F7F4FC204627
:1001F000F8BDFFB58BB0064616980027022821D01F
:100200000D9801881498814278D371880846403847
:100210003F2802D8159855F7F1FC0C98361D008838
:10022000149A80190E995EF767FF0C98018814984C
:1002300008180C9908800D9801881498081A0D99CF
:1002400008805CE100200E9D079069782C780902F7
:1002500021433180E978AC780902214371808C46D2
:10026000403904242D1D024603468E46402900D302
:100270002878614604291FD0052914D0062918D0F2
:1002800070463F283DD8159855F7B8FC0006000E7B
:1002900004D0C148008D0006C00F30D002230120D9
:1002A000BE4A002712E0697800290FD0BC4A172304
:1002B0000CE0BC4A0F2309E0522802D0D22802D019
:1002C00002E0142000E01520B74A1F23002A1AD0AC
:1002D000984218D2800010580490002813D00020B3
:1002E0000890059070884038402803D3287805246A
:1002F00030716D1C701D00900498B5E0FEE0302751
:10030000F0E03327EEE07088042872D10627E9E098
:10031000522862D00CDC4B283FD004DC41286AD044
:10032000422858D111E04C2820D0502853D140E029
:10033000632830D004DC572818D061284BD19BE0CB
:100340006C2864D0772846D109E00098297801709C
:100350000098641C401CA4B26D1C009081E00498BD
:10036000401C04900178089881427AD10098A41C1E
:10037000401C41084900881C009068782A780002D7
:10038000104308800599AD1CA4B2002969D00890DB
:100390000020059065E00120FBE710222946009827
:1003A0005EF7AAFE009810341030A4B21035009009
:1003B00057E0204640301499039088420BD84022E1
:1003C000294600985EF798FE009840300090039808
:1003D000403584B245E0342743E00822294600989E
:1003E0005EF78AFE009808340830A4B20835009001
:1003F00037E068E0FFE70622294600985EF77CFEBA
:100400000098A41D801DA4B2AD1D009029E0149891
:10041000001B80B203903088001B001D81B20120B8
:1004200007900498401C04900098401C400840002D
:1004300000900498007857281CD04228CBD100980F
:100440000170090A417000982946801C0090039AA7
:100450005EF752FE03980399201884B20098401862
:1004600000900498401C0490007800281ED0002FB3
:1004700017D01BE04908E2E71498001B81B20098EE
:100480000391401C40084000009001200A4607905C
:10049000294600985EF730FE0399601884B20098F0
:1004A000DDE70D990988A14200D331E70D98008856
:1004B000A04208D304990978002904D1079900299A
:1004C00003D1A04201D034270CE00D99001B088015
:1004D0000C9801880098801B001F08180C99002FA9
:1004E00008800CD07088042809D0062807D040382E
:1004F000402804D30E984079707100E034273846C4
:100500000FB0F0BDFFB581B01F4616460C46104631
:100510005CF7B6FC00257F2802D02189062909D086
:100520003B4632462146019855F7FBFE05462846D4
:1005300005B0F0BDC00601D50225F8E720780028F7
:10054000F5D1300AA11D42F784F8F0E7F1B598B073
:10055000189842F77CFA0446189805210079134A46
:100560004006C00F099068460184618B08460A382E
:10057000904276D2E08A062873D319E030BCFC079B
:100580004CB9FC07C0000040108000002941000069
:100590007671000058BFFC0748BEFC073803F2071D
:1005A0004003F2079C03F207D803F207770C000020
:1005B0001922D201904254D8228BFF23F5339A425C
:1005C0004FD8521C9300D2184243521C0A23521097
:1005D00059438A4245DC217F00290CD1617F0029E3
:1005E00009D1A17F002906D1E17F002903D1202173
:1005F000095DC90635D0274620377978C906C90E66
:10060000491F0C292DD2A18A81422AD8E17C0029D8
:1006100027D0421E082A01D9082000E0401E81424E
:100620001FD8684646F7D4FA00281AD1FE4D062294
:10063000286221460AA85EF75FFDA8792E46803E13
:1006400000287DD06079800901280BD00AA809997B
:100650004CF78DFD010003D03820405C002870D09D
:100660009BE008E1F06A807A012808D0042806D0CF
:100670000AA84CF7E9FD286200284ED054E0686AC9
:1006800006220AA932305EF75BFD002806D00AA8D0
:100690004CF7DAFD2862002802D012E0686AF9E718
:1006A00000210AA84CF7E6FD2862F16A897A01293F
:1006B00005D18B071A6849068A430A431A60002845
:1006C00011D0F16A286A0622253010315EF738FD14
:1006D000002808D1286AF16A2030C07AC97B884294
:1006E00001D1286A1EE0D148D1490088C96880B28A
:1006F00006225043081842F7AFF9014614A8062213
:1007000002305EF7F9FC13AA00213C2042F771FC8D
:100710000121B06D47F798FEA9E011A90AA84CF78E
:10072000A9FD2862002838D00146253106220FA8ED
:100730005EF7E2FC286A08AA2030C17A0FA801E01F
:1007400041E024E04CF7F6FB002812D0286A203064
:10075000C07A002809D16846B649008C4BF75DFB8A
:1007600008AA0121B3484CF7E5FB68460AA9008CAA
:100770000AE008AA012111A84CF7DCFB00280CD0E4
:10078000296A6846008C32314BF75DFB05E00A1898
:10079000527D002A08D010286DDBF06A407A0228CA
:1007A00006D0032804D00EE0401C1028EFDBF4E74D
:1007B0006846008C052806D308AA0AA809994CF7B0
:1007C000B9FB002857D00022694620464CF75BFC55
:1007D000002850D1F06A407A02280BD0032809D0B3
:1007E0000023684602880AA809994CF76DFC002886
:1007F00002D02FE00123F4E7E18A68460181218BD2
:100800004181618B81817878062241096846817532
:100810007878C106C90E6846417521460E305EF7EC
:100820006BFC189800794006C10F68460175038873
:10083000214602A8B26D47F7ADF90146B06502A89E
:1008400042F725FC0020B065214668461C3100882F
:1008500046F711FA49F790FA734C2034207A0028B1
:1008600005D0002109205CF74EFC002020720021F9
:1008700008465CF7F0FA19B0F0BDF8B56E4C0646C4
:1008800085000F4660594C21095C24290ED140692E
:100890001022791D2E305EF72FFC61592520403142
:1008A000087300221146304654F7FBFA60594C2178
:1008B000095C0C291FD140691022791D2E305EF78A
:1008C0001BFC60595F214069095C09072DD4014672
:1008D0002E3110221E305EF733FC00280CD06059F8
:1008E000092140300173304654F7F8FF01460022D9
:1008F000304653F755FEF8BD0421684601706A463C
:100900000521304653F7F6FF684601786020014321
:1009100068460170304654F7E1FF014668460278A8
:100920000123304653F751FFF8BD304654F7D6FF48
:10093000012809D060590721403001730022114677
:10094000304654F7AEFAF8BD615900204969C0310C
:10095000887160590421426930461E3253F7CAFF3C
:10096000605941694031897F002907D01A21403000
:1009700001730021304654F71EFBF8BD1B214030A7
:100980000173304654F76CFBF8BDF8B52A4C0546A8
:100990008600A0594C22125C192A11D140224D30F8
:1009A000491D5EF7A9FBA059402224494D305EF74E
:1009B000C7FB002805D02149284620395BF72BFDCD
:1009C000F8BD0B21684601706A460521284653F799
:1009D00091FF68460178602001436846017028460F
:1009E00054F77CFF0146684602780123284653F7F6
:1009F000ECFEF8BDFFB581B003980C46060A002551
:100A00005CF73EFA002827D0132825D0142823D0DD
:100A10000B48B700C0592030407BC00637D503983B
:100A20005CF72EFA15280DE030BCFC0768B9FC070E
:100A300060BBFC0750F5F1073CBEFC07FCBDFC07A2
:100A400078BBFC070CD0A07941F7F4FF304647F79C
:100A50008FF8032806D015E0A07941F7EBFF1FE0DF
:100A600002251DE03248C0592030407B400704D5A4
:100A70003D21304642F7DCFC04E03D2200213046B7
:100A800042F7E5FC3D21304646F7BAF808E020463B
:100A9000103828490181468120464EF7A3FD0125E3
:100AA000284645E524485222006864308188C37E88
:100AB0005143224A12688918FF225F32525AFF318D
:100AC000120AD21A01310B8CD2B2DB0B09D00B8C7B
:100AD0005B045B0C0B84002A03D18088184A012137
:100AE00011547047FFB51746140A81B0104A029896
:100AF000A100515840780026114D002907D0295DEA
:100B0000002905D0002803D1204643F7F5FE2E55D5
:100B10003A46049B0299019844F77FFE08E50A488B
:100B200008490160094941607047704770470000FB
:100B300078BBFC070608000084BBFC074CB9FC0727
:100B40004A7CFC070459F007C0000840490C00BF6C
:100B50007FB5E4486B460188428889186A4611804F
:100B600001214C0022181546403DED8F065B52884E
:100B7000AD19AA18491CC9B21A530729F1D38189A2
:100B8000C089081881B2D981D888002821D0188955
:100B9000002820D0988800281FD0588900281ED00F
:100BA000988900281DD0588800281CD000291CD006
:100BB000188800280BD00720062254001C5B8C42AA
:100BC00001D22146D0B2521E52B2002AF5DA04B048
:100BD00070BD0320FBE70420F9E70220F7E70520BA
:100BE000F5E70620F3E70120F1E70720EFE7F0B58E
:100BF00095B0EFF310801090012080F31088BA4870
:100C0000816B4A07520F69460A800A92816B012262
:100C1000C908C9008163B5498B8869464B800224A5
:100C2000B24B00219980C16A09078B0F69468B80FE
:100C30000F93C16A0C2399430831C162052109074A
:100C400009880906CB0F6946CB800521090709935E
:100C500009888023194305231B071980A449898A21
:100C60004906CB0F69460B81A1490893898A402325
:100C700019439F4B9982016A09074B0F69464B81C3
:100C80000C93036A0E218B4303629B4D9948686065
:100C9000FF204030A8602888A043288097484168FA
:100CA0000B071B0F69468B810B93416809090901EA
:100CB00008314160416849064B0F6946CB810D936D
:100CC000416870239943603141608748403801682A
:100CD0008904CB0F69460B820293036841140B43CE
:100CE00003600168CB07DB0F69464B820E930168F6
:100CF0001143016041688903CA0D69468A820392E3
:100D00004168CA05D20D6946CA8204928168890386
:100D1000CA0D69460A8301928168CA05D20D6946E7
:100D20004A8305924168764A11400322D20389180A
:100D300041604168490A4902FF314131416081689F
:100D40006F4A11400322D203891881608168490AE1
:100D50004902FF3141318160642000F02DF9A889FA
:100D600069468007C00F8883A8892043A881002492
:100D7000604F288800260121084328800A2000F0BF
:100D80001BF9FF205F4941303A680A4200D0761CC7
:100D9000401E3F1D0004000CF6D1A88A8004FCD13F
:100DA0005149886B671CC208D2007807400F024384
:100DB0008A630A2000F000F960004A49FCB20E5232
:100DC000082CD5D348480A99826BD208D2000A432E
:100DD00082636946454A498891800F998A00C16AB1
:100DE0000C2399431143C1620999CA0105210907DE
:100DF000098880239943114305221207118008991D
:100E00008A013B49898A402399431143384A918298
:100E10000C994A00016A0E23994311430162374835
:100E20000B994268120912010A4342600D99426807
:100E3000090170239A430A434260029841032A48F9
:100E40004038006801225203904308432649403944
:100E500008600E9809684908490001432248403853
:100E60000160039842022048403840682449084005
:100E700010431D4A403A506004985268520A520288
:100E800002431948403842600198174A4002403AEC
:100E900092680A400243144840388260124905981B
:100EA00040398968490A490201430F484038816046
:100EB0001098002800D0012080F3108815B0F0BDF4
:100EC00010B5114C2078002808D0FFF790FEFFF7EE
:100ED0003FFE0E4908700020207010BD01F0D8FFC1
:100EE0000120F9E78040FC0780100040001200401C
:100EF00020300050803BFC0700350050402000406F
:100F0000FF01FCFFC0C0C0C0E57CFC07E67CFC071D
:100F100010B5FF22154901320A60BFF34F8FBFF3AE
:100F20006F8F13490A6013490B6840241B0A1B0288
:100F300023430B601049898A0021C30700D0352163
:100F4000830702D57D231B021943430702D575236E
:100F50001B041943000702D53D2000060143064843
:100F60002038016301488038026010BD80E100E054
:100F700080E200E008E400E0A010004010B5062088
:100F800000F01AF810BD10B5092000F015F810BDDA
:100F900010B5812000F010F810BD10B5044800F025
:100FA0000BF810BD10B5034800F006F810BD0000A6
:100FB000010200000108000000280CD000BF00BFA3
:100FC00000BF00BF00BF00BF00BF00BF00BF00BF29
:100FD00000BF401EF0D170471CB509480090094879
:100FE000019005460126009C05E0E36807CC3343E9
:100FF0000C3C98471034AC42F7D3FFF7ADF8000033
:101000004C3BFC077C3BFC070148012101807047F9
:101010000E1500500A48011F0988CA0706D0028829
:1010200007239A432F4B9B7913430380490706D527
:10103000018807229143F74AD2790A430280704718
:10104000B8100040B0B5264B0820188005200007D6
:101050000188302211430180048803210C4304805D
:101060001C896407FCD403889343038003888B4363
:101070000380E84CE3894380238A9D1EE44B5D8016
:1010800007251D8005881543058005880D430580CB
:101090001D886D07FCD403889343038002888A432C
:1010A00002804289920702D042898A4342810189A3
:1010B00080220A430281018A042291430182818AAB
:1010C0008907FCD541F72DF9E0690749086002F06E
:1010D000F7FA0648016801684907FCD5B0BDC0466B
:1010E00000330050E07CFC07080200401000004084
:1010F00080B50A2000F024F880BD80B50B2000F0F8
:101100001FF880BD80B50C2000F01AF880BD80B5B6
:101110000D2000F015F880BD80B50E2000F010F80D
:1011200080BD0000B0B501248C404001034D445304
:101130001A434019490008184280B0BD04300050DD
:10114000F0B5C0B203460A3B01210A469A4093B269
:101150000B4D5C19661C5E400A4B1C8800272E4212
:1011600003D07F1C7608B6B2F9E79443BAB20D46B5
:10117000954025431D80814022480160F0BDC04656
:10118000FEFF01000E140050FEE700000248008838
:101190001C481021016070472C13005080B54CF79B
:1011A00078FE0B48828980210A4382810279037884
:1011B0001202D21814235343064A12881207D20E81
:1011C000D218921C044B1A8082898A43828180BD86
:1011D00000100050C0100050487CFC07DC4801891A
:1011E00004220A430281018840220A430280054901
:1011F00001220A604189044A11408918091D418170
:101200007047C04680E200E0FC7F000070470000AD
:1012100010B50F4CA1880F200840022806D00428E2
:101220000BD00C280CD00128F4D110E0208802212A
:10123000884320802088802106E002F021FAE9E737
:1012400002F01EFA2088012188432080E2E710BDC9
:101250000411005080B505210807028830239A4305
:101260000280028803239A430280828812050DD5EA
:101270001A4A13880B40052B08D11088042101431A
:101280001180108801218843108080BD8188C906A3
:1012900006D5C4498A88D20702D00A88120610D41B
:1012A0008088C0060CD5BF488188890708D5018889
:1012B000C90505D5022181800188094A0A400280BA
:1012C00080BD012088800888802290430880B6482D
:1012D00000680028F4D000F01FF980BD0002005023
:1012E000FFFE000010B5012420465BF7C9FD002871
:1012F00005D100205BF7C4FD0446401E8441204612
:1013000010BD80B5C1B20C2904D1A02108435F21D2
:10131000884380BD08465FF793FF80BD80B5C1B2AA
:10132000A02904D10C210843F321884380BD08463D
:101330005FF7A2FF80BD0000022806D803490870AD
:10134000C0000349C1400348C1707047B4BAFC07EC
:101350000001010054BAFC07B0B50C460025202D51
:1013600004D041F7CCFA60556D1CF8E70020B0BD01
:1013700010B504460548064970225DF7BDFE0548D4
:10138000001B054908801430488010BD709CFC0784
:101390000838FC07B89CFFFF789CFC0710B507488D
:1013A0000188074A1368114C23405918116040887E
:1013B000516821400818506010BDC04618300040E8
:1013C0008C9CFC0710B507480188074A1368074C36
:1013D0002340591811604088516821400818506016
:1013E00010BDC04638300040989CFC070000FFFF4D
:1013F00007481E214180018803220A430280018898
:1014000004220A4302805448012101707047C046FB
:1014100000160050E07CFC0780B50D480078C0073E
:1014200008D105205BF72CFD00280FD12A200A499E
:10143000085C04E00748417D012907D1007D414255
:101440004141C21E50425041084380BD002080BD32
:10145000FDB9FC0788BDFC0730BDFC07704770472D
:10146000704780B55FF788FD80BDF8B56946C870E4
:10147000020A8A70020C4A70000E087008465FF774
:1014800063FD8FBD80B51B4800210160FFF780FD23
:10149000164800781F214901134A13688B43C00680
:1014A000800DC018106080BD80B511480221017008
:1014B000FFF764FD80BDC04680B50B480168890513
:1014C000C90E0A4A11701F21490102688A4302604D
:1014D0000748012101700748016803220A4302609E
:1014E000FFF756FD80BDC0464C1200407C3BFC0718
:1014F00006100040AC10004080B506480088C007C8
:1015000005D14548202101603220FFF755FD4CF7F9
:10151000EFFC80BD0030005080B5EFF3108101205A
:1015200080F310880A4A1288120603D4094A1388E5
:1015300003431380002902D080F3108802E00021C9
:1015400081F310880449C87000F008F880BDC046D7
:101550000800005008330050E07CFC071048018868
:1015600010220A4302800F490420888008883F2205
:10157000904308800120888100224A800A888023C5
:101580001A430A8008810849084A0A6008490A681B
:101590001A437F239A430A60000406490860704793
:1015A0000400005000010050507CFC071915FC0796
:1015B00010E400E000E100E0B0B5124D28884006DC
:1015C00002D52888800609D40F49086A002400281B
:1015D00015D0CA69521CCA61824210D30A4800243D
:1015E000C461281F2021016008480088FFF7E4FC3F
:1015F0002888C00701D1012401E04CF779FC20467E
:10160000B0BDC04614100050B8BAFC07487CFC07B7
:1016100001482021016070471010005080B54CF740
:10162000AAFCFFF769FF80BDF0B589B00F460B49F2
:1016300040180B2800D949E14000C0467844808812
:10164000400087440D00430127004301510043013E
:101650006400430170003E004301FE00FF5FFFFF96
:101660003878841CEF480C22194623465BF7C2F9F0
:101670000446002505703878607039788D4200D3B3
:1016800021E1A90701D15FF777FC611988706D1C12
:10169000000AF2E7F1480C22142519462B465BF7A5
:1016A000A9F90446EE4908312A465DF725FDED48C3
:1016B0000178217001796170017AA170007BE0707E
:1016C00001E1E94805210C2202235BF793F9044666
:1016D00000206070E5480078421E514251410228C6
:1016E00000D101462170EEE0F2480C220224194696
:1016F00023465BF77FF9044606202070387841B214
:10170000002902D4032800D2CEE03020DAE0E748F6
:101710000C220124194623465BF76CF90446E44881
:1017200000792070CFE0D0480C26022519463246B9
:101730002B465BF75FF90446457038782070022825
:1017400000D2ADE000D1B8E0032800D0BBE0FFF745
:10175000C9FD002800D0B4E0089500200790607013
:1017600020465BF762F9C24D5BF747FE28884006CA
:10177000FAD5FFF721FF0798C143BE480160BE4874
:101780000822069202807878039072B6BB4A1160F4
:10179000BB4AD189C905890FBA4B1980118AC9067C
:1017A000FCD403200790C101D3898B43D381B64970
:1017B0000B897C25AB430B810127D38CDB0407D439
:1017C0000B89089803400D898543EB1843400B8132
:1017D0003B03D58C1D42FCD00B893B430B81AB4BAB
:1017E0001D680420049005431D600597079FFB4377
:1017F000958A1D40039805439582958AB5438600D6
:101800002E439682958A3026B54300012843908264
:10181000D0891840D0819E4B202018803D02059F22
:101820009D818B88BB438B800D8807231D430D80D2
:10183000958A15262E40152E00D1E1E00D239B023E
:10184000DFE097480C220824194623465BF7D2F8BC
:101850000446FF20E0719349062238465DF770FC8C
:10186000002815D03878797809020818B978090461
:101870004018F978090640188B49086038797A7958
:1018800012021018486038464BF7C6FB0020E07182
:101890000622204639465DF72FFCB879A07112E088
:1018A000FFF74AFD00200DE00021617082A1085C75
:1018B0007F49087101F096FD05E0FFF713FD002850
:1018C00007D00120607020465BF7AFF8002009B018
:1018D000F0BD0895FFF742FE0020029060702046A0
:1018E0005BF7A3F8624D5BF788FD28884006FAD5C0
:1018F000FFF762FE60480821059101807878039027
:1019000072B6634820210691018003252902818156
:101910005B48818904231943818181888022914316
:101920008180818840220492114381805949079324
:101930000B800188584A0A4002800299C9434F4AE5
:101940001160018AC906FCD4E901C2898A43C281B7
:1019500001210191CA4302924B4F29463D8915400E
:101960003D814A4D2B68079A13432B60838A00916F
:101970008B43039A13438382838AB34395001D43A9
:101980008582838A3025AB431501019A1D438582E8
:10199000838913438381BB8802990B40BB800F234B
:1019A0009B023D8B9D430723DB02EB183B83930394
:1019B0003D8B1D433D83C58C38480388ED0508D415
:1019C000602213430380388B00990843069D049ED0
:1019D00008E0069D2B43049EB3430380388B089B8D
:1019E000184390433883388B059A10433883388BDB
:1019F000079A90433883B88B3043A843B88328E0D4
:101A0000DB020F25AD020E8BAE439B190B83BB038C
:101A10000D8B1D430D83D38C0A8BDB0504D4079BF0
:101A20001A4308E002A0000040231A430A830A8BED
:101A3000089B1A43BA430A830A8B069B1A430A83FC
:101A40000A8B049B9A430A838A8B40231343834364
:101A50008B8300BF00BF00BF30BF34E704A000008D
:101A60003001FC07003200500BA00000B4BAFC07A4
:101A70001410005080E100E00033005080E200E0EC
:101A800004000050A000FC070803005010ED00E027
:101A90000430005000020050FFF7000052000050D8
:101AA0000DA00000DCF1F1072400004008A00000B8
:101AB000E07CFC0706A000000C09010070B5EFF304
:101AC0001085012484F3108805200607708DC00559
:101AD00009D54048847001F0AFFD0F4908700F48E8
:101AE00000882040487030888021014331800C48B4
:101AF000016807229143016041684907FCD5094903
:101B0000016109494161002D02D084F3108870BD44
:101B1000002080F3108870BD9040FC0780000050CA
:101B20000000F4070F009909090404A470B5174ECA
:101B3000B06800F02DF827490A6A00230B621518D7
:101B4000084C284621465DF75DFA7061064941431D
:101B5000481901D0201A80B2306130680821014351
:101B6000316070BD710200008FFDFFFF80B5064837
:101B70000021016001F028FD0120C00703490A6827
:101B800082430A6080BDC046A8B9FC07300000400F
:101B900080B50246C00B09D00E48006B00210B46F1
:101BA0005DF75AFA8905800A401880BD0948006B24
:101BB0004243900A80BDC04680B5FFF7E9FF80BD73
:101BC00080B50449896A41430348081803495DF711
:101BD00019FA80BDE07CFC0720A1070040420F00FD
:101BE00000B59FB0AA4808250580AA4F38881BACCD
:101BF00020802088C046C046208804211991C9430E
:101C0000084202D00020388003E0B88901218843CF
:101C1000B881B88BA049014007200E90C002081877
:101C2000B8839E4C208828432080E18D0620814384
:101C3000E1850126B103BA8B0A43BA832188984A09
:101C40000A40228061880143A943618005202B4618
:101C50000D9000071A90418D0F2001900202E08D37
:101C60009043C9058F4A90490F951CD40A46032119
:101C700049020843E085501CE18D0143E185B88BA2
:101C80009843B883B88B04218843B8836088874918
:101C900001406180E08D3043E0851A9B199D588D8D
:101CA0004007FCD516E0B1020843E085E08D104006
:101CB000F1034018E085B88B1843B883B88B199DA1
:101CC000A843B883E08DB043E085B88B40218843BA
:101CD000B8831A9B30021490B88B032102910843F9
:101CE000B88320882021084340221592D243104017
:101CF0002080388C1791084310403884D88A80217E
:101D0000069108431040D882188EFF218843188618
:101D1000188F284318210B9188431887188FA0210A
:101D200001431192114019876148058098886149E3
:101D300001409980300460490860FFF7BFFE5F4AA8
:101D400010680E9908401CA908700878022821D054
:101D50001A98408D1499084213D001F06DFC0A289E
:101D600002D80B2001F072FC4C48C08DC007534ACA
:101D70001A9B06D14949C88D3043C885588D400704
:101D8000FCD51068022101430D9881431160506811
:101D90004007FCD54A480068C1B20C20AA29014678
:101DA00000D029461A9B1A88824388181880C0469A
:101DB000C04644480068444909886826434C0022CC
:101DC0000C92A253424A1187506301201890C046DA
:101DD000C0460298000212903E4F381F00683E49EC
:101DE000884200D052E1019804070420002110919C
:101DF0001396169405463918081F3A46EC3290425D
:101E000000D347E100681E901E9B23400920040771
:101E10001E9AA34271D11E9B1C0AE3B21993D2B23F
:101E2000531E162B00D9A6E09B0002A6F358139E62
:101E30009F46C0464D20FC074D20FC07771FFC073E
:101E40004D20FC07771FFC07DD1EFC07AF1FFC07BA
:101E5000771FFC07771FFC07771FFC07771FFC071E
:101E6000771FFC07771FFC07771FFC07771FFC070E
:101E7000771FFC07CF1FFC07F71FFC071F20FC077D
:101E80003720FC07771FFC073D20FC074520FC0797
:101E90000033005004030050FFC300005200005004
:101EA000FFBF0000FF0F0000FFEF0000FFF9000080
:101EB00000020050FFF7000080E200E00000F4079D
:101EC000D07FF807D47FF807D87FF807547CFC0749
:101ED000E07CFC07D47EF807A5A5A5A5B44E139811
:101EE000305CC0003018199A92005DF705F913981C
:101EF000305C00191399705467E0900F189A11D054
:101F00001E98AC4988420DD8284608301A9C2146B4
:101F100028311E9A8A4224D12B46E959A64A51807B
:101F2000169C67E71E98169C20400E990907884268
:101F300003D10020C046C04611E01E982040D107C2
:101F400088420CD01E9820400D994907884206D03F
:101F50001E98204002994907884200D086E0281D3B
:101F600048E7A11C1E9A8A42914B75D1E959662215
:101F70009952169C3EE71E2A68D1199840088C4E4B
:101F8000020622D00A680023DB4310364C68083171
:101F9000052B08D05B1C376808369742F8D1DA0069
:101FA000834B9A185461401E814E844FE8E769269E
:101FB0007F4FB85DC00038181030199A92005DF755
:101FC0009BF8B85D0019B8557C4F139E3EE02A4639
:101FD000E9594843EA59120C801A00B2C008744B00
:101FE0004033D88288B2101A8108754A1140081807
:101FF000401C98822AE02A46E9594843EA59120CC3
:10200000801A00B2C0086A4B4033588388B2101A55
:1020100081086B4A11400818401C188316E0109C78
:10202000A0001CAA1018199EB2005DF765F83419BB
:10203000139E10940AE0E859622105E0E8595C49D2
:10204000086503E0E8596421594A50521998800004
:102050002818001D169CCDE6214624311E9A8A427E
:1020600009D1E959544A9180169CC3E61E98401C38
:1020700028460FD0BEE6214620311E9A8A42169C81
:1020800000D0B7E6E9594C4AD180B3E66620245A1D
:102090004C4A30E0464CA05D4008A0556920215CC8
:1020A00049082154204640301C99818309211D9AFA
:1020B0005143130CC91A09B2C908018491B2591AC3
:1020C0008A083F4B1A405118491CC183808C002854
:1020D00003D11298E830642160526620245A002C03
:1020E000384A08D138490968C9B2AA29069C00D0E3
:1020F0006E242F490C52D4811A9DA88C189EB0438F
:10210000A8840D273846FEF757FF2A4668893043D2
:10211000022110918843688150894006FCD5548083
:102120007D20C0000490FEF747FF1A9A508902995B
:10213000884350810E9D50890006FCD57F201346B0
:10214000204A50702048806920498860EFF310844D
:10215000189880F3108818880699084318801C493D
:102160000868A843086048684007FCD5194808611A
:10217000194848611A9B1888069988431880588D19
:10218000149908420DD00C989070104E307801F0E0
:102190005DFA12497078002803D1C88D189A9043CF
:1021A000C885002C1CD0189880F310881BE0C0460E
:1021B000547CFC074C420050A000FC07D47EF8077A
:1021C000FF3F0000E07CFC07D07FF8079040FC0751
:1021D0000000F4070F009909090404A452000050FC
:1021E000002080F310880D9B0C9CE6480068E649AF
:1021F000884200D0CAE0E548E5495CF796FF29022D
:10220000E4485CF792FFFEF791FCE348E349016084
:10221000E348E449302632465CF76EFFE24800248A
:10222000C471847144710471C470847044703F251A
:102230000570DE48DEA1159A5CF75EFFEC4804707D
:10224000EC48ED490160ED48ED490160ED49EE488B
:102250000860EE480A210170ED4813940470ED48BF
:1022600032210E910170EC4809210160EB4802997E
:102270000160EB480B240460EA480C210160EA4845
:102280000760EA480E210160189F38020090801D07
:10229000E7490860E7490860E748BC49016000F089
:1022A0008DFC1A9A10890396B04310811089069903
:1022B0000843108110890F9908431081108CB8438E
:1022C000108450890B9988435081108915990843CF
:1022D0001081108A0421169188431082908A800709
:1022E000FCD5D08CD549084021020143D184D08C43
:1022F000189C2043D08450890F99084310210D91D8
:1023000088435081508CA04350841089159988438C
:102310001081CB483730A70739680140396068021F
:10232000C84A11688143600308181060C648401C01
:102330001168014311602A46924D286892498842EB
:10234000139E19970C9239D0BB480068BD4988602C
:10235000BE4A90681071010ED171010C9171000A92
:1023600050710098C030BA490A46002818D0401E63
:10237000435C17783C46029E3440B44E3419139E99
:1023800024795C407C401470521CEEE7B148B0499F
:102390005A02944200D92EE722586250241DF7E7D2
:1023A000AA4C1C34AA491C2220465EF739FE20465E
:1023B000189C5EF7C9FD74482860199F9E48006804
:1023C0003FF748FFA44D2E71EE703868009908431E
:1023D0003860FFF70DF8204600F022FDEE709F4FA9
:1023E0003E7026460C249E4920465AF702FD2046A0
:1023F00013995AF730FD01F063F91398E8701398B8
:102400003870FFF7B3FB0520FEF782FD70020B90DA
:102410000C9880020C90F203139E9248924908187F
:10242000924940188008401E0590914C15461A9814
:102430000089000600D4B1E11998006B104200D069
:10244000ACE185480088C00700D0A7E15AF7D5FF66
:102450000027384600F0E4FC8649087A042800D0BA
:1024600093E1189800F0DCFC1C971CA8042421467A
:102470004BF764FB002800D185E118987E4908607D
:1024800008680028FCD11998C0697A4A51698842C5
:1024900001D257613946411A1346CA095979182A97
:1024A00002D8002900D16EE1002906D0714988695F
:1024B000401C886100F064FE65E1704E31880A912D
:1024C00071880991B1880891F188079137800B993B
:1024D00010317180159AB2805C21694B595AB181D3
:1024E00064494861B08910430399C9430840B081E9
:1024F00064480260BFF34F8FBFF36F8F3088104383
:102500003080F08810430840F0803088A04330804D
:10251000B088C0B2B080F08870210140402900D05E
:10252000BCE06220185A0028574900D001464748AD
:1025300041805648401C3188014331801920FEF704
:102540003BFD30880B9A1043308030881599084342
:102550003080708820431446708070884C49084051
:1025600070800198400271880143718070884949E8
:102570000840149980310143718047483D4A189BB7
:10258000A2E0C0469CB8FC0765873412009CFC079B
:10259000D01A000000B9FC0760BAFC078838FC07B5
:1025A00000BAFC077CFCF107DAB9FC07B0BCFC07F9
:1025B0002000800000C000000000840000002822ED
:1025C000000000000000040000F7FFFF7F00000093
:1025D00030F0FF0F000000000004000000000000C9
:1025E00000000000000000000000000000000000EB
:1025F000FDB9FC0750B9FC07603FF20754B9FC076E
:10260000BC39FC0758B9FC07C038FC07B0B9FC0757
:10261000B1B9FC07D9B9FC075CB9FC0760B9FC0784
:1026200064B9FC0768B9FC076CB9FC0770B9FC0712
:1026300048B9FC0744B9FC074CB9FC07FFF000009F
:10264000C8FEFFFF00020040FFFF1F009040FC0794
:10265000287DFC0700B0FC0754BAFC07B4BAFC079D
:10266000F837FC07303A00005001FC07030004F87B
:1026700000330050E07CFC07FC00004000150050D7
:10268000547CFC0780E100E040760000FF0F000072
:10269000FF1F00003FFE0000FCFF00003088D04913
:1026A000084030807088CF49084070807088029957
:1026B00088437080CC4A10464038318801403180D0
:1026C0001046F94A189B0B9C718801407180308834
:1026D000184330801298FF3031890140518171894F
:1026E0000140918130890C990840204330817089E4
:1026F000084020437081308810990843308030882A
:102700008007FCD4F381368AED4949881446528902
:10271000F34803890C9803401343F14A1381A289BB
:10272000EF4C6389034013436381701A049941435A
:10273000002804DCED4A8918C017084001E0EC4885
:102740000818139EEB495CF773FC84091934DB4AC3
:1027500050787F280DD0201A41B2C9114840401A44
:1027600040B2052806DB9069401C906100F008FD2E
:10277000F64A5470DA48099941800899818007998E
:10278000C1800A990180C94CF049C878012805D157
:10279000FEF7B2FE2A46ED48C77048E6FEF73CFE5B
:1027A0002A46002800D142E672B6CB4800790228BA
:1027B000304602D0C4480068806A1C902089C00757
:1027C00000D06DE159F7E5FE2A46002800D167E107
:1027D000C148C078002862D01A9A908AC00700D0F9
:1027E000BFE0BD480088002859D1C348806A00284E
:1027F00003D0B5480068806A1C9000F0E5FEB6483A
:1028000081781CA85AF7BDFC002848D019980069A7
:10281000400644D4B04881781CA84BF78FF90028B3
:102820003DD04DF70DF92A46002800D138E14BF78D
:1028300087FD2A46002800D132E1A74881781CA8EC
:102840005AF79FFC00281ED01998006940061AD438
:10285000A14881781CA84BF771F9002813D00C9877
:10286000FF30A04A918E01401498014391861C9A32
:10287000002A1CD01998006A94494018DA2817D801
:10288000521E1C9214E08F480078C00702D13FF717
:1028900019FF04E000203FF765FF3FF72BFFFEF72D
:1028A000BBFD2A46002800D1FAE030BFF8E0002244
:1028B000834EBE4B188A316908187061199FF86BF6
:1028C0008E4B18400843F863F86B8D490840B16996
:1028D00089020143F963F86B7E4908407169490533
:1028E0000818F8638748824200D3DBE0AF49086CE0
:1028F000496C00235CF7B0FB0903000D4118B06977
:10290000821C8A4200D0481E734909794A1E9141AF
:1029100047F72AF87C48C06A8047139E19996C4F84
:102920002A46086B1042FCD0009938680842FCD057
:1029300038680699884338606089452804D846215C
:102940006181081AFA4908623FF7BFFCB868F84984
:10295000C86138680006FCD51A9A10890699884320
:1029600010815E48007817995E4B19801299998101
:10297000118A169A11431A9A1182ED49CC78002CCB
:102980004B4F4BD1584B19683E461746169A114388
:1029900019603189189B99433181798A012804D1C2
:1029A0000D9881437982139E34E0914379821E46CB
:1029B000FFF784F8788A0D99084378823E48059994
:1029C0000162EFF3108086F310883988069A9143EC
:1029D000398000280AD0334686F3108809E0C046C3
:1029E000FFEF0000FFE100003FFE0000002080F349
:1029F0001088CF4A139E1A9F788D1499084209D0E7
:102A0000002090700B2000F021FE2A49C88D189AF2
:102A10001043C885002038833A46254F508D1499BD
:102A20000842244905D10888159A1043179A904303
:102A30000880388C159A1043179A90433884002CDC
:102A40001A4C1A9A13D1908C189EB04390840D2082
:102A5000FEF7B2FA1A9A5089304310998843508190
:102A600050894006FCD50E9850801249139E908ADA
:102A7000C00601D50F98208030BF908A0888179A29
:102A80001043119B18400880388C1043184038843C
:102A900000F094F8144A10681699884310602A468A
:102AA00062B6C4E4FEE7C046E07CFC070033005099
:102AB00004030050520000500000F407E07CFC07C3
:102AC0009040FC07FDB9FC0758B9FC07C8FEFFFFA2
:102AD00000020040FFFF1F0054BAFC07B4BAFC0715
:102AE000001500500430005010ED00E02BFDFFFFFA
:102AF000D5020000AA05000074BEFC0700FCFFFF21
:102B0000FF03E0FF40420F0058BFFC07F0B569210A
:102B10002548415C1030D64A127900230D4E8B4275
:102B200012D247680A2A3C4606D33D46084C254047
:102B3000214C246864042C430568B54200D1274623
:102B40002F6008305B1CEAE7F0BDC046E07CFC0764
:102B5000FFFF01FC38300040F0B568211248415CAD
:102B6000C34A12790023124D134E8B421AD290C8D9
:102B70000838AC4212D1FC01640C2C460ED00A2A53
:102B80002C460BD3032424023C403F04BF0E3C19C7
:102B90002C60C488074F3C40346000E02760083058
:102BA0005B1CE2E7F0BDC046547CFC07E07CFC0700
:102BB0004C100040FF010000E840FC07F0B585B074
:102BC00005252C07608DC005584F1BD558488078C7
:102BD000012803D100F030FD1B2813D85548408A46
:102BE000C00400D4388CFF201C30534908801B20BF
:102BF00000F02CFD5148018801220A430280608DBB
:102C00004007FCD54E484FA118225CF775FA53A037
:102C100055494CC84CC1FDF782FF544854490160E6
:102C200008200B21032632463FF740FD514B587DCB
:102C30000028019645D1997D0B2942D89879002822
:102C400002D1D87988423CD09878002802D1D8782F
:102C5000884236D0D87A002802D1187B884230D0FA
:102C6000187C002802D1587C88422AD0208802296A
:102C700006D00C221040042800D00A258D4203D132
:102C8000F001628A8243628201263E800025284646
:102C90002A462B46FEF746FA26484680354BD97D14
:102CA0004A1E91419A7D0C2A01D3294603E0CB01AB
:102CB000511C19432F4B5A7D002A019E00D02946F2
:102CC0000180D978987835021E46022302942A4C56
:102CD0002A46A047F179B079002701233A460493A8
:102CE000254CA047029C317BF07A142303952A4699
:102CF000214DA847717C307C13233A46A847208891
:102D00000C210140042904D10198C001618A81434A
:102D100061821A48202101800399818103498889B1
:102D2000049A1043888105B0F0BDC04600030050EE
:102D3000E07CFC07400000509040FC078000005001
:102D400020000840F99DF00700000000E3A1F10712
:102D5000000000004FA4F107000000004D05FC0733
:102D60007B08FC078B09FC07C000FC07000008403B
:102D7000070010001001FC072511FC07043000506B
:102D800003480188034A11408918091D01807047D2
:102D900012000050FC7F0000B0B5044601201E4D1B
:102DA000C0070BD0E88A5EF7A9FA002803D0826832
:102DB00028462146904718350020F1E7B0BDC046AF
:102DC00070B50125144C002814D0E80722D0E08A01
:102DD0005EF794FA002802D0416820468847002513
:102DE000E5816560A560FF20E082207D5AF75BF8F1
:102DF0001834EAE7094EE8070CD000252560656025
:102E0000A560E560256166611020214659F7F1FF54
:102E10001834F0E770BDC046C07CFC071000FF000E
:102E2000B0B5D14D2978012921D11249002803D00C
:102E300008884007FCD402E00888400717D4002324
:102E40002B70C8888988000444181F204006492137
:102E5000224660F705FB2864696464214143080C3D
:102E6000A86205486043800B401C40082863B0BD41
:102E7000E07CFC07001600501111010010B5F34C66
:102E8000082020701120FEF797F80320607010BD15
:102E9000FEB5624803250570614C20461438016870
:102EA00014220A436B218A430260A06A5D49C8600C
:102EB0000020C043A06220683F2188432060206832
:102EC0005949084020606068584908400121019133
:102ED00089020291401860606068402101433020FF
:102EE00081436160A069524908400B21490640189E
:102EF000A061A0694F49084069024018A061A0691B
:102F00001821014327208143A161432020714A48B1
:102F100080474A4880474A488047404805700095A6
:102F200048480668484880474848804720684849DC
:102F30000840F105401820603B4E40362068304084
:102F4000490C4018206041272771606837490840C4
:102F500002994018606038488047384880473848B0
:102F600080472E48057037480568374880473748FE
:102F70008047206836490840E905401820602068ED
:102F80003040490C4018206027716068274908408C
:102F900002994018606028488047284880472848A0
:102FA00080471E4800990170264800682168284A19
:102FB0001140C2058918216021683140254D054026
:102FC000A801081820606068019988436060154E68
:102FD000F068A06220681C21014323208143216006
:102FE0002068114908402060A06911490840072164
:102FF00089064018A061A0690E4908400F21C90147
:103000004018A061A0691E21014321208143A161D4
:103010000D4880470D488047F586FEBD05100040ED
:10302000183000409040FC07FF7FFFFFFFF9FFFFD3
:10303000FFFFFFC03FF0FFFFA914FC07B914FC0716
:103040009B0FFC07883000408514FC07870FFC07A6
:10305000FFFF7F00FF01000070470000F0B58BB05C
:103060003022002181541F221204354B1D689543E4
:1030700001246204AA181A60334B344D4561344D63
:10308000344E354F354AC261066243622D4A826230
:10309000C562334A07604260E004CC4A1368834348
:1030A0001360282903D001A84154491CF9E72D4891
:1030B0000068403001A928225CF71EF8C74D09209E
:1030C0002871FFF7DBFEFFF747FDFFF71FFD00F05C
:1030D00089F900F0DDFA00F06BF8FFF7D9FE6C71AA
:1030E0002248008807210140E971FDF7E9FEFEF75B
:1030F00055F9FEF767F91E490B881E4804681E4AF9
:103100001440E31803601D4B1C88856915402C1979
:1031100084615B88C4691440E318C3614B8A046A04
:103120001440E3180362898A436A134059184162C4
:10313000A84802218170002101800BB0F0BDC0467B
:1031400074000040AD31FC07A931FC079532FC0743
:103150007932FC070D12FC075132FC075332FC0791
:103160005930FC074CB9FC07E07CFC07B810004064
:1031700010300040889CFC070000FFFF64300040D6
:1031800080B5FFF77BFEFFF7C1FC00F02BF900F0E4
:103190007FFAFDF795FEFEF701F98E480221817056
:1031A0000021018080BDC0460020704770470000AC
:1031B0000E4908880E4A024001204302D2180A80B4
:1031C0004105824A13688B431360810700224A67D6
:1031D0001F2212044B6F9343400418184867086875
:1031E000E0220243102082430A60704738300050CA
:1031F000FFFC000080B51F20000401218A07536FE7
:1032000083434804181850671068072188431060EA
:103210000D48018808220A430280FFF72FFEFFF7BE
:103220009BFCFFF773FC00F0DDF800F031FAFFF7CC
:10323000BFFFFEF7C7F867480221817000210180B7
:103240000520FDF765FE80BD080000500410004019
:10325000704780B5E62800D3E620282800D828202B
:10326000F9214A0042437D20C10010465BF7CAFEA7
:103270007F38C0B280BD00000548016807220A43BC
:1032800002600120800451490A6882430A60704745
:1032900030000040012906D0022903D1032804D2BE
:1032A0000C207047FEE7032802D3FF2800D0FEE77A
:1032B000DB4800797047C046F8B544480168C90743
:1032C00003D0016802220A43026001240168490216
:1032D00003D5A10502680A430260270265023C4942
:1032E0000095084608380668002E6ED0300606D5D0
:1032F000802008604AF7CBFAFEF77AF83449B00725
:1033000004D50220086046F7C0F93149300714D5CA
:1033100008200860FDF7C6FB3D46274600242046EE
:1033200046F76CF92A490420BD4A10720220294A46
:10333000907014803C462F46009D3E4204D00F60A2
:10334000012046F75BF922492E4203D00D604AF76F
:1033500007FB1F49700604D54020086046F749F96D
:103360001B49F00604D51020086044F705FD1849F4
:1033700070071BD50420086017490888A0430880FF
:1033800017480078C00702D13FF79CF904E00020FD
:103390003FF7E8F93FF7AEF95AF796F83FF750F9DB
:1033A000FEF726F800209E4908720949F00707D069
:1033B0000C605AF7A5F84AF76AFA0549984804726A
:1033C000B0068ED5202008608BE7F8BD00020040D3
:1033D000180000400410004008330050E07CFC0757
:1033E000FDB9FC07FCB57F200002594A51698143B1
:1033F0000B20000208185061106880B2554940182F
:1034000010609069544C0440012358030090201828
:103410009061032001900002146B04431463908FA9
:10342000102404439487908818439080A1484B4A05
:1034300002604B4A104610384A4DAC8B04401520B0
:103440004301E0185030A8836869474C044047485E
:1034500020186861A869464C0440092040022018E1
:10346000A8612868434C04404348201828606868D5
:10347000424C0440424820186860A868414C04400F
:1034800041482018A860E868404C04404048201893
:10349000E860C1204001624C2479240620183D4C8C
:1034A0002060052080023C4F3880401DB880388C59
:1034B00055260643AA2086433E84FF266C363046B6
:1034C000C9303885354908460E30B88534483886C5
:1034D000B986C01D388733482885A86B324901401A
:1034E00032480818A863324D2E80288F10401F469E
:1034F0002037C01928872F48018811408919D531F4
:10350000018081881140C918818001891140C91941
:1035100001812136AE80284801881140C9186031E8
:103520000180818A19220A4306218A438282A08F60
:103530002249014000980818A08721480168019A93
:1035400011430422914301601E486066FCBDC046E1
:103550002030004000008888FF00FEFF59055C070E
:103560001FFCFFFF042000400000E0FF09581A0084
:10357000FEE1FFFFE0E00000080929490000030325
:10358000696A686C031FFFFF70600000E0E0E0E024
:103590000B0A0A080010004028130040260A000009
:1035A00051080000070F00002F64E0FE101A06010A
:1035B000001200404412004088120040FF9F0000AB
:1035C0008010004050015001F8B5642013490E5A94
:1035D000134FBC6A304660431249401812495BF7EA
:1035E00011FD054638823C3666430E4830180E49B8
:1035F0005BF708FD001D0D4908612818C01D886192
:103600000B4A1278022A01D111308861FEF7C0FA04
:103610000849401880B259F781FFF8BD547CFC0777
:10362000E07CFC0720A1070040420F009040FC070F
:10363000B4BAFC07E20400000E4801888909182288
:103640000A4000888004400F8018704710B51F2181
:10365000490282010A4007490B88074C1C40144369
:103660000C800A88054B13404007800C181808800E
:1036700010BDC04654000050FFF90000FFC7000015
:1036800002480188012291430180704704110050D3
:1036900018B50848016800910099074A009B1A4034
:1036A000FF2424040C40D9B20919044BC918114352
:1036B000016018BD8000004000FF00FF0A000A0002
:1036C0003F2001020A4802688A431F21090251185B
:1036D00001600121C90302680A430260072109054C
:1036E00042680A4342600348034901807047C0466C
:1036F0000C020040103000501203000002E008C825
:10370000121F08C1002AFAD170477047002001E05B
:1037100001C1121F002AFBD170470000034880F34B
:10372000098800F025F8FCF713FDC046EC47FC07BC
:1037300004207146084203D0EFF309800A49084784
:10374000EFF3088008490847704704207146084293
:1037500003D0EFF3098005490847EFF308800349D8
:1037600008477047FEE70000DD11FC078911FC07E0
:103770001C498888072290438880052000078A8991
:10378000D20710D0098800290DD117494A8802852F
:103790008A888284CA880284428A144B134009882A
:1037A000C90119434182124906220A800121CA0334
:1037B000104B1A60BFF34F8FBFF36F8F02221A6056
:1037C000BFF34F8FBFF36F8F1960BFF34F8FBFF3FE
:1037D0006F8F41890422914341810021018062B6AB
:1037E0007047C04604030050A000FC077FFE0000A5
:1037F0000034005080E100E0000000007838FC0751
:10380000D87CFC07020001000800049000000000C2
:1038100000000000030005D08B0035F010005CF0C4
:10382000000010B0000018B000001AB0030051F002
:10383000000038B000003AB0000064B0000066B08C
:10384000000022B0000024B0010005D000000000FC
:103850000A00008008030490000004F0030006D072
:10386000000000000A00008008030490000004F03B
:10387000030006D0000000008038FC0701000000B3
:10388000FFFF00002916FC0701000001F509FC07F5
:1038900001000002E50AFC07000000000000000033
:1038A000F4011100F4352348F40108C4140A00009F
:1038B00014000000ED14F207FF00000000000000FB
:1038C00005000000EC47FC07000800003481FC07FD
:1038D00004080000287DFC07000400004489FC0760
:1038E000900B00002003000000A60E000500000061
:1038F000D2000000320000003C0000000100000087
:1039000001000000020000000200000004000000AE
:10391000030000000600000000000000020000009C
:103920000200000000000000000000000300000092
:103930000300000005000000050000000600000074
:103940000A0000000A000000C8000000B80B0000D8
:1039500002000000B80B0000B80B000010000000CF
:10396000D4010000CC010000700200006A000000D9
:103970000400000003000000200000000A00000016
:1039800001000000E20400008A020000DC050000E3
:10399000AF000000383BFC07AC39FC07000000001A
:1039A000403BFC070000000000000000A8B8FC0736
:1039B000A0B8FC07B8B8FC07F8B8FC075D30FC07F6
:1039C000F531FC079D11FC071116FC07B915FC0722
:1039D00049DFF00761DFF0071D16FC0799DFF007EC
:1039E00019E3F007BDE5F007FDE3F0071DE4F0077C
:1039F0003DE4F0077BE4F0078BE4F007F5F9F0070E
:103A0000B1F7F007CFF7F007EBF7F00705F8F0078D
:103A100019F8F00797F8F007AFF8F007DFCDF107D6
:103A200067D0F107DBB9F007CD0DF207B10EF20751
:103A3000AD0EF207A90EF2078D21F007812DFC07CC
:103A40002D1BFC076D1BFC07C11BFC07B91BFC07EA
:103A5000B57EF007837DF0076501FC07599EF107ED
:103A6000634CF107C12DFC07D110F207992DFC071B
:103A7000B111F2070313FC071D13FC07000000003F
:103A80005F14FC076114FC07B9C6F007D592F10773
:103A9000F301FC075F9DF1075F9CF1070505FC073B
:103AA000EB72F107B922F1076B04F1075D14FC0713
:103AB0002BA4F007F1D2F0075FBDF007D5BDF007EA
:103AC00085BEF007DB2DF007752EF0071581F00796
:103AD000DF7FF0070937F007000000006314FC07E0
:103AE0006B14FC075913FC07F3C3F10775C4F10706
:103AF00003C5F1077113FC0700000000000000007F
:103B000000000000000000000000000000000000B5
:103B100000000000000000000000000000000000A5
:103B20000000000000000000000000000000000095
:103B30000000000000000000A038FC07147DFC0716
:103B4000B038FC07C07CFC0701000000803BFC078C
:103B5000803BFC076C0500000C37FC07803BFC0732
:103B6000EC40FC07000700000C37FC07487CFC0712
:103B7000487CFC07E00000000C37FC070E0000004A
:0400000507FC0151A2
:00000001FF
