:0200000407FCF7
:10000000D447FC070537FC071937FC073337FC07D3
:100010004D37FC074D37FC074D37FC074D37FC07C4
:100020000000000000000000000000004D37FC0749
:1000300000000000000000004D37FC074D37FC07B2
:100040004510FC07A532FC07A526F0070912FC079E
:100050008511FC074D37FC070910FC074D37FC07DD
:100060001510FC074D37FC07ED10FC07F710FC07D7
:100070000111FC070B11FC071511FC074D37FC079C
:100080004D12FC074D37FC074D37FC074D37FC0779
:100090004D37FC074D37FC074D37FC074D37FC0744
:0800A000000000008E070E00B5
:0200000407FCF7
:1001100054580000525800015254530003435453A2
:100120000004504F520002010000000000000000D7
:0200000407FCF7
:100130004669726D776172650000000032363332B5
:0C01400006001800B805000300000000D5
:0200000407FCF7
:100150000348854600F040FF00480047091CFC07A3
:10016000D447FC07F8B5074601200023024600905B
:100170001946032049F746F90446022180300170F0
:10018000FF4DFE482A6843881146FF31F7310B8640
:1001900080884886FB48066A0123DB069E431E438F
:1001A0000662FF320020FF32383250829082D082C5
:1001B0001D200882F4484884F448C882F448088323
:1001C00000204882384649F75DFC01462868FF3028
:1001D000F730C28B920992010A43C283ED4841680D
:1001E00000208847002C02D0204648F7F4FC204627
:1001F000F8BDFFB58BB0064616980027022821D01F
:100200000D9801881498814278D371880846403847
:100210003F2802D8159855F7F1FC0C98361D008838
:10022000149A80190E995EF767FF0C98018814984C
:1002300008180C9908800D9801881498081A0D99CF
:1002400008805CE100200E9D079069782C780902F7
:1002500021433180E978AC780902214371808C46D2
:10026000403904242D1D024603468E46402900D302
:100270002878614604291FD0052914D0062918D0F2
:1002800070463F283DD8159855F7B8FC0006000E7B
:1002900004D0C148008D0006C00F30D002230120D9
:1002A000BE4A002712E0697800290FD0BC4A172304
:1002B0000CE0BC4A0F2309E0522802D0D22802D019
:1002C00002E0142000E01520B74A1F23002A1AD0AC
:1002D000984218D2800010580490002813D00020B3
:1002E0000890059070884038402803D3287805246A
:1002F00030716D1C701D00900498B5E0FEE0302751
:10030000F0E03327EEE07088042872D10627E9E098
:10031000522862D00CDC4B283FD004DC41286AD044
:10032000422858D111E04C2820D0502853D140E029
:10033000632830D004DC572818D061284BD19BE0CB
:100340006C2864D0772846D109E00098297801709C
:100350000098641C401CA4B26D1C009081E00498BD
:10036000401C04900178089881427AD10098A41C1E
:10037000401C41084900881C009068782A780002D7
:10038000104308800599AD1CA4B2002969D00890DB
:100390000020059065E00120FBE710222946009827
:1003A0005EF7AAFE009810341030A4B21035009009
:1003B00057E0204640301499039088420BD84022E1
:1003C000294600985EF798FE009840300090039808
:1003D000403584B245E0342743E00822294600989E
:1003E0005EF78AFE009808340830A4B20835009001
:1003F00037E068E0FFE70622294600985EF77CFEBA
:100400000098A41D801DA4B2AD1D009029E0149891
:10041000001B80B203903088001B001D81B20120B8
:1004200007900498401C04900098401C400840002D
:1004300000900498007857281CD04228CBD100980F
:100440000170090A417000982946801C0090039AA7
:100450005EF752FE03980399201884B20098401862
:1004600000900498401C0490007800281ED0002FB3
:1004700017D01BE04908E2E71498001B81B20098EE
:100480000391401C40084000009001200A4607905C
:10049000294600985EF730FE0399601884B20098F0
:1004A000DDE70D990988A14200D331E70D98008856
:1004B000A04208D304990978002904D1079900299A
:1004C00003D1A04201D034270CE00D99001B088015
:1004D0000C9801880098801B001F08180C99002FA9
:1004E00008800CD07088042809D0062807D040382E
:1004F000402804D30E984079707100E034273846C4
:100500000FB0F0BDFFB581B01F4616460C46104631
:100510005CF7B6FC00257F2802D02189062909D086
:100520003B4632462146019855F7FBFE05462846D4
:1005300005B0F0BDC00601D50225F8E720780028F7
:10054000F5D1300AA11D42F784F8F0E7F1B598B073
:10055000189842F77CFA0446189805210079134A46
:100560004006C00F099068460184618B08460A382E
:10057000904276D2E08A062873D319E030BCFC079B
:100580004CB9FC07C0000040108000002941000069
:100590007671000058BFFC0748BEFC073803F2071D
:1005A0004003F2079C03F207D803F207770C000020
:1005B0001922D201904254D8228BFF23F5339A425C
:1005C0004FD8521C9300D2184243521C0A23521097
:1005D00059438A4245DC217F00290CD1617F0029E3
:1005E00009D1A17F002906D1E17F002903D1202173
:1005F000095DC90635D0274620377978C906C90E66
:10060000491F0C292DD2A18A81422AD8E17C0029D8
:1006100027D0421E082A01D9082000E0401E81424E
:100620001FD8684646F7D4FA00281AD1FE4D062294
:10063000286221460AA85EF75FFDA8792E46803E13
:1006400000287DD06079800901280BD00AA809997B
:100650004CF78DFD010003D03820405C002870D09D
:100660009BE008E1F06A807A012808D0042806D0CF
:100670000AA84CF7E9FD286200284ED054E0686AC9
:1006800006220AA932305EF75BFD002806D00AA8D0
:100690004CF7DAFD2862002802D012E0686AF9E718
:1006A00000210AA84CF7E6FD2862F16A897A01293F
:1006B00005D18B071A6849068A430A431A60002845
:1006C00011D0F16A286A0622253010315EF738FD14
:1006D000002808D1286AF16A2030C07AC97B884294
:1006E00001D1286A1EE0D148D1490088C96880B28A
:1006F00006225043081842F7AFF9014614A8062213
:1007000002305EF7F9FC13AA00213C2042F771FC8D
:100710000121B06D47F798FEA9E011A90AA84CF78E
:10072000A9FD2862002838D00146253106220FA8ED
:100730005EF7E2FC286A08AA2030C17A0FA801E01F
:1007400041E024E04CF7F6FB002812D0286A203064
:10075000C07A002809D16846B649008C4BF75DFB8A
:1007600008AA0121B3484CF7E5FB68460AA9008CAA
:100770000AE008AA012111A84CF7DCFB00280CD0E4
:10078000296A6846008C32314BF75DFB05E00A1898
:10079000527D002A08D010286DDBF06A407A0228CA
:1007A00006D0032804D00EE0401C1028EFDBF4E74D
:1007B0006846008C052806D308AA0AA809994CF7B0
:1007C000B9FB002857D00022694620464CF75BFC55
:1007D000002850D1F06A407A02280BD0032809D0B3
:1007E0000023684602880AA809994CF76DFC002886
:1007F00002D02FE00123F4E7E18A68460181218BD2
:100800004181618B81817878062241096846817532
:100810007878C106C90E6846417521460E305EF7EC
:100820006BFC189800794006C10F68460175038873
:10083000214602A8B26D47F7ADF90146B06502A89E
:1008400042F725FC0020B065214668461C3100882F
:1008500046F711FA49F790FA734C2034207A0028B1
:1008600005D0002109205CF74EFC002020720021F9
:1008700008465CF7F0FA19B0F0BDF8B56E4C0646C4
:1008800085000F4660594C21095C24290ED140692E
:100890001022791D2E305EF72FFC61592520403142
:1008A000087300221146304654F7FBFA60594C2178
:1008B000095C0C291FD140691022791D2E305EF78A
:1008C0001BFC60595F214069095C09072DD4014672
:1008D0002E3110221E305EF733FC00280CD06059F8
:1008E000092140300173304654F7F8FF01460022D9
:1008F000304653F755FEF8BD0421684601706A463C
:100900000521304653F7F6FF684601786020014321
:1009100068460170304654F7E1FF014668460278A8
:100920000123304653F751FFF8BD304654F7D6FF48
:10093000012809D060590721403001730022114677
:10094000304654F7AEFAF8BD615900204969C0310C
:10095000887160590421426930461E3253F7CAFF3C
:10096000605941694031897F002907D01A21403000
:1009700001730021304654F71EFBF8BD1B214030A7
:100980000173304654F76CFBF8BDF8B52A4C0546A8
:100990008600A0594C22125C192A11D140224D30F8
:1009A000491D5EF7A9FBA059402224494D305EF74E
:1009B000C7FB002805D02149284620395BF72BFDCD
:1009C000F8BD0B21684601706A460521284653F799
:1009D00091FF68460178602001436846017028460F
:1009E00054F77CFF0146684602780123284653F7F6
:1009F000ECFEF8BDFFB581B003980C46060A002551
:100A00005CF73EFA002827D0132825D0142823D0DD
:100A10000B48B700C0592030407BC00637D503983B
:100A20005CF72EFA15280DE030BCFC0768B9FC070E
:100A300060BBFC0750F5F1073CBEFC07FCBDFC07A2
:100A400078BBFC070CD0A07941F7F4FF304647F79C
:100A50008FF8032806D015E0A07941F7EBFF1FE0DF
:100A600002251DE03248C0592030407B400704D5A4
:100A70003D21304642F7DCFC04E03D2200213046B7
:100A800042F7E5FC3D21304646F7BAF808E020463B
:100A9000103828490181468120464EF7A3FD0125E3
:100AA000284645E524485222006864308188C37E88
:100AB0005143224A12688918FF225F32525AFF318D
:100AC000120AD21A01310B8CD2B2DB0B09D00B8C7B
:100AD0005B045B0C0B84002A03D18088184A012137
:100AE00011547047FFB51746140A81B0104A029896
:100AF000A100515840780026114D002907D0295DEA
:100B0000002905D0002803D1204643F7F5FE2E55D5
:100B10003A46049B0299019844F77FFE08E50A488B
:100B200008490160094941607047704770470000FB
:100B300078BBFC070608000084BBFC074CB9FC0727
:100B4000C28BFC070459F007C0000840490C00BFE5
:100B50007FB5E4486B460188428889186A4611804F
:100B600001214C0022181546403DED8F065B52884E
:100B7000AD19AA18491CC9B21A530729F1D38189A2
:100B8000C089081881B2D981D888002821D0188955
:100B9000002820D0988800281FD0588900281ED00F
:100BA000988900281DD0588800281CD000291CD006
:100BB000188800280BD00720062254001C5B8C42AA
:100BC00001D22146D0B2521E52B2002AF5DA04B048
:100BD00070BD0320FBE70420F9E70220F7E70520BA
:100BE000F5E70620F3E70120F1E70720EFE7F0B58E
:100BF00095B0EFF310801090012080F31088BA4870
:100C0000816B4A07520F69460A800A92816B012262
:100C1000C908C9008163B5498B8869464B800224A5
:100C2000B24B00219980C16A09078B0F69468B80FE
:100C30000F93C16A0C2399430831C162052109074A
:100C400009880906CB0F6946CB800521090709935E
:100C500009888023194305231B071980A449898A21
:100C60004906CB0F69460B81A1490893898A402325
:100C700019439F4B9982016A09074B0F69464B81C3
:100C80000C93036A0E218B4303629B4D9948686065
:100C9000FF204030A8602888A043288097484168FA
:100CA0000B071B0F69468B810B93416809090901EA
:100CB00008314160416849064B0F6946CB810D936D
:100CC000416870239943603141608748403801682A
:100CD0008904CB0F69460B820293036841140B43CE
:100CE00003600168CB07DB0F69464B820E930168F6
:100CF0001143016041688903CA0D69468A820392E3
:100D00004168CA05D20D6946CA8204928168890386
:100D1000CA0D69460A8301928168CA05D20D6946E7
:100D20004A8305924168764A11400322D20389180A
:100D300041604168490A4902FF314131416081689F
:100D40006F4A11400322D203891881608168490AE1
:100D50004902FF3141318160642000F02DF9A889FA
:100D600069468007C00F8883A8892043A881002492
:100D7000604F288800260121084328800A2000F0BF
:100D80001BF9FF205F4941303A680A4200D0761CC7
:100D9000401E3F1D0004000CF6D1A88A8004FCD13F
:100DA0005149886B671CC208D2007807400F024384
:100DB0008A630A2000F000F960004A49FCB20E5232
:100DC000082CD5D348480A99826BD208D2000A432E
:100DD00082636946454A498891800F998A00C16AB1
:100DE0000C2399431143C1620999CA0105210907DE
:100DF000098880239943114305221207118008991D
:100E00008A013B49898A402399431143384A918298
:100E10000C994A00016A0E23994311430162374835
:100E20000B994268120912010A4342600D99426807
:100E3000090170239A430A434260029841032A48F9
:100E40004038006801225203904308432649403944
:100E500008600E9809684908490001432248403853
:100E60000160039842022048403840682449084005
:100E700010431D4A403A506004985268520A520288
:100E800002431948403842600198174A4002403AEC
:100E900092680A400243144840388260124905981B
:100EA00040398968490A490201430F484038816046
:100EB0001098002800D0012080F3108815B0F0BDF4
:100EC00010B5114C2078002808D0FFF790FEFFF7EE
:100ED0003FFE0E4908700020207010BD01F0CEFFCB
:100EE0000120F9E76840FC07801000400012004034
:100EF00020300050683BFC07003500504020004087
:100F0000FF01FCFFC0C0C0C0588CFC07598CFC0717
:100F100010B5FF22154901320A60BFF34F8FBFF3AE
:100F20006F8F13490A6013490B6840241B0A1B0288
:100F300023430B601049898A0021C30700D0352163
:100F4000830702D57D231B021943430702D575236E
:100F50001B041943000702D53D2000060143064843
:100F60002038016301488038026010BD80E100E054
:100F700080E200E008E400E0A010004010B5062088
:100F800000F01AF810BD10B5092000F015F810BDDA
:100F900010B5812000F010F810BD10B5044800F025
:100FA0000BF810BD10B5034800F006F810BD0000A6
:100FB000010200000108000000280CD000BF00BFA3
:100FC00000BF00BF00BF00BF00BF00BF00BF00BF29
:100FD00000BF401EF0D170471CB509480090094879
:100FE000019005460126009C05E0E36807CC3343E9
:100FF0000C3C98471034AC42F7D3FFF7ADF8000033
:10100000343BFC07643BFC07014801210180704729
:101010000E1500500A48011F0988CA0706D0028829
:1010200007239A43AC4B5B7A13430380490706D5E9
:10103000018807229143F74A927A0A430280704757
:10104000B8100040B0B5264B0820188005200007D6
:101050000188302211430180048803210C4304805D
:101060001C896407FCD403889343038003888B4363
:101070000380E84C238A4380638A9D1EE44B5D8095
:1010800007251D8005881543058005880D430580CB
:101090001D886D07FCD403889343038002888A432C
:1010A00002804289920702D042898A4342810189A3
:1010B00080220A430281018A042291430182818AAB
:1010C0008907FCD541F72DF9206A0649086002F02E
:1010D000EBFA0548016801684907FCD5B0BDC04678
:1010E00000330050080200401000004080B50A2084
:1010F00000F024F880BD80B50B2000F01FF880BD03
:1011000080B50C2000F01AF880BD80B50D2000F0ED
:1011100015F880BD80B50E2000F010F880BD0000ED
:10112000B0B501248C404001034D44531A4340198B
:10113000490008184280B0BD04300050F0B50346A5
:101140000A3B01210A469A4093B20B4D5C19661C7A
:101150005E400A4B1C8800272E4203D07F1C760875
:10116000B6B2F9E79443BAB20D46954025431D80C7
:10117000814022480160F0BDFEFF01000E140050C6
:10118000FEE70000024800881C48102101607047FB
:101190002C13005080B54CF77CFE0B4882898021CF
:1011A0000A438281027903781202D218142353432E
:1011B000064A12881207D20ED218921C044B1A80CB
:1011C00082898A43828180BD00100050C010005087
:1011D000C08BFC07E248018904220A43028101888E
:1011E00040220A430280054901220A604189044ADB
:1011F00011408918091D41817047C04680E200E016
:10120000FC7F00007047000010B50F4CA1880F2034
:101210000840022809D0042804D00C280CD001284A
:10122000F4D110E002F020FAF0E720880221884390
:1012300020802088802103E002F016FA2088012116
:1012400088432080E2E710BD0411005080B50521DD
:101250000807028830239A430280028803239A43B6
:101260000280828812050DD51A4A13880B40052B7F
:1012700008D110880421014311801088012188437E
:10128000108080BD8188C90606D5CC498A88D207DE
:1012900002D00A88120610D48088C0060CD5C74830
:1012A0008188890708D50188C90505D50221818073
:1012B00001880A4A0A40028080BD0120888008888F
:1012C000802290430880BB48C0690028F4D000F019
:1012D0002BF980BD00020050508CFC07FFFE00007F
:1012E00010B5012420465BF7CBFD002805D1002076
:1012F0005BF7C6FD0446401E8441204610BD80B504
:10130000C1B20C2904D1A02108435F21884380BDCC
:1013100008465FF795FF80BD80B5C1B2A02904D112
:101320000C210843F321884380BD08465FF7A4FFE2
:1013300080BD0000022807D804490870C006000ECE
:101340000349C1400348C1707047C046B4BAFC07A6
:101350000001010054BAFC07B0B50C460025202D51
:1013600004D041F7CCFA60556D1CF8E70020B0BD01
:1013700010B504460548064970225DF7BDFE0548D4
:10138000001B054908801430488010BD70A0FC0780
:10139000F037FC07B8A0FFFF78A0FC0710B507489E
:1013A0000188074A1368114C23405918116040887E
:1013B000516821400818506010BDC04618300040E8
:1013C0008CA0FC0710B507480188074A1368074C32
:1013D0002340591811604088516821400818506016
:1013E00010BDC0463830004098A0FC070000FFFF49
:1013F00007481E214180018803220A430280018898
:1014000004220A4302806B48012101707047C046E4
:1014100000160050508CFC0780B50D480078C007BE
:1014200008D105205BF72CFD00280FD12A200A499E
:10143000085C04E00748417D012907D1007D414255
:101440004141C21E50425041084380BD002080BD32
:10145000FDB9FC0788BDFC0730BDFC07704770472D
:101460007047704780B55FF787FD80BDF8B5694666
:10147000C870020A8A70020C4A70000E0870084692
:101480005FF762FD8FBD000080B51B480021016041
:10149000FFF77EFD164800781F214901134A1368A3
:1014A0008B43C006800DC018106080BD80B5114808
:1014B00002210170FFF762FD80BDC04680B50B4878
:1014C00001688905C90E0A4A11701F214901026885
:1014D0008A4302600748012101700748016803221E
:1014E0000A430260FFF754FD80BDC0464C12004025
:1014F000643BFC0706100040AC10004080B52D484E
:1015000041794901074A895A8079C140C80705D104
:101510004648202101603220FFF74EFD4CF7E8FCE1
:1015200080BDC0460030005080B5EFF3108101202F
:1015300080F310880A4A1288120603D4094A1388D5
:1015400003431380002902D080F3108802E00021B9
:1015500081F310881749C87000F006F880BDC046B6
:101560000800005008330050B0B512480379124902
:101570000A88102414430C80104A04219180118899
:101580003F24A143118001210C469C4094810023FB
:101590005380138880252B4313801481084AC2612D
:1015A000084802682A437F239A43026008040649D8
:1015B0000860B0BD508CFC070400005000010050D2
:1015C0002915FC0710E400E000E100E0B0B5124D81
:1015D0002888400602D52888800609D40F49086A61
:1015E0000024002815D0CA69521CCA61824210D357
:1015F0000A480024C461281F20210160084800888F
:10160000FFF7DAFC2888C00701D1012401E04CF77C
:101610006FFC2046B0BDC04614100050B8BAFC079D
:10162000C08BFC070148202101607047101000505A
:1016300080B54CF7A0FCFFF761FF80BDF0B589B025
:101640000F460B4940180B2800D953E14000C04613
:1016500078448088400087440D004D013A004D01D8
:1016600080004D0193004D019F0027004D01510066
:10167000FF5FFFFF3878841CF4480C22194623468C
:101680005BF7B8F9044600250570397841708D4242
:1016900000D32CE1A90701D15FF76EFC61198870B6
:1016A0006D1C000A3978F2E7F94805210C22022363
:1016B0005BF7A0F9044600206070F6480078421EEF
:1016C00051425141022800D1014621700FE1E0480A
:1016D0000C22142519462B465BF78CF90446DD498C
:1016E00008312A465DF708FDDB4801782170017951
:1016F0006170017AA170007BE070F8E0F3480C2281
:101700000824194623465BF775F90446FF20E0716B
:10171000EF49062238465DF713FD002815D03878CA
:10172000797809020818B97809044018F978090687
:101730004018E849086038797A7912021018486030
:1017400038464BF769FC0020E071062220463946F6
:101750005DF7D2FCB879A071C9E0E0480C22022400
:10176000194623465BF746F9044606202070387870
:1017700041B2002902D4032800D2A9E03020B5E00C
:10178000D5480C220124194623465BF733F9044659
:10179000C448C0792070AAE0BD480C26022519462D
:1017A00032462B465BF726F90446457038782070A0
:1017B000022800D288E000D193E0032800D096E010
:1017C000FFF78EFD002800D08FE0089600200790DC
:1017D000607020465BF729F9AF4E5BF70EFE30884C
:1017E0004006FAD5FFF7F2FE0798C143AB48016007
:1017F000AB4808220692028078780390A94A1679AD
:1018000072B6A94A1160A94BD989C905890FA84A9E
:10181000118001221746B740198AC906FCD403205B
:101820000790C101DE898E43DE81A2490E897C20AA
:101830008643F8B24008800030430881D88CC00449
:1018400006D4088928400E89AE43301868400881C4
:101850001603D88C3042FCD0088910430881964882
:101860000668042704973E4306600592079AD7430B
:10187000988A3840039908439882988A089EB04312
:101880008E0006439E82988A3026B0430E01894915
:1018900006439E82D8893840D881884E20200890FF
:1018A00030801702059AB7818E8896438E800F8804
:1018B000072637430F809F8A15203840152800D10E
:1018C0009CE00D2086029AE0FFF734FD00200DE039
:1018D0000021617082A1085C7249C87101F078FD35
:1018E00005E0FFF7FDFC002807D0012060702046CE
:1018F0005BF79BF8002009B0F0BD0896FFF734FEB7
:1019000000200290607020465BF78FF8624E5BF714
:1019100074FD30884006FAD5FFF758FE604808216C
:10192000059101807878039072B664482021069171
:1019300001800326310281815C4881890423194397
:101940008181818880229143818081884022049214
:10195000114381805A4907930B800188594A0A40F4
:1019600002800299C943504A1160018AC906FCD419
:10197000F101C2898A43C28101210191CA430292C5
:101980004C4F31463E8916403E814B4E3368079A94
:1019900013433360838A00918B43039A13438382FA
:1019A000838A089EB34396001E438682838A30262C
:1019B000B3431601019A1E438682838913438381B0
:1019C000BB8802990B40BB800F239B023E8B9E433A
:1019D0000723DB02F3183B8393033E8B1E433E83B6
:1019E000C68C39480388F6051AD460221343038055
:1019F000388B00990843069E049919E0F6020F20DF
:101A000080020F8B8743F019088390030E8B0643E7
:101A10000E83D88C0B8BC00520D40798034323E09A
:101A2000069E334304998B430380388B28439043AD
:101A30003883388B059A10433883388B079A904344
:101A40003883B88B0843B043B8831CE002A0000081
:101A500004A000003001FC07003200504020034386
:101A60000B830B8B2B4393430B83088B069A1043FA
:101A70000883088B049A90430883888B4022024392
:101A8000089882438A8300BF00BF00BF30BF2EE7A3
:101A90000BA00000B4BAFC071410005080E100E075
:101AA00000330050508CFC0780E200E0040000503E
:101AB000A000FC070803005010ED00E004300050C7
:101AC00000020050FFF70000520000500DA000007F
:101AD000DCF1F1072400004008A0000006A000008F
:101AE0000C09010070B5EFF31085012484F3108810
:101AF00005200607708DC00509D54048847001F0A7
:101B000091FD0F4908700F480088204048703088C8
:101B10008021014331800C48016807229143016014
:101B200041684907FCD50949016109494161002D16
:101B300002D084F3108870BD002080F3108870BD3F
:101B40007840FC07800000500000F4070F0099095E
:101B5000090404A470B5174EB06800F02DF82749A9
:101B60004A6A00234B621518084C284621465DF747
:101B700049FA706106494143481901D0201A80B2E0
:101B80003061306808210143316070BD710200008E
:101B90008FFDFFFF80B506480021016001F00AFDBE
:101BA0000120C00703490A6882430A6080BDC0461D
:101BB000A8B9FC073000004080B50246C00B09D030
:101BC0000E48006B00210B465DF746FA8905800A36
:101BD000401880BD0948006B4243900A80BDC04652
:101BE00080B5FFF7E9FF80BD80B50449896A4143AC
:101BF0000348081803495DF705FA80BD508CFC07BF
:101C000020A1070040420F0000B59FB0A44808255E
:101C10000580A44F38881BAC20802088C046C04671
:101C200020880422D14308421A9202D00020388032
:101C300003E0B88901218843B881B88B9A490140F3
:101C400007201590C0020818B883984C20882843B4
:101C50002080E08D06229043E0850126B003B98BF9
:101C60000143B983208892490140218060880D9208
:101C70001043A843608005202B460F900507698D0F
:101C80000F2001900202E08D9043C90589498A4ADC
:101C900009931AD4032149020843E085501CE18DC1
:101CA0000143E185B88B9843B883B88B04218843FE
:101CB000B8836088814901406180E08D3043E085D0
:101CC0001A9B688D4007FCD516E00A46B10208430E
:101CD000E085E08D1040F1034018E085B88B184393
:101CE000B883B88B1A9B9843B883E08DB043E085E6
:101CF000B88B40218843B88330021390B88B0321FE
:101D000002910843B883208820210843402214927E
:101D1000D24310402080388C1691084310403884FC
:101D2000E88A8021049108431040E882288EFF2130
:101D300088432886288F184318210C9188432887C8
:101D4000288FA02101431192114029875C4803800C
:101D5000A8885C490140A980374630045A49086088
:101D6000FFF7C0FE594C2068159908401CA908705F
:101D7000087802281ED0688D1399084211D001F00E
:101D800051FC0A2802D80B2001F056FC4748C08DB0
:101D9000C00706D14549C88D3843C885688D4007BE
:101DA000FCD52068022101430F98814321606068BF
:101DB0004007FCD546480068C1B20C20AA2901465C
:101DC00000D01A992A88824388182880C046C046C5
:101DD00040480068404909886823404E00220E921E
:101DE0001093F2523E4A9187906301201790C046AB
:101DF000C0460298000212903A4F381F00683A49D4
:101E0000884200D042E101980407042000210B9190
:101E1000179E189403463918081F3A46EC32904230
:101E200000D336E11A9300681E901E9B23400920C0
:101E300004071E9AA34259D11E9B1F0AFBB2199395
:101E4000D2B2531E162B00D9E4E05B007B449B8882
:101E50005B009F44F900F900DF00F900DF00160085
:101E6000AA00DF00DF00DF00DF00DF00DF00DF00AF
:101E7000DF00DF00B9008F00CE008A00DF00D9004C
:101E8000A300164A109C105DC0001018199A920009
:101E90005DF732F91149085DC0190855D4E0C04614
:101EA0000033005004030050FFC3000052000050F4
:101EB000FFBF0000FF0F0000FFEF0000FFF9000070
:101EC00000020050FFF7000080E200E00000F4078D
:101ED000D07FF807D47FF807D87FF807C88BFC07B6
:101EE000508CFC07D47EF807A5A5A5A5900F10D0AF
:101EF0001E98AD4988420CD81A9B184608302946CE
:101F000028311E9A8A42189C25D1D959A74A518056
:101F100080E71E98189C204015990907884205D132
:101F20000020C046C0461A98001D73E71E98204046
:101F3000F10788421A9A0CD01E9820400F99490741
:101F4000884206D01E98204002994907884200D056
:101F50008CE0101D5EE7A91C1E9A8A42944B7BD12F
:101F60001A99C9596622995254E792481A99085801
:101F7000622117E08F4A1A9B995848439A58120CCD
:101F8000801A00B2C0085A23894CE052501A8108C6
:101F9000894A11400818401C582128E085481A99A0
:101FA00008586421824A50524EE06924804E305DC8
:101FB000C00030181030199A92005DF79DF8305D1E
:101FC000C0193055179E3FE07A4A1A9B99584843EA
:101FD0009A58120C801A00B2C0085623744CE05272
:101FE000501A8108744A11400818401C542160524C
:101FF0002AE00B9CA0001CAA1018199FBA005DF7DC
:102000007BF83C190B941FE06A481A9908586849F4
:10201000086519E01E2A17D119984008020613D046
:102020000B684A680831002427460837382F09D042
:102030005F4E3419179E24699C423C46F5D15C4B97
:10204000DB19DA60401EE9E7199880001A99081830
:10205000001D584F189CDDE6294624311E9A8A42FD
:1020600009D11A99C959514A9180D3E61E98401C4A
:1020700010460ED0CEE6294620311E9A8A421A9981
:1020800000D0C7E6C959494AD180C3E66620365A0E
:1020900031E05C201C99464C21521099605C40084C
:1020A00060546920215C4908215409201D99484346
:1020B0000A0C801A00B2C0086023E0522346501A6E
:1020C00081083D4A11400818401C5E21605264207E
:1020D000215A002902D11299E831195266201E5A5C
:1020E000002E364C07D136490968C9B2AA29049E88
:1020F00000D06E261E5233480682A88C179FB84324
:10210000A8840D20FEF758FF6889384302211091FA
:102110008843688168894006FCD56E807D20C000B8
:102120000690FEF749FF68890299884368816889AB
:102130000006FCD57F202349487021488069224F42
:10214000B860EFF31086179880F3108828880499F8
:102150000843288020681599884320600E9B60689A
:102160004007FCD519482061194860612888049906
:1021700088432880688D1399084212480CD08370D8
:10218000387801F059FA0E9B12497878002803D16B
:10219000C88D179A9043C885002E0F9F1CD01798A2
:1021A00080F310881BE0C0464C420050A000FC07A2
:1021B000C88BFC07D47EF807FF3F00000000F4073F
:1021C000D07FF807508CFC077840FC070F00990976
:1021D000090404A452000050002080F31088EA484B
:1021E0000068EA49884200D0C6E0E948E9495CF75E
:1021F0009CFF15980102E8485CF797FFFEF796FCF4
:10220000E648E7490160E748E749302632465CF78F
:1022100073FFE6480024C471847144710471C47072
:10222000847044703F2119910170E148E1A1149A32
:102230005CF762FFEF480470EF48F0490160F04836
:10224000F0490160F049F1480860F1480A21017045
:10225000F04818940470F048322108910170EF485A
:102260000760EF48179C0460EE480760EE480D9940
:102270000160EE4815990160ED48099F0760200252
:102280000090801DEB490860EB490860EB48C049AD
:10229000016000F08BFC28890596B04328812889CD
:1022A000049908432881288938432881288CA04331
:1022B000288468890C99884368812889149908437F
:1022C0002881288A042188432882A88A8007FCD58F
:1022D0001591E88CDA4908400B2109020143E98491
:1022E000E88C179C2043E8846889099908431021E9
:1022F000079188436881688CA04368842889149971
:1023000088432881CF483730A207116801401A92CC
:10231000116019984002CC4A116881436003081883
:102320001060CA48401C116801431160964800685B
:102330009649884238D0C1480068C3498860C44A79
:1023400090681071010ED171010C9171000A5071E9
:102350000098C030BF490A46002817D0401E435C91
:1023600017783C46029E3440B94E341924795C40BB
:102370007C401470521CEFE7B748B6497A0293428A
:1023800000D932E71A585A501B1DF7E7B04C1C34DD
:10239000B0491C2220465EF743FE20465EF7D4FD7E
:1023A00079487A490160179CA44800683FF752FFBA
:1023B000AA48189F0771C77006461A9A10680099B4
:1023C00008431060FFF714F8204600F01FFDF77077
:1023D000A3480770A348A44E70630C24A349204669
:1023E0005AF707FD204639465AF735FD01F05CF9EA
:1023F0009F48017BB171C17A7171407C3071179C2B
:10240000FFF7B2F89548C77095480770FFF7C2FB11
:102410000520FEF77DFD9748974908189749401811
:102420008008401E039060020E90199880020F9061
:10243000E0031990924E934C2889000600D4B5E130
:102440001A98006B1999084200D0AFE183480088C0
:10245000C00700D0AAE15AF7D0FF0027384600F0A5
:10246000D5FC8148C07A042800D096E1179800F086
:10247000CDFC1C971CA8042421464BF75FFB0028C9
:1024800000D189E180491798086008680028FCD1CC
:102490001A98C069744B5969884201D25F61394604
:1024A000411ACA09197A182A63D9C90764D1774E23
:1024B00031880D9171880C91B1880B91F1880A9146
:1024C00037800E9910317180149AB2805C21704B64
:1024D000595AB18164494861B08910430599C9438B
:1024E0000840B0816B480260BFF34F8FBFF36F8F1E
:1024F000308810433080F08810430840F0803088E6
:10250000A0433080B088C0B2B080F0887021014014
:10251000402900D0CAE06220185A00285E4900D045
:1025200001464B4841805D48401C31880143318061
:102530001920FEF741FD334630880E9A1043308053
:1025400030881499084330807088204370807088E8
:10255000534908407080019840027188014371809E
:1025600070885049084013990818803070804E4890
:10257000B1E0C80700D10FE13B498869401C886180
:1025800000F0F4FD08E1C0469CB8FC0765873412F2
:1025900000A0FC07AC14000000B9FC0760BAFC07FF
:1025A0007038FC0700BAFC077CFCF107DAB9FC07BD
:1025B000B0BCFC072000800000C0000000008400C8
:1025C00000002822000000000000040000F7FFFFC8
:1025D0007F00000030F0FF0F00000000000400004A
:1025E00000000000000000000000000000000000EB
:1025F00000000000FDB9FC0750B9FC07603FF2077E
:1026000054B9FC07A439FC0758B9FC07A838FC07E3
:10261000B0B9FC07B1B9FC07D9B9FC075CB9FC0734
:1026200060B9FC0764B9FC0768B9FC076CB9FC0722
:1026300070B9FC0748B9FC0744B9FC074CB9FC0762
:10264000FFF00000C8FEFFFF00020040FFFF1F0078
:102650007840FC07988CFC0700B0FC0754BAFC07D4
:10266000B4BAFC075F14FC07508CFC07E037FC078A
:102670001001FC07183A00005001FC07030004F8A1
:102680000430005000330050FC00004000150050A2
:10269000C88BFC0780E100E040760000FF0F0000DF
:1026A000FF1F00003FFE0000FCFF00003088F849DB
:1026B000084030807088F549084070807088029921
:1026C00088437080F34A1046403831880140318099
:1026D00010460E9A33465988014059801888179E33
:1026E000304318801298FF3019890140EE4CA181C7
:1026F00059890140E18118890F99084010431881D8
:102700005889084010435881188810990843188048
:1027100018888007FCD4DE81188AE4494988A28998
:10272000EA4B1B890F9E33401343E84A1381E28929
:10273000E64B5B8933401343E44A5381401A0699C0
:102740004143002804DCE44A8918C017084001E02E
:10275000E2480818E2495CF76BFC84091934F74E2B
:1027600070787F280DD0201A41B2C9114840401A14
:1027700040B20528D54806DBB069401CB06100F0C6
:10278000F5FC7470D1480C9941800B9981800A99AD
:10279000C1800D990180CE4EBF4CE848C078012819
:1027A00004D1FEF7ABFEFD48C77045E6FEF734FEE8
:1027B000002800D140E672B6C24800790228189875
:1027C00002D0BC480068806A1C902089C00700D0F5
:1027D00059E159F7DEFE002800D154E1B948C0782C
:1027E000012800D04AE1A88AC00700D0ADE0B54872
:1027F0000088002800D041E1BA48806A002803D050
:10280000AC480068806A1C9000F0D4FEAD48817826
:102810001CA85AF7B6FC002800D12FE11A980069CD
:10282000400600D52AE1A74881781CA84BF786F915
:10283000002800D122E14DF703F9002800D122E160
:102840004BF77EFD002800D11DE19E4881781CA831
:102850005AF797FC002800D104E11A980069400655
:1028600000D5FFE0974881781CA84BF767F900284E
:1028700000D1F7E00F98FF30B18E0140139801436B
:10288000B1861C98002807D01A99096A8A4A8918C3
:10289000DA2901D8401E1C90C04B588A834F3969F1
:1028A000081878611A9AD06B8F4B18400843D06390
:1028B000D06B8E490840B96989020143D163D06B5E
:1028C0007F490840796949050818D0631C9A8848EF
:1028D000824200D3D9E0B149086C496C00235CF70F
:1028E000BBFB0903000D4118B869821C8A4200D065
:1028F000481E744909794A1E914147F735F87D48C9
:10290000C06A80471A99199A086B1042FCD0009946
:102910006A4A10680842FCD0106804998843106025
:102920006089452804D846216181081AFC4948621B
:102930003FF7CBFC614A9068F949086210680006CD
:10294000FCD528890499884328815F480078169926
:1029500031801299B181298A159A11432982F0494F
:10296000CC78002C4D4A3DD15A4F3968159B1943FC
:1029700039601189179FB9431181698A012803D1F0
:102980000798814369822BE099436982FFF7AAF88F
:10299000688A079908436882424803990162EFF305
:1029A000108087F310882988049A91432980002891
:1029B00002D087F3108802E0002080F31088688D31
:1029C00013990842354A0BD00020D54988700B2056
:1029D00000F032FE314A3249C88D179B1843C88532
:1029E00000202883688D1399084206D12C49088855
:1029F000149B1843169B98430880108C1499084325
:102A0000169988431084002C234C11D1A88C179F51
:102A1000B843A8840D20FEF7CFFA6889384310998F
:102A20008843688168894006FCD5089868801B4AFD
:102A3000A88AC00601D50998208030BFA88A184905
:102A40000888169B1843119F38400880108C184343
:102A50003840108400F0AAF81E4A1068159988437F
:102A6000106010E012480078C00702D13FF72AFE3C
:102A700004E000203FF776FE3FF73CFEFEF7CCFC7B
:102A8000002800D030BF62B6D6E4FEE7FFE10000C8
:102A9000FFEF00003FFE0000003300500403005031
:102AA000520000500000F407508CFC077840FC07EF
:102AB000FDB9FC0758B9FC07C8FEFFFF0002004043
:102AC000FFFF1F0054BAFC07B4BAFC070015005002
:102AD0000430005010ED00E02BFDFFFFD502000098
:102AE000AA05000074BEFC0700FCFFFFFF03E0FF27
:102AF00040420F0058BFFC07F0B569212648415CF1
:102B00001430D64AD3790022DDB20E4E8A4213D257
:102B100007680A2D3B4606D33C46094B1C40224B16
:102B20001B685B042343041F2468B44200D11F4682
:102B300027600830521CE9E7F0BDC046508CFC0706
:102B4000FFFF01FC38300040F0B568211248415CBD
:102B5000C24AD2790023124D134E8B421AD290C82A
:102B60000838AC4212D1FC01640C2C460ED00A2A63
:102B70002C460BD3032424023C403F04BF0E3C19D7
:102B80002C60C488074F3C40346000E02760083068
:102B90005B1CE2E7F0BDC046C88BFC07508CFC070D
:102BA0004C100040FF010000D040FC07F0B585B09C
:102BB00005252C07608DC005584F1BD558488078D7
:102BC000012803D100F02EFD1B2813D85548408A58
:102BD000C00400D4388CFF201C30534908801B20CF
:102BE00000F02AFD5148018801220A430280608DCD
:102BF0004007FCD54E484FA118225CF77DFA53A040
:102C000055494CC84CC1FDF78AFF544854490160EE
:102C100008200B21032632463FF748FD514B587DD3
:102C20000028019646D1997D0B2943D89879002830
:102C300002D1D87988423DD09878002802D1D8783E
:102C4000884237D0D87A002802D1187B884231D008
:102C5000187C002802D1587C88422BD02088022979
:102C600006D00C221040042800D00A258D4203D142
:102C7000F001628A8243628201263E800025284656
:102C80002A462B46FEF74CFA26484680354BDA7D1D
:102C9000997D002A0A4601D00A46803A0C2901D3C0
:102CA000294601E0511CC9B2019E5A7D002A00D07C
:102CB00029460180D978987835021E46022302946D
:102CC000294C2A46A047F179B079002701233A46DA
:102CD0000493254CA047029C317BF07A1423039582
:102CE0002A46214DA847717C307C13233A46A847D9
:102CF00020880C210140042904D10198C001618A77
:102D0000814361821948202101800399818103490F
:102D10008889049A1043888105B0F0BD00030050F3
:102D2000508CFC07400000507840FC0780000050A9
:102D300020000840F99DF00700000000E3A1F10722
:102D4000000000004FA4F107000000004D05FC0743
:102D50007B08FC078B09FC07C000FC07000008404B
:102D6000070010001001FC072111FC07043000507F
:102D700003480188034A11408918091D01807047E2
:102D800012000050FC7F0000B0B5044601201D4D2C
:102D9000C0070BD0E88A5EF7B1FA002803D082683A
:102DA00028462146904718350020F1E7B0BDC046BF
:102DB00070B50125134C002821D1134EE80720D00F
:102DC000002525606560A560E560256166611020CD
:102DD00021465AF70EF81834F0E7E08A5EF78EFACB
:102DE000002802D04168204688470025E5816560BB
:102DF000A560FF20E082207D5AF755F81834E807D7
:102E0000EBD170BD348CFC071000FF00B0B5D14D84
:102E10002978012921D11249002803D008884007C8
:102E2000FCD402E00888400717D400232B70C88820
:102E30008988000444181F2040064921224660F773
:102E40000FFB2864696464214143080CA8620548AB
:102E50006043800B401C40082863B0BD508CFC07C9
:102E6000001600501111010010B5F34C082020701D
:102E70001120FEF7A1F80320607010BDFEB5624876
:102E800003250570614C20461438016814220A435A
:102E90006B218A430260A06A5D49C8600020C0437C
:102EA000A06220683F21884320602068594908407B
:102EB000206060685849084001210191890202910F
:102EC00040186060606840210143302081436160A8
:102ED000A069524908400B2149064018A061A06929
:102EE0004F49084069024018A061A06918210143B8
:102EF00027208143A161432020714A4880474A48E6
:102F000080474A4880474048057000954848066811
:102F10004848804748488047206848490840F105AC
:102F2000401820603B4E403620683040490C401825
:102F3000206041272771606837490840029940188E
:102F400060603848804738488047384880472E4876
:102F500005703748056837488047374880472068FC
:102F600036490840E9054018206020683040490C87
:102F7000401820602771606827490840029940186E
:102F800060602848804728488047284880471E4876
:102F900000990170264800682168284A1140C2053E
:102FA0008918216021683140254D0540A801081885
:102FB00020606068019988436060154EF068A062E7
:102FC00020681C210143232081432160206811498E
:102FD00008402060A069114908400721890640186F
:102FE000A061A0690E4908400F21C9014018A061E5
:102FF000A0691E21014321208143A1610D48804722
:103000000D488047F586FEBD051000401830004091
:103010007840FC07FF7FFFFFFFF9FFFFFFFFFFC0C6
:103020003FF0FFFFAD14FC07BD14FC079B0FFC072E
:10303000883000408914FC07870FFC07FFFF7F00E2
:10304000FF01000070470000F0B58BB03022002176
:1030500081541F221204354B1D68954301246204DC
:10306000AA181A60334B344D4561344D344E354FF8
:10307000354AC261066243622D4A8262C562334AA2
:1030800007604260E004CC4A136883431360282938
:1030900003D001A84154491CF9E72D48006840308D
:1030A00001A928225CF728F8C74D0920E871FFF72D
:1030B000DBFEFFF749FDFFF71FFD00F089F900F087
:1030C000DBFA00F06BF8FFF7D9FE2C72224800887B
:1030D00007210140A972FDF7F3FEFEF75FF9FEF745
:1030E00071F91E490B881E4804681E4A1440E318F3
:1030F00003601D4B1C88856915402C1984615B8811
:10310000C4691440E318C3614B8A046A1440E3188D
:103110000362898A436A134059184162A848022110
:103120008170002101800BB0F0BDC04674000040EA
:103130009931FC079531FC078132FC076532FC07A9
:103140000512FC073D32FC073F32FC074530FC0707
:103150004CB9FC07508CFC07B81000401030004000
:1031600088A0FC070000FFFF6430004080B5FFF737
:103170007BFEFFF7C1FC00F02BF900F07DFAFDF7B4
:103180009FFEFEF70BF98E4802218170002101801D
:1031900080BDC04600207047704700000E49088877
:1031A0000E4A024001204302D2180A804105824A99
:1031B00013688B431360810700224A671F221204A1
:1031C0004B6F93434004181848670868E022024395
:1031D000102082430A60704738300050FFFC000026
:1031E00080B51F20000401218A07536F83434804E0
:1031F0001818506710680721884310600D4801882F
:1032000008220A430280FFF72FFEFFF79DFCFFF71D
:1032100073FC00F0DDF800F02FFAFFF7BFFFFEF7B8
:10322000D1F8674802218170002101800520FDF757
:103230006FFE80BD0800005004100040704780B54C
:10324000E62800D3E620282800D82820F9214A00C3
:1032500042437D20C10010465BF7D4FE7F38C0B2E8
:1032600080BD00000548016807220A430260012072
:10327000800451490A6882430A6070473000004068
:10328000022901D0012904D1002803D0FF2805D04C
:10329000FEE7FEE7022901D10C207047DB48C07928
:1032A0007047C046F8B544480168C90703D00168B3
:1032B00002220A43026001240168490203D5A105E4
:1032C00002680A430260270265023C4900950846ED
:1032D00008380668002E6ED0300606D580200860BB
:1032E0004AF7D5FAFEF784F83449B00704D502202E
:1032F000086046F7CAF93149300714D5082008603C
:10330000FDF7D0FB3D4627460024204646F776F9D8
:103310002A490420BD4AD0720220294A90701480A4
:103320003C462F46009D3E4204D00F60012046F7E8
:1033300065F922492E4203D00D604AF711FB1F495F
:10334000700604D54020086046F753F91B49F00683
:1033500004D51020086044F70FFD184970071BD5ED
:103360000420086017490888A0430880174800789F
:10337000C00702D13FF7A6F904E000203FF7F2F9B9
:103380003FF7B8F95AF7A0F83FF75AF9FEF730F8C7
:1033900000209E49C8720949F00707D00C605AF70F
:1033A000AFF84AF774FA05499848C472B0068ED54A
:1033B000202008608BE7F8BD0002004018000040A4
:1033C0000410004008330050508CFC07FDB9FC0786
:1033D000FCB57F200002594A516981430B2000024D
:1033E00008185061106880B2554940181060906903
:1033F000544C04400123580300902018906103208E
:1034000001900002146B04431463908F1024044352
:103410009487908818439080A0484B4A02604B4A9A
:10342000104610384A4DAC8B044015204301E0187B
:103430005030A8836869474C0440474820186861A9
:10344000A869464C0440092040022018A861286859
:10345000434C04404348201828606868424C0440AC
:10346000424820186860A868414C04404148201830
:10347000A860E868404C044040482018E860C1203B
:103480004001624CE479240620183D4C2060052060
:1034900080023C4F3880401DB880388C552606434A
:1034A000AA2086433E84FF266C363046C9303885D4
:1034B000354908460E30B88534483886B986C01D6F
:1034C000388733482885A86B3249014032480818AC
:1034D000A863324D2E80288F10401F462037C01918
:1034E00028872F48018811408919D53101808188AA
:1034F0001140C918818001891140C9190181213603
:10350000AE80284801881140C91860310180818A45
:1035100019220A4306218A438282A08F2249014050
:1035200000980818A08721480168019A11430422D5
:10353000914301601E486066FCBDC04620300040DB
:1035400000008888FF00FEFF59055C071FFCFFFF95
:10355000042000400000E0FF09581A00FEE1FFFFD0
:10356000E0E000000809294900000303696A686C6B
:10357000031FFFFF70600000E0E0E0E00B0A0A08B4
:103580000010004028130040260A000051080000E7
:10359000070F00002F64E0FE101A06010012004021
:1035A0004412004088120040FF9F0000801000403D
:1035B00050015001F8B5642013490E5A134FBC6AEC
:1035C000304660431249401812495BF71BFD05461F
:1035D00078823C3666430E4830180E495BF712FD80
:1035E000001D0D4908612818C01D88610B4A12781A
:1035F000022A01D111308861FEF7DEFA084940182D
:1036000080B259F78BFFF8BDC88BFC07508CFC07C4
:1036100020A1070040420F007840FC07B4BAFC0725
:10362000E20400000D480188890918220A40008838
:103630008004400F8018704708490A88084B1340DF
:10364000F822024092011A430A800A88054B13406F
:103650004007800C181808807047C046540000507E
:10366000FFF90000FFC700000248018801229143D2
:10367000018070470411005018B508480168009196
:103680000099074A009B1A40FF2424040C40D9B239
:103690000919044BC9181143016018BD800000408E
:1036A00000FF00FF0A000A003F2001020A480268EA
:1036B0008A431F210902511801600121C9030268D0
:1036C0000A4302600721090542680A434260034831
:1036D000034901807047C0460C0200401030005082
:1036E0001203000002E008C8121F08C1002AFAD124
:1036F00070477047002001E001C1121F002AFBD172
:1037000070470000034880F3098800F025F8FCF7B3
:103710001FFDC046D447FC0704207146084203D071
:10372000EFF309800A490847EFF308800849084782
:10373000704704207146084203D0EFF30980054921
:103740000847EFF30880034908477047FEE7000089
:10375000D511FC078111FC071C498888072290437A
:103760008880052000078A89D20710D0098800299F
:103770000DD117494A8802858A888284CA880284C2
:10378000428A144B13400988C901194341821249E6
:1037900006220A800121CA03104B1A60BFF34F8F23
:1037A000BFF36F8F02221A60BFF34F8FBFF36F8F8B
:1037B0001960BFF34F8FBFF36F8F4189042291438C
:1037C00041810021018062B67047C0460403005069
:1037D000A000FC077FFE00000034005080E100E004
:1037E000000000006038FC074C8CFC070200010060
:1037F000080004900000000000000000030005D055
:103800008B0035F010005CF0000010B0000018B024
:1038100000001AB0030051F0000038B000003AB0C8
:10382000000064B0000066B0000022B0000024B0C8
:10383000010005D0000000000A0000800803049089
:10384000000004F0030006D0000000000A00008021
:1038500008030490000004F0030006D000000000FC
:103860006838FC0701000000FFFF00003D16FC0760
:1038700001000001F509FC0701000002E50AFC0750
:103880000000000000000000F4011100F43523489E
:10389000F40108C4140A000014000000ED14F2073B
:1038A000FF0000000000000005000000D447FC07F6
:1038B00000040000A490FC07AC020000988CFC07F8
:1038C000000400005C93FC0770050000200300006A
:1038D00000A60E0005000000D2000000320000002B
:1038E0003C00000001000000010000000200000098
:1038F00002000000040000000300000006000000B9
:1039000000000000020000000200000000000000B3
:10391000000000000300000003000000050000009C
:1039200005000000060000000A0000000A00000078
:10393000C8000000B80B000002000000B80B000037
:10394000B80B000010000000D4010000CC01000002
:10395000700200006A000000040000000100000086
:10396000200000000A00000001000000E204000046
:103970008A020000DC050000AF000000203BFC07CD
:103980009439FC0700000000283BFC070000000001
:1039900000000000A8B8FC07A0B8FC07B8B8FC07F6
:1039A000F8B8FC074930FC07E131FC079511FC072A
:1039B0002516FC07CD15FC0749DFF00761DFF0078E
:1039C0003116FC0799DFF00719E3F007BDE5F007B2
:1039D000FDE3F0071DE4F0073DE4F0077BE4F007AA
:1039E0008BE4F007F5F9F007B1F7F007CFF7F00730
:1039F000EBF7F00705F8F00719F8F00797F8F0076C
:103A0000AFF8F007DFCDF10767D0F107DBB9F007BA
:103A1000CD0DF207B10EF207AD0EF207A90EF207B7
:103A20008D21F007712DFC07551BFC07951BFC072A
:103A3000E91BFC07E11BFC07B57EF007837DF0075F
:103A40006501FC07599EF107634CF107B12DFC0796
:103A5000D110F207892DFC07B111F207FF12FC0704
:103A60001913FC07000000006114FC076314FC0735
:103A7000B9C6F007D592F107F301FC075F9DF10786
:103A80005F9CF1070505FC07EB72F107B922F1070E
:103A90006B04F1075D14FC072BA4F007F1D2F007CB
:103AA0005FBDF007D5BDF00785BEF007DB2DF00741
:103AB000752EF0071581F007DF7FF0070937F00753
:103AC000000000006514FC076D14FC075913FC0787
:103AD000F3C3F10775C4F10703C5F1077113FC07C0
:103AE00000000000000000000000000000000000D6
:103AF00000000000000000000000000000000000C6
:103B000000000000000000000000000000000000B5
:103B100000000000000000000000000000000000A5
:103B20008838FC07888CFC079838FC07348CFC0725
:103B300001000000683BFC07683BFC076C050000C7
:103B4000F436FC07683BFC07D440FC070007000084
:103B5000F436FC07C08BFC07C08BFC07D8000000C4
:083B6000F436FC070E00000022
:0400000507FC0151A2
:00000001FF
