:0200000407FCF7
:100000005C42FC07152AFC07292AFC07432AFC0747
:100010005D2AFC075D2AFC075D2AFC075D2AFC07B8
:100020000000000000000000000000005D2AFC0746
:1000300000000000000000005D2AFC075D2AFC07AC
:10004000DD02FC076D21FC07A526F0071905FC075A
:100050004104FC071705FC07D102FC075D2AFC07D9
:100060005D2AFC075D2AFC07D903FC07E303FC07B4
:10007000ED03FC07F703FC070104FC075D2AFC07FE
:100080005D05FC075D2AFC075D2AFC073D03FC07B4
:100090005D2AFC075D2AFC075D2AFC075D2AFC0738
:0800A0000000000090070E00B3
:0200000407FCF7
:10011000444F000644490005434C4B000843534EEE
:100120000007504F5200000144524459000900009A
:0200000407FCF7
:100130004669726D776172650000000033303831B6
:0C01400006001900C605000300000000C6
:0200000407FCF7
:100150000348854600F0AAF8004800474512FC070E
:100160005C42FC07F0B50546007985B007073F0FF4
:10017000284642F772FC029028794006C00F03908F
:10018000284642F76AFC4448806A8079012825D0D5
:100190000126414840300079800775D5002E73D084
:1001A00000222B2311463D485AF7A6FD022707706F
:1001B00001263B4946700446C969A87988472A2127
:1001C0000855287900210007000FA07003005DF793
:1001D00043F90737393B423F423D420002980190C4
:1001E0002D4814300090002604680BE0611D019832
:1001F00042F749FD002804D02079B84201D10126F8
:100200001BE02468002CF1D1009842F732FD25490B
:100210000978884202D1244806780EE000210C209B
:100220005AF75CFC04460622401D01995DF7C0F8B0
:1002300027712146009842F74DFC01204640A8E76F
:10024000A1700AE0A67021E0032002E0A77004E09C
:100250000420A07001E0012818D0A888000A801F9F
:10026000A072284642F7F9FB811D2046A27A0B3086
:100270005DF79EF80622201D02995DF799F8039814
:10028000E07020464DF7BAFD05B0F0BDA172F1E770
:10029000704770477047000074FBFC0704080000BB
:1002A000E4FEFC07A1F9FC07A2F9FC07064C0125B6
:1002B000064E05E0E36807CC2B430C3C984710340E
:1002C000B442F7D3FFF748FF242FFC07542FFC0755
:1002D00001480121018070470E15005010B51448E7
:1002E00008210180F84CE189A08960F717FF5FF7CA
:1002F00058FA85484188890703D0418803229143F1
:100300004180018880220A430280018904229143AE
:10031000018181898907FCD542F703F8A06B054963
:1003200008600548016801684907FCD510BDC04652
:10033000003300500802004010000040FEB5214C80
:1003400040342148068801200190C0040290002713
:100350001E4D002E34D0042F32D2F0072BD0A889A6
:10036000000605D428896989401A4142414100E0CC
:1003700000210198B840144A50802889029A144BF1
:100380001A60BFF34F8FBFF36F8F002907D0A98981
:10039000019A9143A981A98908229143A9812268E0
:1003A000002A05D0411C606889B200949047009CE7
:1003B0000298084908601035083476087F1CC8E7A1
:1003C000FEBDC0466CBDFC078236005000360050B2
:1003D00080E100E000E100E080B50A2000F01CF8B8
:1003E00080BD80B50B2000F017F880BD80B50C20D3
:1003F00000F012F880BD80B50D2000F00DF880BD32
:1004000080B50E2000F008F880BDE0B50023009311
:1004100001235FF7F7FA8CBD10B504465FF7C8FB00
:10042000E0B28100BE4A8918096C002901D08847D2
:1004300010BD012181403548016010BDFEE700007C
:100440000248008831481021016070472C13005089
:10045000B0B5114D2888400602D52888800609D4F9
:100460000E49086A0024002814D0CA69521CCA61C7
:1004700082420FD309480024C461281F0460174832
:1004800000885FF773F92888C00701D1012401E0D3
:100490004CF737F92046B0BD141000507CFAFC0729
:1004A00080B54CF700F90B48828980210A4382818C
:1004B000027903781202D21814235343064A128891
:1004C0001207D20ED218921C044B1A8082898A43DA
:1004D000828180BD00100050C010005040BCFC075D
:1004E0000948018904220A430281018840220A4303
:1004F0000280064901220A604189054A1140891893
:10050000091D41817047C0460800005080E200E0AC
:10051000FC7F00007047FEE710B50F4CA1880F204C
:100520000840022806D004280BD00C280CD0012843
:10053000F4D110E020880221884320802088802187
:1005400006E002F04FFAE9E702F04CFA20880121B8
:1005500088432080E2E710BD0411005080B55FF7AA
:1005600020F91948018809050CD518490A8805237E
:100570001340052B06D10888042202430A8008880C
:1005800001221EE00188C90606D511498A88D207D2
:1005900002D00A88120610D40088C0060CD50C4878
:1005A0008188890708D50188C90505D50221818080
:1005B0000188084A0A40028080BD0120888008889E
:1005C00080229043088080BD04000050000200504B
:1005D00000010050FFFE000010B5012420465AF72C
:1005E000D1FD002805D100205AF7CCFD0446401E5D
:1005F0008441204610BD80B5C1B20C2904D1A02190
:1006000008435F21884380BD084661F79FFA80BD9B
:1006100080B5C1B2A02904D10C210843F32188433D
:1006200080BD084661F7AEFA80BD0000022806D8FA
:1006300003490870C0000349C1400348C1707047B6
:1006400078FAFC070001010018FAFC07B0B50C4667
:100650000025202D04D042F752F960556D1CF8E7B3
:100660000020B0BDB0B5044609480A4D40222946D5
:100670005CF79EFE48350848302229465CF798FE14
:100680000648001B0649088014304880B0BDC046AB
:1006900070DCFC077C37F207B0DCFC07B8DCFFFF3E
:1006A00078DCFC0707481E214180018803220A43A9
:1006B0000280018804220A430280EB480121017074
:1006C0007047C04600160050F0BCFC0780B5E548F6
:1006D0000078C00708D105205AF754FD00280FD133
:1006E0002A200949085C04E00648417D012907D118
:1006F000007D41424141C21E50425041084380BDED
:10070000002080BD14FDFC07BCFCFC0780B503483D
:100710000168D548801C5EF77BFD80BD542FFC0727
:10072000F0BCFC07704770477047704780B55EF7B4
:1007300013FE80BDF8B56946C870020A8A70020CC3
:100740004A70000E087008465EF7EEFD8FBD7047D8
:10075000704770B505460469261D3068002805D02D
:10076000304642F79BF95AF734FAF6E70020286141
:1007700020465AF72EFA70BDF0B58BB01E46079290
:100780000F4604461098069000880890002101202A
:100790000246092913D00325854009902046344696
:1007A000089ECE403B46012737407E421F462E40E2
:1007B0003243264604460998801C491CE9E70A9200
:1007C000802030439E210140A08A03911D4902915F
:1007D0000190002000901C490AAA132338464FF7C5
:1007E000A1F80546002829D1089720270121059165
:1007F00038465AF773F90996064639465CF7F1FD13
:10080000266130461E3011496160A060089800885A
:1008100030830598E0811420E082A08A70800998D6
:10082000C003079908433080069800887083301D04
:1008300042F72CF9A08A00215AF78FFC28460BB00A
:10084000F0BDC046C02DFC070A180000CC2EFC07E6
:1008500000487047A42EFC07FEB51F4616460C46FE
:10086000142061F74BF9002819D001972778082F39
:10087000029615D80546418B008B3A4600F096F853
:1008800000280FD060788D2680283AD8082F0BD00A
:10089000072F0CD0062F0CD108280AD031E0FEE734
:1008A00081262EE082262CE0072802D029E00628A7
:1008B00027D32E1D35462D68002D0BD02979B9423E
:1008C000F9D100223046294642F758F928465AF70E
:1008D00080F96078083001215AF700F905466178FF
:1008E00008315CF77EFD2078287160786871A81D5A
:1008F0006278A11C5CF75CFD3046294642F7EAF8B5
:100900000026064802230199029A5AF7F5F9217840
:10091000017046705AF70BFA0020FEBD011400006A
:10092000F8B514460D4610465AF72CFC012838D16C
:10093000142061F7E3F8002821D00746418B008B93
:100940003E7F324600F032F80090787F0102083195
:100950002A781548964213D16A7889B2931D2246A7
:100960005AF7CAF90746002038710098388068782D
:100970007880781D6A78A91C5CF71AFD0AE0FEE70A
:1009800089B2062322465AF7B7F907468020387104
:100990000098388038465AF7CAF9002120465AF79D
:1009A000DCFB0020F8BDC046140C0000B0B58BB2D3
:1009B000411C00200446092C0DD01D46E540ED07E2
:1009C00002D0A24202D0891C641CF4E7092A01D09B
:1009D000481C00E0002080B2B0BD000080B55AF78E
:1009E000EBFE4BF75EFB20480121817180BDC046C4
:1009F0007047000080B5002048F722FD1A48042106
:100A0000817160F7FDFD80BD80B5012048F718FDBC
:100A100080BD80B54BF745FBFFF744FE80BD80B538
:100A200048F75AFD80BD000080B50D4801880122BD
:100A3000914301800B480078C00702D141F742FE84
:100A400004E0002041F78EFE41F754FE5AF798FE6D
:100A500041F7F6FDFFF726FE03480021817180BDB6
:100A600008330050C5F9FC07F0BCFC07F0B50A7963
:100A7000530140241C40130180251D4016093602F5
:100A800075192C19D20020251540621910241C401C
:100A900012190B785B0008241C40121906241C4014
:100AA0001219CB79DB079B0C4C796508ED07ED0C2F
:100AB000EB18E407240D1B19134383818A790F2A4D
:100AC00043D0354A82180423DA41931E022B1BD3EC
:100AD000012A3AD8EFF31083012282F310888D792E
:100AE0002E4C2688F6B23609B54203D12688F02767
:100AF0003743278026880F27BE432E432680002BAE
:100B00001CD082F3108820E0EFF31083012282F3DF
:100B10001088224C27880F2637408D79AF4202D1AA
:100B20002788374327802688F027BE432D01354389
:100B30002580002B06D082F3108806E0002282F385
:100B4000108802E0002282F310888A680280120C6A
:100B50004280CA688280120CC2800A8A521E428178
:100B60004A88002A00D10A8A521E0281400838228F
:100B700002400B4880184A69026489694164FF2079
:100B8000000608490A6882430120C307D2180A6098
:100B9000C00405490860F0BD00CAFFAF80360050B0
:100BA0006CBDFC0710E400E000E100E080B502202D
:100BB00001F064FD80BDFEE7F0B589B00D460C493B
:100BC00040180D2800D977E14000C046784480885D
:100BD000400087440F00710129007101400071013C
:100BE000530071015E00E6007101F90071012801F6
:100BF000FF5FFFFF2878841CF5480C221946234626
:100C00005AF77AF80446002606702878607029782A
:100C10008E4200D34DE1B10701D15EF79DFBA119D2
:100C20008870761C000AF2E7EB480C22142519465E
:100C30002B465AF761F80446F94908312A465CF711
:100C4000B7FBF8480178217001796170017AA170D1
:100C5000007BE0702DE1F4480C2202241946234663
:100C60005AF74AF8044606202070287841B2002935
:100C700002D4032800D20DE1302019E1D5480C221E
:100C80000124194623465AF737F80446FA480078F3
:100C9000FAE0E8480C260227194632463B465AF746
:100CA0002BF80446477028782070022800D2EDE027
:100CB00000D1F8E0032800D0FBE0FFF78DFC00280E
:100CC00000D0F4E068888006C00E00D169E1089683
:100CD00000200790607020465AF729F8D74E5AF73F
:100CE000E8FC30884006FAD50798C143D448016033
:100CF0006888D44A0823079313806A78059272B6ED
:100D0000D14A1160D14BD989C905890FD04A1180C8
:100D1000198AC906FCD40322D101DD898D43DD8106
:100D2000CC490D897C26B543C0B2400880002843D9
:100D300008810125D88CC00406D4088938400E8962
:100D4000BE433018784008812803DE8C0642FCD070
:100D5000088928430881C0480668042706973E434F
:100D60000660D0439E8A06400492059A16439E82EE
:100D70009E8A089FBE43970037439F82DE890640C4
:100D8000DE818888A84388800E88072006430E806D
:100D90009E8A15273740152F00D11FE1049A1003B2
:100DA0001EE1A44805210C22022359F7A5FF0446A1
:100DB00000206070A0480078421E51425141022834
:100DC00000D10146217074E0A8480C22082419467D
:100DD000234659F791FF0446FF20E071A4490622FB
:100DE00028465CF709FB002815D0287869780902A5
:100DF0000818A97809044018E978090640189D499F
:100E0000086028796A7912021018486028464AF763
:100E1000BAFD0020E0710622204629465CF7C8FA98
:100E2000A879A07145E02878841C80480C221946D6
:100E3000234659F761FF0446861C297830465CF743
:100E4000D0FA30202070287860702978102930D8A6
:100E500030465CF7C6FA00F091F900F089F90025F8
:100E6000734E102D0DD06719705900685EF7C8FADF
:100E7000B870010E7971010C3971000AF8702D1DDE
:100E8000EFE700F06DF90020207012E0FFF7CEFBD5
:100E900000200DE00021617078A1085C764908709F
:100EA00001F088F905E0FFF797FB002807D0012043
:100EB0006070204659F73BFF002009B0F0BDA988BB
:100EC00068880122002706923B465EF70BFF0497D5
:100ED0006770204659F72BFF584F5AF7EAFB3888BE
:100EE0004006FAD508965748082103910180687892
:100EF000059072B6554DAA8904200243AA81AA889A
:100F000080239A43AA80AA88402101910A43AA809B
:100F1000534A079010802A88524B13402B80049824
:100F2000C243494B1A602A8AD206FCD40322D0015C
:100F3000EB898343EB81069FF8430490454B1E8960
:100F400006401E81444E3168079801433160A98AEA
:100F50000292914305980143A982A98A089EB14350
:100F600080000843A882A8893843A88198880499FA
:100F7000084098800F208002198B01431983B80321
:100F8000198B01431983E88CC0050CD536480188BC
:100F900020220A4301998A430280188B0843188350
:100FA00009E0677085E7304881883943818001888E
:100FB0006022914301800399029A188B1043188391
:100FC000188B08431883188B07998843188322E0ED
:100FD00002A0000008A0000004A00000C002049AC3
:100FE0000E8B1E4F3740C0190883A8030D8B054395
:100FF0000D83DB8C088BDB0503D540231843088366
:10100000088B10430883088B079A10430883088BCA
:10101000069A9043088300BF00BF00BF30BF48E777
:101020003001FC070032005006A000000FA00000B5
:10103000102FFC070BA0000078FAFC0714100050DA
:1010400080E100E00033005080E200E00400005046
:10105000A000FC070803005010ED00E0FFC30000F3
:1010600000020050FFF70000520000500DA00000E9
:1010700094D4F10724000040D0BCFC070C08010008
:10108000F8B51E4614460D4610465AF77BF801285F
:101090001AD0002847D1142060F730FD002812D064
:1010A0000096418B2A88038B5E1C0023092B2ED0CF
:1010B0000F46DF40FF0704D0B7B27F1C974205D030
:1010C000B61C5B1CF2E7FEE702242DE0DFB2082F1E
:1010D0001DD8061D3668002E28D03179B942F9D1C5
:1010E0007079831D1C480099224659F705FE074672
:1010F0002888388000243C7170797880781D727956
:10110000B11D5CF755F9384659F711FE0CE012484D
:1011100006230099224659F7EFFD29880180802196
:10112000017159F704FE00242046F8BD07770099A5
:10113000090A417760F700FD01460848012522466B
:101140002B4659F7D9FD077059F7F1FD204629467E
:101150005AF703F8E7E7C046140C00000214000039
:1011600080B53548C01C0949091D5FF78BFD80BD5E
:1011700080B502205FF7A2FC80BD000080B52E483C
:10118000C01C0249091D5FF7D1FC80BD1C3BFC0758
:1011900070B5174EB06800F02DF82749CA6B0023D0
:1011A000CB631518084C284621465CF787F8706118
:1011B00006494143481901D0201A80B23061306895
:1011C00008210143316070BD710200008FFDFFFFF7
:1011D00080B506480021016001F0F8F80120C00741
:1011E00003490A6882430A6080BDC0469CF9FC0737
:1011F0003000004080B50246C00B09D00E48C06DDB
:1012000000210B465CF784F88905800A401880BDF0
:101210000948C06D4243900A80BDC04680B5FFF7C3
:10122000E9FF80BD80B50449896D41430348081832
:1012300003495CF743F880BDF0BCFC0720A1070020
:1012400040420F0000B5A1B0D54808250580D54E15
:1012500030881EAC20802088C046C04620880422EA
:10126000D1430842119202D00020308003E0B089BF
:1012700001218843B081CC4F38882843388001242D
:1012800020020A902C305EF771FA7888802106914E
:10129000084378800F208102B28B0A43B283F98D14
:1012A00006229143F985A103B38B0B43B38339889D
:1012B000BE4B0B403B8079881143A94379800521BF
:1012C0000E91090712914A8DB94BFF33F98D1940E0
:1012D0007D23DB0007950503D00513940F9310952C
:1012E0001AD5184618300143F985F88DB1490140E7
:1012F000E0030818F885B08B079A1043B083B08BD1
:1013000011998843B083F88DA043F885B08B4021B4
:101310000143B183129C20E0032042021143F9856E
:10132000F98D2943F985B18B079B9943B183B18B23
:1013300004229143B18379889F4A0A407A80798850
:101340009E4A0A40C00210187880F88D012101439E
:10135000F985129C608D4007FCD5B08B03210D915F
:101360000843B083388820210991084340218843ED
:101370003880208F02210C91084320879048119FCC
:101380000780A0888F490140A1808F4E139DB570C2
:1013900028048E490860FFF7F1FEFFF7E9FE8C484C
:1013A0000068C1B20C20AA29014600D03946228823
:1013B000824388182080C046C0468648008848215D
:1013C00070528548006870642846C046C04688242C
:1013D000824F00253D5315AE8149242230465BF7EC
:1013E000E7FF804938462A4633465EF73FF8385DC6
:1013F000400838558920395C490839548420395AC5
:10140000002901D10F9939528621785A00286E4C53
:101410006F4E15D1FF2002023068104035221202B3
:10142000904209D00D229202904203D03322120240
:10143000904204D1942000E09020785200E00020F7
:10144000A0815DF7FDFE7F206070B069664C206171
:10145000FFF786FE6548006865498842109F0E9B2D
:1014600000D092E0634864495BF7BBFF07200E9011
:10147000010262485BF7B5FFFEF70CFF6048614967
:1014800001606148614930225BF792FF60480025A6
:10149000C571857145710571C570857045703F21B5
:1014A00001705C485CA1402208925BF781FF6A48AA
:1014B000C57185710D9A4271FF210171C1708170F2
:1014C000417001706548057065486649016066486D
:1014D0006649016066496748086067480A210170EB
:1014E00066481195057066480921016065480260EB
:1014F00065480B21016065480C21016064480D219D
:10150000016064480E2101600A9DA81D62490860BF
:1015100062490860624E3748306000F069FC5DF750
:10152000BDFD5DF701FEFF37129AD08C38400E9951
:1015300049020143D1845DF713FE2C4F38682C49D2
:10154000884200D1C2E03068564988602069A072A4
:10155000010E6173010C2173000AE0722846C0304D
:1015600051490A46002800D1A2E00B185B1E1B78E7
:1015700015786B4037460D9E35403E466519AD7A6D
:101580005D401570401E521CECE7484846495A021F
:10159000954200D966E72A586A502D1DF7E7C046E4
:1015A000003300500403005052000050FFBF000001
:1015B00000F0FFFFFF0F0000FFF90000FFC7000071
:1015C00000020050FFF70000F0BCFC0780E200E0E2
:1015D000D02FF807D82FF807D42FF80744BCFC0702
:1015E000282DFC07A000FC071C3BFC079CF8FC070F
:1015F0006587341200DCFC07D01A000000F9FC07F4
:1016000024FAFC07202DFC07C8F9FC075CDEF10773
:10161000A4F9FC073CFCFC072000800000C000008F
:101620000000040000002822000000000000040068
:1016300000F7FFFF7F00000030F007080000000007
:101640000004000000000000000000000000000096
:101650000000000000000000ACF9FC07C5F9FC0721
:1016600050F9FC07E036F20754F9FC07982AFC070A
:1016700058F9FC07182CFC07A1F9FC07A2F9FC0794
:101680005CF9FC0760F9FC0764F9FC0768F9FC07E2
:101690006CF9FC0770F9FC0748F9FC0744F9FC07F2
:1016A0004CF9FC0700020040CCBDFC0700F0FC0731
:1016B00025463035F8491C2228465EF7F5FB2846BA
:1016C0005DF732FEF548F64908600A9D306840F73C
:1016D000C1FDFC48119F0771C770139EB1070868D0
:1016E00028430E910860FEF7DDFF304600F072FCE3
:1016F000F448C770F4480770F448F54908640C25AD
:10170000F449284659F7F7FC2846394659F725FD8C
:10171000EC48C770EC4807700746FFF759FDF00327
:101720001090ED4DED48EE490818EE49401880083C
:10173000401E0190129800890006109900D4B2E072
:101740000E98006B084200D0ADE0DE480088C0076C
:1017500000D0A8E059F7ADFF0026304600F03AFC73
:10176000DB488079042800D09DE0139800F032FC1B
:10177000149614A804214AF7EBFD002800D192E04A
:101780000123D94A13600E9910680028FCD1C8695A
:10179000CF490969884202D2CD490E613146411ACA
:1017A000C90919297FD3CA490861D04908880B9013
:1017B0004888059088880490C88803901F96CC4874
:1017C0001E90029315AB1846CA49C4C9C4C07C20F8
:1017D000C94A105A00091871A11C1EA85FF754FBD2
:1017E0000F981730C14E31890140B94B1981718969
:1017F000014059813089C14F38400299490240184F
:10180000308170893840401870815FF731FC618801
:10181000AF4A128933893B4013433381AC4A528922
:1018200073893B4013430F9A7381401A1146414319
:10183000002804DCB24A8918C017084001E050189B
:101840009630B0495BF750FD82091932A04E70788E
:101850007F289D4F1DD0101A41B2C9114018484031
:1018600040B2082816DB9A4E7069401C70610292E3
:101870005FF7B0FE00F026FA00F09CFC5FF7E8FE90
:101880005FF76EFEA04870305FF714FF5FF7B8FE99
:10189000029A727095480599418004998180039954
:1018A000C1800B99018068690028119E07D0F54816
:1018B00040790126002802D1042000F0DFFE617883
:1018C00000290FD02089E28882420BD0606900286D
:1018D00000D1CDE12278012A00D1CAE100F020FF39
:1018E000002802D02078012805D100202070E54989
:1018F000496B884701262868002813980DD0284690
:1019000041F7CCF80646007900F076FF304659F7EB
:1019100060F92968484248410126DF4A1168126887
:10192000D84B5B79002B00D004E7139BDB021A40F5
:1019300000D0FFE60F9A1832114000D0FAE669692C
:10194000002900D0F6E6002800D1F3E6002E00D0F2
:10195000F0E6FEF7BBFE002800D1EBE672B61EA94A
:1019600000200870CA4A1279022A02D0C6480068CC
:10197000406A1590264618363046CA4A5FF710FC72
:10198000002830D1C848806A002803D0BE480068CB
:10199000406A159000F01AFD15A930465FF736FC35
:1019A000002820D14CF758FC002819D04BF7D4F868
:1019B000002815D015A85FF74BFC002813D1012093
:1019C0005DF7FAFE159A002A00D19FE00E98006A92
:1019D000B6494018DA2800D999E0521E159296E0CF
:1019E0001EA800210170387801280C9900D00D99AB
:1019F0001EA80078042800D00146881E02280AD2BA
:101A0000129E308A04220B921043308268690028AB
:101A10000BD00020F3E0012900D027E1FEF756FEAD
:101A2000002800D122E130BF20E122780020002AE6
:101A3000034600D10B462968002900D0DFE0022BC5
:101A400030D0032B00D0D9E00493944908680B9A56
:101A50001043086089490889012305939843088148
:101A6000708A90437082FFF789FB059B708A102172
:101A700001437182019892490860EFF3108083F36B
:101A800010883188069A91433180002800D19FE068
:101A900083F310889FE0C046CCBDFC0765873412F5
:101AA0009CF8FC077D4908680B9A10430860734A4C
:101AB0001089012188431081708A10218843708227
:101AC0009AE0C04618FAFC0778FAFC072707FC07DB
:101AD000F0BCFC07002FFC076CBDFC07082E0000C3
:101AE0005001FC07030004F8FC0000400015005002
:101AF000010400005C2DFC0744BCFC0700FCFFFF58
:101B000082FBFFFFFC08000000DCFC0700225D4EAA
:101B1000F089E1690818206261487E300E9FFB6BF6
:101B200003400B43FB63F86B61490840616A89021B
:101B30000143F9631EA804210170F86B5D49084058
:101B4000216A49050818F8635B48824200D391E096
:101B5000306E716E00235BF7DBFB0903000D40184C
:101B6000411E606A421C914200D0084648490979EA
:101B70004A1E914147F720FE5048C06A8047129E96
:101B80000E99444F109A086B1042FCD00A993F4AB4
:101B900010680842FCD010680699884310603648E7
:101BA0004089452805D84621334A5181081AF14910
:101BB000C86340F78AFB354A9068EE49886311464E
:101BC00008680006FCD530890699884330810AE709
:101BD000002080F310880A99049B708D08420BD076
:101BE0000020E449C8700B205DF718FE049B2449CF
:101BF000C88D059A1043C885002030831846718D22
:101C00000A9A114208D11E4B998801220A439A80F0
:101C10001988602291431980FE21084002280FD1C3
:101C2000B08C0127B843129988840D205DF79EFD82
:101C3000129840893843174F129E022188437081C1
:101C4000B08AC00602D50C480799018030BFB08A1F
:101C50000B4A10880999084308998843108000F0BE
:101C6000C7F80E4908680B9A9043086062B661E5B0
:101C7000FEE7FEE7FEE7C0460033005004030050D5
:101C800052000050F0BCFC0758F9FC07000200406D
:101C900018FAFC0778FAFC0700E200E010ED00E01B
:101CA00082FBFFFF0D07FC0700FEFC07C8FEFFFFDD
:101CB000FF03E0FFFFFF1F0040420F00E4FEFC07B0
:101CC0002000F40710B50F4C2078401C20700E49FE
:101CD0000968C3B2454800225DF71AFD2078401E0E
:101CE000207010BD10B5074C2078401C2070C3B286
:101CF0003E48054900225DF7D7FC2078401E207041
:101D000010BDC046D0BCFC07582FFC0770B51E287C
:101D100016D1304810184908344A0B0610D0046810
:101D200043680830002635460835382D06D0961908
:101D3000366BA6422E46F7D15419E362491EECE7F2
:101D400070BDC04680B548F7DEFD5C200449085CE4
:101D5000002800D080BD102059F71DFD80BDC04671
:101D600074FBFC0770B50C461A48111889251F4EE4
:101D7000705DC00030183030A2005BF719FB705D59
:101D80000019705570BDC04610B51248115809238E
:101D90004B431058000C1A1A1204D2148023134C0F
:101DA000E25289B2401A0104890C0818401C7E21B5
:101DB000605210BD70B50C460648111888250B4EB0
:101DC000705DC0003018A2005BF7F2FA705D001978
:101DD000705570BDD42EF80788001018024940587D
:101DE0007C21024A50527047D02EF80744BCFC07B1
:101DF000FEB56048C278604D291D1B205DF766FD69
:101E00002C2101200290019168545C48002101605E
:101E10005B4E307F0004717F09060818747C210234
:101E20004018377CC019A862564D2846283056A164
:101E300018225BF7BDFA2E202C542D202F5400F0D1
:101E400057FB002800D0FEE75548018810220A43BE
:101E50000280FF20000653490A688243029FF80768
:101E60001018086000F09EFC00F0E6FB4E48414967
:101E7000886641490198085C002802D0886A000AF7
:101E800002E04A4888620720C0B20A25002229469B
:101E9000FEF7BBFA00F086FCB07D5DF7A7FD444C71
:101EA000002843D0707DB179814203D1B17DF279B0
:101EB0008A423BD0B178814203D1B17DF2788A4227
:101EC00034D0F17A814203D1B17D327B8A422DD068
:101ED000317C814203D1B17D727C8A4226D0317F30
:101EE000814204D1B07D717F814201D11EE0B07D7D
:101EF000052211070B88022807D00C242340042B4D
:101F000000D02A4682422A4C03D14A8A294B1340E8
:101F10004B82278000210A460B465DF73DFDF17D8F
:101F2000481E8141B07D3A465DF754FE707C39020F
:101F30001D22214C3B46A047307B1C220025294610
:101F40002B46A047F07803210F021B2239462B466F
:101F5000A047F0791A2229462B46A047707F3946C0
:101F60002A462B46A04712498889029A1043888145
:101F7000FEBDC046F0BCFC071C3BFC07000008404F
:101F80001001FC076CBDFC070700A00F0000070054
:101F900000000000AD0BFC07B70BFC0700030000BE
:101FA0000833005010E400E06D26FC07000700092C
:101FB000000300507FFE000099F9F10703480188F3
:101FC000034A11408918091D018070471200005012
:101FD000FC7F000080B5014609480278012A0ED135
:101FE000084A002903D011884907FCD402E011886F
:101FF000490704D40021017058305DF7CBF880BD4B
:10200000F0BCFC070016005070470000F0B58BB024
:102010003022002181541F221204204B1C6894435B
:102020000122550464191C601E4C1F4D45611F4D53
:102030001F4E204F204BC36106624462184B8362DF
:10204000C5621E4B07604360D004534A1368834344
:102050001360282903D001A84154491CF9E7184806
:102060000068403001A928225BF7A2F9CA4808217C
:1020700001705FF7AFFAFFF735FEFFF723FE00F0C0
:1020800099F85FF7E5FA5FF7F7FA5FF769FA23481F
:102090005FF730FB5FF7B4FA0BB0F0BD740000409F
:1020A000C920FC07C520FC074921FC073516F207AB
:1020B0001505FC072121FC072321FC070920FC074B
:1020C0004CF9FC07002070477047000080B51F20C6
:1020D000000401218A07536F83434804181850678E
:1020E00010680721884310600B48018808220A43C2
:1020F00002805FF76FFAFFF7F5FDFFF7E3FD00F0F1
:1021000059F85FF7A5FA5FF7B7FA04485FF7E2FA04
:102110005FF776FA80BDC0460800005070DCFC070F
:10212000704780B54108732900D3E620282800D8DD
:102130002820FF22EC3242437D20C10010465BF78D
:10214000BDF87E38C0B280BD012906D0022903D176
:10215000032804D20C207047FEE7032802D3FF288F
:1021600000D0FEE78C4800787047C04680B50A482A
:102170000168C90703D0016802220A4302600168AE
:10218000490204D50121890502680A430260034817
:102190005EF7EEFF80BDC04600020040682DFC07E0
:1021A00002210143022901D101487047FEE7C046E0
:1021B0004C2DFC07FCB57F200102644842698A432C
:1021C0000B21090251184161016889B2604A8918DE
:1021D000016081695F4A0A4082610321019109021D
:1021E000026B0A430263818F10220A43828781882F
:1021F0000122009211438180574858490160584993
:10220000088810430880574D28461038564EB18B29
:1022100001401520440108195030B08370695349BA
:102220000140534808187061B069524901400920C3
:1022300040020818B06130684F4901404F48081803
:10224000306070684E4901404E4808187060B068B0
:102250004D4901404D480818B060F0684C490140B4
:102260004C480818F060C12040014B490978090624
:1022700008184A4908600520820249490A80571D0A
:102280008F800F8B34203843CB27B8430883088CCA
:1022900055270743AA2087430F84FF276C3738460A
:1022A000C93008853F4B18460E3088853E48088661
:1022B0008B860A3008870A323285B06B3B49014071
:1022C0003B480818B0633B480780028F2A402146EC
:1022D000203152180287384E32882A40D219D5321E
:1022E0003280B2882A401219B28032892A405118AD
:1022F00031813946213181803048018829400919CE
:1023000060310180018A17220A4308218A43028230
:10231000818A19220A4306218A43828207841F4A3E
:10232000908F2749014000984003081890870C4A75
:10233000106C01990843042188431064506A2149B4
:102340000140214808185062FCBDC04620300040C2
:1023500000006666FF00FEFF8000004059055C0734
:10236000401000401FFCFFFF042000400000E0FF81
:1023700009581A00FEE1FFFFE0E0000008092949C2
:1023800000000303696A686C031FFFFF70600000B0
:10239000E0E0E0E00B0A0A08D0BCFC0700100040B7
:1023A00028130040260A00004E0800002304E0FE27
:1023B000181A060100120040441200408812004022
:1023C000FF9F000000FE00FE50015001F8B5842080
:1023D00013490E5ACF4FBC6D304660431149401827
:1023E00011495AF76BFF0546F8813C3666430D48A4
:1023F00030180D495AF762FF001DE949C8612818D5
:10240000C01D4862094A1278022A01D1113048627F
:10241000FEF7F0FE0649401880B259F7DBF9F8BD27
:1024200044BCFC0720A1070040420F0078FAFC07DB
:10243000E204000070B514460D4606465EF728F823
:10244000411E88414100EA48406A828906239A4336
:10245000511881818680310CC180691E01814181C2
:10246000818908220A438281818901220A4382816B
:10247000400838210140A848401800210464416404
:10248000DA48018810220A43028070BD80B5D8481E
:102490000279D20704D10D4A0023D35E002BFBD46E
:1024A000C269002A01D00846904780BD80B5D04857
:1024B0000279D20704D1054A0023D35E002BFBD456
:1024C000026A002A01D00846904780BD18120050C9
:1024D00080B52B20B249085C5DF756FA80BDC04636
:1024E00080B52B20AE49085C5DF746FA80BDC0463A
:1024F000F0B587B088490C462834234608330DCB05
:10250000BB4E354618350DC51F4D207DC0072846EA
:1025100001D02846203070622822895C01220A40BE
:102520003179F0230B409918227992080E23134039
:10253000591831716E460021718004223270318247
:10254000F1807171627D17017A1D327106910591DA
:1025500003910E4902913146FEF788FAF81C30715A
:10256000207DC00701D0303500E01035A0488562DD
:102570000648001D039028463146FEF777FA2046AC
:102580005DF704FF07B0F0BD003600501C1200508C
:10259000F8B50C460546964F3879C00706D11F4955
:1025A0000223284622465DF71FFEF8BD1B4E02237C
:1025B0002846314622465DF747FD194A30462146F6
:1025C000FFF738FF5DF764FF06465DF761FF411EC8
:1025D00088414100B86A828906239A435118818153
:1025E00001221146B14069180180090C4180A11EE9
:1025F00001814181838908218B438381838913432E
:102600008381400838220240E0488018002202649A
:102610004264DF4802880A430280F8BD5C2FFC0751
:10262000AD24FC0780B50B205DF7C2FAFDF796FFDD
:10263000012000F023F880BD80B5E8480949C16653
:102640002C21CD48415C002902D0806A000A02E0BA
:10265000054981620720C0B20B210122FDF7D5FE9A
:1026600080BDC0462526FC070007000980B50A206A
:102670005DF79EFA032000F001F880BDF8B504462E
:10268000134F387801280BD10820022158F726FA79
:1026900001460471D24840F71DFA3878002815D158
:1026A00001203870CE4D286800280AD0284640F70F
:1026B000F5F90646007900F09FF8304658F789FA98
:1026C000F1E7204600F098F800203870F8BDC046C9
:1026D000183BFC0710B5A8480189C2888A4200D27D
:1026E000FEE7BE4B5B79022B01D3002400E00124FE
:1026F0008A4202D101788C4300E000242921405C09
:102700005DF768F9B6490968002901D0002010BDBD
:10271000204010BDF0BCFC076CBDFC0770470000FA
:10272000F8B50C46944D2978012900D1FEE7002820
:102730000BD0EE8831094B2908D22F89F11BA14219
:1027400005DA6C7068610120F8BDFEE7FEE78B4991
:10275000C91922465AF72CFE3819288180B28642C0
:1027600002D100202881E880002068616870F8BDEF
:1027700010B5002808D0002907D0984B5A637E4C2A
:102780002278012A02D1FEE7FEE7FEE789B2FFF7D1
:10279000C7FF002800D010BD0120207010BDC0462A
:1027A0001C3BFC0770B57A4E20243480FFF7A0FE56
:1027B0003088A0433080894C20794C34C00705D143
:1027C0000121022220465DF7C3FC70BD01250222D3
:1027D000204629465DF7DEFB064A20462946FFF7DC
:1027E00029FE30882843308070BDC046001200505A
:1027F000F0BCFC078D24FC07F8B55E4F7A8869466B
:1028000000240C70754E7179032907D2042858D022
:10281000022859D0012856D1022074E020D0042982
:1028200051D103284FD1FFF75BFE74713888012125
:10283000884338803888082290433880388A10438B
:102840003882F462388A08433882316B002902D01A
:10285000346320468847FFF7EFFEFFF7A3FF32E01F
:10286000032830D17471444EF488A01800094B2815
:1028700026D2424800194249891C951E2A465AF719
:1028800097FD40493E485AF7ACFD6019F0800120A1
:10289000C0433988014039800821C9433A880A4039
:1028A0003A803A8A02403A82388A08403882FFF7F2
:1028B000C3FEFFF777FF3089F188814257D8FEE7E2
:1028C000FEE700291ED0F8BD4C20305C61281ED0E8
:1028D0009E2816D14B20C4004E2034520320707124
:1028E0002C4DA81C21465AF77CFD2C80284E202711
:1028F0003780FFF7FDFD3088B8433080A11C2846A3
:1029000033E0FEE701207071FFF7E2FDF8BD04201F
:1029100070714B20C1001C4D28465AF762FD5027AC
:10292000F4532F484169002913D0143040F7B6F80A
:10293000044670650289A81C21460A315AF738FD01
:102940002089F053204658F744F9F05B2870000ABC
:1029500068700F4C20252580FFF7CAFD2088A8430A
:102960002080F05BC01C81B20748FFF711FEFFF723
:10297000B7FDF8BD0C3600501C3BFC071034FC07BB
:102980005C2FFC075A020000C038FC076CBDFC0736
:1029900000120050B631FC0770B5002808D00C4674
:1029A000002906D005460D48C16A002902D0FEE77D
:1029B000FEE7FEE7C562026320460C30022158F7AD
:1029C0008DF806460A30294622465AF7F1FC348132
:1029D00003481430314640F77DF870BDF0BCFC0769
:1029E0006CBDFC07024801880122914301807047B9
:1029F0000411005002E008C8121F08C1002AFAD1D1
:102A000070477047002001E001C1121F002AFBD16E
:102A100070470000034880F3098800F029F8FDF7AB
:102A200097FBC0465C42FC0704207146084203D075
:102A3000EFF309800A490847EFF30880094908477E
:102A4000704704207146084203D0EFF3098006491D
:102A50000847EFF30880054908477047FEE7000084
:102A6000E104FC07E104FC073D04FC073D04FC070E
:102A700080B502485CF730F880BDC046A000FC0776
:102A8000F4011100F4352348F40108C4140A0000CD
:102A9000802AFC0734BDFC070D20FC07CD20FC0775
:102AA000A104FC0703C7F0075104FC075FC7F00748
:102AB00077C7F0078DC7F007AFC7F00731CBF00736
:102AC000D5CDF00715CCF00735CCF00755CCF00785
:102AD00093CCF007A3CCF0070DE2F007C9DFF007B5
:102AE000E7DFF00703E0F0071DE0F00731E0F00753
:102AF000AFE0F007C7E0F007E3B0F1076BB3F10711
:102B0000451DFC07B5EFF10799F0F10795F0F107C6
:102B100091F0F107A121FC07BD1FFC079111FC07F3
:102B2000D111FC072512FC071D12FC07057DF007DB
:102B3000D37BF007737CF007AD82F1074134F107D6
:102B40005D19F207DD19F207811AF207BD1AF207C3
:102B5000F705FC071106FC07000000002907FC0729
:102B60002B07FC077DB3F007D976F107617DF107EC
:102B7000B181F1079780F107C549F1079759F1072E
:102B8000F10AF107A1ECF0072507FC076501FC0736
:102B9000DDBAF00725AAF00799AAF00749ABF007BC
:102BA000E72DF007A32EF007657FF0072F7EF007D3
:102BB0000136F007000000002D07FC073507FC0771
:102BC0004D06FC0701A7F10783A7F10707A8F10746
:102BD0006506FC07B5B7F007000000000000000024
:102BE00000000000000000000000000000000000E5
:102BF00000000000000000000000000000000000D5
:102C000000000000000000000000000000000000C4
:102C10000000000000000000050000005C42FC070E
:102C200000080000D8C1FC0710080000CCBDFC075C
:102C300000040000F4C9FC07900B00002003000012
:102C400000A60E0005000000D200000032000000C7
:102C50003C00000001000000010000000200000034
:102C60000200000004000000030000000600000055
:102C70000000000002000000020000000000000050
:102C80000000000003000000030000000500000039
:102C900005000000060000000A0000000A00000015
:102CA000C8000000B80B000002000000B80B0000D4
:102CB000B80B000010000000D4010000CC0100009F
:102CC000700200006A000000040000000300000021
:102CD000200000000C00000001000000E2040000E1
:102CE0008A020000DC050000AF000000902AFC070B
:102CF000102DFC0700000000E42EFC07000000007F
:102D00000000000000000000000000005E01000064
:102D1000A8F8FC07A0F8FC07B8F8FC07F8F8FC07CF
:102D20000000000000000000D91DFC07B51DFC07D5
:102D3000651DFC0700000000891DFC070D1DFC0738
:102D400000000000D02EF807C02FF8077127FC07FD
:102D50009929FC071D27FC07D526FC075BB0050257
:102D6000000000003200000080000000130AFC0791
:102D7000020000001F0AFC0708000000F509FC071C
:102D800000010000090AFC070002000075C1F007FD
:102D9000400000003794F00710000000C97BF007E6
:102DA00004000000290AFC0701000000DD09FC07FF
:102DB00020000000F109FC070000000000000000F6
:102DC00000280000010000000000000003280000AF
:102DD0000100000002000000292A0000010000009C
:102DE00080800000032800000100000004000000B3
:102DF000242A000001000000808000000328000059
:102E00000100000006000000252A0000010000006B
:102E1000808000000328000001000000080000007E
:102E2000272A000001000000808000000328000025
:102E3000010000000A000000262A00000100000036
:102E40008080000003280000010000000C0000004A
:102E5000282A0000010000008080000003280000F4
:102E6000010000000E000000232A00000100000005
:102E7000088000000328000001000000100000008E
:102E80002A2A00000100000008800000032800003A
:102E90000100000012000000502A000001000000A4
:102EA000078000007907FC075307FC075107FC0760
:102EB0004F07FC07001400005908FC07130C000022
:102EC0008110FC07031400002109FC07B42EFC0745
:102ED00003000000140000005108FC07FF00000080
:102EE00000000000D42EFC07D4BCFC070100000049
:102EF000FFFF0000B90BFC07F02EFC0701000000EB
:102F000000000000F82EFC07ECBCFC0702000100EA
:102F1000E42FF807E82FF807002FF807082FF80725
:102F200010000000582FFC07582FFC07040C00006D
:102F3000042AFC07582FFC075C3BFC070007000035
:102F4000042AFC0740BCFC0740BCFC078C010000C5
:082F5000042AFC07E001000067
:0400000507FC0151A2
:00000001FF
