:0200000407FCF7
:10000000202DFC070521FC071921FC073321FC07E3
:100010004D21FC074D21FC074D21FC074D21FC071C
:100020000000000000000000000000004D21FC075F
:1000300000000000000000004D21FC074D21FC07DE
:10004000E902FC07191EFC07A526F0072504FC079A
:100050009D03FC074D21FC07DD02FC074D21FC0739
:100060004D21FC074D21FC074903FC075303FC0706
:100070005D03FC076703FC077103FC074D21FC07C8
:100080006904FC074D21FC074D21FC074D21FC07AD
:100090004D21FC074D21FC074D21FC074D21FC079C
:0800A0000000000090070E00B3
:0200000407FCF7
:100110005458000652580005525453000743545394
:100120000008504F520000010000000000000000D5
:0200000407FCF7
:100130004669726D776172650000000033303831B6
:0C01400006001800B805000300000000D5
:0200000407FCF7
:100150000348854600F0AAF8004800476510FC07F0
:10016000202DFC07F0B50546007985B007073F0F45
:10017000284642F772FC029028794006C00F03908F
:10018000284642F76AFC4448806A8079012825D0D5
:100190000126414840300079800775D5002E73D084
:1001A00000222B2311463D485AF7A6FD022707706F
:1001B00001263B4946700446C969A87988472A2127
:1001C0000855287900210007000FA07003005DF793
:1001D00043F90737393B423F423D420002980190C4
:1001E0002D4814300090002604680BE0611D019832
:1001F00042F749FD002804D02079B84201D10126F8
:100200001BE02468002CF1D1009842F732FD25490B
:100210000978884202D1244806780EE000210C209B
:100220005AF75CFC04460622401D01995DF7C0F8B0
:1002300027712146009842F74DFC01204640A8E76F
:10024000A1700AE0A67021E0032002E0A77004E09C
:100250000420A07001E0012818D0A888000A801F9F
:10026000A072284642F7F9FB811D2046A27A0B3086
:100270005DF79EF80622201D02995DF799F8039814
:10028000E07020464DF7BAFD05B0F0BDA172F1E770
:10029000704770477047000074FBFC0704080000BB
:1002A000E4FEFC07A1F9FC07A2F9FC071CB509480C
:1002B00000900948019005460126009C05E0E3688E
:1002C00007CC33430C3C98471034AC42F7D3FFF7CC
:1002D00043FF0000B825FC07E825FC070148012181
:1002E000018070470E15005010B514480821018098
:1002F000D24C218AE08960F711FF5FF752FA454836
:100300004188890703D041880322914341800188B5
:1003100080220A430280018904229143018181895C
:100320008907FCD541F7FDFF206A054908600548AB
:10033000016801684907FCD510BDC0460033005074
:10034000080200401000004080B50A2000F01AF8B2
:1003500080BD80B50B2000F015F880BD80B50C2065
:1003600000F010F880BD80B50D2000F00BF880BDC6
:1003700080B50E2000F006F880BD80B500235FF741
:100380000BFB80BD10B504465FF712FC0120A040B6
:100390002149086010BDC046FEE700000248008801
:1003A0001D481021016070472C13005080B54CF798
:1003B0007AF90B48828980210A4382810279037885
:1003C0001202D21814235343064A12881207D20E7F
:1003D000D218921C044B1A8082898A43828180BD84
:1003E00000100050C010005040BCFC0709480189B3
:1003F00004220A430281018840220A4302800649FE
:1004000001220A604189054A11408918091D41816C
:100410007047C0460800005080E200E0FC7F00000A
:100420007047000010B50F4CA1880F20084002282B
:1004300009D0042804D00C280CD00128F4D110E0F5
:1004400001F048FEF0E720880221884320802088C0
:10045000802103E001F03EFE2088012188432080B6
:10046000E2E710BD0411005080B55FF79AF91D480E
:10047000018809050ED51C490A8805231340052B60
:1004800008D10888042202430A8008880122904388
:10049000088080BD0188C90606D514498A88D2071C
:1004A00002D00A88120610D40088C0060CD50F4866
:1004B0008188890708D50188C90505D50221818071
:1004C00001880B4A0A40028080BD0120888008888C
:1004D0008022904308805948C0690028F4D000F079
:1004E0005DFA80BD04000050000200500001005081
:1004F000FFFE000010B5012420465AF743FE0028F5
:1005000005D100205AF73EFE0446401E8441204695
:1005100010BD80B5C1B20C2904D1A02108435F21D0
:10052000884380BD084661F711FB80BD80B5C1B22C
:10053000A02904D10C210843F321884380BD08463B
:1005400061F720FB80BD0000022807D8044908702D
:10055000C006000E0349C1400348C1707047C04641
:1005600078FAFC070001010018FAFC07B0B50C4648
:100570000025202D04D042F7C2F960556D1CF8E724
:100580000020B0BDB0B5044609480A4D40222946B6
:100590005CF70EFF48350848302229465CF708FF13
:1005A0000648001B0649088014304880B0BDC0468C
:1005B00070DCFC077C37F207B0DCFC07B8DCFFFF1F
:1005C00078DCFC0707481E214180018803220A438A
:1005D0000280018804220A430280EF480121017051
:1005E0007047C0460016005080B5E2480078C0074A
:1005F00008D105205AF7C6FD00280FD12A20094945
:10060000085C04E00648417D012907D1007D414294
:100610004141C21E50425041084380BD002080BD70
:1006200014FDFC07BCFCFC0780B503480168F248D8
:10063000801C5EF7EDFD80BDE825FC07F0BCFC07E3
:10064000704770477047704780B55EF785FE80BD84
:10065000F8B56946C870020A8A70020C4A70000E2A
:10066000087008465EF760FE8FBD7047704770B532
:1006700005460469261D3068002805D0304642F73B
:100680000DFA5AF7A6FAF6E70020286120465AF735
:10069000A0FA70BDF0B58BB01E4607920F46044617
:1006A0001098069000880890012200210B46092B23
:1006B00013D006258D40099121463446089EDE4020
:1006C0003846012737407E4207462E4032432646B1
:1006D0000C460999891C5B1CE9E70A92802030438B
:1006E0009E210140A08A03911D49029101900020A2
:1006F00000901C490AAA132338464FF713F9054600
:10070000002829D1089720270121059138465AF75A
:10071000E5F90996064639465CF763FE26613046E0
:100720001E3011496160A0600898008830830598E8
:10073000E0811420E082A08A70800998C0030799A4
:1007400008433080069800887083301D42F79EF978
:10075000A08A00215AF701FD28460BB0F0BDC04623
:10076000D021FC070A180000B422FC07004870479B
:10077000D422FC07FEB51F4616460C46142061F72E
:10078000BDF9002819D001972778082F029615D8AF
:100790000546418B008B3A4600F096F800280FD0B2
:1007A00060788D26802839D8082F0ED0072F09D0E1
:1007B000062F0CD108280AD030E0FEE781262DE074
:1007C00082262BE0062802D228E0072826D12E1DFB
:1007D00035462D68002D0BD02979B942F9D1002278
:1007E0003046294642F7CAF928465AF7F2F96078A6
:1007F000083001215AF772F90546617808315CF733
:10080000F0FD2078287162786A71A81DA11C5CF740
:10081000CFFD3046294642F75DF9002606480223FF
:100820000199029A5AF768FA2178017046705AF7CE
:100830007EFA0020FEBDC04601140000F8B5144643
:100840000D4610465AF79EFC012838D1142061F756
:1008500055F9002821D00746418B008B3E7F324658
:1008600000F032F80090787F010208312A781548AC
:10087000964213D16A7889B2931D22465AF73CFA00
:100880000746002038710098388068787880781D95
:100890006A78A91C5CF78CFD0AE0FEE789B20623A2
:1008A00022465AF729FA0746802038710098388086
:1008B00038465AF73CFA002120465AF74EFC0020F1
:1008C000F8BDC046140C0000B0B58BB2411C00202E
:1008D0000446092C09D01D46E540ED0702D0A2428E
:1008E00002D0891C641CF4E7481C80B2B0BD000033
:1008F00080B55AF761FF4BF7D4FB3F4801210172E5
:1009000080BDC0467047000080B5002048F798FDC4
:1009100039480421017260F773FE80BD80B5012063
:1009200048F78EFD80BD80B54BF7BBFBFFF74AFE55
:1009300080BD80B548F7D0FD80BD000080B5264859
:1009400001880122914301800A480078C00702D142
:1009500041F7B8FE04E0002041F704FF41F7CAFE6A
:100960005AF70EFF41F76CFEFFF72CFE22480021DC
:10097000017280BDC5F9FC0780B51F4880795FF71B
:1009800029F8002805D136482021016032205EF781
:10099000EDFE4BF7B6FE80BDF0BCFC0780B5EFF373
:1009A0001081012080F310880A4A1288120603D4AD
:1009B000094A138803431380002902D080F310886A
:1009C00002E0002181F310880B49087100F006F85D
:1009D00080BDC046080000500833005080B506486E
:1009E0000649C16141790122104688400023014631
:1009F0005FF778F980BDC046F0BCFC079D09FC0795
:100A0000B0B5124D2888400602D52888800609D442
:100A10000F49086A0024002815D0CA69521CCA610F
:100A2000824210D30A480024C461281F202101609B
:100A3000084800885EF79AFE2888C00701D1012483
:100A400001E04BF75EFE2046B0BDC04614100050DA
:100A50007CFAFC0740BCFC0701482021016070477C
:100A60001010005080B54BF791FEFFF785FF80BD59
:100A7000F0B587B00E460B4940180B2800D943E16A
:100A80004000C04678448088400087440D003D0106
:100A90003A003D0180003D0193003D019F00270089
:100AA0003D015100FF5FFFFF3078841CEA480C22B3
:100AB000194623465AF720F9044600250570317877
:100AC00041708D4200D31CE1A90701D15EF744FCBF
:100AD000611988706D1C000A3178F2E7DF48052142
:100AE0000C2202235AF708F9044600206070DC4803
:100AF0000078421E51425141022800D10146217026
:100B0000FFE0EB480C22142519462B465AF7F4F85F
:100B10000446E84908312A465CF74AFCE648017871
:100B2000217001796170017AA170007BE070E8E0CA
:100B3000D9480C220824194623465AF7DDF8044602
:100B4000FF20E071D549062230465CF755FC0028AD
:100B500015D03078717809020818B1780904401866
:100B6000F17809064018CE4908603079727912028E
:100B70001018486030464AF706FF0020E071062250
:100B8000204631465CF714FCB079A071B9E0C64844
:100B90000C220224194623465AF7AEF804460620D2
:100BA0002070307841B2002902D4032800D299E0A5
:100BB0003020A5E0BB480C220124194623465AF7F1
:100BC0009BF80446AA48C07920709AE0A3480C25F7
:100BD000022719462A463B465AF78EF804464770C4
:100BE00030782070022879D300D184E0032800D027
:100BF00087E0FFF77FFC002800D080E0069500200A
:100C00000590607020465AF792F8964D5AF751FDBC
:100C100028884006FAD5FFF7F3FE0598C0439249AD
:100C200008609249082204920A80717802919049E2
:100C3000497972B68F4A10608F4BD889C005800FF2
:100C40008E4A1080012006468E40198AC906FCD4BF
:100C500003210591C901DD898D43DD8188490D8915
:100C60007C229543F2B2520892002A430A81DA8C20
:100C7000D20406D40A893A400D89BD43AA187A40A5
:100C80000A810503DA8C2A42FCD00A8902430A81D0
:100C90007C4A15680426039635431560059AD243AD
:100CA0009D8A1540029F3D439D829D8A069EB543C5
:100CB000BE002E439E82DD891540DD818A888243F5
:100CC0008A800A8807252A430A809A8A15261640B0
:100CD000152E00D188E0059A150386E0FFF734FC55
:100CE00000200DE00021617070A1085C6049C871AE
:100CF00001F0ACF805E0FFF7FDFB002807D001206C
:100D0000607020465AF713F8002007B0F0BDFFF7D7
:100D100065FE00200290607020465AF708F8514F97
:100D20005AF7C7FC38884006FAD50695FFF768FEE3
:100D30004E480821049101807078039072B64E4E9F
:100D4000B18904200143B181B18880229143B180EF
:100D5000B188402201921143B1804C49059008802E
:100D600031884B4A0A4032800298C143414A11609F
:100D7000318AC906FCD40321C801F2898243F28179
:100D80000122D04302903E4B1D8905401D813D4DFF
:100D90002868059F38430F462860B08A8843039926
:100DA0000843B082B08A069DA8438D000543B582F2
:100DB000B0891043B08198880299084098800F202C
:100DC0008002198B014319839003198B0143198306
:100DD000F08CC00526D42F4881881143818001887A
:100DE00060229143018027E0ED020A8B264E1640D7
:100DF000AA190A8380030A8B02430A83DA8C088BC0
:100E0000D20503D5402210430883088B059A10436E
:100E10000883088B049A10430883088B039A904335
:100E2000088314E01B48018820220A4301998A4361
:100E30000280188B08431883188B38431883188B4B
:100E4000049908431883188B05998843188300BFB9
:100E500000BF00BF30BF54E702A000000BA000009D
:100E600078FAFC071410005080E100E000330050D5
:100E7000F0BCFC0780E200E004000050A000FC078A
:100E80000803005010ED00E0FFC300000002005016
:100E9000FFF70000520000500DA0000094D4F107AD
:100EA0002400004008A0000006A000000C0801007B
:100EB00004A000003001FC0700320050F8B51E46C7
:100EC00014460D4610465AF75DF901281AD000283D
:100ED00047D1142060F712FE002812D00096428BF2
:100EE0002B88018B4E1C002109292ED01746CF409C
:100EF000FF0704D0B7B27F1C9F4205D0B61C491C27
:100F0000F2E7FEE702242DE008291ED8CFB2061D25
:100F10003668002E28D03179B942F9D17079831D15
:100F20001C480099224659F7E7FE07462888388072
:100F300000243C7170797880781D7279B11D5CF75E
:100F400037FA384659F7F3FE0CE0124806230099A9
:100F5000224659F7D1FE298801808021017159F775
:100F6000E6FE00242046F8BD07770099090A41777C
:100F700060F7E2FD01460848012522462B4659F755
:100F8000BBFE077059F7D3FE204629465AF7E5F80D
:100F9000E7E7C046140C00000214000080B52E489C
:100FA000C01C0249891C5FF7C1FD80BDF025FC070C
:100FB00070B5174EB06800F02DF827494A6A002333
:100FC0004B621518084C284621465CF777F970618A
:100FD00006494143481901D0201A80B23061306877
:100FE00008210143316070BD710200008FFDFFFFD9
:100FF00080B506480021016001F034F80120C007E7
:1010000003490A6882430A6080BDC0469CF9FC0718
:101010003000004080B50246C00B09D00E48C06BBE
:1010200000210B465CF774F98905800A401880BDE1
:101030000948C06B4243900A80BDC04680B5FFF7A7
:10104000E9FF80BD80B50449896B41430348081816
:1010500003495CF733F980BDF0BCFC0720A1070011
:1010600040420F0000B5A1B0D64808260680D64FF2
:1010700038881EAC20802088C046C04620880422C4
:10108000D1430842139202D00020388003E0B8898F
:1010900001218843B881CD4D288830432880012123
:1010A00008020C460E9108902C305EF75FFB6888B2
:1010B00080210991084368800F208102BA8B0A437E
:1010C000BA83E98D06229143E985A103BB8B0B43CB
:1010D000BB832988BE4B0B402B8069881143B143E9
:1010E0006980052111910C07628DBA4BFF33E98DA0
:1010F00019407D23DB000A960603D005069312965D
:1011000021D4032042021143E985E98D3143E98569
:10111000B98B0A9EB143B983B98B04229143B98339
:101120006988AD4A0A406A806988AC4A0A40C002B0
:1011300010186880E88D0E990843E885139B608D30
:101140004007FCD518E058181830E885E88DA44908
:1011500001400E9AD0030818E885B88B0A9E3043E8
:10116000B883B88B139B9843B883E88D9043E88588
:10117000B88B40210143B983B88B03210D910843FB
:10118000B883924A108820210C910843402188435B
:101190001080208F02263043208792480380A08849
:1011A00091490140A180914F0E9DBD702804904946
:1011B0000860FFF7F3FE0F9630465FF77FFC8D481F
:1011C0000068C1B20C20AA29014600D013992288D8
:1011D000824388182080C046C046874800883886E9
:1011E00086480068F8622846C046C046882784487A
:1011F0000025C55315AE83A1242230465CF7D8F8EC
:1012000089497F482A4633465EF730F97C4BD85DE2
:101210004008D8558920195C490819548420195A66
:10122000002901D1069919528621585A00286F4F7A
:10123000704E15D1FF200202306810403522120294
:10124000904209D00D229202904203D03322120222
:10125000904204D1942000E09020585200E00020F9
:10126000F8815DF7EDFF7F207870B0696F49886085
:10127000F81C891C5FF706FD6D4800686D498842BF
:10128000119B00D094E06C4F6C4938465CF7A9F88C
:10129000072529026A485CF7A4F8FEF7FBFF6948B6
:1012A0006949016069486A4930225CF781F86948F8
:1012B0000026C671867146710671C67086704670CA
:1012C0003F2113910170644864A140220B925CF7A6
:1012D0006FF87248C67186710D9A4271FF210171D3
:1012E000C1708170417001706D4806706D486E4923
:1012F00001606E486E4901606E496F4808606F4832
:101300000A2101706E48109606706E48092101602E
:101310006D4802606D480B2101606D480C21016031
:101320006C480D2101606C480E210160089A901DE7
:101330006A4908606A49086016466A4807600746B5
:1013400000F012FC5DF7AAFE5DF7EEFE1299FF3188
:10135000E08C084069020143E1845DF701FF3448F5
:1013600000683449884200D1D2E038685E4988601C
:101370002E4A90681071010ED171010C9171000A12
:1013800050713046C030594A002800D1B2E0401EAA
:101390005649435C1678354639460D9F3D40234FEC
:1013A0007D190F462D795D4075401570521CEBE795
:1013B0004F484E495A02954200D964E72A586A506C
:1013C0002D1DF7E700330050040300505200005079
:1013D000FFBF000000F0FFFFFFF90000FFC70000A3
:1013E000FF0F000000020050FFF70000F0BCFC07F8
:1013F00080E200E0D02FF807D82FF807D42FF807A5
:1014000044BCFC07511BFC072D1BFC07DD1AFC0725
:1014100000000000011BFC07A51AFC0700000000EB
:10142000D02EF807C02FF807A000FC07F025FC0716
:101430009CF8FC076587341200DCFC07D01A00001A
:1014400000F9FC0724FAFC07F422FC07C8F9FC07A2
:101450005CDEF107A4F9FC073CFCFC0720008000DF
:1014600000C000000000040000002822000000006E
:101470000000040000F7FFFF7F00000030F00708C5
:101480000000000000040000000000000000000058
:10149000000000000000000000000000ACF9FC07A4
:1014A000C5F9FC0750F9FC07E036F20754F9FC07D0
:1014B0002424FC0758F9FC071C23FC07A1F9FC07AE
:1014C000A2F9FC075CF9FC0760F9FC0764F9FC076A
:1014D00068F9FC076CF9FC0770F9FC0748F9FC0790
:1014E00044F9FC074CF9FC070002004038BDFC073A
:1014F00000F0FC07EB4D1C35EB491C2228465EF73B
:10150000D3FC28465DF710FFE848E9490160089ED2
:10151000386840F79FFEFB48109F0771C7700E9D0B
:10152000A9070868304312910860FFF74BF8284676
:1015300000F0A4FBF348C770F5480770F548F24E79
:10154000B0620C25F149284659F7D5FD28463946A1
:1015500059F703FEFA48017BB171407C7071FFF7C7
:101560003DFAF448C770F4480770F648F649081881
:10157000F64940188008401E0790FFF739FD0E9984
:1015800048020190139880020090CE03DC480C3092
:101590001390089F11962089000600D4BBE0129892
:1015A000006B304200D0B6E0E2480088C00700D0AF
:1015B000B1E05AF77EF80025284600F05FFBDF48CF
:1015C000007A042800D09DE00E9800F057FB149597
:1015D00014A804214AF7BCFE002800D192E00E981E
:1015E000DB49086008680028FCD11298C069D3491B
:1015F0004969884202D2D1494D612946411AC90937
:1016000019297FD3CD494861D24908880590488877
:10161000049088880390C88802901F95CE481E9039
:1016200015ABF3A01946C4C8C4C17C20F74A105AB0
:10163000000918711EA8F6495FF726FC06981730B6
:10164000F94A11890140F04E718151890140B181FF
:101650001089009F38400199084310815089384013
:101660000843508116465FF703FDE9490988E64AB9
:10167000528933893B4013433381FF4A92897389EE
:101680003B401343069A7381401A11464143002898
:1016900004DCE74A8918C017084001E0501896306A
:1016A000E4495BF721FE86091936FC4948787F2812
:1016B000089F1CD0301A41B2C9114840401A40B2AC
:1016C000082815DBF5498869401C88615FF782FFAF
:1016D00000F0C2F900F0BAFB5FF7BAFF5FF740FF16
:1016E000CC4870305FF7E6FF5FF78AFFEB494E703A
:1016F000CD4804994180039981800299C180059960
:101700000180119EE5480079012804D1FFF734F9E2
:10171000E24805713FE7FEF767FF002800D13AE78E
:1017200072B61EA9109A0A70BD48007902281046A8
:1017300002D0B9480068806A15901398BE4A5FF7D6
:101740002FFD0028B24D00D088E0BC48806A0028F8
:1017500003D0B1480068806A159000F083FC15A999
:1017600013985FF753FD002878D14CF775FD0028DA
:1017700071D04BF7F1F900286DD015A85FF768FD1F
:1017800000286BD101205EF717F815980028129EEB
:1017900006D0316AAA4A8918DA2901D8401E159064
:1017A000BE4B188A296908186861A1487E30F26B1F
:1017B00002400A43F263F06BA2490840A96989021A
:1017C0000143F163F06BA0490840696949050818B5
:1017D000F0631EA804210170159A9C48824200D330
:1017E00004E1186C596C00235BF792FD0903000DAE
:1017F0004118A869821C8A4200D0481E884909798C
:101800004A1E914147F7D8FF9148C06A8047834DEF
:101810001299119A086B1042FCD028683842FCD00B
:10182000286809998843286074484089452805D864
:101830004621724A5181081A9849486240F745FD8D
:10184000A8689649086228680006FCD5208909998D
:101850008843208102E01EA80021017071480078B1
:1018600001280F9E00D00D9E1EA80078042800D0ED
:101870000646B01E022809D2208A04252843208269
:10188000F1480079002815D000267BE0012E119E3A
:1018900000D0A9E0FEF7A8FE002800D1A4E030BFE8
:1018A000A2E0C046F025FC0738BDFC079CF8FC0709
:1018B00065873412022E2FD0032E63D15B4908684E
:1018C000284308604E4908890E9FB8430881608A02
:1018D000A8436082FFF762FB608A102101436182A6
:1018E00007985C490860EFF3108087F3108821881F
:1018F000099A91432180002830D087F3108830E086
:10190000F025FC0718FAFC07F0BCFC076821FC076F
:1019100078FAFC074306FC07444908682843086036
:10192000374908890E9A90430881608A10218843BC
:10193000608225E018FAFC0778FAFC07F0BCFC0787
:101940001001FC079C2400005001FC07030004F870
:10195000FC0000400015005001040000002080F34E
:101960001088608D089F38420AD00020CE49C87088
:101970000B205DF753FF2349C88D0E9A1043C8858D
:1019800000202083608D384208D11E4A90880E992D
:10199000084390801088602188431080FE20064014
:1019A000022E0BD1A08C0E9EB043A0840D205DF7BB
:1019B000DDFE60893043022188436081A08AC00631
:1019C000104902D50A980D4A108030BFA08A0888B5
:1019D0000C9A10430B9A9043088000F0C5F8134905
:1019E0000868A8430860119E62B6D4E5FEE7C046C9
:1019F0005BB0050200000000320000000033005020
:101A00000403005052000050F0BCFC0744BCFC072B
:101A1000F025FC0700DCFC0758F9FC070002004039
:101A200018FAFC0778FAFC070015005010ED00E0EA
:101A300082FBFFFFFC0800002906FC0700FEFC07F4
:101A4000C8FEFFFFFF03E0FFFFFF1F0040420F0043
:101A5000E4FEFC072000F40710B5EE4CE079401CD2
:101A6000E0710F490968C3B23E4800225DF750FE9D
:101A7000E079401EE07110BDF0BCFC0710B5E54CEC
:101A8000E079401CE071C3B23648054900225DF799
:101A90000BFEE079401EE07110BDC046F0BCFC07B3
:101AA0001C26FC0770B51E2816D1284810184908B6
:101AB0002C4A0B0610D004684368083000263546CF
:101AC0000835382D06D09619366BA6422E46F7D12A
:101AD0005419E362491EECE770BDC04670B50C4670
:101AE0001A48111889251F4E705DC000301830301B
:101AF000A2005BF75DFC705D0019705570BDC046BB
:101B000010B51248115809234B431058000C1A1AEB
:101B10001204D2148023134CE252401A0104890C9F
:101B20000818401C7E21605210BDC04670B50C469E
:101B30000648111888250B4E705DC0003018A200B1
:101B40005BF736FC705D0019705570BDD42EF80738
:101B500088001018024940587C21024A50527047B0
:101B6000D02EF80744BCFC07F8B5AA48C27837481D
:101B7000811C1B205DF7AAFE35480021016008206A
:101B80000B210324224640F791FD324FB87D5DF7CB
:101B90002DFF314E00283BD0787DB979814203D1A9
:101BA000B97DFA798A4233D0B978814203D1B97DBF
:101BB000FA788A422CD0F97A814203D1B97D3A7BF6
:101BC0008A4225D0397C814204D1B87D797C81421A
:101BD00001D11DE0B87D052211070B88022806D02F
:101BE0000C252B40042B00D00A22824203D14A8AC2
:101BF0001A4B13404B820125358000210A46FEF71F
:101C0000BCFBF97D481E8141B87D2A465DF7E2FFA5
:101C1000F878250202223C46114F2946B847E07960
:101C20000026012431462246B8470A48007B142288
:101C30002946B8470748407C13223146B847064931
:101C4000888920438881F8BDF0BCFC07F025FC079B
:101C5000000008401001FC07000300507FFE000058
:101C60007B03FC0703480188034A11408918091DBA
:101C70000180704712000050FC7F000080B50146D3
:101C8000EB480278012A0ED1084A002903D01188B6
:101C90004907FCD402E01188490704D400210170EF
:101CA00038305DF777FA80BDF0BCFC0700160050B5
:101CB00070470000F0B58BB03022002181541F2204
:101CC0001204204B1C6894430122550464191C60C3
:101CD0001E4C1F4D45611F4D1F4E204F204BC361B1
:101CE00006624462184B8362C5621E4B0760436004
:101CF000D004544A136883431360282903D001A8F1
:101D00004154491CF9E718480068403001A92822CD
:101D10005BF74EFBE9480821C1715FF75BFCFFF7F9
:101D2000ADFEFFF799FE00F091F85FF791FC5FF7C9
:101D3000A3FC5FF715FC23485FF7DCFC5FF760FC52
:101D40000BB0F0BD74000040711DFC076D1DFC0759
:101D5000F11DFC073516F2072104FC07C91DFC071D
:101D6000CB1DFC07B11CFC074CF9FC070020704799
:101D70007047000080B51F20000401218A07536FBF
:101D8000834348041818506710680721884310607F
:101D90000B48018808220A4302805FF71BFCFFF70B
:101DA0006DFEFFF759FE00F051F85FF751FC5FF749
:101DB00063FC04485FF78EFC5FF722FC80BDC046E1
:101DC0000800005070DCFC07704780B5E62800D39F
:101DD000E620282800D82820FF22EC3242437D202C
:101DE000C10010465BF76AFA7E38C0B280BD0000C1
:101DF000012906D0022903D1032804D20C20704700
:101E0000FEE7032802D3FF2800D0FEE7AB48C079E5
:101E10007047C046F0BCFC0780B50A480168C90796
:101E200003D0016802220A4302600168490204D516
:101E30000121890502680A43026003485FF798F9A7
:101E400080BDC046000200407821FC07FCB57F2021
:101E50000102644842698A430B2109025118416119
:101E6000016889B2604A8918016081695F4A0A4045
:101E70008261032101910902026B0A430263818F8F
:101E800010220A43828781880122009211438180B7
:101E90005748584901605849088810430880574DF1
:101EA00028461038564EB18B0140152044010819C0
:101EB0005030B0837069534901405348081870612D
:101EC000B06952490140092040020818B0613068E9
:101ED0004F4901404F480818306070684E49014032
:101EE0004E4808187060B0684D4901404D480818C8
:101EF000B060F0684C4901404C480818F060C120BF
:101F000040016E49C979090608184A490860052048
:101F1000820249490A80571D8F800F8B3420384335
:101F2000CB27B8430883088C55270743AA2087434B
:101F30000F84FF276C373846C93008853F4B184659
:101F40000E3088853E4808868B860A3008870A321C
:101F50003285B06B3B4901403B480818B0633B48B1
:101F60000780028F2A402146203152180287384EBE
:101F700032882A40D219D5323280B2882A401219CA
:101F8000B28032892A40511831813946213181800D
:101F9000304801882940091960310180018A1722DF
:101FA0000A4308218A430282818A19220A430621B0
:101FB0008A43828207841F4A908F274901400098F4
:101FC0004003081890870C4A106C019908430421BB
:101FD00088431064506A2149014021480818506222
:101FE000FCBDC0462030004000006666FF00FEFFDA
:101FF0008000004059055C07401000401FFCFFFFB7
:10200000042000400000E0FF09581A00FEE1FFFF35
:10201000E0E000000809294900000303696A686CD0
:10202000031FFFFF70600000E0E0E0E00B0A0A0819
:10203000F0BCFC070010004028130040260A0000F6
:102040004E0800002304E0FE181A060100120040AA
:102050004412004088120040FF9F000000FE00FE76
:1020600050015001F8B5842013490E5A134FBC6B30
:10207000304660431249401812495BF71FF9054684
:1020800038823C3666430E4830180E495BF716F925
:10209000001D0D4908612818C01D88610B4A12787F
:1020A000022A01D111308861FEF7B4FF08494018B7
:1020B00080B259F78FFBF8BD44BCFC07F0BCFC07AD
:1020C00020A1070040420F00F025FC0778FAFC072A
:1020D000E204000002480188012291430180704718
:1020E0000411005002E008C8121F08C1002AFAD1EA
:1020F00070477047002001E001C1121F002AFBD188
:1021000070470000034880F3098800F025F8FEF7C7
:102110001FF8C046202DFC0704207146084203D05A
:10212000EFF309800A490847EFF308800849084798
:10213000704704207146084203D0EFF30980054937
:102140000847EFF30880034908477047FEE700009F
:10215000ED03FC079903FC0780B502485CF7BCFC63
:1021600080BDC046A000FC0700000000E422FC0780
:10217000E8BCFC0702000100800000002709FC0702
:10218000020000003309FC07080000000909FC07F1
:10219000000100001D09FC070002000075C1F007E6
:1021A000400000003794F00710000000C97BF007E2
:1021B000040000003D09FC0701000000F108FC07D5
:1021C000200000000509FC070000000000000000DE
:1021D00000280000010000000000000003280000AB
:1021E0000100000002000000292A00000100000098
:1021F00080800000032800000100000004000000AF
:10220000242A000001000000808000000328000054
:102210000100000006000000252A00000100000067
:10222000808000000328000001000000080000007A
:10223000272A000001000000808000000328000021
:10224000010000000A000000262A00000100000032
:102250008080000003280000010000000C00000046
:10226000282A0000010000008080000003280000F0
:10227000010000000E000000232A00000100000001
:10228000088000000328000001000000100000008A
:102290002A2A000001000000088000000328000036
:1022A0000100000012000000502A000001000000A0
:1022B00007800000BC22FC0703000000001400009F
:1022C0007507FC07130C0000BD0EFC07031400008B
:1022D0003D08FC079506FC076F06FC076D06FC072A
:1022E0006B06FC07EC22FC0701000000FFFF00006A
:1022F000710AFC070000000000000000F40111005A
:10230000F4352348F40108C4140A00001400000046
:102310006D07FC07FF000000000000000500000042
:10232000202DFC070008000044C1FC071008000035
:1023300038BDFC070004000060C9FC07900B0000DA
:102340002003000000A60E0005000000D2000000DF
:10235000320000003C00000001000000010000000D
:102360000200000002000000040000000300000062
:102370000600000000000000020000000200000053
:102380000000000000000000030000000300000047
:102390000500000005000000060000000A00000023
:1023A0000A000000C8000000B80B00000200000096
:1023B000B80B0000B80B000010000000D4010000B2
:1023C000CC010000700200006A0000000400000060
:1023D00003000000200000000C00000001000000CD
:1023E000E20400008A020000DC050000AF000000EB
:1023F000A425FC071424FC0700000000AC25FC0702
:1024000000000000000000000000000000000000CC
:102410005E010000A8F8FC07A0F8FC07B8F8FC076C
:10242000F8F8FC07B51CFC07751DFC07AD03FC079D
:10243000590AFC07010AFC075FC7F00777C7F007D6
:10244000650AFC07AFC7F00731CBF007D5CDF00721
:1024500015CCF00735CCF00755CCF00793CCF0073E
:10246000A3CCF0070DE2F007C9DFF007E7DFF007C4
:1024700003E0F0071DE0F00731E0F007AFE0F00700
:10248000C7E0F007E3B0F1076BB3F10707A9F00766
:10249000B5EFF10799F0F10795F0F10791F0F10729
:1024A0008D21F007651CFC07B10FFC07F10FFC073D
:1024B0004510FC073D10FC07057DF007D37BF007B6
:1024C000737CF007AD82F1074134F1075D19F20723
:1024D000DD19F207811AF207BD1AF2071305FC078E
:1024E0002D05FC07000000004506FC074706FC0719
:1024F0007DB3F007D976F107617DF107B181F1076E
:102500009780F107C549F1079759F107F10AF107DB
:10251000A1ECF0074106FC076501FC07DDBAF007F6
:1025200025AAF00799AAF00749ABF007E72DF007B5
:10253000A32EF007657FF0072F7EF0070136F00726
:10254000000000004906FC075106FC076D05FC076A
:1025500001A7F10783A7F10707A8F1078505FC0785
:10256000B5B7F00700000000000000000000000008
:10257000000000000000000000000000000000005B
:10258000000000000000000000000000000000004B
:10259000000000000000000000000000000000003B
:1025A00000000000FC22FC071CBDFC070C23FC07FC
:1025B000D0BCFC0701000000EC25FC07F025FC075F
:1025C00030000000F420FC07EC25FC072026FC0767
:1025D00000070000F420FC0740BCFC0740BCFC07DF
:0C25E000F8000000F420FC07E0010000FF
:0400000507FC0151A2
:00000001FF
