:0200000407FCF7
:10000000303BFC072501FC072D01FC074501FC07DF
:1000100000000000000000000000000000000000E0
:100020000000000000000000000000005D01FC076F
:1000300000000000000000005F01FC071105FC0744
:10004000FD02FC077921FC07A526F0072105FC0726
:100050003D04FC076301FC07F102FC076301FC0798
:100060006301FC076301FC075D03FC076703FC07F2
:100070007103FC077B03FC078503FC076301FC0796
:100080008505FC076301FC076301FC076301FC07AE
:100090006301FC076301FC076301FC076301FC07C4
:0800A0000000000090070E00B3
:0200000407FCF7
:100110000348854600F0DAF8004800470D12FC0756
:10012000303BFC070F4880470F48004704207146CA
:10013000084203D0EFF309800C490847EFF3088029
:100140000A49084704207146084203D0EFF30980AA
:1001500007490847EFF3088005490847FEE7FEE72F
:10016000FEE7FEE7E127FC071101FC074D04FC0751
:10017000B503FC07F0B50546007985B007073F0FCA
:10018000284642F76AFC029028794006C00F039087
:10019000284642F762FC4448806A8079012825D0CD
:1001A0000126414840300079800775D5002E73D074
:1001B00000222B2311463D485AF79EFD0227077067
:1001C00001263B4946700446C969A87988472A2117
:1001D0000855287900210007000FA07003005DF783
:1001E0003BF90737393B423F423D420002980190BC
:1001F0002D4814300090002604680BE0611D019822
:1002000042F741FD002804D02079B84201D10126EF
:100210001BE02468002CF1D1009842F72AFD254903
:100220000978884202D1244806780EE000210C208B
:100230005AF754FC04460622401D01995DF7B8F8B0
:1002400027712146009842F745FC01204640A8E767
:10025000A1700AE0A67021E0032002E0A77004E08C
:100260000420A07001E0012818D0A888000A801F8F
:10027000A072284642F7F1FB811D2046A27A0B307E
:100280005DF796F80622201D02995DF791F8039814
:10029000E07020464DF7B2FD05B0F0BDA172F1E768
:1002A000704770477047000074FBFC0704080000AB
:1002B000E4FEFC07A1F9FC07A2F9FC07421C017847
:1002C000401C0029FBD1801A70470000064C012514
:1002D000064E05E0E36807CC2B430C3C98471034EE
:1002E000B442F7D3FFF718FFD033FC07F033FC0715
:1002F00001480121018070470E15005010B5E84CEF
:10030000A18B608B60F70AFF5FF74BFA10484188BA
:10031000890703D0418803229143418001888022CC
:100320000A4302800189042291430181818989075E
:10033000FCD541F7F6FF606B064908600648016886
:10034000490700D500BE01684907FCD510BDC0466D
:1003500008000050080200401000004080B50A204C
:1003600000F01EF880BD80B50B2000F019F880BDAC
:1003700080B50C2000F014F880BD80B50D2000F091
:100380000FF880BD80B50E2000F00AF880BD80B562
:1003900013460A46032109025FF7FEFA80BD0000FA
:1003A00010B504465FF704FCE0B2012181405048DB
:1003B000016010BDF8B5044601273E02052005077F
:1003C000688DC00506D51B205FF728FA4A480188CA
:1003D000394301808036288840013040698A474A85
:1003E0000A4002436A8221681348016061684160E3
:1003F000A1688160E168C160216901616169416151
:10040000A1698161E169C16104623E490A68426291
:100410004A6882628A68C2624A690263CA68426341
:1004200009698163334808210180A88AC00600D485
:10043000FEE700BEF8BDC04600F8FC070248008891
:100440002B481021016070472C130050F8B504466A
:1004500005200507288A0421014329822889402193
:100460000143298122480127076022480821018091
:100470003E02688DC00506D51B205FF7CFF91E48E8
:100480000188394301808036288840013040698ADC
:100490001A4A0A4002436A82216819480160616869
:1004A0004160A1688160E168C160216901616169A1
:1004B0004161A1698161E169C161046211490A6810
:1004C00042624A6882628A68C2624A690263CA6892
:1004D000426309698163A88AC00600D4FEE700BEB2
:1004E000688A094908404018001D6882F8BDC04666
:1004F00080E200E000330050800000507FFE0000EA
:1005000050F8FC0728ED00E0FC7F00007047000079
:1005100080B5E948006B002801D001F07DFF80BD67
:10052000B0B5174CE44DA1880F200840022806D032
:10053000042810D00C2811D00128F4D11FE0A88A7B
:10054000298B81420FD2A088C02101402046C029BA
:1005500012D0103011E001F0B1FFE4E701F0AEFF7E
:100560002088012105E020880221884320802088FE
:10057000802188432080D6E778300088D3E7B0BD5B
:100580000411005080B55FF70CF91948018809057E
:100590000CD518490A8805231340052B06D1088875
:1005A000042202430A80088801221EE00188C9064D
:1005B00006D511498A88D20702D00A88120610D4BB
:1005C0000088C0060CD50C488188890708D50188A9
:1005D000C90505D5022181800188084A0A400280A8
:1005E00080BD01208880088880229043088080BDDB
:1005F000040000500002005000010050FFFE000007
:10060000F8B50C20CF4F38560F4C254610352F34F7
:100610000028294600DA21467F2210400E1801F0FA
:1006200095FB39465431062230465CF7C1FE7B7A91
:10063000397A2846224662F7B9FA0448044900F09C
:100640008BF9B872F8BDC04668CDFC07B80B000046
:100650000106FC0770B5FD2042F7B5F801460F48CA
:100660000424082522462B465AF746FBB54E718CCA
:10067000491C71840122427002228280C18045801F
:100680005AF755FB20465AF77DFD032804D1642014
:10069000044900F061F9F08370BDC04606FD00001A
:1006A000F0CCFC075506FC0770B537480921042437
:1006B000182322465AF720FB05461B202870FD26EA
:1006C000304662F721FB0021A982E96029616C6054
:1006D0006E80687028465AF72AFB70BD1FB5144615
:1006E000002202920192069A00921A46234662F76D
:1006F000B7FD04B010BD0000B0B5F8484279144908
:10070000D4B20C236343CD5CFF2D0AD0012C02D15F
:1007100002224271F4E7521C4271C81840688047B7
:100720000EE08179F24ACCB21C236343D45CFF2CE7
:1007300008D0491C8171D318DB68002BF3D098478F
:100740000020B0BD0021417181710120B0BDC046C3
:10075000A42EFC0770B50C48092104240A23224664
:100760005AF7CAFA05461B2028701426304662F74D
:10077000CBFAFF21743129816C606E806870284645
:100780005AF7D5FA70BDC0461B0D00001FB51446C0
:1007900001220292044A0192069A00921A462346C6
:1007A00062F75EFD04B010BDD028FC07F8B5CB4D54
:1007B000686C00287BD14148092104222C235AF778
:1007C0009BFA04466864172020843D48208001205D
:1007D000A0760027678020460A3010215CF701FED2
:1007E000251D3848461D3849062230465CF704FE70
:1007F000002806D000BE0622284631465CF7D8FD08
:1008000040E0B64E4E36304600F076F906222846D5
:1008100031465CF7CDFD2D482D4DA8472D48A84702
:100820002D48A8472948A8472A4D284628498847DF
:100830002846274988477079284DA84728482449E1
:1008400088473079A8472648214DA847F0782349A2
:1008500088472348A847B078204DA84720481C491E
:1008600088477078A8472E461D48194DA8474E2046
:100870009A49085CB047174E3046A8473046A8470B
:100880003046A847954D6784E783A7832020E0760C
:100890007E211448415AFB2900D3FB21E1848021A9
:1008A000405A1149884200D308462085686C5AF79F
:1008B0003EFA00206864F8BDF0CCFC07040D00008F
:1008C000030A0000A433FC0794D4F1070532FC07A7
:1008D000C71FFC070232FC07A031FC07891FFC0779
:1008E000D832FC0774FBFC074808000070B57B4D4C
:1008F000E86B002800D070BD134809210422522360
:100900005AF7FAF90446E863072020720F48E0809E
:10091000A0800D2020800026A6721622E2720120FF
:10092000607220460C300A495CF742FD2B202654A9
:1009300020462B302C340C21064B224662F724F93A
:10094000E86B70BDF0CCFC070D0D00004C040000FE
:100950002833FC074033FC0770B5044600253848AF
:100960002A460A2A39D00368002B02D0001D521CE7
:10097000F7E70160551C1A490888000619480FD589
:10098000194B1B681B040BD4184B1B88DB0707D1C2
:10099000D1B24018C01C042122465AF7ECFC1CE0DE
:1009A000EFF31083012282F310880988090603D42B
:1009B0000F490E8816430E80002B02D082F3108858
:1009C00002E0002181F31088042108230A465AF727
:1009D00093F9446005705AF7AAF9E8B270BDC046B1
:1009E00008000050010400003000004018FAFC0725
:1009F00008330050F8B50446401E09281BD8A00053
:100A00000F494018071F3868002816D00D4DA8421E
:100A100013D00D482018401C042631465AF7F5FC27
:100A20003D6008230848314632465AF765F904709C
:100A30005AF77DF9F8BD00BEF8BD00BEF8BDC0464E
:100A400098CCFC07B924FC0702040000B0B50C46A2
:100A50000025202D04D041F752FF60556D1CF8E7AA
:100A60000020B0BDB0B5044609480A4D40222946D1
:100A70005CF79EFC48350848302229465CF798FC14
:100A80000648001B0649088014304880B0BDC046A7
:100A900070E0FC077C37F207B0E0FC07B8E0FFFF2E
:100AA00078E0FC0707481E214180018803220A43A1
:100AB0000280018804220A43028008480121017053
:100AC0007047C0460016005080B5034801680348CF
:100AD000401C5EF79DFB80BDF033FC07F0CCFC07AB
:100AE00070470000FD2801D0002070470048704783
:100AF0004829FC0770477047FEB5019000F010FBD5
:100B000002205FF7DBFF174841680291046800F09C
:100B1000FFFA00252F462E462E2D0FD00298214693
:100B20002A4662F7A5FD012108400FA14A5D002178
:100B30005CF782FC0E4307436D1CEDE70024019D2A
:100B4000302C08D038463146224662F791FD287095
:100B50006D1C0834F4E7019A5079C02101435171AA
:100B6000FEBDC046E42FF8071F171C09080E11161A
:100B70001407181D1E271B1506010400232A290A25
:100B800012250B22281A2D0F2C20210213242B03AF
:100B90000D051926100C000080B501F0A5FC80BDE4
:100BA00070211E4A515A01807047C04680B54E22BE
:100BB0001A498A5C0270401C4F315CF7F9FB80BD1A
:100BC0007D21C18000218180102141800821018088
:100BD000704780B561F7AEFF002801D001F084FCBA
:100BE00080BD000010B50C46017801290CD0002909
:100BF00010D142884E21094B5A544F33011DD2B2B5
:100C000018465CF7D5FB03E040887021034A505238
:100C1000002000E04820207010BDC04668CDFC07D1
:100C200000208880488001200870704780B55EF7FA
:100C300093FB80BDF8B56946C870020A8A70020C41
:100C40004A70000E087008465EF76EFB8FBD704755
:100C5000704770B505460469261D3068002805D028
:100C6000304641F71BFF59F7B4FFF6E70020286133
:100C7000204659F7AEFF70BD10B589B2431C002065
:100C800009280AD00C46C440E40704D09CB2641C76
:100C9000944203D09B1C401CF2E70920C0B210BD57
:100CA000F0B58BB01E4607920F460446109806908A
:100CB00000880890002101200246092913D003254D
:100CC0008540099020463446089ECE403B46012789
:100CD00037407E421F462E4032432646044609983E
:100CE000801C491CE9E70A92802030439E21014084
:100CF000A08A03911D4902910190002000901C4997
:100D00000AAA132338464EF70DFE0546002829D1BE
:100D10000897202701210591384659F7DFFE0996EB
:100D2000064639465CF75DFB266130461E301149A8
:100D30006160A0600898008830830598E0811420E5
:100D4000E082A08A70800998C00307990843308028
:100D5000069800887083301D41F798FEA08A002114
:100D60005AF7FBF928460BB0F0BDC046782DFC07BA
:100D70000A1800005C2EFC07004870477C2EFC0718
:100D8000FEB5019302920C46142060F7B7FE0546AB
:100D9000002800D100BE2778082F13D8698B288B34
:100DA0003A4600F0F7F800280ED060788D268028AB
:100DB00039D8082F0AD0072F0BD0062F0BD10828BF
:100DC00009D030E081262EE082262CE0072802D0D0
:100DD00029E0062827D32E1D35462D68002D0BD07F
:100DE0002979B942F9D100223046294641F7C6FE99
:100DF000284659F7EEFE60780830012159F76EFE5B
:100E00000546617808315CF7ECFA20782871607843
:100E10006871A81D6278A11C5CF7CAFA30462946A1
:100E200041F758FE0026064802230199029A59F715
:100E300063FF21780170467059F779FF0020FEBDED
:100E400001140000F8B514460D4610465AF79AF9F9
:100E5000012840D1142060F751FE0746002803D036
:100E6000798B388B3E7F06E000BE1A20018818205F
:100E700000881C221678324600F08CF80246787FF3
:100E80000002083029788E4213D117466A7881B261
:100E9000931D9D48224659F72FFF064600203071CA
:100EA000378068787080701D6A78A91C5CF780FABA
:100EB0000AE081B2944806231546224659F71CFFE2
:100EC0000646802030713580304659F730FF0021CA
:100ED00020465AF742F90020F8BDC046F8B51F4633
:100EE0000C460878082811D80725002100911AA679
:100EF000784400794000874419040F04060612154F
:100F000018001A4E12E00D25174E0FE000BE002605
:100F100001200090354609E00A2515A606E00825BF
:100F200018A603E006250EA600E014A6AB1C184880
:100F3000394659F7E1FE0746207838707D700098F1
:100F4000002804D1B81C31462A465CF731FA3846ED
:100F500059F7EDFE0020F8BD52656E6573617300B0
:100F6000FFEEDDCCBBAA0000B632FC07D032FC0796
:100F7000312E302E302E302D4C45000001D2008015
:100F800005000100123456FFFE9ABCDE000000008E
:100F900003140000B0B58BB2411C00200446092C9C
:100FA0000DD01D46E540ED0702D0A24202D0891CBB
:100FB000641CF4E7092A01D0481C00E0002080B23C
:100FC000B0BD000080B55AF7F7FB4BF76AF86748E9
:100FD0000121017180BDC04600BE704780B5002070
:100FE00048F72EFA61480421017160F709FB80BDC2
:100FF00080B5012048F724FA80BD80B54BF751F841
:10100000FFF750FD80BD80B548F766FA80BD00004F
:1010100080B5074801880122914301805AF7B0FB4F
:1010200041F70EFBFFF73EFD50480021017180BDE6
:1010300008330050FEB51F4615460E4610465AF7B7
:10104000A1F801280DD0002400285AD102971420BD
:1010500060F754FD07460028019604D0798B388B41
:1010600006E002244DE000BE1A2001881820008806
:101070003288FFF701FE064608281ED800943C1D62
:101080002468002C27D02079B042F9D16079831DE3
:101090001D4802992A4659F72FFE054601980088F7
:1010A000288000232B7160796880681D6279A11DFA
:1010B0001C465CF77DF928460AE01348062302998E
:1010C0002A4659F719FE019909880180802101718A
:1010D00059F72DFE15E03E770298010A79773846D8
:1010E00060F72AFD0146094801272A463B4659F781
:1010F00003FE067059F71BFE284639465AF72DF8AD
:10110000009C2046FEBDC046140C000002140000E6
:1011100080B51648C01C06495FF7B4FD80BDC046C7
:1011200080B51248C01C02495FF700FD80BDC04673
:101130002834FC0770B5184EB06800F02FF80B4942
:101140008A6B00238B631518094C284621465CF7EF
:10115000B5F8706107494143481901D0201A80B29F
:101160003061306808210143316070BDF0CCFC076C
:10117000710200008FFDFFFF80B50648002101606D
:1011800001F014F90120C00703490A6882430A608C
:1011900080BDC0469CF9FC073000004080B5024687
:1011A000C00B09D00E48406800210B465CF7B0F830
:1011B0008905800A401880BD094840684243900A6A
:1011C00080BDC04680B5FFF7E9FF80BD80B504490A
:1011D000096841430348081803495CF76FF880BD6C
:1011E00068CDFC0720A1070040420F0010B506485B
:1011F00000243E224223214659F77EFD44700821F7
:1012000001704CF7FBFD10BD0408000000B5A7B04D
:10121000C649C8201590088000264E80C44808237F
:1012200003801B96C34C1B98002812DC00202490DE
:10123000249A1B990B2A09DC30224A43A118249ACC
:10124000920088502499491C2491F1E7481C1B9076
:10125000E9E70F936168B84D6B6EF243002900D047
:101260001346286E6B66012300291D4600D01546E3
:101270006560002901D0D94300E002210F9FAE4AEA
:1012800001431166A069002805D1606A002802D1D7
:10129000E06A002800D000BE566616661B961B98B2
:1012A000002836DC0020249024980B282DDC24987C
:1012B0001B990B2829D830201B9941436118249A87
:1012C00092008958491C00D100BE1B994143611806
:1012D000249A92008958002914D01B994843201859
:1012E000249989004058C117249A5CF7A5F81B9AE5
:1012F00012015CF7A1F8904B5A6E0A43196E5A66B8
:10130000014319662498401CCDE71B98401C1B9094
:10131000C5E78A48008824AC20802088C046C046A3
:10132000208804211891C943084202D083480680CE
:1013300004E0824A9089012188439081804D288869
:10134000384328800127380212902C305EF70EFABD
:10135000688880211191084368800F24A102774892
:10136000828B0A438283E98D06239943E985B90379
:10137000828B0A4382832988724A0A402A806988BC
:10138000179319430F988143698005210991090733
:1013900019914A8D6C4BFF33E98D19407D23DB0099
:1013A0002403D005169708930A941DD518461830C3
:1013B0000143E985E88D65490140F8030818E8858F
:1013C0005E4A908B0F9908439083908B18998843BD
:1013D0009083E88DB843E885908B40210143918349
:1013E000554D1146199B22E0032042021143E98525
:1013F000E98D2143E985514B998B0F9A914399834C
:10140000998B0422914399836988514A0A406A80E2
:101410006988504A0A40C00210186880E88D384335
:10142000E885454D1946199B588D4007FCD5888B9A
:101430000322109210438883414A108820210E9184
:101440000843402188431080188F022420431887C6
:101450004148189901809888404901409980169F19
:101460006F7038043E4908601D46FFF759FE13941B
:1014700020465FF723FB3B480068C1B20C20AA2935
:10148000014600D018992A88824388182880C046CF
:10149000C046294A1046483033490988818033487C
:1014A000006890643846C046C0468825304F7E5359
:1014B0001BAC30A1242220465BF77AFF3649384620
:1014C000324623463C465DF7D1FF785DC10701D027
:1014D00000BE605D400860558920215CCA07214F2D
:1014E00001D000BE215C490821548420215A0029E2
:1014F000114B01D1089921528621605A00284ED102
:10150000FF2002023868104035221202904209D0B2
:101510000D229202904203D03322120290423DD11A
:10152000942000E09020605239E0C0460031005025
:1015300002330050C0CCFC07F0CCFC070403005081
:1015400052000050FFBF000000F0FFFFFF0F00003F
:10155000FFF90000FFC7000000020050FFF7000085
:1015600080E200E0D02FF807D82FF807D42FF80733
:10157000C0CBFC07891EFC075D1EFC07091EFC078B
:1015800000000000351EFC07000000000000000005
:10159000D02EF807C02FF807A000FC0700205883C2
:1015A0001C465DF74DFE7F20A070B869D349886066
:1015B000FFF7AEFDD249888850220D921043AF222A
:1015C0000C9290438880CF480068CF498842099B9D
:1015D00000D08EE0CD48CE491E465BF702FF0725BE
:1015E0002902CC485BF7FDFEFEF75CFECA48CB49FA
:1015F0000160CB48CB4930225BF7DAFECA480027AE
:10160000C771877147710771C770877047703F2135
:1016100007910170C548C6A140220B925BF7C8FE36
:10162000D348C771877110994171FF210171C17051
:10163000817041700170CF480770CF48CF49016079
:10164000CF48D0490160D049D0480860D0480A212D
:101650000170D0480770D0480660D04816990160E4
:10166000CF480660CF4817990160CF480560CF4842
:101670000F990160129EB01DCD490860CD490860E8
:10168000CD4CA248206000F00BFC5DF707FD5DF734
:101690004BFD0A99FF31199AD08C08406902014329
:1016A000D1845DF75DFD974800689749884214979B
:1016B0003BD02068C1498860904A90681071010E43
:1016C000D171010C9171000A50713046C030BC4F8D
:1016D0003A46002817D0401EC35D15782C46109955
:1016E0000C4086490C1924795C406C401470521CE3
:1016F000EFE7B448B2495A02964200D96AE7325835
:101700007250361DF7E77D4C2034AD491C2220462F
:101710005EF7CAFB002800D000BE20465DF704FE3D
:10172000784879490160149FA34C206840F792FDE6
:10173000A5480771C770169DAC072068304320602C
:10174000FFF7B0F9284600F047FC4E209F490C22D5
:101750000A549D48C7709E4807709E4DAF66EF665D
:101760002F670D4608464F309B495BF721FE284600
:101770004E30478404259949284659F7BCFC1895F2
:101780002846394659F7E9FC924908465430878083
:1017900093484865CF718D481030924916252A46E6
:1017A0005BF706FE8B48058161F7DAFA8648C77059
:1017B00087480770FFF7E0FC15988B4908808B4835
:1017C0000F990180169948020290079880020190B3
:1017D000CD034A480C301790854886490818864939
:1017E00040188008401E0A90199B1889000600D4F2
:1017F00043E1206B284200D03FE173480088C007D6
:1018000000D03AE159F755FF0027384600F0E4FBD5
:1018100070480079042800D02FE1169800F0DCFB16
:1018200009971A971AA804214AF792FD0028694AD5
:1018300000D122E116987149086008680028FCD19F
:10184000E069916A884201D209999162411AC909F5
:10185000192900D211E19062294908880790488827
:10186000069088880590C888049009982590644857
:1018700024901BA9039163A00990099F0DCF0DC16E
:101880007C20634A105A0009039B18711B4FB91C36
:1018900024A85FF7F9FA08981730194A118901400E
:1018A0004C4BD9815189014019821089019F3840E0
:1018B00002990843108150893840084350815FF7EE
:1018C000D7FB09900D494988424AD2890C480389BF
:1018D0003B40134303813F4A128A43893B401343F1
:1018E0004381089A0998401A11464143002800DDB7
:1018F00092E0484A8918C01708408FE0F833FC0787
:10190000001500509CF8FC076587341200E0FC07C6
:10191000AC14000000F9FC0724FAFC078C2EFC072D
:10192000C8F9FC075CDEF107A4F9FC073CFCFC07E6
:101930002000800000C000000000040000002822F9
:10194000000000000000040000F7FFFF7F0000001F
:1019500030F0070800000000000400000000000054
:101960000000000000000000000000000000000077
:10197000ACF9FC07C5F9FC0750F9FC07E036F207A3
:1019800054F9FC070C30FC0758F9FC07F42EFC074F
:10199000A1F9FC07A2F9FC075CF9FC0760F9FC0758
:1019A00064F9FC0768F9FC076CF9FC0770F9FC079F
:1019B00048F9FC0744F9FC074CF9FC070002004019
:1019C000DCCDFC0700F0FC0718FAFC0768CDFC072B
:1019D00078FAFC07F0CCFC074033FC07C028FC0772
:1019E00005FFCDAB2833FC07003100500233005017
:1019F000E43200001001FC07030004F8FC00004082
:101A0000010400005BB0050200000000320000008D
:101A1000C0CBFC0782FBFFFF50189630C2495BF732
:101A200063FC87091937F64A90787F281BD0381A4B
:101A300041B2C9114840401A40B2082814DBD06AAC
:101A4000401CD0625FF7C6FD00F092F900F0AEFBDB
:101A50005FF7FEFD5FF784FDAB4870305FF72AFE4D
:101A60005FF7CEFDE64A9770A64806994180059932
:101A700081800499C18007990180EFF3108072B6CC
:101A800024A9149A0A70A34800790228104602D0AB
:101A90009E480068806A1B901798A44A5FF780FBF5
:101AA000002879D1A248806A002803D097480068AE
:101AB000806A1B9000F07AFC1BA917985FF7A6FBC1
:101AC000002869D101205DF777FE1B9A002A08D013
:101AD000206A98494018DA28C94804D8521E1B9237
:101AE00001E00022C648808B854F3969081878616B
:101AF0008C487E30E36B03400B43E363E06B8E491D
:101B00000840B96989020143E16324A8189901706A
:101B1000E06B8A490840796949050818E0638848FC
:101B2000824200D300BE7C498868C96800235BF705
:101B3000EFFB0903000D4118B869821C8A4200D0EE
:101B4000481E744909794A1E914147F735FE7D4880
:101B5000C06A8047206B2842FCD06D4F3868304205
:101B6000FCD038681199884338606248008945285C
:101B700005D846215F4A1181081AF049886340F769
:101B8000A4FBB868ED49486338680006FCD5199A8B
:101B900010891199884310816048007801281398B2
:101BA00000D0109824A90978042900D00846811E85
:101BB0000229199B2FD2198A189A114319820228D7
:101BC0002DD003284D4950D155490868189A104323
:101BD000086049490889169EB0430881588A102731
:101BE00038435882588A10435882FFF799FA199B54
:101BF000588A384358820A9853490860EFF3108096
:101C000086F310881988119A91431980002816D0FC
:101C100086F3108816E0012865D130BF63E0404AA2
:101C2000106818990843106033490889169A904340
:101C30000881588A102188435882304913E00020D7
:101C400080F310882D49129E588D30420BD0002011
:101C5000EC49C8700B205DF7E1FD199B2749C88D41
:101C6000169A1043C88500201883588D304208D139
:101C70008888169A104388800888602188431F4905
:101C80000880988C169EB04398840D205DF76EFDF9
:101C9000199A50893043022188435081908AC006A6
:101CA00003D51448801E0F99018030BF908AC0066A
:101CB00002D510480F990180104908880E9A1043E8
:101CC0000B9A9043088000F0EBF80E4988880D9A33
:101CD00010430C9A90438880114A106818998843E1
:101CE0001060129E199B62B61598014908807CE528
:101CF00000310050023300500403005052000050E5
:101D0000F833FC070015005000E0FC0758F9FC0709
:101D10000002004018FAFC0768CDFC0778FAFC07BF
:101D200010ED00E082FBFFFFFC080000C90AFC0781
:101D300000FEFC07C8FEFFFFFF03E0FFFFFF1F00E0
:101D400040420F00E4FEFC072000F407AD480146C6
:101D500054318A88521C0A71130A4B7191B2034A9A
:101D6000914202D15821002242527047FFFF0000E9
:101D700010B5D64C2078401C20700D490968C3B2BC
:101D8000464800225DF7C4FC2078401E207010BD3C
:101D900010B5CE4C2078401C2070C3B23F48044997
:101DA00000225DF781FC2078401E207010BDC046E7
:101DB0002C34FC07B0B5934CE17A002900D000BE6A
:101DC00088002518286C4035002813D109020A31F3
:101DD0000C4804220E2358F78FFF09210170286058
:101DE000102181800021818141817D220281C18079
:101DF0000821418058F79BFF0020E0712860B0BDAA
:101E0000F0CCFC070E0E000070B50C461D481118F2
:101E10008925224E705DC00030183030A2005BF77B
:101E2000C7FA705D00197055C0B20D2800D300BE0E
:101E300070BDC0461348115809234B431058000C7D
:101E40001A1A1204D214154B60331A8489B2401A3C
:101E50000104890C0818401CD883704770B50C46E3
:101E60000848111888250D4E705DC0003018A2007A
:101E70005BF79EFA705D00197055C0B20D2800D353
:101E800000BE70BDD42EF8078800101802494058D3
:101E90007C21024A50527047D02EF807C0CBFC0775
:101EA000F8B5584FFA781B2025495DF70FFD2548F6
:101EB000002505601D21012420462246FEF767FA11
:101EC0002148018821430180204E30465EF7ACFB5B
:101ED0001F480188B18980221143B1811D490B231C
:101EE0000B8008213180B580B1899143B1810321F4
:101EF000B1818483058485840520042631462A46E1
:101F0000FEF745FA14480168A1430160FF21090664
:101F100042680A40114BD218426082680A408260CF
:101F2000016802220A4302600168B14301600C4962
:101F30003963016821430160F8BDC046F0CCFC075D
:101F40002834FC07000008400C030050001100502A
:101F50007C110050C011005010E000E03F0D030064
:101F60001924FC070549884200D000BE04480188B6
:101F7000044A11408918091D01807047111111117F
:101F800012000050FC7F0000FEB5044640093027D7
:101F900037210528384600D3084601912109401809
:101FA00002AD287001262846314600F08FFA0F2036
:101FB00020400A2800D3019F38182870284631464F
:101FC00000F084FAFEBD10B50446FEF777F981B241
:101FD000204600F07BFA10BD80B50A490A78012A34
:101FE0000ED1094A002803D010884007FCD402E033
:101FF0001088400704D40020087004485DF7CAF830
:1020000080BDC046F0CCFC070016005068CDFC0730
:1020100070470000F0B58BB03022002181541F22A0
:102020001204204B1C6894430122550464191C605F
:102030001E4C1F4D45611F4D1F4E204F204BC3614D
:1020400006624462184B8362C5621E4B07604360A0
:10205000D004544A136883431360282903D001A88D
:102060004154491CF9E718480068403001A928226A
:102070005BF79EF9C048082101705FF7ABFAFFF7E4
:1020800087FEFFF775FE00F091F85FF7E1FA5FF762
:10209000F3FA5FF765FA24485FF72CFB5FF7B0FAB5
:1020A0000BB0F0BD74000040D520FC07D120FC0728
:1020B0005521FC073516F2070D05FC072D21FC07FD
:1020C0002F21FC071120FC074CF9FC074CCCFC0726
:1020D000002070477047000080B51F2000040121D8
:1020E0008A07536F83434804181850671068072104
:1020F000884310600B48018808220A4302805FF77A
:1021000069FAFFF745FEFFF733FE00F04FF85FF77F
:102110009FFA5FF7B1FA04485FF7DCFA5FF770FAED
:1021200080BDC0460800005070E0FC07704780B5D5
:10213000E62800D3E620282800D82820FF22EC3209
:1021400042437D20C10010465BF7B8F87E38C0B22C
:1021500080BD0000022902D0012900D000BE002865
:1021600002D0FF2804D000BE022901D10C20704704
:10217000814800787047C04680B50A480168C907A1
:1021800003D0016802220A4302600168490204D5B3
:102190000121890502680A43026003485EF7E8FFEF
:1021A00080BDC04600020040F028FC07FCB57F203F
:1021B00000025E494A6982430B2000021018486100
:1021C000086880B25A4A801808608869594A0240F3
:1021D0008A610320019000020A6B02430A63888F20
:1021E000102202438A878888012200921043888047
:1021F0005148524901605249088810430880514EA5
:1022000030461038504DA98B014015204401081963
:102210005030A88368694D4901404D4808186861ED
:10222000A8694C490140092040020818A8612868A3
:1022300049490140494808182860686848490140F0
:10224000484808186860A868474901404748081886
:10225000A860E8684649014046480818E860C1207F
:1022600040014549097809060818444908600520D5
:102270008102434A11804F1D9780178C55203843A7
:10228000AA27B8431084FF276C373846C930108519
:102290003C4B18460E3090853B4810869386C01DF7
:1022A00010870A312985A86B384901403848081839
:1022B000A86338480780028F3240214620315218E7
:1022C0000287354D2A883240D219D5322A80AA8811
:1022D00032401219AA802A89324051182981394680
:1022E000213181802D4801883140091960310180F8
:1022F000818A19220A4306218A43828207841F4A5F
:10230000908F2749014000984003081890870C4A95
:10231000106C01990843042188431064506A2149D4
:102320000140214808185062FCBDC04620300040E2
:1023300000006666FF00FEFF8000004059055C0754
:10234000401000401FFCFFFF042000400000E0FFA1
:1023500009601A00FEE1FFFFE0E0000008092949DA
:1023600000000303696A686C031FFFFF70600000D0
:10237000E0E0E0E00B0A0A084CCCFC07001000404B
:1023800028130040260A0000510800002304E0FE44
:10239000181A060100120040441200408812004042
:1023A000FF9F000000FE00FE50015001F8B58420A0
:1023B00014490E5A74480768304678431249401849
:1023C000124D29465AF77AFF0446E64884833C3684
:1023D0007E430D48301829465AF770FF001D2F49DB
:1023E00008612018C01D8861094A1278022A01D1AB
:1023F00011308861FEF7D2FE0649401880B259F7C5
:10240000E9F9F8BDC0CBFC0720A1070040420F004E
:1024100078FAFC07E2040000F8B5204AD06941428E
:102420004141D16110780A2835D1002010701C4D2F
:102430001C4F2846B8471C4C2046B8471B48B84795
:102440002846B8472046B8472046B847DB4E4E36A8
:102450007079174CA047174D2846B8473079A047E8
:102460002846B847F078A0472846B847B078A04734
:102470002846B8477078A0472846B8474E20CF492D
:10248000085CA047084C2046B8472046B84720467D
:10249000B847024A1078401C1070F8BDF833FC07AA
:1024A0000532FC07C71FFC070232FC07A031FC07FE
:1024B000891FFC07D832FC077047000002480188DA
:1024C00001229143018070470411005080B50A46F3
:1024D0000146BA4882820023038302485EF7FAF875
:1024E00080BDC04600110050F8B525482549FEF7CB
:1024F00033FAB24EB072FEF7F9F90446C57A162DDA
:102500000AD860190C303146543106225AF750FF70
:10251000AA1DE272357317E02B20275C192F11D802
:1025200020462B300090E0192C30314654310622E1
:102530005AF73EFFB81D0099087080203843307369
:102540002A4601E000BEE27A32720F4D2846103072
:1025500021460C315AF72CFF2B20225C72722F354A
:102560002C34284621465AF723FFFEF7BFF958F7C7
:10257000DEFB0020F0630420022158F7EEFDF8BDD9
:10258000B80B00000106FC0768CDFC0780B54428A5
:1025900001D1FFF7A9FF80BDF8B504460C206043C8
:1025A000864F3E186A20305C6A36FF2816D00D46EA
:1025B000FC72B87AFEF71EFA6888082807D310283C
:1025C00005D8A888002802D1E8887D2808D07D2079
:1025D000C0000E49FEF7C0F9F87101E0FFF784FF73
:1025E0003078FF280ED00025094E1C206843315C4E
:1025F000FF2909D030180169002901D020468847F9
:102600006D1CF2E7FFF770FFF8BDC046B51DFC0773
:102610004829FC0710B5694CE079002803D0FEF783
:10262000E9F90020E071FFF791FBFFF75DFF10BDB6
:102630007CB50C464649884220D04649884226D07F
:102640004549884246D04549884275D16088182856
:1026500057D0142855D002286ED101AE0025357010
:10266000A288A11D30465AF7A3FE3078002864D016
:1026700064203F49FEF770F9054665E03B480225B6
:1026800019462B4658F738FBA188018052E0608834
:10269000354D2E283AD1494EB08C401CB084FD20D7
:1026A00040F791F8014604220A23284658F724FBF4
:1026B00021780C224A43B1186A22895C0170618832
:1026C00041800221818000218171B18CC171090A90
:1026D00001722FE066882248082519462B4658F7D4
:1026E0000BFB002181806288428022780C235343B7
:1026F000324AD2186A23D25C0270172E19D00321F5
:1027000017E0A079194600F035F87CBD0826284668
:102710001946334658F7F0FA21780C224A432749E4
:1027200089186A22895C017061884180002181805A
:102730008021817158F7FBFA7CBD2048C08B0028AE
:10274000FAD0C0B2FEF756F91C48C5837CBDC0461E
:102750000D0C000004FD00000DFD00000AFD00004E
:102760000EFD0000F0CCFC0705FD00000E0C000083
:102770005506FC0710B500061CD00C46FD2040F79E
:1027800022F801460C480422082358F7B5FA022122
:10279000818013214180210A0C224A4307498A186B
:1027A0006A23D25C02700A8C53BAC380521C0A841A
:1027B00058F7BDFA10BDC04608FD0000F0CCFC077C
:1027C00002E008C8121F08C1002AFAD170477047FA
:1027D000002001E001C1121F002AFBD17047000058
:1027E00080B502485CF778F980BDC046A000FC07C0
:1027F00017B967984C664C01963331B19159001561
:102800002368EC521E6244749A1BD18BAB75B66E72
:102810009EE7BA08B9A948ABA1AC031C2E0D296CE0
:1028200020EE8D0CE1F04A0CB325DC536A68862D4E
:1028300028D5E1C1E1C54729B55765C3BA47159EFB
:102840004F43313C939242E6A876FA3BEFB4875A65
:102850008C09E0D1815442408E4FD2B377E32A777E
:1028600020EE8D0CE1F04A0CB325DC536A68862C0F
:102870004F43313C939242E6A876FA3BEFB4875936
:1028800017B967984C664C01963331B191590014D1
:102890002368EC521E6244749A1BD18BAB75B66DE3
:1028A00028D5E1C1E1C54729B55765C3BA47159D8C
:1028B000F3D81C4511964D1213FED63BCC316C6EED
:1028C00000000000983BF20780CCFC0704000100E8
:1028D00002140000DD0EFC07FD31F2078D07FC0736
:1028E000DD06FC07F8000000032800280229012962
:1028F00080000000FB0FFC07020000000710FC072F
:1029000008000000DD0FFC0700010000F10FFC07CC
:102910000002000075C1F007400000003794F00786
:1029200010000000C97BF007040000001110FC0734
:1029300001000000C50FFC0720000000D90FFC07B4
:102940000000000000000000FD0000008029FC07DE
:1029500030000000A906FC07000000000000000095
:1029600000000000FF000000000000000000000068
:102970000000000000000000000000000000000057
:10298000EA28FC0710000000010000001000100001
:10299000452DFC07E828FC070200000001000000AC
:1029A00000000000000000002028FC0710000000CC
:1029B000080002000100000000000000EE28FC07F3
:1029C00002000000010000000D000D001A33FC079A
:1029D000E828FC07020000000100000000000000E1
:1029E000000000004028FC071000000008800000E4
:1029F0000180000000000000EE28FC07020000003B
:102A00000100000009000900F832FC07E828FC0773
:102A100002000000010000000000000000000000B3
:102A2000F027FC0710000000010200000200000077
:102A300000000000EC28FC07020000000900020072
:102A40000200000000000000EE28FC070200000069
:102A5000010000000B000B00AA32FC07E828FC076D
:102A60000200000001000000000000000000000063
:102A70000028FC0710000000010000000200000018
:102A800000000000EE28FC0702000000010000002A
:102A90000B000B00C432FC07E828FC070200000012
:102AA0000100000000000000000000001028FC07EA
:102AB0001000000001020000010000000000000002
:102AC000EC28FC07020000000900020002000000E0
:102AD00000000000EE28FC070200000001000000DA
:102AE0000C000C000233FC07E828FC070200000081
:102AF0000100000000000000000000003028FC077A
:102B00001000000041000000140000000000000060
:102B1000EC28FC070200000009000200020000008F
:102B200000000000EE28FC07020000000100000089
:102B30000C000C00DA32FC07E828FC070200000059
:102B40000100000000000000000000005028FC0709
:102B50001000000009020200320000000000000026
:102B6000EC28FC070200000009000200020000003F
:102B700000000000EE28FC07020000000100000039
:102B80000A000A000F33FC07EA28FC0710000000C7
:102B90000100000010001000552DFC07E828FC077C
:102BA0000200000001000000000000000000000022
:102BB0006028FC07100000000800020001800000EF
:102BC00000000000EE28FC070200000001000000E9
:102BD00008000800EF32FC07E828FC0702000000AC
:102BE0000100000000000000000000007028FC0749
:102BF000100000000880000001000000000000003C
:102C0000EE28FC0702000000010000001100110086
:102C10008732FC07EA28FC071000000001000000D2
:102C200010001000652DFC07E828FC0702000000DA
:102C30000100000000000000000000008028FC07E8
:102C4000100000000102000002000000000000006F
:102C5000EC28FC070200000009000200020000004E
:102C600000000000EE28FC07020000000100000048
:102C7000100010009932FC07E828FC070200000051
:102C80000100000000000000000000009028FC0788
:102C90001000000001000000020000000000000021
:102CA000EE28FC07020000000100000007000700FA
:102CB000E732FC07E828FC070200000001000000E2
:102CC0000000000000000000A028FC071000000029
:102CD000410000000200000000000000EC28FC079A
:102CE00002000000090002000200000000000000D5
:102CF000EE28FC0702000000010000001200120094
:102D00007432FC07E828FC07020000000100000004
:102D10000000000000000000B028FC0710000000C8
:102D2000010000000280000000000000EE28FC0707
:102D300002000000010000000C000C006732FC07DC
:102D4000001A213003595A08E4862A9E8FE911BCE3
:102D50007C98434218595A08E4862A9E8FE911BC90
:102D60007C7C464218595A08E4862A9E08E911BC20
:102D70007CD047421800000000280000010000003D
:102D80000000000003280000010000000200000015
:102D9000292A0000010000008080000003280000B4
:102DA0000100000004000000242A000001000000CF
:102DB00080800000032800000100000006000000E1
:102DC000252A000001000000808000000328000088
:102DD0000100000008000000272A00000100000098
:102DE0008080000003280000010000000A000000AD
:102DF000262A000001000000808000000328000057
:102E0000010000000C000000282A00000100000062
:102E10008080000003280000010000000E00000078
:102E2000232A0000010000000880000003280000A1
:102E300001000000100000002A2A0000010000002C
:102E400008800000032800000100000012000000BC
:102E5000502A00000100000007800000642EFC07DB
:102E60000300000000140000810DFC07130C00009B
:102E70003510FC0703140000450EFC07A10CFC07ED
:102E8000530CFC07510CFC074F0CFC070000000022
:102E900000000000F4016B6064656368D0070640C1
:102EA00064320000140000005507FC070000000019
:102EB000FF000000000000000000000014000000FF
:102EC000790DFC07FD0000003D1EF207FF00000029
:102ED00000000000AD07FC07F906FC075033FC07B3
:102EE0003126FC07D828FC0758CDFC07000000005D
:102EF00081CCFC0705000000303BFC07000400000B
:102F0000E8D1FC07B0020000DCCDFC0700040000A3
:102F1000A4D4FC07700500002003000000A60E00EA
:102F200004000000D2000000320000003C0000005D
:102F3000010000000100000002000000020000008B
:102F40000400000003000000060000000000000074
:102F5000020000000200000000000000000000006D
:102F60000300000003000000050000000500000051
:102F7000060000000A0000000A000000C80000006F
:102F8000B80B000002000000B80B0000B80B0000F6
:102F900010000000D4010000CC010000700200000D
:102FA0006A00000004000000010000002000000092
:102FB0000C00000001000000E20400008A02000092
:102FC000DC050000AF0000008C31FC07EC2FFC0793
:102FD000FC2FFC079431FC07D42EFC0700000000F6
:102FE00000000000000000005E010000A8F8FC07DF
:102FF000A0F8FC07B8F8FC07F8F8FC07402DFC0720
:10300000442DFC078029FC07E50AFC071520FC0776
:10301000D920FC07A7C6F00703C7F0070BC7F007C6
:103020005FC7F00777C7F0078DC7F007AFC7F00796
:1030300031CBF007D5CDF00715CCF00735CCF00734
:1030400055CCF00793CCF007A3CCF0070DE2F007C6
:10305000C9DFF007E7DFF00703E0F0071DE0F00746
:1030600031E0F007AFE0F007C7E0F007E3B0F107A9
:103070006BB3F10707A9F007B5EFF10799F0F10776
:1030800095F0F10791F0F1078D21F007651FFC071E
:103090003511FC077911FC07CD11FC07C511FC07A0
:1030A000057DF007D37BF007737CF007AD82F10755
:1030B0004134F1075D19F207DD19F207811AF207B1
:1030C000BD1AF2074D1BF207851BF2070000000036
:1030D000F50AFC07F70AFC077DB3F007D976F1077C
:1030E000617DF107B181F1079780F107C549F107CB
:1030F0009759F107F10AF107A1ECF007E10AFC0783
:103100007501FC07DDBAF007ED11FC0799AAF0077D
:1031100049ABF007E72DF007A32EF007657FF00716
:103120002F7EF0070136F007000000002D0CFC0791
:10313000350CFC074D0AFC0701A7F10783A7F1072F
:1031400007A8F107650AFC07B5B7F0070000000003
:10315000000000000000000000000000000000006F
:10316000000000000000000000000000000000005F
:10317000000000000000000000000000000000004F
:10318000000000000000000000000000942EFC077A
:1031900038CDFC07BC2EFC0750CCFC070200000019
:1031A000205468697320697320796F757220556E99
:1031B00069717565205374617469632052616E642E
:1031C0006F6D204164647265737320466F7220795D
:1031D0006F75722044657669636520656D6265640C
:1031E00020696E20746865204441313435333320C2
:1031F000446576656C6F706D656E74204B49542024
:103200003A200A0D002323232323232323232323CC
:10321000232323232323232323232323232323237E
:10322000232323232323232323232323232323236E
:10323000232323232323232323232323232323235E
:10324000232323232323232323232323232323234E
:10325000232323232323232323232323232323233E
:103260002323232323230052656164206D652028D6
:103270005249290052656164206D652028696E6499
:10328000696361746529005772697465206D6520F2
:10329000286E6F20727370290052656164206D651D
:1032A00020286E6F74696679290041444320566175
:1032B0006C7565203100765F362E302E32322E311D
:1032C000343031004144432056616C756520320032
:1032D00044413134353335003A00496E64696361E5
:1032E000746561626C650052656164206D650057AC
:1032F00072697465206D65004C4544205374617497
:103300006500427574746F6E205374617465004C6F
:103310006F6E672056616C756500436F6E74726FD7
:103320006C20506F696E740003030A181107595A14
:1033300008E4862A9E8FE911BC7C9843421800005D
:1033400052656E657361732D505250480000000045
:103350009925FC071526FC0700000000000000006E
:10336000D30BFC07000000008D25FC0700000000C7
:10337000990BFC07000000000000000000000000A6
:10338000AD0BFC07A10BFC07C10BFC07E50BFC0711
:1033900000000000210CFC07F90AFC0700000000F7
:1033A000000000000A0017000100000000000000FB
:1033B000983A000102030405060708090A0B0C0DE0
:1033C0000E0F2000000000000000FB004808000075
:1033D000F433FC07F833FC0738070000D027FC075C
:1033E000C0CBFC07C0CBFC071C020000D027FC07A9
:0433F000E0010000F8
:0400000507FC0111E2
:00000001FF
